{
  "contractName": "BasicFeeHandler",
  "abi": [
    {
      "inputs": [
        {
          "internalType": "address",
          "name": "bridgeAddress",
          "type": "address"
        }
      ],
      "stateMutability": "nonpayable",
      "type": "constructor"
    },
    {
      "anonymous": false,
      "inputs": [
        {
          "indexed": false,
          "internalType": "uint256",
          "name": "newFee",
          "type": "uint256"
        }
      ],
      "name": "FeeChanged",
      "type": "event"
    },
    {
      "anonymous": false,
      "inputs": [
        {
          "indexed": false,
          "internalType": "address",
          "name": "sender",
          "type": "address"
        },
        {
          "indexed": false,
          "internalType": "uint8",
          "name": "fromDomainID",
          "type": "uint8"
        },
        {
          "indexed": false,
          "internalType": "uint8",
          "name": "destinationDomainID",
          "type": "uint8"
        },
        {
          "indexed": false,
          "internalType": "bytes32",
          "name": "resourceID",
          "type": "bytes32"
        },
        {
          "indexed": false,
          "internalType": "uint256",
          "name": "fee",
          "type": "uint256"
        },
        {
          "indexed": false,
          "internalType": "address",
          "name": "tokenAddress",
          "type": "address"
        }
      ],
      "name": "FeeCollected",
      "type": "event"
    },
    {
      "anonymous": false,
      "inputs": [
        {
          "indexed": false,
          "internalType": "address",
          "name": "tokenAddress",
          "type": "address"
        },
        {
          "indexed": false,
          "internalType": "address",
          "name": "recipient",
          "type": "address"
        },
        {
          "indexed": false,
          "internalType": "uint256",
          "name": "amount",
          "type": "uint256"
        }
      ],
      "name": "FeeDistributed",
      "type": "event"
    },
    {
      "anonymous": false,
      "inputs": [
        {
          "indexed": true,
          "internalType": "bytes32",
          "name": "role",
          "type": "bytes32"
        },
        {
          "indexed": true,
          "internalType": "address",
          "name": "account",
          "type": "address"
        },
        {
          "indexed": true,
          "internalType": "address",
          "name": "sender",
          "type": "address"
        }
      ],
      "name": "RoleGranted",
      "type": "event"
    },
    {
      "anonymous": false,
      "inputs": [
        {
          "indexed": true,
          "internalType": "bytes32",
          "name": "role",
          "type": "bytes32"
        },
        {
          "indexed": true,
          "internalType": "address",
          "name": "account",
          "type": "address"
        },
        {
          "indexed": true,
          "internalType": "address",
          "name": "sender",
          "type": "address"
        }
      ],
      "name": "RoleRevoked",
      "type": "event"
    },
    {
      "inputs": [],
      "name": "DEFAULT_ADMIN_ROLE",
      "outputs": [
        {
          "internalType": "bytes32",
          "name": "",
          "type": "bytes32"
        }
      ],
      "stateMutability": "view",
      "type": "function"
    },
    {
      "inputs": [],
      "name": "_bridgeAddress",
      "outputs": [
        {
          "internalType": "address",
          "name": "",
          "type": "address"
        }
      ],
      "stateMutability": "view",
      "type": "function"
    },
    {
      "inputs": [],
      "name": "_fee",
      "outputs": [
        {
          "internalType": "uint256",
          "name": "",
          "type": "uint256"
        }
      ],
      "stateMutability": "view",
      "type": "function"
    },
    {
      "inputs": [
        {
          "internalType": "bytes32",
          "name": "role",
          "type": "bytes32"
        }
      ],
      "name": "getRoleAdmin",
      "outputs": [
        {
          "internalType": "bytes32",
          "name": "",
          "type": "bytes32"
        }
      ],
      "stateMutability": "view",
      "type": "function"
    },
    {
      "inputs": [
        {
          "internalType": "bytes32",
          "name": "role",
          "type": "bytes32"
        },
        {
          "internalType": "uint256",
          "name": "index",
          "type": "uint256"
        }
      ],
      "name": "getRoleMember",
      "outputs": [
        {
          "internalType": "address",
          "name": "",
          "type": "address"
        }
      ],
      "stateMutability": "view",
      "type": "function"
    },
    {
      "inputs": [
        {
          "internalType": "bytes32",
          "name": "role",
          "type": "bytes32"
        }
      ],
      "name": "getRoleMemberCount",
      "outputs": [
        {
          "internalType": "uint256",
          "name": "",
          "type": "uint256"
        }
      ],
      "stateMutability": "view",
      "type": "function"
    },
    {
      "inputs": [
        {
          "internalType": "bytes32",
          "name": "role",
          "type": "bytes32"
        },
        {
          "internalType": "address",
          "name": "account",
          "type": "address"
        }
      ],
      "name": "getRoleMemberIndex",
      "outputs": [
        {
          "internalType": "uint256",
          "name": "",
          "type": "uint256"
        }
      ],
      "stateMutability": "view",
      "type": "function"
    },
    {
      "inputs": [
        {
          "internalType": "bytes32",
          "name": "role",
          "type": "bytes32"
        },
        {
          "internalType": "address",
          "name": "account",
          "type": "address"
        }
      ],
      "name": "grantRole",
      "outputs": [],
      "stateMutability": "nonpayable",
      "type": "function"
    },
    {
      "inputs": [
        {
          "internalType": "bytes32",
          "name": "role",
          "type": "bytes32"
        },
        {
          "internalType": "address",
          "name": "account",
          "type": "address"
        }
      ],
      "name": "hasRole",
      "outputs": [
        {
          "internalType": "bool",
          "name": "",
          "type": "bool"
        }
      ],
      "stateMutability": "view",
      "type": "function"
    },
    {
      "inputs": [
        {
          "internalType": "bytes32",
          "name": "role",
          "type": "bytes32"
        },
        {
          "internalType": "address",
          "name": "account",
          "type": "address"
        }
      ],
      "name": "renounceRole",
      "outputs": [],
      "stateMutability": "nonpayable",
      "type": "function"
    },
    {
      "inputs": [
        {
          "internalType": "bytes32",
          "name": "role",
          "type": "bytes32"
        },
        {
          "internalType": "address",
          "name": "account",
          "type": "address"
        }
      ],
      "name": "revokeRole",
      "outputs": [],
      "stateMutability": "nonpayable",
      "type": "function"
    },
    {
      "inputs": [
        {
          "internalType": "address",
          "name": "sender",
          "type": "address"
        },
        {
          "internalType": "uint8",
          "name": "fromDomainID",
          "type": "uint8"
        },
        {
          "internalType": "uint8",
          "name": "destinationDomainID",
          "type": "uint8"
        },
        {
          "internalType": "bytes32",
          "name": "resourceID",
          "type": "bytes32"
        },
        {
          "internalType": "bytes",
          "name": "depositData",
          "type": "bytes"
        },
        {
          "internalType": "bytes",
          "name": "feeData",
          "type": "bytes"
        }
      ],
      "name": "collectFee",
      "outputs": [],
      "stateMutability": "payable",
      "type": "function"
    },
    {
      "inputs": [
        {
          "internalType": "address",
          "name": "sender",
          "type": "address"
        },
        {
          "internalType": "uint8",
          "name": "fromDomainID",
          "type": "uint8"
        },
        {
          "internalType": "uint8",
          "name": "destinationDomainID",
          "type": "uint8"
        },
        {
          "internalType": "bytes32",
          "name": "resourceID",
          "type": "bytes32"
        },
        {
          "internalType": "bytes",
          "name": "depositData",
          "type": "bytes"
        },
        {
          "internalType": "bytes",
          "name": "feeData",
          "type": "bytes"
        }
      ],
      "name": "calculateFee",
      "outputs": [
        {
          "internalType": "uint256",
          "name": "",
          "type": "uint256"
        },
        {
          "internalType": "address",
          "name": "",
          "type": "address"
        }
      ],
      "stateMutability": "view",
      "type": "function"
    },
    {
      "inputs": [
        {
          "internalType": "uint256",
          "name": "newFee",
          "type": "uint256"
        }
      ],
      "name": "changeFee",
      "outputs": [],
      "stateMutability": "nonpayable",
      "type": "function"
    }
  ],
  "bytecode": "0x60a06040523480156200001157600080fd5b50604051620017ba380380620017ba833981810160405281019062000037919062000287565b8073ffffffffffffffffffffffffffffffffffffffff1660808173ffffffffffffffffffffffffffffffffffffffff1681525050620000806000801b336200008760201b60201c565b50620002b9565b6200009982826200009d60201b60201c565b5050565b620000cb816000808581526020019081526020016000206000016200014060201b620007a81790919060201c565b156200013c57620000e16200017860201b60201c565b73ffffffffffffffffffffffffffffffffffffffff168173ffffffffffffffffffffffffffffffffffffffff16837f2f8788117e7eff1d82e926ec794901d17c78024a50270940304540a733656f0d60405160405180910390a45b5050565b600062000170836000018373ffffffffffffffffffffffffffffffffffffffff1660001b6200018060201b60201c565b905092915050565b600033905090565b6000620001948383620001fa60201b60201c565b620001ef578260000182908060018154018082558091505060019003906000526020600020016000909190919091505582600001805490508360010160008481526020019081526020016000208190555060019050620001f4565b600090505b92915050565b600080836001016000848152602001908152602001600020541415905092915050565b600080fd5b600073ffffffffffffffffffffffffffffffffffffffff82169050919050565b60006200024f8262000222565b9050919050565b620002618162000242565b81146200026d57600080fd5b50565b600081519050620002818162000256565b92915050565b600060208284031215620002a0576200029f6200021d565b5b6000620002b08482850162000270565b91505092915050565b6080516114de620002dc600039600081816104c001526107da01526114de6000f3fe6080604052600436106100dd5760003560e01c80639010d07c1161007f578063c5b37c2211610059578063c5b37c22146102c3578063ca15c873146102ee578063d547741f1461032b578063ef4f081f14610354576100dd565b80639010d07c1461021e57806391d148541461025b578063a217fddf14610298576100dd565b8063318c136e116100bb578063318c136e1461016457806336568abe1461018f5780634e0df3f6146101b85780636a1db1bf146101f5576100dd565b8063248a9ca3146100e2578063253070651461011f5780632f2ff15d1461013b575b600080fd5b3480156100ee57600080fd5b5061010960048036038101906101049190610c48565b610392565b6040516101169190610c84565b60405180910390f35b61013960048036038101906101349190610d9b565b6103b1565b005b34801561014757600080fd5b50610162600480360381019061015d9190610e6a565b61044b565b005b34801561017057600080fd5b506101796104be565b6040516101869190610eb9565b60405180910390f35b34801561019b57600080fd5b506101b660048036038101906101b19190610e6a565b6104e2565b005b3480156101c457600080fd5b506101df60048036038101906101da9190610e6a565b610565565b6040516101ec9190610eed565b60405180910390f35b34801561020157600080fd5b5061021c60048036038101906102179190610f34565b6105b5565b005b34801561022a57600080fd5b5061024560048036038101906102409190610f61565b610687565b6040516102529190610eb9565b60405180910390f35b34801561026757600080fd5b50610282600480360381019061027d9190610e6a565b6106b8565b60405161028f9190610fbc565b60405180910390f35b3480156102a457600080fd5b506102ad6106e9565b6040516102ba9190610c84565b60405180910390f35b3480156102cf57600080fd5b506102d86106f0565b6040516102e59190610eed565b60405180910390f35b3480156102fa57600080fd5b5061031560048036038101906103109190610c48565b6106f6565b6040516103229190610eed565b60405180910390f35b34801561033757600080fd5b50610352600480360381019061034d9190610e6a565b61071c565b005b34801561036057600080fd5b5061037b60048036038101906103769190610d9b565b61078f565b604051610389929190610fd7565b60405180910390f35b6000806000838152602001908152602001600020600201549050919050565b6103b96107d8565b60015434146103fd576040517f08c379a00000000000000000000000000000000000000000000000000000000081526004016103f49061105d565b60405180910390fd5b7fbd231b7fa4103e15e7a238c72f07e8aff310701af121895aa6c793b80245e4338888888860015460006040516104399695949392919061108c565b60405180910390a15050505050505050565b6104716000808481526020019081526020016000206002015461046c610868565b6106b8565b6104b0576040517f08c379a00000000000000000000000000000000000000000000000000000000081526004016104a79061115f565b60405180910390fd5b6104ba8282610870565b5050565b7f000000000000000000000000000000000000000000000000000000000000000081565b6104ea610868565b73ffffffffffffffffffffffffffffffffffffffff168173ffffffffffffffffffffffffffffffffffffffff1614610557576040517f08c379a000000000000000000000000000000000000000000000000000000000815260040161054e906111f1565b60405180910390fd5b6105618282610903565b5050565b600080600084815260200190815260200160002060000160000160010160008373ffffffffffffffffffffffffffffffffffffffff1660001b815260200190815260200160002054905092915050565b6105c26000801b336106b8565b610601576040517f08c379a00000000000000000000000000000000000000000000000000000000081526004016105f89061125d565b60405180910390fd5b806001541415610646576040517f08c379a000000000000000000000000000000000000000000000000000000000815260040161063d906112c9565b60405180910390fd5b806001819055507f6bbc57480a46553fa4d156ce702beef5f3ad66303b0ed1a5d4cb44966c6584c38160405161067c9190610eed565b60405180910390a150565b60006106b08260008086815260200190815260200160002060000161099690919063ffffffff16565b905092915050565b60006106e1826000808681526020019081526020016000206000016109b090919063ffffffff16565b905092915050565b6000801b81565b60015481565b60006107156000808481526020019081526020016000206000016109e0565b9050919050565b6107426000808481526020019081526020016000206002015461073d610868565b6106b8565b610781576040517f08c379a00000000000000000000000000000000000000000000000000000000081526004016107789061135b565b60405180910390fd5b61078b8282610903565b5050565b6000806001546000915091509850989650505050505050565b60006107d0836000018373ffffffffffffffffffffffffffffffffffffffff1660001b6109f5565b905092915050565b7f000000000000000000000000000000000000000000000000000000000000000073ffffffffffffffffffffffffffffffffffffffff163373ffffffffffffffffffffffffffffffffffffffff1614610866576040517f08c379a000000000000000000000000000000000000000000000000000000000815260040161085d906113c7565b60405180910390fd5b565b600033905090565b610897816000808581526020019081526020016000206000016107a890919063ffffffff16565b156108ff576108a4610868565b73ffffffffffffffffffffffffffffffffffffffff168173ffffffffffffffffffffffffffffffffffffffff16837f2f8788117e7eff1d82e926ec794901d17c78024a50270940304540a733656f0d60405160405180910390a45b5050565b61092a81600080858152602001908152602001600020600001610a6590919063ffffffff16565b1561099257610937610868565b73ffffffffffffffffffffffffffffffffffffffff168173ffffffffffffffffffffffffffffffffffffffff16837ff6391f5c32d9c69d2a47ea670b442974b53935d1edc7fd64eb21e047a839171b60405160405180910390a45b5050565b60006109a58360000183610a95565b60001c905092915050565b60006109d8836000018373ffffffffffffffffffffffffffffffffffffffff1660001b610ac0565b905092915050565b60006109ee82600001610ae3565b9050919050565b6000610a018383610ac0565b610a5a578260000182908060018154018082558091505060019003906000526020600020016000909190919091505582600001805490508360010160008481526020019081526020016000208190555060019050610a5f565b600090505b92915050565b6000610a8d836000018373ffffffffffffffffffffffffffffffffffffffff1660001b610af4565b905092915050565b6000826000018281548110610aad57610aac6113e7565b5b9060005260206000200154905092915050565b600080836001016000848152602001908152602001600020541415905092915050565b600081600001805490509050919050565b60008083600101600084815260200190815260200160002054905060008114610bfc576000600182610b269190611445565b9050600060018660000180549050610b3e9190611445565b9050818114610bad576000866000018281548110610b5f57610b5e6113e7565b5b9060005260206000200154905080876000018481548110610b8357610b826113e7565b5b90600052602060002001819055508387600101600083815260200190815260200160002081905550505b85600001805480610bc157610bc0611479565b5b600190038181906000526020600020016000905590558560010160008681526020019081526020016000206000905560019350505050610c02565b60009150505b92915050565b600080fd5b600080fd5b6000819050919050565b610c2581610c12565b8114610c3057600080fd5b50565b600081359050610c4281610c1c565b92915050565b600060208284031215610c5e57610c5d610c08565b5b6000610c6c84828501610c33565b91505092915050565b610c7e81610c12565b82525050565b6000602082019050610c996000830184610c75565b92915050565b600073ffffffffffffffffffffffffffffffffffffffff82169050919050565b6000610cca82610c9f565b9050919050565b610cda81610cbf565b8114610ce557600080fd5b50565b600081359050610cf781610cd1565b92915050565b600060ff82169050919050565b610d1381610cfd565b8114610d1e57600080fd5b50565b600081359050610d3081610d0a565b92915050565b600080fd5b600080fd5b600080fd5b60008083601f840112610d5b57610d5a610d36565b5b8235905067ffffffffffffffff811115610d7857610d77610d3b565b5b602083019150836001820283011115610d9457610d93610d40565b5b9250929050565b60008060008060008060008060c0898b031215610dbb57610dba610c08565b5b6000610dc98b828c01610ce8565b9850506020610dda8b828c01610d21565b9750506040610deb8b828c01610d21565b9650506060610dfc8b828c01610c33565b955050608089013567ffffffffffffffff811115610e1d57610e1c610c0d565b5b610e298b828c01610d45565b945094505060a089013567ffffffffffffffff811115610e4c57610e4b610c0d565b5b610e588b828c01610d45565b92509250509295985092959890939650565b60008060408385031215610e8157610e80610c08565b5b6000610e8f85828601610c33565b9250506020610ea085828601610ce8565b9150509250929050565b610eb381610cbf565b82525050565b6000602082019050610ece6000830184610eaa565b92915050565b6000819050919050565b610ee781610ed4565b82525050565b6000602082019050610f026000830184610ede565b92915050565b610f1181610ed4565b8114610f1c57600080fd5b50565b600081359050610f2e81610f08565b92915050565b600060208284031215610f4a57610f49610c08565b5b6000610f5884828501610f1f565b91505092915050565b60008060408385031215610f7857610f77610c08565b5b6000610f8685828601610c33565b9250506020610f9785828601610f1f565b9150509250929050565b60008115159050919050565b610fb681610fa1565b82525050565b6000602082019050610fd16000830184610fad565b92915050565b6000604082019050610fec6000830185610ede565b610ff96020830184610eaa565b9392505050565b600082825260208201905092915050565b7f496e636f72726563742066656520737570706c69656400000000000000000000600082015250565b6000611047601683611000565b915061105282611011565b602082019050919050565b600060208201905081810360008301526110768161103a565b9050919050565b61108681610cfd565b82525050565b600060c0820190506110a16000830189610eaa565b6110ae602083018861107d565b6110bb604083018761107d565b6110c86060830186610c75565b6110d56080830185610ede565b6110e260a0830184610eaa565b979650505050505050565b7f416363657373436f6e74726f6c3a2073656e646572206d75737420626520616e60008201527f2061646d696e20746f206772616e740000000000000000000000000000000000602082015250565b6000611149602f83611000565b9150611154826110ed565b604082019050919050565b600060208201905081810360008301526111788161113c565b9050919050565b7f416363657373436f6e74726f6c3a2063616e206f6e6c792072656e6f756e636560008201527f20726f6c657320666f722073656c660000000000000000000000000000000000602082015250565b60006111db602f83611000565b91506111e68261117f565b604082019050919050565b6000602082019050818103600083015261120a816111ce565b9050919050565b7f73656e64657220646f65736e277420686176652061646d696e20726f6c650000600082015250565b6000611247601e83611000565b915061125282611211565b602082019050919050565b600060208201905081810360008301526112768161123a565b9050919050565b7f43757272656e742066656520697320657175616c20746f206e65772066656500600082015250565b60006112b3601f83611000565b91506112be8261127d565b602082019050919050565b600060208201905081810360008301526112e2816112a6565b9050919050565b7f416363657373436f6e74726f6c3a2073656e646572206d75737420626520616e60008201527f2061646d696e20746f207265766f6b6500000000000000000000000000000000602082015250565b6000611345603083611000565b9150611350826112e9565b604082019050919050565b6000602082019050818103600083015261137481611338565b9050919050565b7f73656e646572206d7573742062652062726964676520636f6e74726163740000600082015250565b60006113b1601e83611000565b91506113bc8261137b565b602082019050919050565b600060208201905081810360008301526113e0816113a4565b9050919050565b7f4e487b7100000000000000000000000000000000000000000000000000000000600052603260045260246000fd5b7f4e487b7100000000000000000000000000000000000000000000000000000000600052601160045260246000fd5b600061145082610ed4565b915061145b83610ed4565b92508282101561146e5761146d611416565b5b828203905092915050565b7f4e487b7100000000000000000000000000000000000000000000000000000000600052603160045260246000fdfea2646970667358221220ad050fd753cab12c6eb6e357b7bc58cc2591ed327abdc079b6fae85c62198a3964736f6c634300080b0033",
  "immutableReferences": {
    "927": [
      {
        "length": 32,
        "start": 1216
      },
      {
        "length": 32,
        "start": 2010
      }
    ]
  },
  "source": "// SPDX-License-Identifier: LGPL-3.0-only\npragma solidity 0.8.11;\npragma experimental ABIEncoderV2;\n\nimport \"../../interfaces/IFeeHandler.sol\";\nimport \"../../utils/AccessControl.sol\";\n\n/**\n    @title Handles deposit fees.\n    @author ChainSafe Systems.\n    @notice This contract is intended to be used with the Bridge contract.\n */\ncontract BasicFeeHandler is IFeeHandler, AccessControl {\n    address public immutable _bridgeAddress;\n\n    uint256 public _fee;\n\n    event FeeChanged(\n        uint256 newFee\n    );\n\n    modifier onlyBridge() {\n        _onlyBridge();\n        _;\n    }\n\n    function _onlyBridge() private view {\n        require(msg.sender == _bridgeAddress, \"sender must be bridge contract\");\n    }\n\n    /**\n        @param bridgeAddress Contract address of previously deployed Bridge.\n     */\n    constructor(address bridgeAddress) public {\n        _bridgeAddress = bridgeAddress;\n        _setupRole(DEFAULT_ADMIN_ROLE, msg.sender);\n    }\n\n    /**\n        @notice Collects fee for deposit.\n        @param sender Sender of the deposit.\n        @param destinationDomainID ID of chain deposit will be bridged to.\n        @param resourceID ResourceID to be used when making deposits.\n        @param depositData Additional data to be passed to specified handler.\n        @param feeData Additional data to be passed to the fee handler.\n     */\n    function collectFee(address sender, uint8 fromDomainID, uint8 destinationDomainID, bytes32 resourceID, bytes calldata depositData, bytes calldata feeData) payable external onlyBridge {\n        require(msg.value == _fee, \"Incorrect fee supplied\");\n        emit FeeCollected(sender, fromDomainID, destinationDomainID, resourceID, _fee, address(0));\n    }\n\n     /**\n        @notice Calculates fee for deposit.\n        @param sender Sender of the deposit.\n        @param destinationDomainID ID of chain deposit will be bridged to.\n        @param resourceID ResourceID to be used when making deposits.\n        @param depositData Additional data to be passed to specified handler.\n        @param feeData Additional data to be passed to the fee handler.\n        @return Returns the fee amount.\n     */\n    function calculateFee(address sender, uint8 fromDomainID, uint8 destinationDomainID, bytes32 resourceID, bytes calldata depositData, bytes calldata feeData) external view returns(uint256, address) {\n        return (_fee, address(0));\n    }\n\n    /**\n        @notice Sets new value of the fee.\n        @notice Only callable by admin.\n        @param newFee Value {_fee} will be updated to.\n     */\n    function changeFee(uint256 newFee) external onlyAdmin {\n        require(_fee != newFee, \"Current fee is equal to new fee\");\n        _fee = newFee;\n        emit FeeChanged(newFee);\n    }\n\n    /**\n        @notice Transfers eth in the contract to the specified addresses. The parameters addrs and amounts are mapped 1-1.\n        This means that the address at index 0 for addrs will receive the amount (in WEI) from amounts at index 0.\n        @param addrs Array of addresses to transfer {amounts} to.\n        @param amounts Array of amonuts to transfer to {addrs}.\n     */\n    function _transferFee(address payable[] calldata addrs, uint[] calldata amounts) internal {\n        require(addrs.length == amounts.length, \"addrs[], amounts[]: diff length\");\n        for (uint256 i = 0; i < addrs.length; i++) {\n            (bool success,) = addrs[i].call{value: amounts[i]}(\"\");\n            require(success, \"Fee ether transfer failed\");\n            emit FeeDistributed(address(0), addrs[i], amounts[i]);\n        }\n    }\n\n    modifier onlyAdmin() {\n        require(hasRole(DEFAULT_ADMIN_ROLE, msg.sender), \"sender doesn't have admin role\");\n        _;\n    }\n}\n",
  "sourcePath": "/root/bc_connector/crosscoin/contracts/chainbridge-solidity/contracts/handlers/fee/BasicFeeHandler.sol",
  "compiler": {
    "name": "solc",
    "version": "0.8.11+commit.d7f03943.Emscripten.clang"
  },
  "schemaVersion": "3.4.7",
  "updatedAt": "2022-06-02T18:29:05.725Z",
  "devdoc": {
    "author": "ChainSafe Systems.",
    "kind": "dev",
    "methods": {
      "calculateFee(address,uint8,uint8,bytes32,bytes,bytes)": {
        "params": {
          "depositData": "Additional data to be passed to specified handler.",
          "destinationDomainID": "ID of chain deposit will be bridged to.",
          "feeData": "Additional data to be passed to the fee handler.",
          "resourceID": "ResourceID to be used when making deposits.",
          "sender": "Sender of the deposit."
        },
        "returns": {
          "_0": "Returns the fee amount."
        }
      },
      "changeFee(uint256)": {
        "params": {
          "newFee": "Value {_fee} will be updated to."
        }
      },
      "collectFee(address,uint8,uint8,bytes32,bytes,bytes)": {
        "params": {
          "depositData": "Additional data to be passed to specified handler.",
          "destinationDomainID": "ID of chain deposit will be bridged to.",
          "feeData": "Additional data to be passed to the fee handler.",
          "resourceID": "ResourceID to be used when making deposits.",
          "sender": "Sender of the deposit."
        }
      },
      "constructor": {
        "params": {
          "bridgeAddress": "Contract address of previously deployed Bridge."
        }
      },
      "getRoleAdmin(bytes32)": {
        "details": "Returns the admin role that controls `role`. See {grantRole} and {revokeRole}. To change a role's admin, use {_setRoleAdmin}."
      },
      "getRoleMember(bytes32,uint256)": {
        "details": "Returns one of the accounts that have `role`. `index` must be a value between 0 and {getRoleMemberCount}, non-inclusive. Role bearers are not sorted in any particular way, and their ordering may change at any point. WARNING: When using {getRoleMember} and {getRoleMemberCount}, make sure you perform all queries on the same block. See the following https://forum.openzeppelin.com/t/iterating-over-elements-on-enumerableset-in-openzeppelin-contracts/2296[forum post] for more information."
      },
      "getRoleMemberCount(bytes32)": {
        "details": "Returns the number of accounts that have `role`. Can be used together with {getRoleMember} to enumerate all bearers of a role."
      },
      "getRoleMemberIndex(bytes32,address)": {
        "details": "Returns the index of the account that have `role`."
      },
      "grantRole(bytes32,address)": {
        "details": "Grants `role` to `account`. If `account` had not been already granted `role`, emits a {RoleGranted} event. Requirements: - the caller must have ``role``'s admin role."
      },
      "hasRole(bytes32,address)": {
        "details": "Returns `true` if `account` has been granted `role`."
      },
      "renounceRole(bytes32,address)": {
        "details": "Revokes `role` from the calling account. Roles are often managed via {grantRole} and {revokeRole}: this function's purpose is to provide a mechanism for accounts to lose their privileges if they are compromised (such as when a trusted device is misplaced). If the calling account had been granted `role`, emits a {RoleRevoked} event. Requirements: - the caller must be `account`."
      },
      "revokeRole(bytes32,address)": {
        "details": "Revokes `role` from `account`. If `account` had been granted `role`, emits a {RoleRevoked} event. Requirements: - the caller must have ``role``'s admin role."
      }
    },
    "title": "Handles deposit fees.",
    "version": 1
  },
  "userdoc": {
    "events": {
      "FeeCollected(address,uint8,uint8,bytes32,uint256,address)": {
        "notice": "This event is emitted when the fee is collected."
      },
      "FeeDistributed(address,address,uint256)": {
        "notice": "This event is emitted when the fee is distributed to an address."
      }
    },
    "kind": "user",
    "methods": {
      "calculateFee(address,uint8,uint8,bytes32,bytes,bytes)": {
        "notice": "Calculates fee for deposit."
      },
      "changeFee(uint256)": {
        "notice": "Sets new value of the fee.Only callable by admin."
      },
      "collectFee(address,uint8,uint8,bytes32,bytes,bytes)": {
        "notice": "Collects fee for deposit."
      }
    },
    "notice": "This contract is intended to be used with the Bridge contract.",
    "version": 1
  }
}