{
  "contractName": "BridgeGovernance",
  "abi": [
    {
      "inputs": [
        {
          "internalType": "uint256",
          "name": "_quorum",
          "type": "uint256"
        },
        {
          "internalType": "uint256",
          "name": "_collateral",
          "type": "uint256"
        }
      ],
      "stateMutability": "payable",
      "type": "constructor",
      "payable": true
    },
    {
      "inputs": [],
      "name": "Empty",
      "type": "error"
    },
    {
      "anonymous": false,
      "inputs": [
        {
          "indexed": true,
          "internalType": "address",
          "name": "partecipant",
          "type": "address"
        },
        {
          "indexed": false,
          "internalType": "uint256",
          "name": "nPartecipants",
          "type": "uint256"
        }
      ],
      "name": "PartecipantJoined",
      "type": "event"
    },
    {
      "anonymous": false,
      "inputs": [
        {
          "indexed": false,
          "internalType": "uint256",
          "name": "proposalId",
          "type": "uint256"
        }
      ],
      "name": "ProposalCanceled",
      "type": "event"
    },
    {
      "anonymous": false,
      "inputs": [
        {
          "indexed": false,
          "internalType": "uint256",
          "name": "proposalId",
          "type": "uint256"
        },
        {
          "indexed": false,
          "internalType": "address",
          "name": "proposer",
          "type": "address"
        },
        {
          "indexed": false,
          "internalType": "address[]",
          "name": "targets",
          "type": "address[]"
        },
        {
          "indexed": false,
          "internalType": "uint256[]",
          "name": "values",
          "type": "uint256[]"
        },
        {
          "indexed": false,
          "internalType": "string[]",
          "name": "signatures",
          "type": "string[]"
        },
        {
          "indexed": false,
          "internalType": "bytes[]",
          "name": "calldatas",
          "type": "bytes[]"
        },
        {
          "indexed": false,
          "internalType": "uint256",
          "name": "startBlock",
          "type": "uint256"
        },
        {
          "indexed": false,
          "internalType": "uint256",
          "name": "endBlock",
          "type": "uint256"
        },
        {
          "indexed": false,
          "internalType": "string",
          "name": "description",
          "type": "string"
        }
      ],
      "name": "ProposalCreated",
      "type": "event"
    },
    {
      "anonymous": false,
      "inputs": [
        {
          "indexed": false,
          "internalType": "uint256",
          "name": "proposalId",
          "type": "uint256"
        }
      ],
      "name": "ProposalExecuted",
      "type": "event"
    },
    {
      "anonymous": false,
      "inputs": [
        {
          "indexed": true,
          "internalType": "address",
          "name": "voter",
          "type": "address"
        },
        {
          "indexed": false,
          "internalType": "uint256",
          "name": "proposalId",
          "type": "uint256"
        },
        {
          "indexed": false,
          "internalType": "uint8",
          "name": "support",
          "type": "uint8"
        },
        {
          "indexed": false,
          "internalType": "uint256",
          "name": "weight",
          "type": "uint256"
        },
        {
          "indexed": false,
          "internalType": "string",
          "name": "reason",
          "type": "string"
        }
      ],
      "name": "VoteCast",
      "type": "event"
    },
    {
      "anonymous": false,
      "inputs": [
        {
          "indexed": true,
          "internalType": "address",
          "name": "voter",
          "type": "address"
        },
        {
          "indexed": false,
          "internalType": "uint256",
          "name": "proposalId",
          "type": "uint256"
        },
        {
          "indexed": false,
          "internalType": "uint8",
          "name": "support",
          "type": "uint8"
        },
        {
          "indexed": false,
          "internalType": "uint256",
          "name": "weight",
          "type": "uint256"
        },
        {
          "indexed": false,
          "internalType": "string",
          "name": "reason",
          "type": "string"
        },
        {
          "indexed": false,
          "internalType": "bytes",
          "name": "params",
          "type": "bytes"
        }
      ],
      "name": "VoteCastWithParams",
      "type": "event"
    },
    {
      "inputs": [],
      "name": "BALLOT_TYPEHASH",
      "outputs": [
        {
          "internalType": "bytes32",
          "name": "",
          "type": "bytes32"
        }
      ],
      "stateMutability": "view",
      "type": "function",
      "constant": true
    },
    {
      "inputs": [],
      "name": "COUNTING_MODE",
      "outputs": [
        {
          "internalType": "string",
          "name": "",
          "type": "string"
        }
      ],
      "stateMutability": "pure",
      "type": "function",
      "constant": true
    },
    {
      "inputs": [],
      "name": "EXTENDED_BALLOT_TYPEHASH",
      "outputs": [
        {
          "internalType": "bytes32",
          "name": "",
          "type": "bytes32"
        }
      ],
      "stateMutability": "view",
      "type": "function",
      "constant": true
    },
    {
      "inputs": [
        {
          "internalType": "uint256",
          "name": "proposalId",
          "type": "uint256"
        },
        {
          "internalType": "uint8",
          "name": "support",
          "type": "uint8"
        },
        {
          "internalType": "string",
          "name": "reason",
          "type": "string"
        },
        {
          "internalType": "bytes",
          "name": "params",
          "type": "bytes"
        }
      ],
      "name": "castVoteWithReasonAndParams",
      "outputs": [
        {
          "internalType": "uint256",
          "name": "",
          "type": "uint256"
        }
      ],
      "stateMutability": "nonpayable",
      "type": "function"
    },
    {
      "inputs": [
        {
          "internalType": "uint256",
          "name": "proposalId",
          "type": "uint256"
        },
        {
          "internalType": "uint8",
          "name": "support",
          "type": "uint8"
        },
        {
          "internalType": "string",
          "name": "reason",
          "type": "string"
        },
        {
          "internalType": "bytes",
          "name": "params",
          "type": "bytes"
        },
        {
          "internalType": "uint8",
          "name": "v",
          "type": "uint8"
        },
        {
          "internalType": "bytes32",
          "name": "r",
          "type": "bytes32"
        },
        {
          "internalType": "bytes32",
          "name": "s",
          "type": "bytes32"
        }
      ],
      "name": "castVoteWithReasonAndParamsBySig",
      "outputs": [
        {
          "internalType": "uint256",
          "name": "",
          "type": "uint256"
        }
      ],
      "stateMutability": "nonpayable",
      "type": "function"
    },
    {
      "inputs": [
        {
          "internalType": "address[]",
          "name": "targets",
          "type": "address[]"
        },
        {
          "internalType": "uint256[]",
          "name": "values",
          "type": "uint256[]"
        },
        {
          "internalType": "bytes[]",
          "name": "calldatas",
          "type": "bytes[]"
        },
        {
          "internalType": "bytes32",
          "name": "descriptionHash",
          "type": "bytes32"
        }
      ],
      "name": "execute",
      "outputs": [
        {
          "internalType": "uint256",
          "name": "",
          "type": "uint256"
        }
      ],
      "stateMutability": "payable",
      "type": "function",
      "payable": true
    },
    {
      "inputs": [
        {
          "internalType": "address",
          "name": "account",
          "type": "address"
        },
        {
          "internalType": "uint256",
          "name": "blockNumber",
          "type": "uint256"
        }
      ],
      "name": "getVotes",
      "outputs": [
        {
          "internalType": "uint256",
          "name": "",
          "type": "uint256"
        }
      ],
      "stateMutability": "view",
      "type": "function",
      "constant": true
    },
    {
      "inputs": [
        {
          "internalType": "address",
          "name": "account",
          "type": "address"
        },
        {
          "internalType": "uint256",
          "name": "blockNumber",
          "type": "uint256"
        },
        {
          "internalType": "bytes",
          "name": "params",
          "type": "bytes"
        }
      ],
      "name": "getVotesWithParams",
      "outputs": [
        {
          "internalType": "uint256",
          "name": "",
          "type": "uint256"
        }
      ],
      "stateMutability": "view",
      "type": "function",
      "constant": true
    },
    {
      "inputs": [
        {
          "internalType": "uint256",
          "name": "proposalId",
          "type": "uint256"
        },
        {
          "internalType": "address",
          "name": "account",
          "type": "address"
        }
      ],
      "name": "hasVoted",
      "outputs": [
        {
          "internalType": "bool",
          "name": "",
          "type": "bool"
        }
      ],
      "stateMutability": "view",
      "type": "function",
      "constant": true
    },
    {
      "inputs": [
        {
          "internalType": "address[]",
          "name": "targets",
          "type": "address[]"
        },
        {
          "internalType": "uint256[]",
          "name": "values",
          "type": "uint256[]"
        },
        {
          "internalType": "bytes[]",
          "name": "calldatas",
          "type": "bytes[]"
        },
        {
          "internalType": "bytes32",
          "name": "descriptionHash",
          "type": "bytes32"
        }
      ],
      "name": "hashProposal",
      "outputs": [
        {
          "internalType": "uint256",
          "name": "",
          "type": "uint256"
        }
      ],
      "stateMutability": "pure",
      "type": "function",
      "constant": true
    },
    {
      "inputs": [],
      "name": "name",
      "outputs": [
        {
          "internalType": "string",
          "name": "",
          "type": "string"
        }
      ],
      "stateMutability": "view",
      "type": "function",
      "constant": true
    },
    {
      "inputs": [
        {
          "internalType": "address",
          "name": "",
          "type": "address"
        },
        {
          "internalType": "address",
          "name": "",
          "type": "address"
        },
        {
          "internalType": "uint256[]",
          "name": "",
          "type": "uint256[]"
        },
        {
          "internalType": "uint256[]",
          "name": "",
          "type": "uint256[]"
        },
        {
          "internalType": "bytes",
          "name": "",
          "type": "bytes"
        }
      ],
      "name": "onERC1155BatchReceived",
      "outputs": [
        {
          "internalType": "bytes4",
          "name": "",
          "type": "bytes4"
        }
      ],
      "stateMutability": "nonpayable",
      "type": "function"
    },
    {
      "inputs": [
        {
          "internalType": "address",
          "name": "",
          "type": "address"
        },
        {
          "internalType": "address",
          "name": "",
          "type": "address"
        },
        {
          "internalType": "uint256",
          "name": "",
          "type": "uint256"
        },
        {
          "internalType": "uint256",
          "name": "",
          "type": "uint256"
        },
        {
          "internalType": "bytes",
          "name": "",
          "type": "bytes"
        }
      ],
      "name": "onERC1155Received",
      "outputs": [
        {
          "internalType": "bytes4",
          "name": "",
          "type": "bytes4"
        }
      ],
      "stateMutability": "nonpayable",
      "type": "function"
    },
    {
      "inputs": [
        {
          "internalType": "address",
          "name": "",
          "type": "address"
        },
        {
          "internalType": "address",
          "name": "",
          "type": "address"
        },
        {
          "internalType": "uint256",
          "name": "",
          "type": "uint256"
        },
        {
          "internalType": "bytes",
          "name": "",
          "type": "bytes"
        }
      ],
      "name": "onERC721Received",
      "outputs": [
        {
          "internalType": "bytes4",
          "name": "",
          "type": "bytes4"
        }
      ],
      "stateMutability": "nonpayable",
      "type": "function"
    },
    {
      "inputs": [
        {
          "internalType": "uint256",
          "name": "proposalId",
          "type": "uint256"
        }
      ],
      "name": "proposalDeadline",
      "outputs": [
        {
          "internalType": "uint256",
          "name": "",
          "type": "uint256"
        }
      ],
      "stateMutability": "view",
      "type": "function",
      "constant": true
    },
    {
      "inputs": [
        {
          "internalType": "uint256",
          "name": "proposalId",
          "type": "uint256"
        }
      ],
      "name": "proposalSnapshot",
      "outputs": [
        {
          "internalType": "uint256",
          "name": "",
          "type": "uint256"
        }
      ],
      "stateMutability": "view",
      "type": "function",
      "constant": true
    },
    {
      "inputs": [
        {
          "internalType": "uint256",
          "name": "proposalId",
          "type": "uint256"
        }
      ],
      "name": "proposalVotes",
      "outputs": [
        {
          "internalType": "uint256",
          "name": "againstVotes",
          "type": "uint256"
        },
        {
          "internalType": "uint256",
          "name": "forVotes",
          "type": "uint256"
        },
        {
          "internalType": "uint256",
          "name": "abstainVotes",
          "type": "uint256"
        }
      ],
      "stateMutability": "view",
      "type": "function",
      "constant": true
    },
    {
      "inputs": [
        {
          "internalType": "address",
          "name": "target",
          "type": "address"
        },
        {
          "internalType": "uint256",
          "name": "value",
          "type": "uint256"
        },
        {
          "internalType": "bytes",
          "name": "data",
          "type": "bytes"
        }
      ],
      "name": "relay",
      "outputs": [],
      "stateMutability": "nonpayable",
      "type": "function"
    },
    {
      "inputs": [
        {
          "internalType": "uint256",
          "name": "proposalId",
          "type": "uint256"
        }
      ],
      "name": "state",
      "outputs": [
        {
          "internalType": "enum IGovernor.ProposalState",
          "name": "",
          "type": "uint8"
        }
      ],
      "stateMutability": "view",
      "type": "function",
      "constant": true
    },
    {
      "inputs": [
        {
          "internalType": "bytes4",
          "name": "interfaceId",
          "type": "bytes4"
        }
      ],
      "name": "supportsInterface",
      "outputs": [
        {
          "internalType": "bool",
          "name": "",
          "type": "bool"
        }
      ],
      "stateMutability": "view",
      "type": "function",
      "constant": true
    },
    {
      "inputs": [],
      "name": "version",
      "outputs": [
        {
          "internalType": "string",
          "name": "",
          "type": "string"
        }
      ],
      "stateMutability": "view",
      "type": "function",
      "constant": true
    },
    {
      "stateMutability": "payable",
      "type": "receive",
      "payable": true
    },
    {
      "inputs": [
        {
          "internalType": "address",
          "name": "partecipant",
          "type": "address"
        }
      ],
      "name": "join",
      "outputs": [],
      "stateMutability": "payable",
      "type": "function",
      "payable": true
    },
    {
      "inputs": [
        {
          "internalType": "uint256",
          "name": "blockNumber",
          "type": "uint256"
        }
      ],
      "name": "quorum",
      "outputs": [
        {
          "internalType": "uint256",
          "name": "",
          "type": "uint256"
        }
      ],
      "stateMutability": "view",
      "type": "function",
      "constant": true
    },
    {
      "inputs": [],
      "name": "votingDelay",
      "outputs": [
        {
          "internalType": "uint256",
          "name": "",
          "type": "uint256"
        }
      ],
      "stateMutability": "pure",
      "type": "function",
      "constant": true
    },
    {
      "inputs": [],
      "name": "votingPeriod",
      "outputs": [
        {
          "internalType": "uint256",
          "name": "",
          "type": "uint256"
        }
      ],
      "stateMutability": "pure",
      "type": "function",
      "constant": true
    },
    {
      "inputs": [],
      "name": "proposalThreshold",
      "outputs": [
        {
          "internalType": "uint256",
          "name": "",
          "type": "uint256"
        }
      ],
      "stateMutability": "view",
      "type": "function",
      "constant": true
    },
    {
      "inputs": [
        {
          "internalType": "address[]",
          "name": "targets",
          "type": "address[]"
        },
        {
          "internalType": "uint256[]",
          "name": "values",
          "type": "uint256[]"
        },
        {
          "internalType": "bytes[]",
          "name": "calldatas",
          "type": "bytes[]"
        },
        {
          "internalType": "string",
          "name": "description",
          "type": "string"
        }
      ],
      "name": "propose",
      "outputs": [
        {
          "internalType": "uint256",
          "name": "",
          "type": "uint256"
        }
      ],
      "stateMutability": "nonpayable",
      "type": "function"
    },
    {
      "inputs": [
        {
          "internalType": "uint256",
          "name": "proposalId",
          "type": "uint256"
        },
        {
          "internalType": "uint8",
          "name": "support",
          "type": "uint8"
        }
      ],
      "name": "castVote",
      "outputs": [
        {
          "internalType": "uint256",
          "name": "",
          "type": "uint256"
        }
      ],
      "stateMutability": "nonpayable",
      "type": "function"
    },
    {
      "inputs": [
        {
          "internalType": "uint256",
          "name": "proposalId",
          "type": "uint256"
        },
        {
          "internalType": "uint8",
          "name": "support",
          "type": "uint8"
        },
        {
          "internalType": "string",
          "name": "reason",
          "type": "string"
        }
      ],
      "name": "castVoteWithReason",
      "outputs": [
        {
          "internalType": "uint256",
          "name": "",
          "type": "uint256"
        }
      ],
      "stateMutability": "nonpayable",
      "type": "function"
    },
    {
      "inputs": [
        {
          "internalType": "uint256",
          "name": "proposalId",
          "type": "uint256"
        },
        {
          "internalType": "uint8",
          "name": "support",
          "type": "uint8"
        },
        {
          "internalType": "uint8",
          "name": "v",
          "type": "uint8"
        },
        {
          "internalType": "bytes32",
          "name": "r",
          "type": "bytes32"
        },
        {
          "internalType": "bytes32",
          "name": "s",
          "type": "bytes32"
        }
      ],
      "name": "castVoteBySig",
      "outputs": [
        {
          "internalType": "uint256",
          "name": "",
          "type": "uint256"
        }
      ],
      "stateMutability": "nonpayable",
      "type": "function"
    }
  ],
  "bytecode": "0x6101406040526000600755604051620057f8380380620057f883398181016040528101906200002f9190620003f9565b6040518060400160405280601081526020017f427269646765476f7665726e616e63650000000000000000000000000000000081525080620000766200017860201b60201c565b60008280519060200120905060008280519060200120905060007f8b73c3c69bb8fe3d512ecc4cf759cc79239f7b179b0ffacaa9a75d522b39400f90508260e081815250508161010081815250504660a08181525050620000df818484620001b560201b60201c565b608081815250503073ffffffffffffffffffffffffffffffffffffffff1660c08173ffffffffffffffffffffffffffffffffffffffff1681525050806101208181525050505050505080600090805190602001906200014092919062000309565b505081600581905550806006819055506200017062000164620001f160201b60201c565b620001f960201b60201c565b5050620006c5565b60606040518060400160405280600181526020017f3100000000000000000000000000000000000000000000000000000000000000815250905090565b60008383834630604051602001620001d2959493929190620004b1565b6040516020818303038152906040528051906020012090509392505050565b600033905090565b600654341462000240576040517f08c379a0000000000000000000000000000000000000000000000000000000008152600401620002379062000595565b60405180910390fd5b6001600860008373ffffffffffffffffffffffffffffffffffffffff1673ffffffffffffffffffffffffffffffffffffffff16815260200190815260200160002060006101000a81548160ff021916908315150217905550600160076000828254620002ad9190620005e6565b925050819055508073ffffffffffffffffffffffffffffffffffffffff167fc1efba844224a64cc38ac334b9273e034faf8dd15b452d43cc95d60f8fd20c14600754604051620002fe919062000643565b60405180910390a250565b82805462000317906200068f565b90600052602060002090601f0160209004810192826200033b576000855562000387565b82601f106200035657805160ff191683800117855562000387565b8280016001018555821562000387579182015b828111156200038657825182559160200191906001019062000369565b5b5090506200039691906200039a565b5090565b5b80821115620003b55760008160009055506001016200039b565b5090565b600080fd5b6000819050919050565b620003d381620003be565b8114620003df57600080fd5b50565b600081519050620003f381620003c8565b92915050565b60008060408385031215620004135762000412620003b9565b5b60006200042385828601620003e2565b92505060206200043685828601620003e2565b9150509250929050565b6000819050919050565b620004558162000440565b82525050565b6200046681620003be565b82525050565b600073ffffffffffffffffffffffffffffffffffffffff82169050919050565b600062000499826200046c565b9050919050565b620004ab816200048c565b82525050565b600060a082019050620004c860008301886200044a565b620004d760208301876200044a565b620004e660408301866200044a565b620004f560608301856200045b565b620005046080830184620004a0565b9695505050505050565b600082825260208201905092915050565b7f596f752073656e74207468652077726f6e67207175616e7469747920746f206260008201527f6563616d652061207061727465636970616e742e000000000000000000000000602082015250565b60006200057d6034836200050e565b91506200058a826200051f565b604082019050919050565b60006020820190508181036000830152620005b0816200056e565b9050919050565b7f4e487b7100000000000000000000000000000000000000000000000000000000600052601160045260246000fd5b6000620005f382620003be565b91506200060083620003be565b9250827fffffffffffffffffffffffffffffffffffffffffffffffffffffffffffffffff03821115620006385762000637620005b7565b5b828201905092915050565b60006020820190506200065a60008301846200045b565b92915050565b7f4e487b7100000000000000000000000000000000000000000000000000000000600052602260045260246000fd5b60006002820490506001821680620006a857607f821691505b60208210811415620006bf57620006be62000660565b5b50919050565b60805160a05160c05160e05161010051610120516150e3620007156000396000612196015260006121d8015260006121b7015260006120ec015260006121420152600061216b01526150e36000f3fe6080604052600436106101d15760003560e01c806356781388116100f7578063c01f9e3711610095578063deaaa7cc11610064578063deaaa7cc14610790578063eb9019d4146107bb578063f23a6e61146107f8578063f8ce560a1461083557610217565b8063c01f9e37146106c2578063c28bc2fa146106ff578063c59057e414610728578063dd4e2ba51461076557610217565b80637d5e81e2116100d15780637d5e81e2146105e05780639a802a6d1461061d578063b58131b01461065a578063bc197c811461068557610217565b806356781388146105295780635f398a14146105665780637b3c71d3146105a357610217565b80632d63f6931161016f5780633e4f49e61161013e5780633e4f49e6146104455780634385963214610482578063544ffc9c146104bf57806354fd4d50146104fe57610217565b80632d63f693146103755780632fe3e261146103b25780633932abb1146103dd5780633bccf4fd1461040857610217565b806306fdde03116101ab57806306fdde03146102c1578063150b7a02146102ec5780632656227d1461032957806328ffe6c81461035957610217565b806301ffc9a71461021c57806302a251a314610259578063034201811461028457610217565b36610217573073ffffffffffffffffffffffffffffffffffffffff166101f5610872565b73ffffffffffffffffffffffffffffffffffffffff161461021557600080fd5b005b600080fd5b34801561022857600080fd5b50610243600480360381019061023e9190612b54565b61087a565b6040516102509190612b9c565b60405180910390f35b34801561026557600080fd5b5061026e6109df565b60405161027b9190612bd0565b60405180910390f35b34801561029057600080fd5b506102ab60048036038101906102a69190612e2c565b6109e8565b6040516102b89190612bd0565b60405180910390f35b3480156102cd57600080fd5b506102d6610acd565b6040516102e39190612f92565b60405180910390f35b3480156102f857600080fd5b50610313600480360381019061030e9190613012565b610b5f565b60405161032091906130a4565b60405180910390f35b610343600480360381019061033e9190613326565b610b73565b6040516103509190612bd0565b60405180910390f35b610373600480360381019061036e91906133e1565b610cc0565b005b34801561038157600080fd5b5061039c6004803603810190610397919061340e565b610dc9565b6040516103a99190612bd0565b60405180910390f35b3480156103be57600080fd5b506103c7610e37565b6040516103d4919061344a565b60405180910390f35b3480156103e957600080fd5b506103f2610e5b565b6040516103ff9190612bd0565b60405180910390f35b34801561041457600080fd5b5061042f600480360381019061042a9190613465565b610e60565b60405161043c9190612bd0565b60405180910390f35b34801561045157600080fd5b5061046c6004803603810190610467919061340e565b610f0d565b6040516104799190613557565b60405180910390f35b34801561048e57600080fd5b506104a960048036038101906104a49190613572565b611022565b6040516104b69190612b9c565b60405180910390f35b3480156104cb57600080fd5b506104e660048036038101906104e1919061340e565b61108d565b6040516104f5939291906135b2565b60405180910390f35b34801561050a57600080fd5b506105136110c5565b6040516105209190612f92565b60405180910390f35b34801561053557600080fd5b50610550600480360381019061054b91906135e9565b611102565b60405161055d9190612bd0565b60405180910390f35b34801561057257600080fd5b5061058d60048036038101906105889190613629565b6111a9565b60405161059a9190612bd0565b60405180910390f35b3480156105af57600080fd5b506105ca60048036038101906105c591906136cd565b611213565b6040516105d79190612bd0565b60405180910390f35b3480156105ec57600080fd5b50610607600480360381019061060291906137e2565b6112be565b6040516106149190612bd0565b60405180910390f35b34801561062957600080fd5b50610644600480360381019061063f91906138b9565b611369565b6040516106519190612bd0565b60405180910390f35b34801561066657600080fd5b5061066f61137f565b60405161067c9190612bd0565b60405180910390f35b34801561069157600080fd5b506106ac60048036038101906106a79190613928565b611384565b6040516106b991906130a4565b60405180910390f35b3480156106ce57600080fd5b506106e960048036038101906106e4919061340e565b611399565b6040516106f69190612bd0565b60405180910390f35b34801561070b57600080fd5b5061072660048036038101906107219190613a4d565b611407565b005b34801561073457600080fd5b5061074f600480360381019061074a9190613326565b61154d565b60405161075c9190612bd0565b60405180910390f35b34801561077157600080fd5b5061077a611589565b6040516107879190612f92565b60405180910390f35b34801561079c57600080fd5b506107a56115c6565b6040516107b2919061344a565b60405180910390f35b3480156107c757600080fd5b506107e260048036038101906107dd9190613ac1565b6115ea565b6040516107ef9190612bd0565b60405180910390f35b34801561080457600080fd5b5061081f600480360381019061081a9190613b01565b611606565b60405161082c91906130a4565b60405180910390f35b34801561084157600080fd5b5061085c6004803603810190610857919061340e565b61161b565b6040516108699190612bd0565b60405180910390f35b600030905090565b6000639a802a6d60e01b630342018160e01b635f398a1460e01b7f79dd796f000000000000000000000000000000000000000000000000000000001818187bffffffffffffffffffffffffffffffffffffffffffffffffffffffff1916827bffffffffffffffffffffffffffffffffffffffffffffffffffffffff1916148061096057507f79dd796f000000000000000000000000000000000000000000000000000000007bffffffffffffffffffffffffffffffffffffffffffffffffffffffff1916827bffffffffffffffffffffffffffffffffffffffffffffffffffffffff1916145b806109c857507f4e2312e0000000000000000000000000000000000000000000000000000000007bffffffffffffffffffffffffffffffffffffffffffffffffffffffff1916827bffffffffffffffffffffffffffffffffffffffffffffffffffffffff1916145b806109d857506109d782611640565b5b9050919050565b6000600a905090565b600080610a6b610a637fb3b3f3b703cd84ce352197dcff232b1b5d3cfb2025ce47cf04742d0651f1af888c8c8c8c604051610a24929190613bc8565b60405180910390208b80519060200120604051602001610a48959493929190613bf0565b604051602081830303815290604052805190602001206116aa565b8686866116c4565b9050610abe8a828b8b8b8080601f016020809104026020016040519081016040528093929190818152602001838380828437600081840152601f19601f820116905080830192505050505050508a6116ef565b91505098975050505050505050565b606060008054610adc90613c72565b80601f0160208091040260200160405190810160405280929190818152602001828054610b0890613c72565b8015610b555780601f10610b2a57610100808354040283529160200191610b55565b820191906000526020600020905b815481529060010190602001808311610b3857829003601f168201915b5050505050905090565b600063150b7a0260e01b9050949350505050565b600080610b828686868661154d565b90506000610b8f82610f0d565b905060046007811115610ba557610ba46134e0565b5b816007811115610bb857610bb76134e0565b5b1480610be8575060056007811115610bd357610bd26134e0565b5b816007811115610be657610be56134e0565b5b145b610c27576040517f08c379a0000000000000000000000000000000000000000000000000000000008152600401610c1e90613d16565b60405180910390fd5b600180600084815260200190815260200160002060020160006101000a81548160ff0219169083151502179055507f712ae1383f79ac853f8d882153778e0260ef8f03b504e2866e0593e04d2b291f82604051610c849190612bd0565b60405180910390a1610c9982888888886118ac565b610ca68288888888611990565b610cb38288888888611a9f565b8192505050949350505050565b6006543414610d04576040517f08c379a0000000000000000000000000000000000000000000000000000000008152600401610cfb90613da8565b60405180910390fd5b6001600860008373ffffffffffffffffffffffffffffffffffffffff1673ffffffffffffffffffffffffffffffffffffffff16815260200190815260200160002060006101000a81548160ff021916908315150217905550600160076000828254610d6f9190613df7565b925050819055508073ffffffffffffffffffffffffffffffffffffffff167fc1efba844224a64cc38ac334b9273e034faf8dd15b452d43cc95d60f8fd20c14600754604051610dbe9190612bd0565b60405180910390a250565b6000610e26600160008481526020019081526020016000206000016040518060200160405290816000820160009054906101000a900467ffffffffffffffff1667ffffffffffffffff1667ffffffffffffffff1681525050611afa565b67ffffffffffffffff169050919050565b7fb3b3f3b703cd84ce352197dcff232b1b5d3cfb2025ce47cf04742d0651f1af8881565b600090565b600060086000610e6e611b08565b73ffffffffffffffffffffffffffffffffffffffff1673ffffffffffffffffffffffffffffffffffffffff16815260200190815260200160002060009054906101000a900460ff16610ef5576040517f08c379a0000000000000000000000000000000000000000000000000000000008152600401610eec90613e99565b60405180910390fd5b610f028686868686611b10565b905095945050505050565b6000806001600084815260200190815260200160002090508060020160009054906101000a900460ff1615610f4657600791505061101d565b8060020160019054906101000a900460ff1615610f6757600291505061101d565b6000610f7284610dc9565b90506000811415610fb8576040517f08c379a0000000000000000000000000000000000000000000000000000000008152600401610faf90613f05565b60405180910390fd5b438110610fca5760009250505061101d565b6000610fd585611399565b9050438110610fea576001935050505061101d565b610ff385611b9a565b8015611004575061100385611be1565b5b15611015576004935050505061101d565b600393505050505b919050565b60006004600084815260200190815260200160002060030160008373ffffffffffffffffffffffffffffffffffffffff1673ffffffffffffffffffffffffffffffffffffffff16815260200190815260200160002060009054906101000a900460ff16905092915050565b600080600080600460008681526020019081526020016000209050806000015481600101548260020154935093509350509193909250565b60606040518060400160405280600181526020017f3100000000000000000000000000000000000000000000000000000000000000815250905090565b600060086000611110611b08565b73ffffffffffffffffffffffffffffffffffffffff1673ffffffffffffffffffffffffffffffffffffffff16815260200190815260200160002060009054906101000a900460ff16611197576040517f08c379a000000000000000000000000000000000000000000000000000000000815260040161118e90613e99565b60405180910390fd5b6111a18383611c0c565b905092915050565b6000806111b4611b08565b905061120787828888888080601f016020809104026020016040519081016040528093929190818152602001838380828437600081840152601f19601f82011690508083019250505050505050876116ef565b91505095945050505050565b600060086000611221611b08565b73ffffffffffffffffffffffffffffffffffffffff1673ffffffffffffffffffffffffffffffffffffffff16815260200190815260200160002060009054906101000a900460ff166112a8576040517f08c379a000000000000000000000000000000000000000000000000000000000815260040161129f90613e99565b60405180910390fd5b6112b485858585611c3d565b9050949350505050565b6000600860006112cc611b08565b73ffffffffffffffffffffffffffffffffffffffff1673ffffffffffffffffffffffffffffffffffffffff16815260200190815260200160002060009054906101000a900460ff16611353576040517f08c379a000000000000000000000000000000000000000000000000000000000815260040161134a90613e99565b60405180910390fd5b61135f85858585611ca5565b9050949350505050565b6000611376848484611fac565b90509392505050565b600090565b600063bc197c8160e01b905095945050505050565b60006113f6600160008481526020019081526020016000206001016040518060200160405290816000820160009054906101000a900467ffffffffffffffff1667ffffffffffffffff1667ffffffffffffffff1681525050611afa565b67ffffffffffffffff169050919050565b61140f610872565b73ffffffffffffffffffffffffffffffffffffffff1661142d611b08565b73ffffffffffffffffffffffffffffffffffffffff1614611483576040517f08c379a000000000000000000000000000000000000000000000000000000000815260040161147a90613f71565b60405180910390fd5b3073ffffffffffffffffffffffffffffffffffffffff166114a2610872565b73ffffffffffffffffffffffffffffffffffffffff16146114f75760006114c7611fb9565b6040516114d5929190613bc8565b604051809103902090505b806114eb6002611fc6565b146114f5576114e0565b505b6115468483838080601f016020809104026020016040519081016040528093929190818152602001838380828437600081840152601f19601f82011690508083019250505050505050856120a2565b5050505050565b6000848484846040516020016115669493929190614224565b6040516020818303038152906040528051906020012060001c9050949350505050565b60606040518060400160405280602081526020017f737570706f72743d627261766f2671756f72756d3d666f722c6162737461696e815250905090565b7f150214d74d59b7d1e90c73fc22ef3d991dd0a76b046543d4d80ab92d2a50328f81565b60006115fe83836115f96120d1565b611fac565b905092915050565b600063f23a6e6160e01b905095945050505050565b6000606460055461162c91906142ad565b60075461163991906142de565b9050919050565b60007f01ffc9a7000000000000000000000000000000000000000000000000000000007bffffffffffffffffffffffffffffffffffffffffffffffffffffffff1916827bffffffffffffffffffffffffffffffffffffffffffffffffffffffff1916149050919050565b60006116bd6116b76120e8565b83612202565b9050919050565b60008060006116d587878787612235565b915091506116e281612342565b8192505050949350505050565b6000806001600088815260200190815260200160002090506001600781111561171b5761171a6134e0565b5b61172488610f0d565b6007811115611736576117356134e0565b5b14611776576040517f08c379a000000000000000000000000000000000000000000000000000000000815260040161176d906143aa565b60405180910390fd5b60006117d5876117c5846000016040518060200160405290816000820160009054906101000a900467ffffffffffffffff1667ffffffffffffffff1667ffffffffffffffff1681525050611afa565b67ffffffffffffffff1686611fac565b90506117e48888888488612517565b600084511415611847578673ffffffffffffffffffffffffffffffffffffffff167fb8e138887d0aa13bab447e82de9d5c1777041ecd21ca36ba824ff1e6c07ddda48988848960405161183a94939291906143ca565b60405180910390a261189e565b8673ffffffffffffffffffffffffffffffffffffffff167fe2babfbac5889a709b63bb7f598b324e08bc5a4fb9ec647fb3cbc9ec07eb87128988848989604051611895959493929190614460565b60405180910390a25b809250505095945050505050565b3073ffffffffffffffffffffffffffffffffffffffff166118cb610872565b73ffffffffffffffffffffffffffffffffffffffff16146119895760005b8451811015611987573073ffffffffffffffffffffffffffffffffffffffff1685828151811061191c5761191b6144c1565b5b602002602001015173ffffffffffffffffffffffffffffffffffffffff16141561197657611975838281518110611956576119556144c1565b5b602002602001015180519060200120600261271e90919063ffffffff16565b5b80611980906144f0565b90506118e9565b505b5050505050565b600060405180606001604052806027815260200161505e60279139905060005b8551811015611a96576000808783815181106119cf576119ce6144c1565b5b602002602001015173ffffffffffffffffffffffffffffffffffffffff16878481518110611a00576119ff6144c1565b5b6020026020010151878581518110611a1b57611a1a6144c1565b5b6020026020010151604051611a30919061456a565b60006040518083038185875af1925050503d8060008114611a6d576040519150601f19603f3d011682016040523d82523d6000602084013e611a72565b606091505b5091509150611a8282828661279a565b50505080611a8f906144f0565b90506119b0565b50505050505050565b3073ffffffffffffffffffffffffffffffffffffffff16611abe610872565b73ffffffffffffffffffffffffffffffffffffffff1614611af357611ae36002612801565b611af257611af16002612836565b5b5b5050505050565b600081600001519050919050565b600033905090565b600080611b71611b697f150214d74d59b7d1e90c73fc22ef3d991dd0a76b046543d4d80ab92d2a50328f8989604051602001611b4e93929190614581565b604051602081830303815290604052805190602001206116aa565b8686866116c4565b9050611b8e878288604051806020016040528060008152506128b7565b91505095945050505050565b60008060046000848152602001908152602001600020905080600201548160010154611bc69190613df7565b611bd7611bd285610dc9565b61161b565b1115915050919050565b6000806004600084815260200190815260200160002090508060000154816001015411915050919050565b600080611c17611b08565b9050611c34848285604051806020016040528060008152506128b7565b91505092915050565b600080611c48611b08565b9050611c9a86828787878080601f016020809104026020016040519081016040528093929190818152602001838380828437600081840152601f19601f820116905080830192505050505050506128b7565b915050949350505050565b6000611caf61137f565b611ccc611cba611b08565b600143611cc791906145b8565b6115ea565b1015611d0d576040517f08c379a0000000000000000000000000000000000000000000000000000000008152600401611d049061465e565b60405180910390fd5b6000611d22868686868051906020012061154d565b90508451865114611d68576040517f08c379a0000000000000000000000000000000000000000000000000000000008152600401611d5f906146f0565b60405180910390fd5b8351865114611dac576040517f08c379a0000000000000000000000000000000000000000000000000000000008152600401611da3906146f0565b60405180910390fd5b6000865111611df0576040517f08c379a0000000000000000000000000000000000000000000000000000000008152600401611de79061475c565b60405180910390fd5b6000600160008381526020019081526020016000209050611e50816000016040518060200160405290816000820160009054906101000a900467ffffffffffffffff1667ffffffffffffffff1667ffffffffffffffff16815250506128d7565b611e8f576040517f08c379a0000000000000000000000000000000000000000000000000000000008152600401611e86906147ee565b60405180910390fd5b6000611ea1611e9c610e5b565b6128f1565b611eaa436128f1565b611eb49190614822565b90506000611ec8611ec36109df565b6128f1565b82611ed39190614822565b9050611eeb828460000161294890919063ffffffff16565b611f01818460010161294890919063ffffffff16565b7f7d84a6263ae0d98d3329bd7b46bb4e8d6f98cd35a7adb45c274c8b7fd5ebd5e084611f2b611b08565b8b8b8d5167ffffffffffffffff811115611f4857611f47612ccb565b5b604051908082528060200260200182016040528015611f7b57816020015b6060815260200190600190039081611f665790505b508c88888e604051611f95999897969594939291906149b6565b60405180910390a183945050505050949350505050565b6000600190509392505050565b3660008036915091509091565b6000611fd182612801565b15612008576040517f3db2a12a00000000000000000000000000000000000000000000000000000000815260040160405180910390fd5b60008260000160009054906101000a9004600f0b905082600101600082600f0b600f0b815260200190815260200160002054915082600101600082600f0b600f0b815260200190815260200160002060009055600181018360000160006101000a8154816fffffffffffffffffffffffffffffffff0219169083600f0b6fffffffffffffffffffffffffffffffff16021790555050919050565b60606120c884848460405180606001604052806029815260200161508560299139612977565b90509392505050565b606060405180602001604052806000815250905090565b60007f000000000000000000000000000000000000000000000000000000000000000073ffffffffffffffffffffffffffffffffffffffff163073ffffffffffffffffffffffffffffffffffffffff1614801561216457507f000000000000000000000000000000000000000000000000000000000000000046145b15612191577f000000000000000000000000000000000000000000000000000000000000000090506121ff565b6121fc7f00000000000000000000000000000000000000000000000000000000000000007f00000000000000000000000000000000000000000000000000000000000000007f0000000000000000000000000000000000000000000000000000000000000000612a8b565b90505b90565b60008282604051602001612217929190614ade565b60405160208183030381529060405280519060200120905092915050565b6000807f7fffffffffffffffffffffffffffffff5d576e7357a4501ddfe92f46681b20a08360001c1115612270576000600391509150612339565b601b8560ff16141580156122885750601c8560ff1614155b1561229a576000600491509150612339565b6000600187878787604051600081526020016040526040516122bf9493929190614b15565b6020604051602081039080840390855afa1580156122e1573d6000803e3d6000fd5b505050602060405103519050600073ffffffffffffffffffffffffffffffffffffffff168173ffffffffffffffffffffffffffffffffffffffff16141561233057600060019250925050612339565b80600092509250505b94509492505050565b60006004811115612356576123556134e0565b5b816004811115612369576123686134e0565b5b141561237457612514565b60016004811115612388576123876134e0565b5b81600481111561239b5761239a6134e0565b5b14156123dc576040517f08c379a00000000000000000000000000000000000000000000000000000000081526004016123d390614ba6565b60405180910390fd5b600260048111156123f0576123ef6134e0565b5b816004811115612403576124026134e0565b5b1415612444576040517f08c379a000000000000000000000000000000000000000000000000000000000815260040161243b90614c12565b60405180910390fd5b60036004811115612458576124576134e0565b5b81600481111561246b5761246a6134e0565b5b14156124ac576040517f08c379a00000000000000000000000000000000000000000000000000000000081526004016124a390614ca4565b60405180910390fd5b6004808111156124bf576124be6134e0565b5b8160048111156124d2576124d16134e0565b5b1415612513576040517f08c379a000000000000000000000000000000000000000000000000000000000815260040161250a90614d36565b60405180910390fd5b5b50565b60006004600087815260200190815260200160002090508060030160008673ffffffffffffffffffffffffffffffffffffffff1673ffffffffffffffffffffffffffffffffffffffff16815260200190815260200160002060009054906101000a900460ff16156125bd576040517f08c379a00000000000000000000000000000000000000000000000000000000081526004016125b490614dc8565b60405180910390fd5b60018160030160008773ffffffffffffffffffffffffffffffffffffffff1673ffffffffffffffffffffffffffffffffffffffff16815260200190815260200160002060006101000a81548160ff0219169083151502179055506000600281111561262b5761262a6134e0565b5b60ff168460ff161415612658578281600001600082825461264c9190613df7565b92505081905550612716565b6001600281111561266c5761266b6134e0565b5b60ff168460ff161415612699578281600101600082825461268d9190613df7565b92505081905550612715565b6002808111156126ac576126ab6134e0565b5b60ff168460ff1614156126d957828160020160008282546126cd9190613df7565b92505081905550612714565b6040517f08c379a000000000000000000000000000000000000000000000000000000000815260040161270b90614e5a565b60405180910390fd5b5b5b505050505050565b60008260000160109054906101000a9004600f0b90508183600101600083600f0b600f0b815260200190815260200160002081905550600181018360000160106101000a8154816fffffffffffffffffffffffffffffffff0219169083600f0b6fffffffffffffffffffffffffffffffff160217905550505050565b606083156127aa578290506127fa565b6000835111156127bd5782518084602001fd5b816040517f08c379a00000000000000000000000000000000000000000000000000000000081526004016127f19190612f92565b60405180910390fd5b9392505050565b60008160000160009054906101000a9004600f0b600f0b8260000160109054906101000a9004600f0b600f0b13159050919050565b60008160000160006101000a8154816fffffffffffffffffffffffffffffffff0219169083600f0b6fffffffffffffffffffffffffffffffff16021790555060008160000160106101000a8154816fffffffffffffffffffffffffffffffff0219169083600f0b6fffffffffffffffffffffffffffffffff16021790555050565b60006128cd858585856128c86120d1565b6116ef565b9050949350505050565b600080826000015167ffffffffffffffff16149050919050565b600067ffffffffffffffff8016821115612940576040517f08c379a000000000000000000000000000000000000000000000000000000000815260040161293790614eec565b60405180910390fd5b819050919050565b808260000160006101000a81548167ffffffffffffffff021916908367ffffffffffffffff1602179055505050565b6060824710156129bc576040517f08c379a00000000000000000000000000000000000000000000000000000000081526004016129b390614f7e565b60405180910390fd5b6129c585612ac5565b612a04576040517f08c379a00000000000000000000000000000000000000000000000000000000081526004016129fb90614fea565b60405180910390fd5b6000808673ffffffffffffffffffffffffffffffffffffffff168587604051612a2d919061456a565b60006040518083038185875af1925050503d8060008114612a6a576040519150601f19603f3d011682016040523d82523d6000602084013e612a6f565b606091505b5091509150612a7f82828661279a565b92505050949350505050565b60008383834630604051602001612aa695949392919061500a565b6040516020818303038152906040528051906020012090509392505050565b6000808273ffffffffffffffffffffffffffffffffffffffff163b119050919050565b6000604051905090565b600080fd5b600080fd5b60007fffffffff0000000000000000000000000000000000000000000000000000000082169050919050565b612b3181612afc565b8114612b3c57600080fd5b50565b600081359050612b4e81612b28565b92915050565b600060208284031215612b6a57612b69612af2565b5b6000612b7884828501612b3f565b91505092915050565b60008115159050919050565b612b9681612b81565b82525050565b6000602082019050612bb16000830184612b8d565b92915050565b6000819050919050565b612bca81612bb7565b82525050565b6000602082019050612be56000830184612bc1565b92915050565b612bf481612bb7565b8114612bff57600080fd5b50565b600081359050612c1181612beb565b92915050565b600060ff82169050919050565b612c2d81612c17565b8114612c3857600080fd5b50565b600081359050612c4a81612c24565b92915050565b600080fd5b600080fd5b600080fd5b60008083601f840112612c7557612c74612c50565b5b8235905067ffffffffffffffff811115612c9257612c91612c55565b5b602083019150836001820283011115612cae57612cad612c5a565b5b9250929050565b600080fd5b6000601f19601f8301169050919050565b7f4e487b7100000000000000000000000000000000000000000000000000000000600052604160045260246000fd5b612d0382612cba565b810181811067ffffffffffffffff82111715612d2257612d21612ccb565b5b80604052505050565b6000612d35612ae8565b9050612d418282612cfa565b919050565b600067ffffffffffffffff821115612d6157612d60612ccb565b5b612d6a82612cba565b9050602081019050919050565b82818337600083830152505050565b6000612d99612d9484612d46565b612d2b565b905082815260208101848484011115612db557612db4612cb5565b5b612dc0848285612d77565b509392505050565b600082601f830112612ddd57612ddc612c50565b5b8135612ded848260208601612d86565b91505092915050565b6000819050919050565b612e0981612df6565b8114612e1457600080fd5b50565b600081359050612e2681612e00565b92915050565b60008060008060008060008060e0898b031215612e4c57612e4b612af2565b5b6000612e5a8b828c01612c02565b9850506020612e6b8b828c01612c3b565b975050604089013567ffffffffffffffff811115612e8c57612e8b612af7565b5b612e988b828c01612c5f565b9650965050606089013567ffffffffffffffff811115612ebb57612eba612af7565b5b612ec78b828c01612dc8565b9450506080612ed88b828c01612c3b565b93505060a0612ee98b828c01612e17565b92505060c0612efa8b828c01612e17565b9150509295985092959890939650565b600081519050919050565b600082825260208201905092915050565b60005b83811015612f44578082015181840152602081019050612f29565b83811115612f53576000848401525b50505050565b6000612f6482612f0a565b612f6e8185612f15565b9350612f7e818560208601612f26565b612f8781612cba565b840191505092915050565b60006020820190508181036000830152612fac8184612f59565b905092915050565b600073ffffffffffffffffffffffffffffffffffffffff82169050919050565b6000612fdf82612fb4565b9050919050565b612fef81612fd4565b8114612ffa57600080fd5b50565b60008135905061300c81612fe6565b92915050565b6000806000806080858703121561302c5761302b612af2565b5b600061303a87828801612ffd565b945050602061304b87828801612ffd565b935050604061305c87828801612c02565b925050606085013567ffffffffffffffff81111561307d5761307c612af7565b5b61308987828801612dc8565b91505092959194509250565b61309e81612afc565b82525050565b60006020820190506130b96000830184613095565b92915050565b600067ffffffffffffffff8211156130da576130d9612ccb565b5b602082029050602081019050919050565b60006130fe6130f9846130bf565b612d2b565b9050808382526020820190506020840283018581111561312157613120612c5a565b5b835b8181101561314a57806131368882612ffd565b845260208401935050602081019050613123565b5050509392505050565b600082601f83011261316957613168612c50565b5b81356131798482602086016130eb565b91505092915050565b600067ffffffffffffffff82111561319d5761319c612ccb565b5b602082029050602081019050919050565b60006131c16131bc84613182565b612d2b565b905080838252602082019050602084028301858111156131e4576131e3612c5a565b5b835b8181101561320d57806131f98882612c02565b8452602084019350506020810190506131e6565b5050509392505050565b600082601f83011261322c5761322b612c50565b5b813561323c8482602086016131ae565b91505092915050565b600067ffffffffffffffff8211156132605761325f612ccb565b5b602082029050602081019050919050565b600061328461327f84613245565b612d2b565b905080838252602082019050602084028301858111156132a7576132a6612c5a565b5b835b818110156132ee57803567ffffffffffffffff8111156132cc576132cb612c50565b5b8086016132d98982612dc8565b855260208501945050506020810190506132a9565b5050509392505050565b600082601f83011261330d5761330c612c50565b5b813561331d848260208601613271565b91505092915050565b600080600080608085870312156133405761333f612af2565b5b600085013567ffffffffffffffff81111561335e5761335d612af7565b5b61336a87828801613154565b945050602085013567ffffffffffffffff81111561338b5761338a612af7565b5b61339787828801613217565b935050604085013567ffffffffffffffff8111156133b8576133b7612af7565b5b6133c4878288016132f8565b92505060606133d587828801612e17565b91505092959194509250565b6000602082840312156133f7576133f6612af2565b5b600061340584828501612ffd565b91505092915050565b60006020828403121561342457613423612af2565b5b600061343284828501612c02565b91505092915050565b61344481612df6565b82525050565b600060208201905061345f600083018461343b565b92915050565b600080600080600060a0868803121561348157613480612af2565b5b600061348f88828901612c02565b95505060206134a088828901612c3b565b94505060406134b188828901612c3b565b93505060606134c288828901612e17565b92505060806134d388828901612e17565b9150509295509295909350565b7f4e487b7100000000000000000000000000000000000000000000000000000000600052602160045260246000fd5b600881106135205761351f6134e0565b5b50565b60008190506135318261350f565b919050565b600061354182613523565b9050919050565b61355181613536565b82525050565b600060208201905061356c6000830184613548565b92915050565b6000806040838503121561358957613588612af2565b5b600061359785828601612c02565b92505060206135a885828601612ffd565b9150509250929050565b60006060820190506135c76000830186612bc1565b6135d46020830185612bc1565b6135e16040830184612bc1565b949350505050565b60008060408385031215613600576135ff612af2565b5b600061360e85828601612c02565b925050602061361f85828601612c3b565b9150509250929050565b60008060008060006080868803121561364557613644612af2565b5b600061365388828901612c02565b955050602061366488828901612c3b565b945050604086013567ffffffffffffffff81111561368557613684612af7565b5b61369188828901612c5f565b9350935050606086013567ffffffffffffffff8111156136b4576136b3612af7565b5b6136c088828901612dc8565b9150509295509295909350565b600080600080606085870312156136e7576136e6612af2565b5b60006136f587828801612c02565b945050602061370687828801612c3b565b935050604085013567ffffffffffffffff81111561372757613726612af7565b5b61373387828801612c5f565b925092505092959194509250565b600067ffffffffffffffff82111561375c5761375b612ccb565b5b61376582612cba565b9050602081019050919050565b600061378561378084613741565b612d2b565b9050828152602081018484840111156137a1576137a0612cb5565b5b6137ac848285612d77565b509392505050565b600082601f8301126137c9576137c8612c50565b5b81356137d9848260208601613772565b91505092915050565b600080600080608085870312156137fc576137fb612af2565b5b600085013567ffffffffffffffff81111561381a57613819612af7565b5b61382687828801613154565b945050602085013567ffffffffffffffff81111561384757613846612af7565b5b61385387828801613217565b935050604085013567ffffffffffffffff81111561387457613873612af7565b5b613880878288016132f8565b925050606085013567ffffffffffffffff8111156138a1576138a0612af7565b5b6138ad878288016137b4565b91505092959194509250565b6000806000606084860312156138d2576138d1612af2565b5b60006138e086828701612ffd565b93505060206138f186828701612c02565b925050604084013567ffffffffffffffff81111561391257613911612af7565b5b61391e86828701612dc8565b9150509250925092565b600080600080600060a0868803121561394457613943612af2565b5b600061395288828901612ffd565b955050602061396388828901612ffd565b945050604086013567ffffffffffffffff81111561398457613983612af7565b5b61399088828901613217565b935050606086013567ffffffffffffffff8111156139b1576139b0612af7565b5b6139bd88828901613217565b925050608086013567ffffffffffffffff8111156139de576139dd612af7565b5b6139ea88828901612dc8565b9150509295509295909350565b60008083601f840112613a0d57613a0c612c50565b5b8235905067ffffffffffffffff811115613a2a57613a29612c55565b5b602083019150836001820283011115613a4657613a45612c5a565b5b9250929050565b60008060008060608587031215613a6757613a66612af2565b5b6000613a7587828801612ffd565b9450506020613a8687828801612c02565b935050604085013567ffffffffffffffff811115613aa757613aa6612af7565b5b613ab3878288016139f7565b925092505092959194509250565b60008060408385031215613ad857613ad7612af2565b5b6000613ae685828601612ffd565b9250506020613af785828601612c02565b9150509250929050565b600080600080600060a08688031215613b1d57613b1c612af2565b5b6000613b2b88828901612ffd565b9550506020613b3c88828901612ffd565b9450506040613b4d88828901612c02565b9350506060613b5e88828901612c02565b925050608086013567ffffffffffffffff811115613b7f57613b7e612af7565b5b613b8b88828901612dc8565b9150509295509295909350565b600081905092915050565b6000613baf8385613b98565b9350613bbc838584612d77565b82840190509392505050565b6000613bd5828486613ba3565b91508190509392505050565b613bea81612c17565b82525050565b600060a082019050613c05600083018861343b565b613c126020830187612bc1565b613c1f6040830186613be1565b613c2c606083018561343b565b613c39608083018461343b565b9695505050505050565b7f4e487b7100000000000000000000000000000000000000000000000000000000600052602260045260246000fd5b60006002820490506001821680613c8a57607f821691505b60208210811415613c9e57613c9d613c43565b5b50919050565b7f476f7665726e6f723a2070726f706f73616c206e6f742073756363657373667560008201527f6c00000000000000000000000000000000000000000000000000000000000000602082015250565b6000613d00602183612f15565b9150613d0b82613ca4565b604082019050919050565b60006020820190508181036000830152613d2f81613cf3565b9050919050565b7f596f752073656e74207468652077726f6e67207175616e7469747920746f206260008201527f6563616d652061207061727465636970616e742e000000000000000000000000602082015250565b6000613d92603483612f15565b9150613d9d82613d36565b604082019050919050565b60006020820190508181036000830152613dc181613d85565b9050919050565b7f4e487b7100000000000000000000000000000000000000000000000000000000600052601160045260246000fd5b6000613e0282612bb7565b9150613e0d83612bb7565b9250827fffffffffffffffffffffffffffffffffffffffffffffffffffffffffffffffff03821115613e4257613e41613dc8565b5b828201905092915050565b7f596f7520617265206e6f742061207061727465636970616e742e000000000000600082015250565b6000613e83601a83612f15565b9150613e8e82613e4d565b602082019050919050565b60006020820190508181036000830152613eb281613e76565b9050919050565b7f476f7665726e6f723a20756e6b6e6f776e2070726f706f73616c206964000000600082015250565b6000613eef601d83612f15565b9150613efa82613eb9565b602082019050919050565b60006020820190508181036000830152613f1e81613ee2565b9050919050565b7f476f7665726e6f723a206f6e6c79476f7665726e616e63650000000000000000600082015250565b6000613f5b601883612f15565b9150613f6682613f25565b602082019050919050565b60006020820190508181036000830152613f8a81613f4e565b9050919050565b600081519050919050565b600082825260208201905092915050565b6000819050602082019050919050565b613fc681612fd4565b82525050565b6000613fd88383613fbd565b60208301905092915050565b6000602082019050919050565b6000613ffc82613f91565b6140068185613f9c565b935061401183613fad565b8060005b838110156140425781516140298882613fcc565b975061403483613fe4565b925050600181019050614015565b5085935050505092915050565b600081519050919050565b600082825260208201905092915050565b6000819050602082019050919050565b61408481612bb7565b82525050565b6000614096838361407b565b60208301905092915050565b6000602082019050919050565b60006140ba8261404f565b6140c4818561405a565b93506140cf8361406b565b8060005b838110156141005781516140e7888261408a565b97506140f2836140a2565b9250506001810190506140d3565b5085935050505092915050565b600081519050919050565b600082825260208201905092915050565b6000819050602082019050919050565b600081519050919050565b600082825260208201905092915050565b600061416082614139565b61416a8185614144565b935061417a818560208601612f26565b61418381612cba565b840191505092915050565b600061419a8383614155565b905092915050565b6000602082019050919050565b60006141ba8261410d565b6141c48185614118565b9350836020820285016141d685614129565b8060005b8581101561421257848403895281516141f3858261418e565b94506141fe836141a2565b925060208a019950506001810190506141da565b50829750879550505050505092915050565b6000608082019050818103600083015261423e8187613ff1565b9050818103602083015261425281866140af565b9050818103604083015261426681856141af565b9050614275606083018461343b565b95945050505050565b7f4e487b7100000000000000000000000000000000000000000000000000000000600052601260045260246000fd5b60006142b882612bb7565b91506142c383612bb7565b9250826142d3576142d261427e565b5b828204905092915050565b60006142e982612bb7565b91506142f483612bb7565b9250817fffffffffffffffffffffffffffffffffffffffffffffffffffffffffffffffff048311821515161561432d5761432c613dc8565b5b828202905092915050565b7f476f7665726e6f723a20766f7465206e6f742063757272656e746c792061637460008201527f6976650000000000000000000000000000000000000000000000000000000000602082015250565b6000614394602383612f15565b915061439f82614338565b604082019050919050565b600060208201905081810360008301526143c381614387565b9050919050565b60006080820190506143df6000830187612bc1565b6143ec6020830186613be1565b6143f96040830185612bc1565b818103606083015261440b8184612f59565b905095945050505050565b600082825260208201905092915050565b600061443282614139565b61443c8185614416565b935061444c818560208601612f26565b61445581612cba565b840191505092915050565b600060a0820190506144756000830188612bc1565b6144826020830187613be1565b61448f6040830186612bc1565b81810360608301526144a18185612f59565b905081810360808301526144b58184614427565b90509695505050505050565b7f4e487b7100000000000000000000000000000000000000000000000000000000600052603260045260246000fd5b60006144fb82612bb7565b91507fffffffffffffffffffffffffffffffffffffffffffffffffffffffffffffffff82141561452e5761452d613dc8565b5b600182019050919050565b600061454482614139565b61454e8185613b98565b935061455e818560208601612f26565b80840191505092915050565b60006145768284614539565b915081905092915050565b6000606082019050614596600083018661343b565b6145a36020830185612bc1565b6145b06040830184613be1565b949350505050565b60006145c382612bb7565b91506145ce83612bb7565b9250828210156145e1576145e0613dc8565b5b828203905092915050565b7f476f7665726e6f723a2070726f706f73657220766f7465732062656c6f77207060008201527f726f706f73616c207468726573686f6c64000000000000000000000000000000602082015250565b6000614648603183612f15565b9150614653826145ec565b604082019050919050565b600060208201905081810360008301526146778161463b565b9050919050565b7f476f7665726e6f723a20696e76616c69642070726f706f73616c206c656e677460008201527f6800000000000000000000000000000000000000000000000000000000000000602082015250565b60006146da602183612f15565b91506146e58261467e565b604082019050919050565b60006020820190508181036000830152614709816146cd565b9050919050565b7f476f7665726e6f723a20656d7074792070726f706f73616c0000000000000000600082015250565b6000614746601883612f15565b915061475182614710565b602082019050919050565b6000602082019050818103600083015261477581614739565b9050919050565b7f476f7665726e6f723a2070726f706f73616c20616c726561647920657869737460008201527f7300000000000000000000000000000000000000000000000000000000000000602082015250565b60006147d8602183612f15565b91506147e38261477c565b604082019050919050565b60006020820190508181036000830152614807816147cb565b9050919050565b600067ffffffffffffffff82169050919050565b600061482d8261480e565b91506148388361480e565b92508267ffffffffffffffff0382111561485557614854613dc8565b5b828201905092915050565b61486981612fd4565b82525050565b600081519050919050565b600082825260208201905092915050565b6000819050602082019050919050565b600082825260208201905092915050565b60006148b782612f0a565b6148c1818561489b565b93506148d1818560208601612f26565b6148da81612cba565b840191505092915050565b60006148f183836148ac565b905092915050565b6000602082019050919050565b60006149118261486f565b61491b818561487a565b93508360208202850161492d8561488b565b8060005b85811015614969578484038952815161494a85826148e5565b9450614955836148f9565b925060208a01995050600181019050614931565b50829750879550505050505092915050565b6000819050919050565b60006149a061499b6149968461480e565b61497b565b612bb7565b9050919050565b6149b081614985565b82525050565b6000610120820190506149cc600083018c612bc1565b6149d9602083018b614860565b81810360408301526149eb818a613ff1565b905081810360608301526149ff81896140af565b90508181036080830152614a138188614906565b905081810360a0830152614a2781876141af565b9050614a3660c08301866149a7565b614a4360e08301856149a7565b818103610100830152614a568184612f59565b90509a9950505050505050505050565b600081905092915050565b7f1901000000000000000000000000000000000000000000000000000000000000600082015250565b6000614aa7600283614a66565b9150614ab282614a71565b600282019050919050565b6000819050919050565b614ad8614ad382612df6565b614abd565b82525050565b6000614ae982614a9a565b9150614af58285614ac7565b602082019150614b058284614ac7565b6020820191508190509392505050565b6000608082019050614b2a600083018761343b565b614b376020830186613be1565b614b44604083018561343b565b614b51606083018461343b565b95945050505050565b7f45434453413a20696e76616c6964207369676e61747572650000000000000000600082015250565b6000614b90601883612f15565b9150614b9b82614b5a565b602082019050919050565b60006020820190508181036000830152614bbf81614b83565b9050919050565b7f45434453413a20696e76616c6964207369676e6174757265206c656e67746800600082015250565b6000614bfc601f83612f15565b9150614c0782614bc6565b602082019050919050565b60006020820190508181036000830152614c2b81614bef565b9050919050565b7f45434453413a20696e76616c6964207369676e6174757265202773272076616c60008201527f7565000000000000000000000000000000000000000000000000000000000000602082015250565b6000614c8e602283612f15565b9150614c9982614c32565b604082019050919050565b60006020820190508181036000830152614cbd81614c81565b9050919050565b7f45434453413a20696e76616c6964207369676e6174757265202776272076616c60008201527f7565000000000000000000000000000000000000000000000000000000000000602082015250565b6000614d20602283612f15565b9150614d2b82614cc4565b604082019050919050565b60006020820190508181036000830152614d4f81614d13565b9050919050565b7f476f7665726e6f72566f74696e6753696d706c653a20766f746520616c72656160008201527f6479206361737400000000000000000000000000000000000000000000000000602082015250565b6000614db2602783612f15565b9150614dbd82614d56565b604082019050919050565b60006020820190508181036000830152614de181614da5565b9050919050565b7f476f7665726e6f72566f74696e6753696d706c653a20696e76616c696420766160008201527f6c756520666f7220656e756d20566f7465547970650000000000000000000000602082015250565b6000614e44603583612f15565b9150614e4f82614de8565b604082019050919050565b60006020820190508181036000830152614e7381614e37565b9050919050565b7f53616665436173743a2076616c756520646f65736e27742066697420696e203660008201527f3420626974730000000000000000000000000000000000000000000000000000602082015250565b6000614ed6602683612f15565b9150614ee182614e7a565b604082019050919050565b60006020820190508181036000830152614f0581614ec9565b9050919050565b7f416464726573733a20696e73756666696369656e742062616c616e636520666f60008201527f722063616c6c0000000000000000000000000000000000000000000000000000602082015250565b6000614f68602683612f15565b9150614f7382614f0c565b604082019050919050565b60006020820190508181036000830152614f9781614f5b565b9050919050565b7f416464726573733a2063616c6c20746f206e6f6e2d636f6e7472616374000000600082015250565b6000614fd4601d83612f15565b9150614fdf82614f9e565b602082019050919050565b6000602082019050818103600083015261500381614fc7565b9050919050565b600060a08201905061501f600083018861343b565b61502c602083018761343b565b615039604083018661343b565b6150466060830185612bc1565b6150536080830184614860565b969550505050505056fe476f7665726e6f723a2063616c6c20726576657274656420776974686f7574206d657373616765416464726573733a206c6f772d6c6576656c2063616c6c20776974682076616c7565206661696c6564a2646970667358221220de03a00bc88761e7ffadd7b21f2c5f9837f8734048a4f9c97679ff778a19310464736f6c634300080b0033",
  "immutableReferences": {
    "3272": [
      {
        "length": 32,
        "start": 8555
      }
    ],
    "3274": [
      {
        "length": 32,
        "start": 8514
      }
    ],
    "3276": [
      {
        "length": 32,
        "start": 8428
      }
    ],
    "3278": [
      {
        "length": 32,
        "start": 8631
      }
    ],
    "3280": [
      {
        "length": 32,
        "start": 8664
      }
    ],
    "3282": [
      {
        "length": 32,
        "start": 8598
      }
    ]
  },
  "source": "pragma solidity >=0.8;\n\nimport \"../node_modules/@openzeppelin/contracts/governance/extensions/GovernorCountingSimple.sol\";\nimport \"../node_modules/@openzeppelin/contracts/utils/Context.sol\";\n\ncontract BridgeGovernance is Context, GovernorCountingSimple {\n    uint256 private quorumPercentage;\n    uint256 private collateral;\n    uint256 private nPartecipants = 0;\n    mapping(address => bool) partecipants;\n\n    event PartecipantJoined(address indexed partecipant, uint256 nPartecipants);\n\n    modifier onlyPartecipant() {\n        require(partecipants[_msgSender()], \"You are not a partecipant.\");\n        _;\n    }\n\n    constructor(uint256 _quorum, uint256 _collateral)\n        payable\n        Governor(\"BridgeGovernance\")\n    {\n        quorumPercentage = _quorum;\n        collateral = _collateral;\n        join(_msgSender());\n    }\n\n    // The user become a partecipant by sending a specific quantity\n    // of money. In this way we enforce a correct behaviour.\n    function join(address partecipant) public payable {\n        require(\n            msg.value == collateral,\n            \"You sent the wrong quantity to became a partecipant.\"\n        );\n        partecipants[partecipant] = true;\n        nPartecipants += 1;\n        emit PartecipantJoined(partecipant, nPartecipants);\n    }\n\n    //The quorum is a fraction of the partecipants\n    function quorum(uint256 blockNumber)\n        public\n        view\n        override\n        returns (uint256)\n    {\n        return nPartecipants * (quorumPercentage / 100);\n    }\n\n    //Returns the number of votes associated to each partecipant,\n    //in this implementation we use a fixed number.\n    function _getVotes(\n        address account,\n        uint256 blockNumber,\n        bytes memory params\n    ) internal view override returns (uint256) {\n        return 1;\n    }\n\n    function votingDelay() public pure override returns (uint256) {\n        // for testing purposes we set 0 delay, but in a real context a slight delay would be better\n        return 0;\n        //return 6575; //one day (based on block production rate)\n    }\n\n    function votingPeriod() public pure override returns (uint256) {\n        return 10;\n        //return 46027; //one week\n    }\n\n    /**\n     * @dev Part of the Governor Bravo's interface: _\"The number of votes required in order for a voter to become a proposer\"_.\n     */\n    function proposalThreshold() public view override returns (uint256) {\n        return 0;\n    }\n\n    // Proposal function restricted only to partecipants who blocked funds.\n    function propose(\n        address[] memory targets,\n        uint256[] memory values,\n        bytes[] memory calldatas,\n        string memory description\n    ) public override onlyPartecipant returns (uint256) {\n        return super.propose(targets, values, calldatas, description);\n    }\n\n    function castVote(uint256 proposalId, uint8 support)\n        public\n        virtual\n        override\n        onlyPartecipant\n        returns (uint256)\n    {\n        return super.castVote(proposalId, support);\n    }\n\n    function castVoteWithReason(\n        uint256 proposalId,\n        uint8 support,\n        string calldata reason\n    ) public virtual override onlyPartecipant returns (uint256) {\n        return super.castVoteWithReason(proposalId, support, reason);\n    }\n\n    function castVoteBySig(\n        uint256 proposalId,\n        uint8 support,\n        uint8 v,\n        bytes32 r,\n        bytes32 s\n    ) public virtual override onlyPartecipant returns (uint256) {\n        return super.castVoteBySig(proposalId, support, v, r, s);\n    }\n}\n",
  "sourcePath": "/root/bc_connector/crosscoin/contracts/BridgeGovernance.sol",
  "compiler": {
    "name": "solc",
    "version": "0.8.11+commit.d7f03943.Emscripten.clang"
  },
  "schemaVersion": "3.4.7",
  "updatedAt": "2022-06-08T10:37:16.621Z",
  "networkType": "ethereum",
  "devdoc": {
    "errors": {
      "Empty()": [
        {
          "details": "An operation (e.g. {front}) couldn't be completed due to the queue being empty."
        }
      ]
    },
    "kind": "dev",
    "methods": {
      "COUNTING_MODE()": {
        "details": "See {IGovernor-COUNTING_MODE}."
      },
      "castVote(uint256,uint8)": {
        "details": "See {IGovernor-castVote}."
      },
      "castVoteBySig(uint256,uint8,uint8,bytes32,bytes32)": {
        "details": "See {IGovernor-castVoteBySig}."
      },
      "castVoteWithReason(uint256,uint8,string)": {
        "details": "See {IGovernor-castVoteWithReason}."
      },
      "castVoteWithReasonAndParams(uint256,uint8,string,bytes)": {
        "details": "See {IGovernor-castVoteWithReasonAndParams}."
      },
      "castVoteWithReasonAndParamsBySig(uint256,uint8,string,bytes,uint8,bytes32,bytes32)": {
        "details": "See {IGovernor-castVoteWithReasonAndParamsBySig}."
      },
      "execute(address[],uint256[],bytes[],bytes32)": {
        "details": "See {IGovernor-execute}."
      },
      "getVotes(address,uint256)": {
        "details": "See {IGovernor-getVotes}."
      },
      "getVotesWithParams(address,uint256,bytes)": {
        "details": "See {IGovernor-getVotesWithParams}."
      },
      "hasVoted(uint256,address)": {
        "details": "See {IGovernor-hasVoted}."
      },
      "hashProposal(address[],uint256[],bytes[],bytes32)": {
        "details": "See {IGovernor-hashProposal}. The proposal id is produced by hashing the RLC encoded `targets` array, the `values` array, the `calldatas` array and the descriptionHash (bytes32 which itself is the keccak256 hash of the description string). This proposal id can be produced from the proposal data which is part of the {ProposalCreated} event. It can even be computed in advance, before the proposal is submitted. Note that the chainId and the governor address are not part of the proposal id computation. Consequently, the same proposal (with same operation and same description) will have the same id if submitted on multiple governors across multiple networks. This also means that in order to execute the same operation twice (on the same governor) the proposer will have to change the description in order to avoid proposal id conflicts."
      },
      "name()": {
        "details": "See {IGovernor-name}."
      },
      "onERC1155BatchReceived(address,address,uint256[],uint256[],bytes)": {
        "details": "See {IERC1155Receiver-onERC1155BatchReceived}."
      },
      "onERC1155Received(address,address,uint256,uint256,bytes)": {
        "details": "See {IERC1155Receiver-onERC1155Received}."
      },
      "onERC721Received(address,address,uint256,bytes)": {
        "details": "See {IERC721Receiver-onERC721Received}."
      },
      "proposalDeadline(uint256)": {
        "details": "See {IGovernor-proposalDeadline}."
      },
      "proposalSnapshot(uint256)": {
        "details": "See {IGovernor-proposalSnapshot}."
      },
      "proposalThreshold()": {
        "details": "Part of the Governor Bravo's interface: _\"The number of votes required in order for a voter to become a proposer\"_."
      },
      "proposalVotes(uint256)": {
        "details": "Accessor to the internal vote counts."
      },
      "propose(address[],uint256[],bytes[],string)": {
        "details": "See {IGovernor-propose}."
      },
      "quorum(uint256)": {
        "details": "Minimum number of cast voted required for a proposal to be successful. Note: The `blockNumber` parameter corresponds to the snapshot used for counting vote. This allows to scale the quorum depending on values such as the totalSupply of a token at this block (see {ERC20Votes})."
      },
      "relay(address,uint256,bytes)": {
        "details": "Relays a transaction or function call to an arbitrary target. In cases where the governance executor is some contract other than the governor itself, like when using a timelock, this function can be invoked in a governance proposal to recover tokens or Ether that was sent to the governor contract by mistake. Note that if the executor is simply the governor itself, use of `relay` is redundant."
      },
      "state(uint256)": {
        "details": "See {IGovernor-state}."
      },
      "supportsInterface(bytes4)": {
        "details": "See {IERC165-supportsInterface}."
      },
      "version()": {
        "details": "See {IGovernor-version}."
      },
      "votingDelay()": {
        "details": "Delay, in number of block, between the proposal is created and the vote starts. This can be increassed to leave time for users to buy voting power, of delegate it, before the voting of a proposal starts."
      },
      "votingPeriod()": {
        "details": "Delay, in number of blocks, between the vote start and vote ends. NOTE: The {votingDelay} can delay the start of the vote. This must be considered when setting the voting duration compared to the voting delay."
      }
    },
    "version": 1
  },
  "userdoc": {
    "kind": "user",
    "methods": {
      "quorum(uint256)": {
        "notice": "module:user-config"
      },
      "votingDelay()": {
        "notice": "module:user-config"
      },
      "votingPeriod()": {
        "notice": "module:user-config"
      }
    },
    "version": 1
  }
}