{
  "contractName": "Bridge",
  "abi": [
    {
      "inputs": [
        {
          "internalType": "uint8",
          "name": "domainID",
          "type": "uint8"
        },
        {
          "internalType": "address[]",
          "name": "initialRelayers",
          "type": "address[]"
        },
        {
          "internalType": "uint256",
          "name": "initialRelayerThreshold",
          "type": "uint256"
        },
        {
          "internalType": "uint256",
          "name": "fee",
          "type": "uint256"
        },
        {
          "internalType": "uint256",
          "name": "expiry",
          "type": "uint256"
        }
      ],
      "stateMutability": "nonpayable",
      "type": "constructor"
    },
    {
      "anonymous": false,
      "inputs": [
        {
          "indexed": false,
          "internalType": "uint8",
          "name": "destinationDomainID",
          "type": "uint8"
        },
        {
          "indexed": false,
          "internalType": "bytes32",
          "name": "resourceID",
          "type": "bytes32"
        },
        {
          "indexed": false,
          "internalType": "uint64",
          "name": "depositNonce",
          "type": "uint64"
        },
        {
          "indexed": true,
          "internalType": "address",
          "name": "user",
          "type": "address"
        },
        {
          "indexed": false,
          "internalType": "bytes",
          "name": "data",
          "type": "bytes"
        },
        {
          "indexed": false,
          "internalType": "bytes",
          "name": "handlerResponse",
          "type": "bytes"
        }
      ],
      "name": "Deposit",
      "type": "event"
    },
    {
      "anonymous": false,
      "inputs": [
        {
          "indexed": false,
          "internalType": "bytes",
          "name": "lowLevelData",
          "type": "bytes"
        }
      ],
      "name": "FailedHandlerExecution",
      "type": "event"
    },
    {
      "anonymous": false,
      "inputs": [
        {
          "indexed": false,
          "internalType": "address",
          "name": "newFeeHandler",
          "type": "address"
        }
      ],
      "name": "FeeHandlerChanged",
      "type": "event"
    },
    {
      "anonymous": false,
      "inputs": [
        {
          "indexed": false,
          "internalType": "address",
          "name": "account",
          "type": "address"
        }
      ],
      "name": "Paused",
      "type": "event"
    },
    {
      "anonymous": false,
      "inputs": [
        {
          "indexed": false,
          "internalType": "uint8",
          "name": "originDomainID",
          "type": "uint8"
        },
        {
          "indexed": false,
          "internalType": "uint64",
          "name": "depositNonce",
          "type": "uint64"
        },
        {
          "indexed": false,
          "internalType": "enum Bridge.ProposalStatus",
          "name": "status",
          "type": "uint8"
        },
        {
          "indexed": false,
          "internalType": "bytes32",
          "name": "dataHash",
          "type": "bytes32"
        }
      ],
      "name": "ProposalEvent",
      "type": "event"
    },
    {
      "anonymous": false,
      "inputs": [
        {
          "indexed": false,
          "internalType": "uint8",
          "name": "originDomainID",
          "type": "uint8"
        },
        {
          "indexed": false,
          "internalType": "uint64",
          "name": "depositNonce",
          "type": "uint64"
        },
        {
          "indexed": false,
          "internalType": "enum Bridge.ProposalStatus",
          "name": "status",
          "type": "uint8"
        },
        {
          "indexed": false,
          "internalType": "bytes32",
          "name": "dataHash",
          "type": "bytes32"
        }
      ],
      "name": "ProposalVote",
      "type": "event"
    },
    {
      "anonymous": false,
      "inputs": [
        {
          "indexed": false,
          "internalType": "address",
          "name": "relayer",
          "type": "address"
        }
      ],
      "name": "RelayerAdded",
      "type": "event"
    },
    {
      "anonymous": false,
      "inputs": [
        {
          "indexed": false,
          "internalType": "address",
          "name": "relayer",
          "type": "address"
        }
      ],
      "name": "RelayerRemoved",
      "type": "event"
    },
    {
      "anonymous": false,
      "inputs": [
        {
          "indexed": false,
          "internalType": "uint256",
          "name": "newThreshold",
          "type": "uint256"
        }
      ],
      "name": "RelayerThresholdChanged",
      "type": "event"
    },
    {
      "anonymous": false,
      "inputs": [
        {
          "indexed": true,
          "internalType": "bytes32",
          "name": "role",
          "type": "bytes32"
        },
        {
          "indexed": true,
          "internalType": "address",
          "name": "account",
          "type": "address"
        },
        {
          "indexed": true,
          "internalType": "address",
          "name": "sender",
          "type": "address"
        }
      ],
      "name": "RoleGranted",
      "type": "event"
    },
    {
      "anonymous": false,
      "inputs": [
        {
          "indexed": true,
          "internalType": "bytes32",
          "name": "role",
          "type": "bytes32"
        },
        {
          "indexed": true,
          "internalType": "address",
          "name": "account",
          "type": "address"
        },
        {
          "indexed": true,
          "internalType": "address",
          "name": "sender",
          "type": "address"
        }
      ],
      "name": "RoleRevoked",
      "type": "event"
    },
    {
      "anonymous": false,
      "inputs": [
        {
          "indexed": false,
          "internalType": "address",
          "name": "account",
          "type": "address"
        }
      ],
      "name": "Unpaused",
      "type": "event"
    },
    {
      "inputs": [],
      "name": "DEFAULT_ADMIN_ROLE",
      "outputs": [
        {
          "internalType": "bytes32",
          "name": "",
          "type": "bytes32"
        }
      ],
      "stateMutability": "view",
      "type": "function"
    },
    {
      "inputs": [],
      "name": "MAX_RELAYERS",
      "outputs": [
        {
          "internalType": "uint256",
          "name": "",
          "type": "uint256"
        }
      ],
      "stateMutability": "view",
      "type": "function"
    },
    {
      "inputs": [],
      "name": "RELAYER_ROLE",
      "outputs": [
        {
          "internalType": "bytes32",
          "name": "",
          "type": "bytes32"
        }
      ],
      "stateMutability": "view",
      "type": "function"
    },
    {
      "inputs": [
        {
          "internalType": "uint8",
          "name": "",
          "type": "uint8"
        }
      ],
      "name": "_depositCounts",
      "outputs": [
        {
          "internalType": "uint64",
          "name": "",
          "type": "uint64"
        }
      ],
      "stateMutability": "view",
      "type": "function"
    },
    {
      "inputs": [],
      "name": "_domainID",
      "outputs": [
        {
          "internalType": "uint8",
          "name": "",
          "type": "uint8"
        }
      ],
      "stateMutability": "view",
      "type": "function"
    },
    {
      "inputs": [],
      "name": "_expiry",
      "outputs": [
        {
          "internalType": "uint40",
          "name": "",
          "type": "uint40"
        }
      ],
      "stateMutability": "view",
      "type": "function"
    },
    {
      "inputs": [],
      "name": "_feeHandler",
      "outputs": [
        {
          "internalType": "contract IFeeHandler",
          "name": "",
          "type": "address"
        }
      ],
      "stateMutability": "view",
      "type": "function"
    },
    {
      "inputs": [],
      "name": "_relayerThreshold",
      "outputs": [
        {
          "internalType": "uint8",
          "name": "",
          "type": "uint8"
        }
      ],
      "stateMutability": "view",
      "type": "function"
    },
    {
      "inputs": [
        {
          "internalType": "bytes32",
          "name": "",
          "type": "bytes32"
        }
      ],
      "name": "_resourceIDToHandlerAddress",
      "outputs": [
        {
          "internalType": "address",
          "name": "",
          "type": "address"
        }
      ],
      "stateMutability": "view",
      "type": "function"
    },
    {
      "inputs": [
        {
          "internalType": "bytes32",
          "name": "role",
          "type": "bytes32"
        }
      ],
      "name": "getRoleAdmin",
      "outputs": [
        {
          "internalType": "bytes32",
          "name": "",
          "type": "bytes32"
        }
      ],
      "stateMutability": "view",
      "type": "function"
    },
    {
      "inputs": [
        {
          "internalType": "bytes32",
          "name": "role",
          "type": "bytes32"
        },
        {
          "internalType": "uint256",
          "name": "index",
          "type": "uint256"
        }
      ],
      "name": "getRoleMember",
      "outputs": [
        {
          "internalType": "address",
          "name": "",
          "type": "address"
        }
      ],
      "stateMutability": "view",
      "type": "function"
    },
    {
      "inputs": [
        {
          "internalType": "bytes32",
          "name": "role",
          "type": "bytes32"
        }
      ],
      "name": "getRoleMemberCount",
      "outputs": [
        {
          "internalType": "uint256",
          "name": "",
          "type": "uint256"
        }
      ],
      "stateMutability": "view",
      "type": "function"
    },
    {
      "inputs": [
        {
          "internalType": "bytes32",
          "name": "role",
          "type": "bytes32"
        },
        {
          "internalType": "address",
          "name": "account",
          "type": "address"
        }
      ],
      "name": "getRoleMemberIndex",
      "outputs": [
        {
          "internalType": "uint256",
          "name": "",
          "type": "uint256"
        }
      ],
      "stateMutability": "view",
      "type": "function"
    },
    {
      "inputs": [
        {
          "internalType": "bytes32",
          "name": "role",
          "type": "bytes32"
        },
        {
          "internalType": "address",
          "name": "account",
          "type": "address"
        }
      ],
      "name": "grantRole",
      "outputs": [],
      "stateMutability": "nonpayable",
      "type": "function"
    },
    {
      "inputs": [
        {
          "internalType": "bytes32",
          "name": "role",
          "type": "bytes32"
        },
        {
          "internalType": "address",
          "name": "account",
          "type": "address"
        }
      ],
      "name": "hasRole",
      "outputs": [
        {
          "internalType": "bool",
          "name": "",
          "type": "bool"
        }
      ],
      "stateMutability": "view",
      "type": "function"
    },
    {
      "inputs": [
        {
          "internalType": "address",
          "name": "",
          "type": "address"
        }
      ],
      "name": "isValidForwarder",
      "outputs": [
        {
          "internalType": "bool",
          "name": "",
          "type": "bool"
        }
      ],
      "stateMutability": "view",
      "type": "function"
    },
    {
      "inputs": [],
      "name": "paused",
      "outputs": [
        {
          "internalType": "bool",
          "name": "",
          "type": "bool"
        }
      ],
      "stateMutability": "view",
      "type": "function"
    },
    {
      "inputs": [
        {
          "internalType": "bytes32",
          "name": "role",
          "type": "bytes32"
        },
        {
          "internalType": "address",
          "name": "account",
          "type": "address"
        }
      ],
      "name": "renounceRole",
      "outputs": [],
      "stateMutability": "nonpayable",
      "type": "function"
    },
    {
      "inputs": [
        {
          "internalType": "bytes32",
          "name": "role",
          "type": "bytes32"
        },
        {
          "internalType": "address",
          "name": "account",
          "type": "address"
        }
      ],
      "name": "revokeRole",
      "outputs": [],
      "stateMutability": "nonpayable",
      "type": "function"
    },
    {
      "inputs": [
        {
          "internalType": "uint72",
          "name": "destNonce",
          "type": "uint72"
        },
        {
          "internalType": "bytes32",
          "name": "dataHash",
          "type": "bytes32"
        },
        {
          "internalType": "address",
          "name": "relayer",
          "type": "address"
        }
      ],
      "name": "_hasVotedOnProposal",
      "outputs": [
        {
          "internalType": "bool",
          "name": "",
          "type": "bool"
        }
      ],
      "stateMutability": "view",
      "type": "function"
    },
    {
      "inputs": [
        {
          "internalType": "address",
          "name": "relayer",
          "type": "address"
        }
      ],
      "name": "isRelayer",
      "outputs": [
        {
          "internalType": "bool",
          "name": "",
          "type": "bool"
        }
      ],
      "stateMutability": "view",
      "type": "function"
    },
    {
      "inputs": [
        {
          "internalType": "address",
          "name": "newAdmin",
          "type": "address"
        }
      ],
      "name": "renounceAdmin",
      "outputs": [],
      "stateMutability": "nonpayable",
      "type": "function"
    },
    {
      "inputs": [],
      "name": "adminPauseTransfers",
      "outputs": [],
      "stateMutability": "nonpayable",
      "type": "function"
    },
    {
      "inputs": [],
      "name": "adminUnpauseTransfers",
      "outputs": [],
      "stateMutability": "nonpayable",
      "type": "function"
    },
    {
      "inputs": [
        {
          "internalType": "uint256",
          "name": "newThreshold",
          "type": "uint256"
        }
      ],
      "name": "adminChangeRelayerThreshold",
      "outputs": [],
      "stateMutability": "nonpayable",
      "type": "function"
    },
    {
      "inputs": [
        {
          "internalType": "address",
          "name": "relayerAddress",
          "type": "address"
        }
      ],
      "name": "adminAddRelayer",
      "outputs": [],
      "stateMutability": "nonpayable",
      "type": "function"
    },
    {
      "inputs": [
        {
          "internalType": "address",
          "name": "relayerAddress",
          "type": "address"
        }
      ],
      "name": "adminRemoveRelayer",
      "outputs": [],
      "stateMutability": "nonpayable",
      "type": "function"
    },
    {
      "inputs": [
        {
          "internalType": "address",
          "name": "handlerAddress",
          "type": "address"
        },
        {
          "internalType": "bytes32",
          "name": "resourceID",
          "type": "bytes32"
        },
        {
          "internalType": "address",
          "name": "tokenAddress",
          "type": "address"
        }
      ],
      "name": "adminSetResource",
      "outputs": [],
      "stateMutability": "nonpayable",
      "type": "function"
    },
    {
      "inputs": [
        {
          "internalType": "address",
          "name": "handlerAddress",
          "type": "address"
        },
        {
          "internalType": "bytes32",
          "name": "resourceID",
          "type": "bytes32"
        },
        {
          "internalType": "address",
          "name": "contractAddress",
          "type": "address"
        },
        {
          "internalType": "bytes4",
          "name": "depositFunctionSig",
          "type": "bytes4"
        },
        {
          "internalType": "uint256",
          "name": "depositFunctionDepositerOffset",
          "type": "uint256"
        },
        {
          "internalType": "bytes4",
          "name": "executeFunctionSig",
          "type": "bytes4"
        }
      ],
      "name": "adminSetGenericResource",
      "outputs": [],
      "stateMutability": "nonpayable",
      "type": "function"
    },
    {
      "inputs": [
        {
          "internalType": "address",
          "name": "handlerAddress",
          "type": "address"
        },
        {
          "internalType": "address",
          "name": "tokenAddress",
          "type": "address"
        }
      ],
      "name": "adminSetBurnable",
      "outputs": [],
      "stateMutability": "nonpayable",
      "type": "function"
    },
    {
      "inputs": [
        {
          "internalType": "uint8",
          "name": "domainID",
          "type": "uint8"
        },
        {
          "internalType": "uint64",
          "name": "nonce",
          "type": "uint64"
        }
      ],
      "name": "adminSetDepositNonce",
      "outputs": [],
      "stateMutability": "nonpayable",
      "type": "function"
    },
    {
      "inputs": [
        {
          "internalType": "address",
          "name": "forwarder",
          "type": "address"
        },
        {
          "internalType": "bool",
          "name": "valid",
          "type": "bool"
        }
      ],
      "name": "adminSetForwarder",
      "outputs": [],
      "stateMutability": "nonpayable",
      "type": "function"
    },
    {
      "inputs": [
        {
          "internalType": "uint8",
          "name": "originDomainID",
          "type": "uint8"
        },
        {
          "internalType": "uint64",
          "name": "depositNonce",
          "type": "uint64"
        },
        {
          "internalType": "bytes32",
          "name": "dataHash",
          "type": "bytes32"
        }
      ],
      "name": "getProposal",
      "outputs": [
        {
          "components": [
            {
              "internalType": "enum Bridge.ProposalStatus",
              "name": "_status",
              "type": "uint8"
            },
            {
              "internalType": "uint200",
              "name": "_yesVotes",
              "type": "uint200"
            },
            {
              "internalType": "uint8",
              "name": "_yesVotesTotal",
              "type": "uint8"
            },
            {
              "internalType": "uint40",
              "name": "_proposedBlock",
              "type": "uint40"
            }
          ],
          "internalType": "struct Bridge.Proposal",
          "name": "",
          "type": "tuple"
        }
      ],
      "stateMutability": "view",
      "type": "function"
    },
    {
      "inputs": [],
      "name": "_totalRelayers",
      "outputs": [
        {
          "internalType": "uint256",
          "name": "",
          "type": "uint256"
        }
      ],
      "stateMutability": "view",
      "type": "function"
    },
    {
      "inputs": [
        {
          "internalType": "address",
          "name": "newFeeHandler",
          "type": "address"
        }
      ],
      "name": "adminChangeFeeHandler",
      "outputs": [],
      "stateMutability": "nonpayable",
      "type": "function"
    },
    {
      "inputs": [
        {
          "internalType": "uint8",
          "name": "domainID",
          "type": "uint8"
        },
        {
          "internalType": "uint64",
          "name": "depositNonce",
          "type": "uint64"
        },
        {
          "internalType": "bytes32",
          "name": "resourceID",
          "type": "bytes32"
        },
        {
          "internalType": "bytes",
          "name": "data",
          "type": "bytes"
        }
      ],
      "name": "voteProposal",
      "outputs": [],
      "stateMutability": "nonpayable",
      "type": "function"
    },
    {
      "inputs": [
        {
          "internalType": "uint8",
          "name": "domainID",
          "type": "uint8"
        },
        {
          "internalType": "uint64",
          "name": "depositNonce",
          "type": "uint64"
        },
        {
          "internalType": "bytes32",
          "name": "dataHash",
          "type": "bytes32"
        }
      ],
      "name": "cancelProposal",
      "outputs": [],
      "stateMutability": "nonpayable",
      "type": "function"
    },
    {
      "inputs": [
        {
          "internalType": "uint8",
          "name": "domainID",
          "type": "uint8"
        },
        {
          "internalType": "uint64",
          "name": "depositNonce",
          "type": "uint64"
        },
        {
          "internalType": "bytes",
          "name": "data",
          "type": "bytes"
        },
        {
          "internalType": "bytes32",
          "name": "resourceID",
          "type": "bytes32"
        },
        {
          "internalType": "bool",
          "name": "revertOnFail",
          "type": "bool"
        }
      ],
      "name": "executeProposal",
      "outputs": [],
      "stateMutability": "nonpayable",
      "type": "function"
    }
  ],
  "bytecode": "0x60806040523480156200001157600080fd5b50604051620050063803806200500683398181016040528101906200003791906200078e565b60008060006101000a81548160ff02191690831515021790555084600260006101000a81548160ff021916908360ff16021790555062000082836200017560201b620023be1760201c565b600260016101000a81548160ff021916908360ff160217905550620000b281620001c660201b6200240c1760201c565b6002806101000a81548164ffffffffff021916908364ffffffffff160217905550620000f76000801b620000eb6200021b60201b60201c565b6200029860201b60201c565b60005b84518110156200016957620001537fe2b7fb3b832174769106daebcfd6d1970523240dda11281102db9363b83b0dc48683815181106200013f576200013e62000835565b5b6020026020010151620002ae60201b60201c565b8080620001609062000893565b915050620000fa565b50505050505062000a6e565b60006101008210620001be576040517f08c379a0000000000000000000000000000000000000000000000000000000008152600401620001b59062000942565b60405180910390fd5b819050919050565b600065010000000000821062000213576040517f08c379a00000000000000000000000000000000000000000000000000000000081526004016200020a90620009b4565b60405180910390fd5b819050919050565b6000803390506014600036905010158015620002805750600560008273ffffffffffffffffffffffffffffffffffffffff1673ffffffffffffffffffffffffffffffffffffffff16815260200190815260200160002060009054906101000a900460ff165b156200029157601436033560601c90505b8091505090565b620002aa82826200033d60201b60201c565b5050565b620002e56001600084815260200190815260200160002060020154620002d96200021b60201b60201c565b620003e160201b60201c565b62000327576040517f08c379a00000000000000000000000000000000000000000000000000000000081526004016200031e9062000a4c565b60405180910390fd5b6200033982826200033d60201b60201c565b5050565b6200036c81600160008581526020019081526020016000206000016200041a60201b6200245e1790919060201c565b15620003dd57620003826200021b60201b60201c565b73ffffffffffffffffffffffffffffffffffffffff168173ffffffffffffffffffffffffffffffffffffffff16837f2f8788117e7eff1d82e926ec794901d17c78024a50270940304540a733656f0d60405160405180910390a45b5050565b60006200041282600160008681526020019081526020016000206000016200045260201b6200248e1790919060201c565b905092915050565b60006200044a836000018373ffffffffffffffffffffffffffffffffffffffff1660001b6200048a60201b60201c565b905092915050565b600062000482836000018373ffffffffffffffffffffffffffffffffffffffff1660001b6200050460201b60201c565b905092915050565b60006200049e83836200050460201b60201c565b620004f9578260000182908060018154018082558091505060019003906000526020600020016000909190919091505582600001805490508360010160008481526020019081526020016000208190555060019050620004fe565b600090505b92915050565b600080836001016000848152602001908152602001600020541415905092915050565b6000604051905090565b600080fd5b600080fd5b600060ff82169050919050565b62000553816200053b565b81146200055f57600080fd5b50565b600081519050620005738162000548565b92915050565b600080fd5b6000601f19601f8301169050919050565b7f4e487b7100000000000000000000000000000000000000000000000000000000600052604160045260246000fd5b620005c9826200057e565b810181811067ffffffffffffffff82111715620005eb57620005ea6200058f565b5b80604052505050565b60006200060062000527565b90506200060e8282620005be565b919050565b600067ffffffffffffffff8211156200063157620006306200058f565b5b602082029050602081019050919050565b600080fd5b600073ffffffffffffffffffffffffffffffffffffffff82169050919050565b6000620006748262000647565b9050919050565b620006868162000667565b81146200069257600080fd5b50565b600081519050620006a6816200067b565b92915050565b6000620006c3620006bd8462000613565b620005f4565b90508083825260208201905060208402830185811115620006e957620006e862000642565b5b835b8181101562000716578062000701888262000695565b845260208401935050602081019050620006eb565b5050509392505050565b600082601f83011262000738576200073762000579565b5b81516200074a848260208601620006ac565b91505092915050565b6000819050919050565b620007688162000753565b81146200077457600080fd5b50565b60008151905062000788816200075d565b92915050565b600080600080600060a08688031215620007ad57620007ac62000531565b5b6000620007bd8882890162000562565b955050602086015167ffffffffffffffff811115620007e157620007e062000536565b5b620007ef8882890162000720565b9450506040620008028882890162000777565b9350506060620008158882890162000777565b9250506080620008288882890162000777565b9150509295509295909350565b7f4e487b7100000000000000000000000000000000000000000000000000000000600052603260045260246000fd5b7f4e487b7100000000000000000000000000000000000000000000000000000000600052601160045260246000fd5b6000620008a08262000753565b91507fffffffffffffffffffffffffffffffffffffffffffffffffffffffffffffffff821415620008d657620008d562000864565b5b600182019050919050565b600082825260208201905092915050565b7f76616c756520646f6573206e6f742066697420696e2038206269747300000000600082015250565b60006200092a601c83620008e1565b91506200093782620008f2565b602082019050919050565b600060208201905081810360008301526200095d816200091b565b9050919050565b7f76616c756520646f6573206e6f742066697420696e2034302062697473000000600082015250565b60006200099c601d83620008e1565b9150620009a98262000964565b602082019050919050565b60006020820190508181036000830152620009cf816200098d565b9050919050565b7f416363657373436f6e74726f6c3a2073656e646572206d75737420626520616e60008201527f2061646d696e20746f206772616e740000000000000000000000000000000000602082015250565b600062000a34602f83620008e1565b915062000a4182620009d6565b604082019050919050565b6000602082019050818103600083015262000a678162000a25565b9050919050565b6145888062000a7e6000396000f3fe608060405234801561001057600080fd5b50600436106102325760003560e01c806391d1485411610130578063ca15c873116100b8578063d7a9cd791161007c578063d7a9cd7914610697578063edc20c3c146106b5578063f8c39e44146106d1578063fe4648f414610701578063ffaac0eb1461071f57610232565b8063ca15c873146105f7578063cb10f21514610627578063cdb0f73a14610643578063d15ef64e1461065f578063d547741f1461067b57610232565b80639debb3bd116100ff5780639debb3bd14610551578063a217fddf1461056f578063a9cf69fa1461058d578063c0331b3e146105bd578063c5ec8970146105d957610232565b806391d14854146104c9578063926d7d7f146104f95780639d82dd63146105175780639dd694f41461053357610232565b80635a1ad87c116101be57806380ae1c281161018257806380ae1c281461042757806384db809f146104315780638b63aebf146104615780638c0c26311461047d5780639010d07c1461049957610232565b80635a1ad87c146103835780635c975abb1461039f5780635e1fab0f146103bd5780637febe63f146103d9578063802aabe81461040957610232565b806336568abe1161020557806336568abe146102bb5780634b0b919d146102d75780634e056005146103075780634e0df3f614610323578063541d55481461035357610232565b806317f03ce514610237578063206a98fd14610253578063248a9ca31461026f5780632f2ff15d1461029f575b600080fd5b610251600480360381019061024c9190612df0565b610729565b005b61026d60048036038101906102689190612ee0565b610b17565b005b61028960048036038101906102849190612f7a565b610e6d565b6040516102969190612fb6565b60405180910390f35b6102b960048036038101906102b4919061302f565b610e8d565b005b6102d560048036038101906102d0919061302f565b610f01565b005b6102f160048036038101906102ec919061306f565b610f84565b6040516102fe91906130ab565b60405180910390f35b610321600480360381019061031c91906130fc565b610fab565b005b61033d6004803603810190610338919061302f565b611010565b60405161034a9190613138565b60405180910390f35b61036d60048036038101906103689190613153565b611061565b60405161037a919061318f565b60405180910390f35b61039d60048036038101906103989190613202565b611094565b005b6103a761116f565b6040516103b4919061318f565b60405180910390f35b6103d760048036038101906103d29190613153565b611185565b005b6103f360048036038101906103ee91906132d0565b611226565b604051610400919061318f565b60405180910390f35b610411611365565b60405161041e9190613138565b60405180910390f35b61042f611395565b005b61044b60048036038101906104469190612f7a565b6113af565b6040516104589190613332565b60405180910390f35b61047b60048036038101906104769190613153565b6113e2565b005b6104976004803603810190610492919061334d565b611465565b005b6104b360048036038101906104ae919061338d565b6114e2565b6040516104c09190613332565b60405180910390f35b6104e360048036038101906104de919061302f565b611514565b6040516104f0919061318f565b60405180910390f35b610501611546565b60405161050e9190612fb6565b60405180910390f35b610531600480360381019061052c9190613153565b61156a565b005b61053b611637565b60405161054891906133dc565b60405180910390f35b61055961164a565b6040516105669190613138565b60405180910390f35b61057761164f565b6040516105849190612fb6565b60405180910390f35b6105a760048036038101906105a29190612df0565b611656565b6040516105b49190613526565b60405180910390f35b6105d760048036038101906105d29190613541565b6117b6565b005b6105e1611f7f565b6040516105ee91906135d8565b60405180910390f35b610611600480360381019061060c9190612f7a565b611f94565b60405161061e9190613138565b60405180910390f35b610641600480360381019061063c91906135f3565b611fbb565b005b61065d60048036038101906106589190613153565b61208d565b005b61067960048036038101906106749190613646565b6121a5565b005b6106956004803603810190610690919061302f565b612208565b005b61069f61227c565b6040516106ac91906133dc565b60405180910390f35b6106cf60048036038101906106ca9190613686565b61228f565b005b6106eb60048036038101906106e69190613153565b61235e565b6040516106f8919061318f565b60405180910390f35b61070961237e565b6040516107169190613725565b60405180910390f35b6107276123a4565b005b6107316124be565b60008360ff1660088467ffffffffffffffff1668ffffffffffffffffff16901b1790506000600660008368ffffffffffffffffff1668ffffffffffffffffff16815260200190815260200160002060008481526020019081526020016000206040518060800160405290816000820160009054906101000a900460ff1660048111156107c0576107bf6133f7565b5b60048111156107d2576107d16133f7565b5b81526020016000820160019054906101000a900478ffffffffffffffffffffffffffffffffffffffffffffffffff1678ffffffffffffffffffffffffffffffffffffffffffffffffff1678ffffffffffffffffffffffffffffffffffffffffffffffffff16815260200160008201601a9054906101000a900460ff1660ff1660ff16815260200160008201601b9054906101000a900464ffffffffff1664ffffffffff1664ffffffffff16815250509050600081600001519050600160048111156108a05761089f6133f7565b5b8160048111156108b3576108b26133f7565b5b14806108e35750600260048111156108ce576108cd6133f7565b5b8160048111156108e1576108e06133f7565b5b145b610922576040517f08c379a00000000000000000000000000000000000000000000000000000000081526004016109199061379d565b60405180910390fd5b60028054906101000a900464ffffffffff1664ffffffffff1661095043846060015164ffffffffff1661254a565b64ffffffffff1611610997576040517f08c379a000000000000000000000000000000000000000000000000000000000815260040161098e90613809565b60405180910390fd5b6004826000019060048111156109b0576109af6133f7565b5b908160048111156109c4576109c36133f7565b5b8152505081600660008568ffffffffffffffffff1668ffffffffffffffffff168152602001908152602001600020600086815260200190815260200160002060008201518160000160006101000a81548160ff02191690836004811115610a2e57610a2d6133f7565b5b021790555060208201518160000160016101000a81548178ffffffffffffffffffffffffffffffffffffffffffffffffff021916908378ffffffffffffffffffffffffffffffffffffffffffffffffff160217905550604082015181600001601a6101000a81548160ff021916908360ff160217905550606082015181600001601b6101000a81548164ffffffffff021916908364ffffffffff1602179055509050507f968626a768e76ba1363efe44e322a6c4900c5f084e0b45f35e294dfddaa9e0d58686600487604051610b079493929190613838565b60405180910390a1505050505050565b610b1f612594565b610b27612606565b60006004600084815260200190815260200160002060009054906101000a900473ffffffffffffffffffffffffffffffffffffffff16905060008760ff1660088867ffffffffffffffff1668ffffffffffffffffff16901b1790506000828787604051602001610b9993929190613904565b6040516020818303038152906040528051906020012090506000600660008468ffffffffffffffffff1668ffffffffffffffffff1681526020019081526020016000206000838152602001908152602001600020905060026004811115610c0357610c026133f7565b5b8160000160009054906101000a900460ff166004811115610c2757610c266133f7565b5b14610c67576040517f08c379a0000000000000000000000000000000000000000000000000000000008152600401610c5e9061397a565b60405180910390fd5b60038160000160006101000a81548160ff02191690836004811115610c8f57610c8e6133f7565b5b021790555060008490508515610d13578073ffffffffffffffffffffffffffffffffffffffff1663e248cff2888b8b6040518463ffffffff1660e01b8152600401610cdc939291906139e9565b600060405180830381600087803b158015610cf657600080fd5b505af1158015610d0a573d6000803e3d6000fd5b50505050610e21565b8073ffffffffffffffffffffffffffffffffffffffff1663e248cff2888b8b6040518463ffffffff1660e01b8152600401610d50939291906139e9565b600060405180830381600087803b158015610d6a57600080fd5b505af1925050508015610d7b575060015b610e20573d8060008114610dab576040519150601f19603f3d011682016040523d82523d6000602084013e610db0565b606091505b5060028360000160006101000a81548160ff02191690836004811115610dd957610dd86133f7565b5b02179055507fbd37c1f0d53bb2f33fe4c2104de272fcdeb4d2fef3acdbf1e4ddc3d6833ca37681604051610e0d9190613a92565b60405180910390a1505050505050610e65565b5b7f968626a768e76ba1363efe44e322a6c4900c5f084e0b45f35e294dfddaa9e0d58b8b600386604051610e579493929190613838565b60405180910390a150505050505b505050505050565b600060016000838152602001908152602001600020600201549050919050565b610eb46001600084815260200190815260200160002060020154610eaf612656565b611514565b610ef3576040517f08c379a0000000000000000000000000000000000000000000000000000000008152600401610eea90613b26565b60405180910390fd5b610efd82826126d1565b5050565b610f09612656565b73ffffffffffffffffffffffffffffffffffffffff168173ffffffffffffffffffffffffffffffffffffffff1614610f76576040517f08c379a0000000000000000000000000000000000000000000000000000000008152600401610f6d90613bb8565b60405180910390fd5b610f808282612765565b5050565b60036020528060005260406000206000915054906101000a900467ffffffffffffffff1681565b610fb36127f9565b610fbc816123be565b600260016101000a81548160ff021916908360ff1602179055507fa20d6b84cd798a24038be305eff8a45ca82ef54a2aa2082005d8e14c0a4746c8816040516110059190613138565b60405180910390a150565b60006001600084815260200190815260200160002060000160000160010160008373ffffffffffffffffffffffffffffffffffffffff1660001b815260200190815260200160002054905092915050565b600061108d7fe2b7fb3b832174769106daebcfd6d1970523240dda11281102db9363b83b0dc483611514565b9050919050565b61109c6127f9565b856004600087815260200190815260200160002060006101000a81548173ffffffffffffffffffffffffffffffffffffffff021916908373ffffffffffffffffffffffffffffffffffffffff16021790555060008690508073ffffffffffffffffffffffffffffffffffffffff1663de319d9987878787876040518663ffffffff1660e01b8152600401611134959493929190613be7565b600060405180830381600087803b15801561114e57600080fd5b505af1158015611162573d6000803e3d6000fd5b5050505050505050505050565b60008060009054906101000a900460ff16905090565b61118d6127f9565b6000611197612656565b90508173ffffffffffffffffffffffffffffffffffffffff168173ffffffffffffffffffffffffffffffffffffffff161415611208576040517f08c379a00000000000000000000000000000000000000000000000000000000081526004016111ff90613c86565b60405180910390fd5b6112156000801b83610e8d565b6112226000801b82610f01565b5050565b600061135c600660008668ffffffffffffffffff1668ffffffffffffffffff16815260200190815260200160002060008581526020019081526020016000206040518060800160405290816000820160009054906101000a900460ff166004811115611295576112946133f7565b5b60048111156112a7576112a66133f7565b5b81526020016000820160019054906101000a900478ffffffffffffffffffffffffffffffffffffffffffffffffff1678ffffffffffffffffffffffffffffffffffffffffffffffffff1678ffffffffffffffffffffffffffffffffffffffffffffffffff16815260200160008201601a9054906101000a900460ff1660ff1660ff16815260200160008201601b9054906101000a900464ffffffffff1664ffffffffff1664ffffffffff16815250508361284e565b90509392505050565b60006113907fe2b7fb3b832174769106daebcfd6d1970523240dda11281102db9363b83b0dc4611f94565b905090565b61139d6127f9565b6113ad6113a8612656565b612884565b565b60046020528060005260406000206000915054906101000a900473ffffffffffffffffffffffffffffffffffffffff1681565b6113ea6127f9565b80600260076101000a81548173ffffffffffffffffffffffffffffffffffffffff021916908373ffffffffffffffffffffffffffffffffffffffff1602179055507f729170bd142e4965055b26a285faeedf03baf2b915bfc5a7c75d24b45815ff2c8160405161145a9190613332565b60405180910390a150565b61146d6127f9565b60008290508073ffffffffffffffffffffffffffffffffffffffff166307b7ed99836040518263ffffffff1660e01b81526004016114ab9190613332565b600060405180830381600087803b1580156114c557600080fd5b505af11580156114d9573d6000803e3d6000fd5b50505050505050565b600061150c82600160008681526020019081526020016000206000016128e090919063ffffffff16565b905092915050565b600061153e826001600086815260200190815260200160002060000161248e90919063ffffffff16565b905092915050565b7fe2b7fb3b832174769106daebcfd6d1970523240dda11281102db9363b83b0dc481565b6115947fe2b7fb3b832174769106daebcfd6d1970523240dda11281102db9363b83b0dc482611514565b6115d3576040517f08c379a00000000000000000000000000000000000000000000000000000000081526004016115ca90613cf2565b60405180910390fd5b6115fd7fe2b7fb3b832174769106daebcfd6d1970523240dda11281102db9363b83b0dc482612208565b7f10e1f7ce9fd7d1b90a66d13a2ab3cb8dd7f29f3f8d520b143b063ccfbab6906b8160405161162c9190613332565b60405180910390a150565b600260009054906101000a900460ff1681565b60c881565b6000801b81565b61165e612cd8565b60008460ff1660088567ffffffffffffffff1668ffffffffffffffffff16901b179050600660008268ffffffffffffffffff1668ffffffffffffffffff16815260200190815260200160002060008481526020019081526020016000206040518060800160405290816000820160009054906101000a900460ff1660048111156116eb576116ea6133f7565b5b60048111156116fd576116fc6133f7565b5b81526020016000820160019054906101000a900478ffffffffffffffffffffffffffffffffffffffffffffffffff1678ffffffffffffffffffffffffffffffffffffffffffffffffff1678ffffffffffffffffffffffffffffffffffffffffffffffffff16815260200160008201601a9054906101000a900460ff1660ff1660ff16815260200160008201601b9054906101000a900464ffffffffff1664ffffffffff1664ffffffffff16815250509150509392505050565b6117be612594565b6117c6612606565b60006004600085815260200190815260200160002060009054906101000a900473ffffffffffffffffffffffffffffffffffffffff16905060008660ff1660088767ffffffffffffffff1668ffffffffffffffffff16901b179050600082858560405160200161183893929190613904565b6040516020818303038152906040528051906020012090506000600660008468ffffffffffffffffff1668ffffffffffffffffff16815260200190815260200160002060008381526020019081526020016000206040518060800160405290816000820160009054906101000a900460ff1660048111156118bc576118bb6133f7565b5b60048111156118ce576118cd6133f7565b5b81526020016000820160019054906101000a900478ffffffffffffffffffffffffffffffffffffffffffffffffff1678ffffffffffffffffffffffffffffffffffffffffffffffffff1678ffffffffffffffffffffffffffffffffffffffffffffffffff16815260200160008201601a9054906101000a900460ff1660ff1660ff16815260200160008201601b9054906101000a900464ffffffffff1664ffffffffff1664ffffffffff16815250509050600073ffffffffffffffffffffffffffffffffffffffff166004600089815260200190815260200160002060009054906101000a900473ffffffffffffffffffffffffffffffffffffffff1673ffffffffffffffffffffffffffffffffffffffff161415611a22576040517f08c379a0000000000000000000000000000000000000000000000000000000008152600401611a1990613d5e565b60405180910390fd5b60026004811115611a3657611a356133f7565b5b81600001516004811115611a4d57611a4c6133f7565b5b1415611a6b57611a62898988888b6001610b17565b50505050611f78565b6000611a75612656565b9050600182600001516004811115611a9057611a8f6133f7565b5b1115611ad1576040517f08c379a0000000000000000000000000000000000000000000000000000000008152600401611ac890613df0565b60405180910390fd5b611adb828261284e565b15611b1b576040517f08c379a0000000000000000000000000000000000000000000000000000000008152600401611b1290613e5c565b60405180910390fd5b60006004811115611b2f57611b2e6133f7565b5b82600001516004811115611b4657611b456133f7565b5b1415611bec57604051806080016040528060016004811115611b6b57611b6a6133f7565b5b8152602001600078ffffffffffffffffffffffffffffffffffffffffffffffffff168152602001600060ff1681526020014364ffffffffff1681525091507f968626a768e76ba1363efe44e322a6c4900c5f084e0b45f35e294dfddaa9e0d58a8a600186604051611bdf9493929190613838565b60405180910390a1611c98565b60028054906101000a900464ffffffffff1664ffffffffff16611c1a43846060015164ffffffffff1661254a565b64ffffffffff161115611c9757600482600001906004811115611c4057611c3f6133f7565b5b90816004811115611c5457611c536133f7565b5b815250507f968626a768e76ba1363efe44e322a6c4900c5f084e0b45f35e294dfddaa9e0d58a8a600486604051611c8e9493929190613838565b60405180910390a15b5b600480811115611cab57611caa6133f7565b5b82600001516004811115611cc257611cc16133f7565b5b14611e2857611cf9611cd3826128fa565b836020015178ffffffffffffffffffffffffffffffffffffffffffffffffff161761293b565b826020019078ffffffffffffffffffffffffffffffffffffffffffffffffff16908178ffffffffffffffffffffffffffffffffffffffffffffffffff1681525050816040018051809190611d4c90613eab565b60ff1660ff16815250507f25f8daaa4635a7729927ba3f5b3d59cc3320aca7c32c9db4e7ca7b95743436408a8a846000015186604051611d8f9493929190613838565b60405180910390a1600260019054906101000a900460ff1660ff16826040015160ff1610611e2757600282600001906004811115611dd057611dcf6133f7565b5b90816004811115611de457611de36133f7565b5b815250507f968626a768e76ba1363efe44e322a6c4900c5f084e0b45f35e294dfddaa9e0d58a8a600286604051611e1e9493929190613838565b60405180910390a15b5b81600660008668ffffffffffffffffff1668ffffffffffffffffff168152602001908152602001600020600085815260200190815260200160002060008201518160000160006101000a81548160ff02191690836004811115611e8e57611e8d6133f7565b5b021790555060208201518160000160016101000a81548178ffffffffffffffffffffffffffffffffffffffffffffffffff021916908378ffffffffffffffffffffffffffffffffffffffffffffffffff160217905550604082015181600001601a6101000a81548160ff021916908360ff160217905550606082015181600001601b6101000a81548164ffffffffff021916908364ffffffffff16021790555090505060026004811115611f4557611f446133f7565b5b82600001516004811115611f5c57611f5b6133f7565b5b1415611f7257611f718a8a89898c6000610b17565b5b50505050505b5050505050565b60028054906101000a900464ffffffffff1681565b6000611fb4600160008481526020019081526020016000206000016129a1565b9050919050565b611fc36127f9565b826004600084815260200190815260200160002060006101000a81548173ffffffffffffffffffffffffffffffffffffffff021916908373ffffffffffffffffffffffffffffffffffffffff16021790555060008390508073ffffffffffffffffffffffffffffffffffffffff1663b8fa373684846040518363ffffffff1660e01b8152600401612055929190613ed5565b600060405180830381600087803b15801561206f57600080fd5b505af1158015612083573d6000803e3d6000fd5b5050505050505050565b6120b77fe2b7fb3b832174769106daebcfd6d1970523240dda11281102db9363b83b0dc482611514565b156120f7576040517f08c379a00000000000000000000000000000000000000000000000000000000081526004016120ee90613f4a565b60405180910390fd5b60c8612101611365565b10612141576040517f08c379a000000000000000000000000000000000000000000000000000000000815260040161213890613fb6565b60405180910390fd5b61216b7fe2b7fb3b832174769106daebcfd6d1970523240dda11281102db9363b83b0dc482610e8d565b7f03580ee9f53a62b7cb409a2cb56f9be87747dd15017afc5cef6eef321e4fb2c58160405161219a9190613332565b60405180910390a150565b6121ad6127f9565b80600560008473ffffffffffffffffffffffffffffffffffffffff1673ffffffffffffffffffffffffffffffffffffffff16815260200190815260200160002060006101000a81548160ff0219169083151502179055505050565b61222f600160008481526020019081526020016000206002015461222a612656565b611514565b61226e576040517f08c379a000000000000000000000000000000000000000000000000000000000815260040161226590614048565b60405180910390fd5b6122788282612765565b5050565b600260019054906101000a900460ff1681565b6122976127f9565b600360008360ff1660ff16815260200190815260200160002060009054906101000a900467ffffffffffffffff1667ffffffffffffffff168167ffffffffffffffff161161231a576040517f08c379a0000000000000000000000000000000000000000000000000000000008152600401612311906140da565b60405180910390fd5b80600360008460ff1660ff16815260200190815260200160002060006101000a81548167ffffffffffffffff021916908367ffffffffffffffff1602179055505050565b60056020528060005260406000206000915054906101000a900460ff1681565b600260079054906101000a900473ffffffffffffffffffffffffffffffffffffffff1681565b6123ac6127f9565b6123bc6123b7612656565b6129b6565b565b60006101008210612404576040517f08c379a00000000000000000000000000000000000000000000000000000000081526004016123fb90614146565b60405180910390fd5b819050919050565b6000650100000000008210612456576040517f08c379a000000000000000000000000000000000000000000000000000000000815260040161244d906141b2565b60405180910390fd5b819050919050565b6000612486836000018373ffffffffffffffffffffffffffffffffffffffff1660001b612a12565b905092915050565b60006124b6836000018373ffffffffffffffffffffffffffffffffffffffff1660001b612a82565b905092915050565b60006124c8612656565b90506124d76000801b82611514565b8061250857506125077fe2b7fb3b832174769106daebcfd6d1970523240dda11281102db9363b83b0dc482611514565b5b612547576040517f08c379a000000000000000000000000000000000000000000000000000000000815260040161253e9061421e565b60405180910390fd5b50565b600061258c83836040518060400160405280601e81526020017f536166654d6174683a207375627472616374696f6e206f766572666c6f770000815250612aa5565b905092915050565b6125c57fe2b7fb3b832174769106daebcfd6d1970523240dda11281102db9363b83b0dc46125c0612656565b611514565b612604576040517f08c379a00000000000000000000000000000000000000000000000000000000081526004016125fb9061428a565b60405180910390fd5b565b60008054906101000a900460ff1615612654576040517f08c379a000000000000000000000000000000000000000000000000000000000815260040161264b906142f6565b60405180910390fd5b565b60008033905060146000369050101580156126ba5750600560008273ffffffffffffffffffffffffffffffffffffffff1673ffffffffffffffffffffffffffffffffffffffff16815260200190815260200160002060009054906101000a900460ff165b156126ca57601436033560601c90505b8091505090565b6126f9816001600085815260200190815260200160002060000161245e90919063ffffffff16565b1561276157612706612656565b73ffffffffffffffffffffffffffffffffffffffff168173ffffffffffffffffffffffffffffffffffffffff16837f2f8788117e7eff1d82e926ec794901d17c78024a50270940304540a733656f0d60405160405180910390a45b5050565b61278d8160016000858152602001908152602001600020600001612b0990919063ffffffff16565b156127f55761279a612656565b73ffffffffffffffffffffffffffffffffffffffff168173ffffffffffffffffffffffffffffffffffffffff16837ff6391f5c32d9c69d2a47ea670b442974b53935d1edc7fd64eb21e047a839171b60405160405180910390a45b5050565b61280d6000801b612808612656565b611514565b61284c576040517f08c379a000000000000000000000000000000000000000000000000000000000815260040161284390614362565b60405180910390fd5b565b600080836020015178ffffffffffffffffffffffffffffffffffffffffffffffffff1661287a846128fa565b1611905092915050565b61288c612606565b60016000806101000a81548160ff0219169083151502179055507f62e78cea01bee320cd4e420270b5ea74000d11b0c9f74754ebdbfc544b05a258816040516128d59190613332565b60405180910390a150565b60006128ef8360000183612b39565b60001c905092915050565b60006129306129297fe2b7fb3b832174769106daebcfd6d1970523240dda11281102db9363b83b0dc484611010565b600161254a565b6001901b9050919050565b60007901000000000000000000000000000000000000000000000000008210612999576040517f08c379a0000000000000000000000000000000000000000000000000000000008152600401612990906143ce565b60405180910390fd5b819050919050565b60006129af82600001612b64565b9050919050565b6129be612b75565b60008060006101000a81548160ff0219169083151502179055507f5db9ee0a495bf2e6ff9c91a7834c1ba4fdd244a5e8aa4e537bd38aeae4b073aa81604051612a079190613332565b60405180910390a150565b6000612a1e8383612a82565b612a77578260000182908060018154018082558091505060019003906000526020600020016000909190919091505582600001805490508360010160008481526020019081526020016000208190555060019050612a7c565b600090505b92915050565b600080836001016000848152602001908152602001600020541415905092915050565b6000838311158290612aed576040517f08c379a0000000000000000000000000000000000000000000000000000000008152600401612ae49190614432565b60405180910390fd5b5060008385612afc9190614454565b9050809150509392505050565b6000612b31836000018373ffffffffffffffffffffffffffffffffffffffff1660001b612bc4565b905092915050565b6000826000018281548110612b5157612b50614488565b5b9060005260206000200154905092915050565b600081600001805490509050919050565b60008054906101000a900460ff16612bc2576040517f08c379a0000000000000000000000000000000000000000000000000000000008152600401612bb990614503565b60405180910390fd5b565b60008083600101600084815260200190815260200160002054905060008114612ccc576000600182612bf69190614454565b9050600060018660000180549050612c0e9190614454565b9050818114612c7d576000866000018281548110612c2f57612c2e614488565b5b9060005260206000200154905080876000018481548110612c5357612c52614488565b5b90600052602060002001819055508387600101600083815260200190815260200160002081905550505b85600001805480612c9157612c90614523565b5b600190038181906000526020600020016000905590558560010160008681526020019081526020016000206000905560019350505050612cd2565b60009150505b92915050565b604051806080016040528060006004811115612cf757612cf66133f7565b5b8152602001600078ffffffffffffffffffffffffffffffffffffffffffffffffff168152602001600060ff168152602001600064ffffffffff1681525090565b600080fd5b600080fd5b600060ff82169050919050565b612d5781612d41565b8114612d6257600080fd5b50565b600081359050612d7481612d4e565b92915050565b600067ffffffffffffffff82169050919050565b612d9781612d7a565b8114612da257600080fd5b50565b600081359050612db481612d8e565b92915050565b6000819050919050565b612dcd81612dba565b8114612dd857600080fd5b50565b600081359050612dea81612dc4565b92915050565b600080600060608486031215612e0957612e08612d37565b5b6000612e1786828701612d65565b9350506020612e2886828701612da5565b9250506040612e3986828701612ddb565b9150509250925092565b600080fd5b600080fd5b600080fd5b60008083601f840112612e6857612e67612e43565b5b8235905067ffffffffffffffff811115612e8557612e84612e48565b5b602083019150836001820283011115612ea157612ea0612e4d565b5b9250929050565b60008115159050919050565b612ebd81612ea8565b8114612ec857600080fd5b50565b600081359050612eda81612eb4565b92915050565b60008060008060008060a08789031215612efd57612efc612d37565b5b6000612f0b89828a01612d65565b9650506020612f1c89828a01612da5565b955050604087013567ffffffffffffffff811115612f3d57612f3c612d3c565b5b612f4989828a01612e52565b94509450506060612f5c89828a01612ddb565b9250506080612f6d89828a01612ecb565b9150509295509295509295565b600060208284031215612f9057612f8f612d37565b5b6000612f9e84828501612ddb565b91505092915050565b612fb081612dba565b82525050565b6000602082019050612fcb6000830184612fa7565b92915050565b600073ffffffffffffffffffffffffffffffffffffffff82169050919050565b6000612ffc82612fd1565b9050919050565b61300c81612ff1565b811461301757600080fd5b50565b60008135905061302981613003565b92915050565b6000806040838503121561304657613045612d37565b5b600061305485828601612ddb565b92505060206130658582860161301a565b9150509250929050565b60006020828403121561308557613084612d37565b5b600061309384828501612d65565b91505092915050565b6130a581612d7a565b82525050565b60006020820190506130c0600083018461309c565b92915050565b6000819050919050565b6130d9816130c6565b81146130e457600080fd5b50565b6000813590506130f6816130d0565b92915050565b60006020828403121561311257613111612d37565b5b6000613120848285016130e7565b91505092915050565b613132816130c6565b82525050565b600060208201905061314d6000830184613129565b92915050565b60006020828403121561316957613168612d37565b5b60006131778482850161301a565b91505092915050565b61318981612ea8565b82525050565b60006020820190506131a46000830184613180565b92915050565b60007fffffffff0000000000000000000000000000000000000000000000000000000082169050919050565b6131df816131aa565b81146131ea57600080fd5b50565b6000813590506131fc816131d6565b92915050565b60008060008060008060c0878903121561321f5761321e612d37565b5b600061322d89828a0161301a565b965050602061323e89828a01612ddb565b955050604061324f89828a0161301a565b945050606061326089828a016131ed565b935050608061327189828a016130e7565b92505060a061328289828a016131ed565b9150509295509295509295565b600068ffffffffffffffffff82169050919050565b6132ad8161328f565b81146132b857600080fd5b50565b6000813590506132ca816132a4565b92915050565b6000806000606084860312156132e9576132e8612d37565b5b60006132f7868287016132bb565b935050602061330886828701612ddb565b92505060406133198682870161301a565b9150509250925092565b61332c81612ff1565b82525050565b60006020820190506133476000830184613323565b92915050565b6000806040838503121561336457613363612d37565b5b60006133728582860161301a565b92505060206133838582860161301a565b9150509250929050565b600080604083850312156133a4576133a3612d37565b5b60006133b285828601612ddb565b92505060206133c3858286016130e7565b9150509250929050565b6133d681612d41565b82525050565b60006020820190506133f160008301846133cd565b92915050565b7f4e487b7100000000000000000000000000000000000000000000000000000000600052602160045260246000fd5b60058110613437576134366133f7565b5b50565b600081905061344882613426565b919050565b60006134588261343a565b9050919050565b6134688161344d565b82525050565b600078ffffffffffffffffffffffffffffffffffffffffffffffffff82169050919050565b61349c8161346e565b82525050565b6134ab81612d41565b82525050565b600064ffffffffff82169050919050565b6134cb816134b1565b82525050565b6080820160008201516134e7600085018261345f565b5060208201516134fa6020850182613493565b50604082015161350d60408501826134a2565b50606082015161352060608501826134c2565b50505050565b600060808201905061353b60008301846134d1565b92915050565b60008060008060006080868803121561355d5761355c612d37565b5b600061356b88828901612d65565b955050602061357c88828901612da5565b945050604061358d88828901612ddb565b935050606086013567ffffffffffffffff8111156135ae576135ad612d3c565b5b6135ba88828901612e52565b92509250509295509295909350565b6135d2816134b1565b82525050565b60006020820190506135ed60008301846135c9565b92915050565b60008060006060848603121561360c5761360b612d37565b5b600061361a8682870161301a565b935050602061362b86828701612ddb565b925050604061363c8682870161301a565b9150509250925092565b6000806040838503121561365d5761365c612d37565b5b600061366b8582860161301a565b925050602061367c85828601612ecb565b9150509250929050565b6000806040838503121561369d5761369c612d37565b5b60006136ab85828601612d65565b92505060206136bc85828601612da5565b9150509250929050565b6000819050919050565b60006136eb6136e66136e184612fd1565b6136c6565b612fd1565b9050919050565b60006136fd826136d0565b9050919050565b600061370f826136f2565b9050919050565b61371f81613704565b82525050565b600060208201905061373a6000830184613716565b92915050565b600082825260208201905092915050565b7f50726f706f73616c2063616e6e6f742062652063616e63656c6c656400000000600082015250565b6000613787601c83613740565b915061379282613751565b602082019050919050565b600060208201905081810360008301526137b68161377a565b9050919050565b7f50726f706f73616c206e6f7420617420657870697279207468726573686f6c64600082015250565b60006137f3602083613740565b91506137fe826137bd565b602082019050919050565b60006020820190508181036000830152613822816137e6565b9050919050565b6138328161344d565b82525050565b600060808201905061384d60008301876133cd565b61385a602083018661309c565b6138676040830185613829565b6138746060830184612fa7565b95945050505050565b60008160601b9050919050565b60006138958261387d565b9050919050565b60006138a78261388a565b9050919050565b6138bf6138ba82612ff1565b61389c565b82525050565b600081905092915050565b82818337600083830152505050565b60006138eb83856138c5565b93506138f88385846138d0565b82840190509392505050565b600061391082866138ae565b6014820191506139218284866138df565b9150819050949350505050565b7f50726f706f73616c206d75737420686176652050617373656420737461747573600082015250565b6000613964602083613740565b915061396f8261392e565b602082019050919050565b6000602082019050818103600083015261399381613957565b9050919050565b600082825260208201905092915050565b6000601f19601f8301169050919050565b60006139c8838561399a565b93506139d58385846138d0565b6139de836139ab565b840190509392505050565b60006040820190506139fe6000830186612fa7565b8181036020830152613a118184866139bc565b9050949350505050565b600081519050919050565b60005b83811015613a44578082015181840152602081019050613a29565b83811115613a53576000848401525b50505050565b6000613a6482613a1b565b613a6e818561399a565b9350613a7e818560208601613a26565b613a87816139ab565b840191505092915050565b60006020820190508181036000830152613aac8184613a59565b905092915050565b7f416363657373436f6e74726f6c3a2073656e646572206d75737420626520616e60008201527f2061646d696e20746f206772616e740000000000000000000000000000000000602082015250565b6000613b10602f83613740565b9150613b1b82613ab4565b604082019050919050565b60006020820190508181036000830152613b3f81613b03565b9050919050565b7f416363657373436f6e74726f6c3a2063616e206f6e6c792072656e6f756e636560008201527f20726f6c657320666f722073656c660000000000000000000000000000000000602082015250565b6000613ba2602f83613740565b9150613bad82613b46565b604082019050919050565b60006020820190508181036000830152613bd181613b95565b9050919050565b613be1816131aa565b82525050565b600060a082019050613bfc6000830188612fa7565b613c096020830187613323565b613c166040830186613bd8565b613c236060830185613129565b613c306080830184613bd8565b9695505050505050565b7f43616e6e6f742072656e6f756e6365206f6e6573656c66000000000000000000600082015250565b6000613c70601783613740565b9150613c7b82613c3a565b602082019050919050565b60006020820190508181036000830152613c9f81613c63565b9050919050565b7f6164647220646f65736e277420686176652072656c6179657220726f6c652100600082015250565b6000613cdc601f83613740565b9150613ce782613ca6565b602082019050919050565b60006020820190508181036000830152613d0b81613ccf565b9050919050565b7f6e6f2068616e646c657220666f72207265736f75726365494400000000000000600082015250565b6000613d48601983613740565b9150613d5382613d12565b602082019050919050565b60006020820190508181036000830152613d7781613d3b565b9050919050565b7f70726f706f73616c20616c72656164792065786563757465642f63616e63656c60008201527f6c65640000000000000000000000000000000000000000000000000000000000602082015250565b6000613dda602383613740565b9150613de582613d7e565b604082019050919050565b60006020820190508181036000830152613e0981613dcd565b9050919050565b7f72656c6179657220616c726561647920766f7465640000000000000000000000600082015250565b6000613e46601583613740565b9150613e5182613e10565b602082019050919050565b60006020820190508181036000830152613e7581613e39565b9050919050565b7f4e487b7100000000000000000000000000000000000000000000000000000000600052601160045260246000fd5b6000613eb682612d41565b915060ff821415613eca57613ec9613e7c565b5b600182019050919050565b6000604082019050613eea6000830185612fa7565b613ef76020830184613323565b9392505050565b7f6164647220616c7265616479206861732072656c6179657220726f6c65210000600082015250565b6000613f34601e83613740565b9150613f3f82613efe565b602082019050919050565b60006020820190508181036000830152613f6381613f27565b9050919050565b7f72656c6179657273206c696d6974207265616368656400000000000000000000600082015250565b6000613fa0601683613740565b9150613fab82613f6a565b602082019050919050565b60006020820190508181036000830152613fcf81613f93565b9050919050565b7f416363657373436f6e74726f6c3a2073656e646572206d75737420626520616e60008201527f2061646d696e20746f207265766f6b6500000000000000000000000000000000602082015250565b6000614032603083613740565b915061403d82613fd6565b604082019050919050565b6000602082019050818103600083015261406181614025565b9050919050565b7f446f6573206e6f7420616c6c6f772064656372656d656e7473206f662074686560008201527f206e6f6e63650000000000000000000000000000000000000000000000000000602082015250565b60006140c4602683613740565b91506140cf82614068565b604082019050919050565b600060208201905081810360008301526140f3816140b7565b9050919050565b7f76616c756520646f6573206e6f742066697420696e2038206269747300000000600082015250565b6000614130601c83613740565b915061413b826140fa565b602082019050919050565b6000602082019050818103600083015261415f81614123565b9050919050565b7f76616c756520646f6573206e6f742066697420696e2034302062697473000000600082015250565b600061419c601d83613740565b91506141a782614166565b602082019050919050565b600060208201905081810360008301526141cb8161418f565b9050919050565b7f73656e646572206973206e6f742072656c61796572206f722061646d696e0000600082015250565b6000614208601e83613740565b9150614213826141d2565b602082019050919050565b60006020820190508181036000830152614237816141fb565b9050919050565b7f73656e64657220646f65736e277420686176652072656c6179657220726f6c65600082015250565b6000614274602083613740565b915061427f8261423e565b602082019050919050565b600060208201905081810360008301526142a381614267565b9050919050565b7f5061757361626c653a2070617573656400000000000000000000000000000000600082015250565b60006142e0601083613740565b91506142eb826142aa565b602082019050919050565b6000602082019050818103600083015261430f816142d3565b9050919050565b7f73656e64657220646f65736e277420686176652061646d696e20726f6c650000600082015250565b600061434c601e83613740565b915061435782614316565b602082019050919050565b6000602082019050818103600083015261437b8161433f565b9050919050565b7f76616c756520646f6573206e6f742066697420696e2032303020626974730000600082015250565b60006143b8601e83613740565b91506143c382614382565b602082019050919050565b600060208201905081810360008301526143e7816143ab565b9050919050565b600081519050919050565b6000614404826143ee565b61440e8185613740565b935061441e818560208601613a26565b614427816139ab565b840191505092915050565b6000602082019050818103600083015261444c81846143f9565b905092915050565b600061445f826130c6565b915061446a836130c6565b92508282101561447d5761447c613e7c565b5b828203905092915050565b7f4e487b7100000000000000000000000000000000000000000000000000000000600052603260045260246000fd5b7f5061757361626c653a206e6f7420706175736564000000000000000000000000600082015250565b60006144ed601483613740565b91506144f8826144b7565b602082019050919050565b6000602082019050818103600083015261451c816144e0565b9050919050565b7f4e487b7100000000000000000000000000000000000000000000000000000000600052603160045260246000fdfea2646970667358221220c5a600629cd32ee48ebcd9620777d80b56739e3435a7873e277afcfaa595906d64736f6c634300080b0033",
  "immutableReferences": {},
  "source": "// SPDX-License-Identifier: LGPL-3.0-only\npragma solidity 0.8.11;\n\nimport \"./utils/AccessControl.sol\";\nimport \"./utils/Pausable.sol\";\nimport \"./utils/SafeMath.sol\";\nimport \"./utils/SafeCast.sol\";\nimport \"./interfaces/IDepositExecute.sol\";\nimport \"./interfaces/IERCHandler.sol\";\nimport \"./interfaces/IGenericHandler.sol\";\nimport \"./interfaces/IFeeHandler.sol\";\n\n/**\n    @title Facilitates deposits, creation and voting of deposit proposals, and deposit executions.\n    @author ChainSafe Systems.\n */\ncontract Bridge is Pausable, AccessControl, SafeMath {\n    using SafeCast for *;\n\n    // Limit relayers number because proposal can fit only so much votes\n    uint256 constant public MAX_RELAYERS = 200;\n\n    uint8   public _domainID;\n    uint8   public _relayerThreshold;\n    uint40  public _expiry;\n\n    IFeeHandler public _feeHandler;\n\n    enum ProposalStatus {Inactive, Active, Passed, Executed, Cancelled}\n\n    struct Proposal {\n        ProposalStatus _status;\n        uint200 _yesVotes;      // bitmap, 200 maximum votes\n        uint8   _yesVotesTotal;\n        uint40  _proposedBlock; // 1099511627775 maximum block\n    }\n\n    // destinationDomainID => number of deposits\n    mapping(uint8 => uint64) public _depositCounts;\n    // resourceID => handler address\n    mapping(bytes32 => address) public _resourceIDToHandlerAddress;\n    // forwarder address => is Valid\n    mapping(address => bool) public isValidForwarder;\n    // destinationDomainID + depositNonce => dataHash => Proposal\n    mapping(uint72 => mapping(bytes32 => Proposal)) private _proposals;\n\n    event RelayerThresholdChanged(uint256 newThreshold);\n    event RelayerAdded(address relayer);\n    event RelayerRemoved(address relayer);\n    event FeeHandlerChanged(address newFeeHandler);\n    event Deposit(\n        uint8   destinationDomainID,\n        bytes32 resourceID,\n        uint64  depositNonce,\n        address indexed user,\n        bytes data,\n        bytes handlerResponse\n    );\n    event ProposalEvent(\n        uint8          originDomainID,\n        uint64         depositNonce,\n        ProposalStatus status,\n        bytes32 dataHash\n    );\n    event ProposalVote(\n        uint8   originDomainID,\n        uint64  depositNonce,\n        ProposalStatus status,\n        bytes32 dataHash\n    );\n    event FailedHandlerExecution(\n        bytes lowLevelData\n    );\n\n    bytes32 public constant RELAYER_ROLE = keccak256(\"RELAYER_ROLE\");\n\n    modifier onlyAdmin() {\n        _onlyAdmin();\n        _;\n    }\n\n    modifier onlyAdminOrRelayer() {\n        _onlyAdminOrRelayer();\n        _;\n    }\n\n    modifier onlyRelayers() {\n        _onlyRelayers();\n        _;\n    }\n\n    function _onlyAdminOrRelayer() private view {\n        address sender = _msgSender();\n        require(hasRole(DEFAULT_ADMIN_ROLE, sender) || hasRole(RELAYER_ROLE, sender),\n            \"sender is not relayer or admin\");\n    }\n\n    function _onlyAdmin() private view {\n        require(hasRole(DEFAULT_ADMIN_ROLE, _msgSender()), \"sender doesn't have admin role\");\n    }\n\n    function _onlyRelayers() private view {\n        require(hasRole(RELAYER_ROLE, _msgSender()), \"sender doesn't have relayer role\");\n    }\n\n    function _relayerBit(address relayer) private view returns(uint) {\n        return uint(1) << sub(AccessControl.getRoleMemberIndex(RELAYER_ROLE, relayer), 1);\n    }\n\n    function _hasVoted(Proposal memory proposal, address relayer) private view returns(bool) {\n        return (_relayerBit(relayer) & uint(proposal._yesVotes)) > 0;\n    }\n\n    function _msgSender() internal override view returns (address) {\n        address signer = msg.sender;\n        if (msg.data.length >= 20 && isValidForwarder[signer]) {\n            assembly {\n                signer := shr(96, calldataload(sub(calldatasize(), 20)))\n            }\n        }\n        return signer;\n    }\n\n    /**\n        @notice Initializes Bridge, creates and grants {_msgSender()} the admin role,\n        creates and grants {initialRelayers} the relayer role.\n        @param domainID ID of chain the Bridge contract exists on.\n        @param initialRelayers Addresses that should be initially granted the relayer role.\n        @param initialRelayerThreshold Number of votes needed for a deposit proposal to be considered passed.\n     */\n    constructor (uint8 domainID, address[] memory initialRelayers, uint256 initialRelayerThreshold, uint256 fee, uint256 expiry) public {\n        _domainID = domainID;\n        _relayerThreshold = initialRelayerThreshold.toUint8();\n        _expiry = expiry.toUint40();\n\n        _setupRole(DEFAULT_ADMIN_ROLE, _msgSender());\n\n        for (uint256 i; i < initialRelayers.length; i++) {\n            grantRole(RELAYER_ROLE, initialRelayers[i]);\n        }\n    }\n\n    /**\n        @notice Returns true if {relayer} has voted on {destNonce} {dataHash} proposal.\n        @notice Naming left unchanged for backward compatibility.\n        @param destNonce destinationDomainID + depositNonce of the proposal.\n        @param dataHash Hash of data to be provided when deposit proposal is executed.\n        @param relayer Address to check.\n     */\n    function _hasVotedOnProposal(uint72 destNonce, bytes32 dataHash, address relayer) public view returns(bool) {\n        return _hasVoted(_proposals[destNonce][dataHash], relayer);\n    }\n\n    /**\n        @notice Returns true if {relayer} has the relayer role.\n        @param relayer Address to check.\n     */\n    function isRelayer(address relayer) external view returns (bool) {\n        return hasRole(RELAYER_ROLE, relayer);\n    }\n\n    /**\n        @notice Removes admin role from {_msgSender()} and grants it to {newAdmin}.\n        @notice Only callable by an address that currently has the admin role.\n        @param newAdmin Address that admin role will be granted to.\n     */\n    function renounceAdmin(address newAdmin) external onlyAdmin {\n        address sender = _msgSender();\n        require(sender != newAdmin, 'Cannot renounce oneself');\n        grantRole(DEFAULT_ADMIN_ROLE, newAdmin);\n        renounceRole(DEFAULT_ADMIN_ROLE, sender);\n    }\n\n    /**\n        @notice Pauses deposits, proposal creation and voting, and deposit executions.\n        @notice Only callable by an address that currently has the admin role.\n     */\n    function adminPauseTransfers() external onlyAdmin {\n        _pause(_msgSender());\n    }\n\n    /**\n        @notice Unpauses deposits, proposal creation and voting, and deposit executions.\n        @notice Only callable by an address that currently has the admin role.\n     */\n    function adminUnpauseTransfers() external onlyAdmin {\n        _unpause(_msgSender());\n    }\n\n    /**\n        @notice Modifies the number of votes required for a proposal to be considered passed.\n        @notice Only callable by an address that currently has the admin role.\n        @param newThreshold Value {_relayerThreshold} will be changed to.\n        @notice Emits {RelayerThresholdChanged} event.\n     */\n    function adminChangeRelayerThreshold(uint256 newThreshold) external onlyAdmin {\n        _relayerThreshold = newThreshold.toUint8();\n        emit RelayerThresholdChanged(newThreshold);\n    }\n\n    /**\n        @notice Grants {relayerAddress} the relayer role.\n        @notice Only callable by an address that currently has the admin role, which is\n                checked in grantRole().\n        @param relayerAddress Address of relayer to be added.\n        @notice Emits {RelayerAdded} event.\n     */\n    function adminAddRelayer(address relayerAddress) external {\n        require(!hasRole(RELAYER_ROLE, relayerAddress), \"addr already has relayer role!\");\n        require(_totalRelayers() < MAX_RELAYERS, \"relayers limit reached\");\n        grantRole(RELAYER_ROLE, relayerAddress);\n        emit RelayerAdded(relayerAddress);\n    }\n\n    /**\n        @notice Removes relayer role for {relayerAddress}.\n        @notice Only callable by an address that currently has the admin role, which is\n                checked in revokeRole().\n        @param relayerAddress Address of relayer to be removed.\n        @notice Emits {RelayerRemoved} event.\n     */\n    function adminRemoveRelayer(address relayerAddress) external {\n        require(hasRole(RELAYER_ROLE, relayerAddress), \"addr doesn't have relayer role!\");\n        revokeRole(RELAYER_ROLE, relayerAddress);\n        emit RelayerRemoved(relayerAddress);\n    }\n\n    /**\n        @notice Sets a new resource for handler contracts that use the IERCHandler interface,\n        and maps the {handlerAddress} to {resourceID} in {_resourceIDToHandlerAddress}.\n        @notice Only callable by an address that currently has the admin role.\n        @param handlerAddress Address of handler resource will be set for.\n        @param resourceID ResourceID to be used when making deposits.\n        @param tokenAddress Address of contract to be called when a deposit is made and a deposited is executed.\n     */\n    function adminSetResource(address handlerAddress, bytes32 resourceID, address tokenAddress) external onlyAdmin {\n        _resourceIDToHandlerAddress[resourceID] = handlerAddress;\n        IERCHandler handler = IERCHandler(handlerAddress);\n        handler.setResource(resourceID, tokenAddress);\n    }\n\n    /**\n        @notice Sets a new resource for handler contracts that use the IGenericHandler interface,\n        and maps the {handlerAddress} to {resourceID} in {_resourceIDToHandlerAddress}.\n        @notice Only callable by an address that currently has the admin role.\n        @param handlerAddress Address of handler resource will be set for.\n        @param resourceID ResourceID to be used when making deposits.\n        @param contractAddress Address of contract to be called when a deposit is made and a deposited is executed.\n     */\n    function adminSetGenericResource(\n        address handlerAddress,\n        bytes32 resourceID,\n        address contractAddress,\n        bytes4 depositFunctionSig,\n        uint256 depositFunctionDepositerOffset,\n        bytes4 executeFunctionSig\n    ) external onlyAdmin {\n        _resourceIDToHandlerAddress[resourceID] = handlerAddress;\n        IGenericHandler handler = IGenericHandler(handlerAddress);\n        handler.setResource(resourceID, contractAddress, depositFunctionSig, depositFunctionDepositerOffset, executeFunctionSig);\n    }\n\n    /**\n        @notice Sets a resource as burnable for handler contracts that use the IERCHandler interface.\n        @notice Only callable by an address that currently has the admin role.\n        @param handlerAddress Address of handler resource will be set for.\n        @param tokenAddress Address of contract to be called when a deposit is made and a deposited is executed.\n     */\n    function adminSetBurnable(address handlerAddress, address tokenAddress) external onlyAdmin {\n        IERCHandler handler = IERCHandler(handlerAddress);\n        handler.setBurnable(tokenAddress);\n    }\n\n    /**\n        @notice Sets the nonce for the specific domainID.\n        @notice Only callable by an address that currently has the admin role.\n        @param domainID Domain ID for increasing nonce.\n        @param nonce The nonce value to be set.\n     */\n    function adminSetDepositNonce(uint8 domainID, uint64 nonce) external onlyAdmin {\n        require(nonce > _depositCounts[domainID], \"Does not allow decrements of the nonce\");\n        _depositCounts[domainID] = nonce;\n    }\n\n    /**\n        @notice Set a forwarder to be used.\n        @notice Only callable by an address that currently has the admin role.\n        @param forwarder Forwarder address to be added.\n        @param valid Decision for the specific forwarder.\n     */\n    function adminSetForwarder(address forwarder, bool valid) external onlyAdmin {\n        isValidForwarder[forwarder] = valid;\n    }\n\n    /**\n        @notice Returns a proposal.\n        @param originDomainID Chain ID deposit originated from.\n        @param depositNonce ID of proposal generated by proposal's origin Bridge contract.\n        @param dataHash Hash of data to be provided when deposit proposal is executed.\n        @return Proposal which consists of:\n        - _dataHash Hash of data to be provided when deposit proposal is executed.\n        - _yesVotes Number of votes in favor of proposal.\n        - _noVotes Number of votes against proposal.\n        - _status Current status of proposal.\n     */\n    function getProposal(uint8 originDomainID, uint64 depositNonce, bytes32 dataHash) external view returns (Proposal memory) {\n        uint72 nonceAndID = (uint72(depositNonce) << 8) | uint72(originDomainID);\n        return _proposals[nonceAndID][dataHash];\n    }\n\n    /**\n        @notice Returns total relayers number.\n        @notice Added for backwards compatibility.\n     */\n    function _totalRelayers() public view returns (uint) {\n        return AccessControl.getRoleMemberCount(RELAYER_ROLE);\n    }\n\n    /**\n        @notice Changes deposit fee handler contract address.\n        @notice Only callable by admin.\n        @param newFeeHandler Address {_feeHandler} will be updated to.\n     */\n    function adminChangeFeeHandler(address newFeeHandler) external onlyAdmin {\n        _feeHandler = IFeeHandler(newFeeHandler);\n        emit FeeHandlerChanged(newFeeHandler);\n    }\n\n    /**\n        @notice Used to manually withdraw funds from ERC safes.\n        @param handlerAddress Address of handler to withdraw from.\n        @param data ABI-encoded withdrawal params relevant to the specified handler.\n     */\n    function _adminWithdraw(\n        address handlerAddress,\n        bytes memory data\n    ) internal {\n        IERCHandler handler = IERCHandler(handlerAddress);\n        handler.withdraw(data);\n    }\n\n    /**\n        @notice Initiates a transfer using a specified handler contract.\n        @notice Only callable when Bridge is not paused.\n        @param destinationDomainID ID of chain deposit will be bridged to.\n        @param resourceID ResourceID used to find address of handler to be used for deposit.\n        @param depositData Additional data to be passed to specified handler.\n        @param feeData Additional data to be passed to the fee handler.\n        @notice Emits {Deposit} event with all necessary parameters and a handler response.\n        - ERC20Handler: responds with an empty data.\n        - ERC721Handler: responds with the deposited token metadata acquired by calling a tokenURI method in the token contract.\n        - GenericHandler: responds with the raw bytes returned from the call to the target contract.\n     */\n    function _deposit(uint8 destinationDomainID, bytes32 resourceID, bytes calldata depositData, bytes calldata feeData) internal whenNotPaused {\n        address sender = _msgSender();\n        if (address(_feeHandler) == address(0)) {\n            require(msg.value == 0, \"no FeeHandler, msg.value != 0\");\n        } else {\n            // Reverts on failure\n            _feeHandler.collectFee{value: msg.value}(sender, _domainID, destinationDomainID, resourceID, depositData, feeData);\n        }\n\n        address handler = _resourceIDToHandlerAddress[resourceID];\n        require(handler != address(0), \"resourceID not mapped to handler\");\n\n        uint64 depositNonce = ++_depositCounts[destinationDomainID];\n\n        IDepositExecute depositHandler = IDepositExecute(handler);\n        bytes memory handlerResponse = depositHandler.deposit(resourceID, sender, depositData);\n\n        emit Deposit(destinationDomainID, resourceID, depositNonce, sender, depositData, handlerResponse);\n    }\n\n    /**\n        @notice When called, {_msgSender()} will be marked as voting in favor of proposal.\n        @notice Only callable by relayers when Bridge is not paused.\n        @param domainID ID of chain deposit originated from.\n        @param depositNonce ID of deposited generated by origin Bridge contract.\n        @param data Data originally provided when deposit was made.\n        @notice Proposal must not have already been passed or executed.\n        @notice {_msgSender()} must not have already voted on proposal.\n        @notice Emits {ProposalEvent} event with status indicating the proposal status.\n        @notice Emits {ProposalVote} event.\n     */\n    function voteProposal(uint8 domainID, uint64 depositNonce, bytes32 resourceID, bytes calldata data) external onlyRelayers whenNotPaused {\n        address handler = _resourceIDToHandlerAddress[resourceID];\n        uint72 nonceAndID = (uint72(depositNonce) << 8) | uint72(domainID);\n        bytes32 dataHash = keccak256(abi.encodePacked(handler, data));\n        Proposal memory proposal = _proposals[nonceAndID][dataHash];\n\n        require(_resourceIDToHandlerAddress[resourceID] != address(0), \"no handler for resourceID\");\n\n        if (proposal._status == ProposalStatus.Passed) {\n            executeProposal(domainID, depositNonce, data, resourceID, true);\n            return;\n        }\n\n        address sender = _msgSender();\n        \n        require(uint(proposal._status) <= 1, \"proposal already executed/cancelled\");\n        require(!_hasVoted(proposal, sender), \"relayer already voted\");\n\n        if (proposal._status == ProposalStatus.Inactive) {\n            proposal = Proposal({\n                _status : ProposalStatus.Active,\n                _yesVotes : 0,\n                _yesVotesTotal : 0,\n                _proposedBlock : uint40(block.number) // Overflow is desired.\n            });\n\n            emit ProposalEvent(domainID, depositNonce, ProposalStatus.Active, dataHash);\n        } else if (uint40(sub(block.number, proposal._proposedBlock)) > _expiry) {\n            // if the number of blocks that has passed since this proposal was\n            // submitted exceeds the expiry threshold set, cancel the proposal\n            proposal._status = ProposalStatus.Cancelled;\n\n            emit ProposalEvent(domainID, depositNonce, ProposalStatus.Cancelled, dataHash);\n        }\n\n        if (proposal._status != ProposalStatus.Cancelled) {\n            proposal._yesVotes = (proposal._yesVotes | _relayerBit(sender)).toUint200();\n            proposal._yesVotesTotal++; // TODO: check if bit counting is cheaper.\n\n            emit ProposalVote(domainID, depositNonce, proposal._status, dataHash);\n\n            // Finalize if _relayerThreshold has been reached\n            if (proposal._yesVotesTotal >= _relayerThreshold) {\n                proposal._status = ProposalStatus.Passed;\n                emit ProposalEvent(domainID, depositNonce, ProposalStatus.Passed, dataHash);\n            }\n        }\n        _proposals[nonceAndID][dataHash] = proposal;\n\n        if (proposal._status == ProposalStatus.Passed) {\n            executeProposal(domainID, depositNonce, data, resourceID, false);\n        }\n    }\n\n    /**\n        @notice Cancels a deposit proposal that has not been executed yet.\n        @notice Only callable by relayers when Bridge is not paused.\n        @param domainID ID of chain deposit originated from.\n        @param depositNonce ID of deposited generated by origin Bridge contract.\n        @param dataHash Hash of data originally provided when deposit was made.\n        @notice Proposal must be past expiry threshold.\n        @notice Emits {ProposalEvent} event with status {Cancelled}.\n     */\n    function cancelProposal(uint8 domainID, uint64 depositNonce, bytes32 dataHash) public onlyAdminOrRelayer {\n        uint72 nonceAndID = (uint72(depositNonce) << 8) | uint72(domainID);\n        Proposal memory proposal = _proposals[nonceAndID][dataHash];\n        ProposalStatus currentStatus = proposal._status;\n\n        require(currentStatus == ProposalStatus.Active || currentStatus == ProposalStatus.Passed,\n            \"Proposal cannot be cancelled\");\n        require(uint40(sub(block.number, proposal._proposedBlock)) > _expiry, \"Proposal not at expiry threshold\");\n\n        proposal._status = ProposalStatus.Cancelled;\n        _proposals[nonceAndID][dataHash] = proposal;\n\n        emit ProposalEvent(domainID, depositNonce, ProposalStatus.Cancelled, dataHash);\n    }\n\n    /**\n        @notice Executes a deposit proposal that is considered passed using a specified handler contract.\n        @notice Only callable by relayers when Bridge is not paused.\n        @param domainID ID of chain deposit originated from.\n        @param resourceID ResourceID to be used when making deposits.\n        @param depositNonce ID of deposited generated by origin Bridge contract.\n        @param data Data originally provided when deposit was made.\n        @param revertOnFail Decision if the transaction should be reverted in case of handler's executeProposal is reverted or not.\n        @notice Proposal must have Passed status.\n        @notice Hash of {data} must equal proposal's {dataHash}.\n        @notice Emits {ProposalEvent} event with status {Executed}.\n        @notice Emits {FailedExecution} event with the failed reason.\n     */\n    function executeProposal(uint8 domainID, uint64 depositNonce, bytes calldata data, bytes32 resourceID, bool revertOnFail) public onlyRelayers whenNotPaused {\n        address handler = _resourceIDToHandlerAddress[resourceID];\n        uint72 nonceAndID = (uint72(depositNonce) << 8) | uint72(domainID);\n        bytes32 dataHash = keccak256(abi.encodePacked(handler, data));\n        Proposal storage proposal = _proposals[nonceAndID][dataHash];\n\n        require(proposal._status == ProposalStatus.Passed, \"Proposal must have Passed status\");\n\n        proposal._status = ProposalStatus.Executed;\n        IDepositExecute depositHandler = IDepositExecute(handler);\n\n        if (revertOnFail) {\n            depositHandler.executeProposal(resourceID, data);\n        } else {\n            try depositHandler.executeProposal(resourceID, data) {\n            } catch (bytes memory lowLevelData) {\n                proposal._status = ProposalStatus.Passed;\n                emit FailedHandlerExecution(lowLevelData);\n                return;\n            }\n        }\n        \n        emit ProposalEvent(domainID, depositNonce, ProposalStatus.Executed, dataHash);\n    }\n}\n",
  "sourcePath": "/root/bc_connector/crosscoin/contracts/chainbridge-solidity/contracts/Bridge.sol",
  "compiler": {
    "name": "solc",
    "version": "0.8.11+commit.d7f03943.Emscripten.clang"
  },
  "schemaVersion": "3.4.7",
  "updatedAt": "2022-06-06T23:18:30.958Z",
  "devdoc": {
    "author": "ChainSafe Systems.",
    "kind": "dev",
    "methods": {
      "_hasVotedOnProposal(uint72,bytes32,address)": {
        "params": {
          "dataHash": "Hash of data to be provided when deposit proposal is executed.",
          "destNonce": "destinationDomainID + depositNonce of the proposal.",
          "relayer": "Address to check."
        }
      },
      "adminAddRelayer(address)": {
        "params": {
          "relayerAddress": "Address of relayer to be added."
        }
      },
      "adminChangeFeeHandler(address)": {
        "params": {
          "newFeeHandler": "Address {_feeHandler} will be updated to."
        }
      },
      "adminChangeRelayerThreshold(uint256)": {
        "params": {
          "newThreshold": "Value {_relayerThreshold} will be changed to."
        }
      },
      "adminRemoveRelayer(address)": {
        "params": {
          "relayerAddress": "Address of relayer to be removed."
        }
      },
      "adminSetBurnable(address,address)": {
        "params": {
          "handlerAddress": "Address of handler resource will be set for.",
          "tokenAddress": "Address of contract to be called when a deposit is made and a deposited is executed."
        }
      },
      "adminSetDepositNonce(uint8,uint64)": {
        "params": {
          "domainID": "Domain ID for increasing nonce.",
          "nonce": "The nonce value to be set."
        }
      },
      "adminSetForwarder(address,bool)": {
        "params": {
          "forwarder": "Forwarder address to be added.",
          "valid": "Decision for the specific forwarder."
        }
      },
      "adminSetGenericResource(address,bytes32,address,bytes4,uint256,bytes4)": {
        "params": {
          "contractAddress": "Address of contract to be called when a deposit is made and a deposited is executed.",
          "handlerAddress": "Address of handler resource will be set for.",
          "resourceID": "ResourceID to be used when making deposits."
        }
      },
      "adminSetResource(address,bytes32,address)": {
        "params": {
          "handlerAddress": "Address of handler resource will be set for.",
          "resourceID": "ResourceID to be used when making deposits.",
          "tokenAddress": "Address of contract to be called when a deposit is made and a deposited is executed."
        }
      },
      "cancelProposal(uint8,uint64,bytes32)": {
        "params": {
          "dataHash": "Hash of data originally provided when deposit was made.",
          "depositNonce": "ID of deposited generated by origin Bridge contract.",
          "domainID": "ID of chain deposit originated from."
        }
      },
      "constructor": {
        "params": {
          "domainID": "ID of chain the Bridge contract exists on.",
          "initialRelayerThreshold": "Number of votes needed for a deposit proposal to be considered passed.",
          "initialRelayers": "Addresses that should be initially granted the relayer role."
        }
      },
      "executeProposal(uint8,uint64,bytes,bytes32,bool)": {
        "params": {
          "data": "Data originally provided when deposit was made.",
          "depositNonce": "ID of deposited generated by origin Bridge contract.",
          "domainID": "ID of chain deposit originated from.",
          "resourceID": "ResourceID to be used when making deposits.",
          "revertOnFail": "Decision if the transaction should be reverted in case of handler's executeProposal is reverted or not."
        }
      },
      "getProposal(uint8,uint64,bytes32)": {
        "params": {
          "dataHash": "Hash of data to be provided when deposit proposal is executed.",
          "depositNonce": "ID of proposal generated by proposal's origin Bridge contract.",
          "originDomainID": "Chain ID deposit originated from."
        },
        "returns": {
          "_0": "Proposal which consists of: - _dataHash Hash of data to be provided when deposit proposal is executed. - _yesVotes Number of votes in favor of proposal. - _noVotes Number of votes against proposal. - _status Current status of proposal."
        }
      },
      "getRoleAdmin(bytes32)": {
        "details": "Returns the admin role that controls `role`. See {grantRole} and {revokeRole}. To change a role's admin, use {_setRoleAdmin}."
      },
      "getRoleMember(bytes32,uint256)": {
        "details": "Returns one of the accounts that have `role`. `index` must be a value between 0 and {getRoleMemberCount}, non-inclusive. Role bearers are not sorted in any particular way, and their ordering may change at any point. WARNING: When using {getRoleMember} and {getRoleMemberCount}, make sure you perform all queries on the same block. See the following https://forum.openzeppelin.com/t/iterating-over-elements-on-enumerableset-in-openzeppelin-contracts/2296[forum post] for more information."
      },
      "getRoleMemberCount(bytes32)": {
        "details": "Returns the number of accounts that have `role`. Can be used together with {getRoleMember} to enumerate all bearers of a role."
      },
      "getRoleMemberIndex(bytes32,address)": {
        "details": "Returns the index of the account that have `role`."
      },
      "grantRole(bytes32,address)": {
        "details": "Grants `role` to `account`. If `account` had not been already granted `role`, emits a {RoleGranted} event. Requirements: - the caller must have ``role``'s admin role."
      },
      "hasRole(bytes32,address)": {
        "details": "Returns `true` if `account` has been granted `role`."
      },
      "isRelayer(address)": {
        "params": {
          "relayer": "Address to check."
        }
      },
      "paused()": {
        "details": "Returns true if the contract is paused, and false otherwise."
      },
      "renounceAdmin(address)": {
        "params": {
          "newAdmin": "Address that admin role will be granted to."
        }
      },
      "renounceRole(bytes32,address)": {
        "details": "Revokes `role` from the calling account. Roles are often managed via {grantRole} and {revokeRole}: this function's purpose is to provide a mechanism for accounts to lose their privileges if they are compromised (such as when a trusted device is misplaced). If the calling account had been granted `role`, emits a {RoleRevoked} event. Requirements: - the caller must be `account`."
      },
      "revokeRole(bytes32,address)": {
        "details": "Revokes `role` from `account`. If `account` had been granted `role`, emits a {RoleRevoked} event. Requirements: - the caller must have ``role``'s admin role."
      },
      "voteProposal(uint8,uint64,bytes32,bytes)": {
        "params": {
          "data": "Data originally provided when deposit was made.",
          "depositNonce": "ID of deposited generated by origin Bridge contract.",
          "domainID": "ID of chain deposit originated from."
        }
      }
    },
    "title": "Facilitates deposits, creation and voting of deposit proposals, and deposit executions.",
    "version": 1
  },
  "userdoc": {
    "kind": "user",
    "methods": {
      "_hasVotedOnProposal(uint72,bytes32,address)": {
        "notice": "Returns true if {relayer} has voted on {destNonce} {dataHash} proposal.Naming left unchanged for backward compatibility."
      },
      "_totalRelayers()": {
        "notice": "Returns total relayers number.Added for backwards compatibility."
      },
      "adminAddRelayer(address)": {
        "notice": "Grants {relayerAddress} the relayer role.Only callable by an address that currently has the admin role, which is checked in grantRole().Emits {RelayerAdded} event."
      },
      "adminChangeFeeHandler(address)": {
        "notice": "Changes deposit fee handler contract address.Only callable by admin."
      },
      "adminChangeRelayerThreshold(uint256)": {
        "notice": "Modifies the number of votes required for a proposal to be considered passed.Only callable by an address that currently has the admin role.Emits {RelayerThresholdChanged} event."
      },
      "adminPauseTransfers()": {
        "notice": "Pauses deposits, proposal creation and voting, and deposit executions.Only callable by an address that currently has the admin role."
      },
      "adminRemoveRelayer(address)": {
        "notice": "Removes relayer role for {relayerAddress}.Only callable by an address that currently has the admin role, which is checked in revokeRole().Emits {RelayerRemoved} event."
      },
      "adminSetBurnable(address,address)": {
        "notice": "Sets a resource as burnable for handler contracts that use the IERCHandler interface.Only callable by an address that currently has the admin role."
      },
      "adminSetDepositNonce(uint8,uint64)": {
        "notice": "Sets the nonce for the specific domainID.Only callable by an address that currently has the admin role."
      },
      "adminSetForwarder(address,bool)": {
        "notice": "Set a forwarder to be used.Only callable by an address that currently has the admin role."
      },
      "adminSetGenericResource(address,bytes32,address,bytes4,uint256,bytes4)": {
        "notice": "Sets a new resource for handler contracts that use the IGenericHandler interface, and maps the {handlerAddress} to {resourceID} in {_resourceIDToHandlerAddress}.Only callable by an address that currently has the admin role."
      },
      "adminSetResource(address,bytes32,address)": {
        "notice": "Sets a new resource for handler contracts that use the IERCHandler interface, and maps the {handlerAddress} to {resourceID} in {_resourceIDToHandlerAddress}.Only callable by an address that currently has the admin role."
      },
      "adminUnpauseTransfers()": {
        "notice": "Unpauses deposits, proposal creation and voting, and deposit executions.Only callable by an address that currently has the admin role."
      },
      "cancelProposal(uint8,uint64,bytes32)": {
        "notice": "Cancels a deposit proposal that has not been executed yet.Only callable by relayers when Bridge is not paused.Proposal must be past expiry threshold.Emits {ProposalEvent} event with status {Cancelled}."
      },
      "constructor": {
        "notice": "Initializes Bridge, creates and grants {_msgSender()} the admin role, creates and grants {initialRelayers} the relayer role."
      },
      "executeProposal(uint8,uint64,bytes,bytes32,bool)": {
        "notice": "Executes a deposit proposal that is considered passed using a specified handler contract.Only callable by relayers when Bridge is not paused.Proposal must have Passed status.Hash of {data} must equal proposal's {dataHash}.Emits {ProposalEvent} event with status {Executed}.Emits {FailedExecution} event with the failed reason."
      },
      "getProposal(uint8,uint64,bytes32)": {
        "notice": "Returns a proposal."
      },
      "isRelayer(address)": {
        "notice": "Returns true if {relayer} has the relayer role."
      },
      "renounceAdmin(address)": {
        "notice": "Removes admin role from {_msgSender()} and grants it to {newAdmin}.Only callable by an address that currently has the admin role."
      },
      "voteProposal(uint8,uint64,bytes32,bytes)": {
        "notice": "When called, {_msgSender()} will be marked as voting in favor of proposal.Only callable by relayers when Bridge is not paused.Proposal must not have already been passed or executed.{_msgSender()} must not have already voted on proposal.Emits {ProposalEvent} event with status indicating the proposal status.Emits {ProposalVote} event."
      }
    },
    "version": 1
  }
}