{
  "contractName": "BridgeGovernance",
  "abi": [
    {
      "inputs": [
        {
          "internalType": "uint256",
          "name": "_quorum",
          "type": "uint256"
        },
        {
          "internalType": "uint256",
          "name": "_collateral",
          "type": "uint256"
        }
      ],
      "stateMutability": "payable",
      "type": "constructor",
      "payable": true
    },
    {
      "anonymous": false,
      "inputs": [
        {
          "indexed": true,
          "internalType": "address",
          "name": "partecipant",
          "type": "address"
        },
        {
          "indexed": false,
          "internalType": "uint256",
          "name": "nPartecipants",
          "type": "uint256"
        }
      ],
      "name": "PartecipantJoined",
      "type": "event"
    },
    {
      "anonymous": false,
      "inputs": [
        {
          "indexed": false,
          "internalType": "uint256",
          "name": "proposalId",
          "type": "uint256"
        }
      ],
      "name": "ProposalCanceled",
      "type": "event"
    },
    {
      "anonymous": false,
      "inputs": [
        {
          "indexed": false,
          "internalType": "uint256",
          "name": "proposalId",
          "type": "uint256"
        },
        {
          "indexed": false,
          "internalType": "address",
          "name": "proposer",
          "type": "address"
        },
        {
          "indexed": false,
          "internalType": "address[]",
          "name": "targets",
          "type": "address[]"
        },
        {
          "indexed": false,
          "internalType": "uint256[]",
          "name": "values",
          "type": "uint256[]"
        },
        {
          "indexed": false,
          "internalType": "string[]",
          "name": "signatures",
          "type": "string[]"
        },
        {
          "indexed": false,
          "internalType": "bytes[]",
          "name": "calldatas",
          "type": "bytes[]"
        },
        {
          "indexed": false,
          "internalType": "uint256",
          "name": "startBlock",
          "type": "uint256"
        },
        {
          "indexed": false,
          "internalType": "uint256",
          "name": "endBlock",
          "type": "uint256"
        },
        {
          "indexed": false,
          "internalType": "string",
          "name": "description",
          "type": "string"
        }
      ],
      "name": "ProposalCreated",
      "type": "event"
    },
    {
      "anonymous": false,
      "inputs": [
        {
          "indexed": false,
          "internalType": "uint256",
          "name": "proposalId",
          "type": "uint256"
        }
      ],
      "name": "ProposalExecuted",
      "type": "event"
    },
    {
      "anonymous": false,
      "inputs": [
        {
          "indexed": true,
          "internalType": "address",
          "name": "voter",
          "type": "address"
        },
        {
          "indexed": false,
          "internalType": "uint256",
          "name": "proposalId",
          "type": "uint256"
        },
        {
          "indexed": false,
          "internalType": "uint8",
          "name": "support",
          "type": "uint8"
        },
        {
          "indexed": false,
          "internalType": "uint256",
          "name": "weight",
          "type": "uint256"
        },
        {
          "indexed": false,
          "internalType": "string",
          "name": "reason",
          "type": "string"
        }
      ],
      "name": "VoteCast",
      "type": "event"
    },
    {
      "inputs": [],
      "name": "BALLOT_TYPEHASH",
      "outputs": [
        {
          "internalType": "bytes32",
          "name": "",
          "type": "bytes32"
        }
      ],
      "stateMutability": "view",
      "type": "function",
      "constant": true
    },
    {
      "inputs": [],
      "name": "COUNTING_MODE",
      "outputs": [
        {
          "internalType": "string",
          "name": "",
          "type": "string"
        }
      ],
      "stateMutability": "pure",
      "type": "function",
      "constant": true
    },
    {
      "inputs": [
        {
          "internalType": "address[]",
          "name": "targets",
          "type": "address[]"
        },
        {
          "internalType": "uint256[]",
          "name": "values",
          "type": "uint256[]"
        },
        {
          "internalType": "bytes[]",
          "name": "calldatas",
          "type": "bytes[]"
        },
        {
          "internalType": "bytes32",
          "name": "descriptionHash",
          "type": "bytes32"
        }
      ],
      "name": "execute",
      "outputs": [
        {
          "internalType": "uint256",
          "name": "",
          "type": "uint256"
        }
      ],
      "stateMutability": "payable",
      "type": "function",
      "payable": true
    },
    {
      "inputs": [
        {
          "internalType": "uint256",
          "name": "proposalId",
          "type": "uint256"
        },
        {
          "internalType": "address",
          "name": "account",
          "type": "address"
        }
      ],
      "name": "hasVoted",
      "outputs": [
        {
          "internalType": "bool",
          "name": "",
          "type": "bool"
        }
      ],
      "stateMutability": "view",
      "type": "function",
      "constant": true
    },
    {
      "inputs": [
        {
          "internalType": "address[]",
          "name": "targets",
          "type": "address[]"
        },
        {
          "internalType": "uint256[]",
          "name": "values",
          "type": "uint256[]"
        },
        {
          "internalType": "bytes[]",
          "name": "calldatas",
          "type": "bytes[]"
        },
        {
          "internalType": "bytes32",
          "name": "descriptionHash",
          "type": "bytes32"
        }
      ],
      "name": "hashProposal",
      "outputs": [
        {
          "internalType": "uint256",
          "name": "",
          "type": "uint256"
        }
      ],
      "stateMutability": "pure",
      "type": "function",
      "constant": true
    },
    {
      "inputs": [],
      "name": "name",
      "outputs": [
        {
          "internalType": "string",
          "name": "",
          "type": "string"
        }
      ],
      "stateMutability": "view",
      "type": "function",
      "constant": true
    },
    {
      "inputs": [
        {
          "internalType": "uint256",
          "name": "proposalId",
          "type": "uint256"
        }
      ],
      "name": "proposalDeadline",
      "outputs": [
        {
          "internalType": "uint256",
          "name": "",
          "type": "uint256"
        }
      ],
      "stateMutability": "view",
      "type": "function",
      "constant": true
    },
    {
      "inputs": [
        {
          "internalType": "uint256",
          "name": "proposalId",
          "type": "uint256"
        }
      ],
      "name": "proposalSnapshot",
      "outputs": [
        {
          "internalType": "uint256",
          "name": "",
          "type": "uint256"
        }
      ],
      "stateMutability": "view",
      "type": "function",
      "constant": true
    },
    {
      "inputs": [
        {
          "internalType": "uint256",
          "name": "proposalId",
          "type": "uint256"
        }
      ],
      "name": "proposalVotes",
      "outputs": [
        {
          "internalType": "uint256",
          "name": "againstVotes",
          "type": "uint256"
        },
        {
          "internalType": "uint256",
          "name": "forVotes",
          "type": "uint256"
        },
        {
          "internalType": "uint256",
          "name": "abstainVotes",
          "type": "uint256"
        }
      ],
      "stateMutability": "view",
      "type": "function",
      "constant": true
    },
    {
      "inputs": [
        {
          "internalType": "address",
          "name": "target",
          "type": "address"
        },
        {
          "internalType": "uint256",
          "name": "value",
          "type": "uint256"
        },
        {
          "internalType": "bytes",
          "name": "data",
          "type": "bytes"
        }
      ],
      "name": "relay",
      "outputs": [],
      "stateMutability": "nonpayable",
      "type": "function"
    },
    {
      "inputs": [
        {
          "internalType": "uint256",
          "name": "proposalId",
          "type": "uint256"
        }
      ],
      "name": "state",
      "outputs": [
        {
          "internalType": "enum IGovernor.ProposalState",
          "name": "",
          "type": "uint8"
        }
      ],
      "stateMutability": "view",
      "type": "function",
      "constant": true
    },
    {
      "inputs": [
        {
          "internalType": "bytes4",
          "name": "interfaceId",
          "type": "bytes4"
        }
      ],
      "name": "supportsInterface",
      "outputs": [
        {
          "internalType": "bool",
          "name": "",
          "type": "bool"
        }
      ],
      "stateMutability": "view",
      "type": "function",
      "constant": true
    },
    {
      "inputs": [],
      "name": "version",
      "outputs": [
        {
          "internalType": "string",
          "name": "",
          "type": "string"
        }
      ],
      "stateMutability": "view",
      "type": "function",
      "constant": true
    },
    {
      "stateMutability": "payable",
      "type": "receive",
      "payable": true
    },
    {
      "inputs": [
        {
          "internalType": "address",
          "name": "partecipant",
          "type": "address"
        }
      ],
      "name": "join",
      "outputs": [],
      "stateMutability": "payable",
      "type": "function",
      "payable": true
    },
    {
      "inputs": [
        {
          "internalType": "uint256",
          "name": "blockNumber",
          "type": "uint256"
        }
      ],
      "name": "quorum",
      "outputs": [
        {
          "internalType": "uint256",
          "name": "",
          "type": "uint256"
        }
      ],
      "stateMutability": "view",
      "type": "function",
      "constant": true
    },
    {
      "inputs": [
        {
          "internalType": "address",
          "name": "account",
          "type": "address"
        },
        {
          "internalType": "uint256",
          "name": "blockNumber",
          "type": "uint256"
        }
      ],
      "name": "getVotes",
      "outputs": [
        {
          "internalType": "uint256",
          "name": "",
          "type": "uint256"
        }
      ],
      "stateMutability": "view",
      "type": "function",
      "constant": true
    },
    {
      "inputs": [],
      "name": "votingDelay",
      "outputs": [
        {
          "internalType": "uint256",
          "name": "",
          "type": "uint256"
        }
      ],
      "stateMutability": "pure",
      "type": "function",
      "constant": true
    },
    {
      "inputs": [],
      "name": "votingPeriod",
      "outputs": [
        {
          "internalType": "uint256",
          "name": "",
          "type": "uint256"
        }
      ],
      "stateMutability": "pure",
      "type": "function",
      "constant": true
    },
    {
      "inputs": [],
      "name": "proposalThreshold",
      "outputs": [
        {
          "internalType": "uint256",
          "name": "",
          "type": "uint256"
        }
      ],
      "stateMutability": "view",
      "type": "function",
      "constant": true
    },
    {
      "inputs": [
        {
          "internalType": "address[]",
          "name": "targets",
          "type": "address[]"
        },
        {
          "internalType": "uint256[]",
          "name": "values",
          "type": "uint256[]"
        },
        {
          "internalType": "bytes[]",
          "name": "calldatas",
          "type": "bytes[]"
        },
        {
          "internalType": "string",
          "name": "description",
          "type": "string"
        }
      ],
      "name": "propose",
      "outputs": [
        {
          "internalType": "uint256",
          "name": "",
          "type": "uint256"
        }
      ],
      "stateMutability": "nonpayable",
      "type": "function"
    },
    {
      "inputs": [
        {
          "internalType": "uint256",
          "name": "proposalId",
          "type": "uint256"
        },
        {
          "internalType": "uint8",
          "name": "support",
          "type": "uint8"
        }
      ],
      "name": "castVote",
      "outputs": [
        {
          "internalType": "uint256",
          "name": "",
          "type": "uint256"
        }
      ],
      "stateMutability": "nonpayable",
      "type": "function"
    },
    {
      "inputs": [
        {
          "internalType": "uint256",
          "name": "proposalId",
          "type": "uint256"
        },
        {
          "internalType": "uint8",
          "name": "support",
          "type": "uint8"
        },
        {
          "internalType": "string",
          "name": "reason",
          "type": "string"
        }
      ],
      "name": "castVoteWithReason",
      "outputs": [
        {
          "internalType": "uint256",
          "name": "",
          "type": "uint256"
        }
      ],
      "stateMutability": "nonpayable",
      "type": "function"
    },
    {
      "inputs": [
        {
          "internalType": "uint256",
          "name": "proposalId",
          "type": "uint256"
        },
        {
          "internalType": "uint8",
          "name": "support",
          "type": "uint8"
        },
        {
          "internalType": "uint8",
          "name": "v",
          "type": "uint8"
        },
        {
          "internalType": "bytes32",
          "name": "r",
          "type": "bytes32"
        },
        {
          "internalType": "bytes32",
          "name": "s",
          "type": "bytes32"
        }
      ],
      "name": "castVoteBySig",
      "outputs": [
        {
          "internalType": "uint256",
          "name": "",
          "type": "uint256"
        }
      ],
      "stateMutability": "nonpayable",
      "type": "function"
    }
  ],
  "bytecode": "0x6101406040526000600555604051620049573803806200495783398181016040528101906200002f9190620003f9565b6040518060400160405280601081526020017f427269646765476f7665726e616e63650000000000000000000000000000000081525080620000766200017860201b60201c565b60008280519060200120905060008280519060200120905060007f8b73c3c69bb8fe3d512ecc4cf759cc79239f7b179b0ffacaa9a75d522b39400f90508260e081815250508161010081815250504660a08181525050620000df818484620001b560201b60201c565b608081815250503073ffffffffffffffffffffffffffffffffffffffff1660c08173ffffffffffffffffffffffffffffffffffffffff1681525050806101208181525050505050505080600090805190602001906200014092919062000309565b505081600381905550806004819055506200017062000164620001f160201b60201c565b620001f960201b60201c565b5050620006c5565b60606040518060400160405280600181526020017f3100000000000000000000000000000000000000000000000000000000000000815250905090565b60008383834630604051602001620001d2959493929190620004b1565b6040516020818303038152906040528051906020012090509392505050565b600033905090565b600454341462000240576040517f08c379a0000000000000000000000000000000000000000000000000000000008152600401620002379062000595565b60405180910390fd5b6001600660008373ffffffffffffffffffffffffffffffffffffffff1673ffffffffffffffffffffffffffffffffffffffff16815260200190815260200160002060006101000a81548160ff021916908315150217905550600160056000828254620002ad9190620005e6565b925050819055508073ffffffffffffffffffffffffffffffffffffffff167fc1efba844224a64cc38ac334b9273e034faf8dd15b452d43cc95d60f8fd20c14600554604051620002fe919062000643565b60405180910390a250565b82805462000317906200068f565b90600052602060002090601f0160209004810192826200033b576000855562000387565b82601f106200035657805160ff191683800117855562000387565b8280016001018555821562000387579182015b828111156200038657825182559160200191906001019062000369565b5b5090506200039691906200039a565b5090565b5b80821115620003b55760008160009055506001016200039b565b5090565b600080fd5b6000819050919050565b620003d381620003be565b8114620003df57600080fd5b50565b600081519050620003f381620003c8565b92915050565b60008060408385031215620004135762000412620003b9565b5b60006200042385828601620003e2565b92505060206200043685828601620003e2565b9150509250929050565b6000819050919050565b620004558162000440565b82525050565b6200046681620003be565b82525050565b600073ffffffffffffffffffffffffffffffffffffffff82169050919050565b600062000499826200046c565b9050919050565b620004ab816200048c565b82525050565b600060a082019050620004c860008301886200044a565b620004d760208301876200044a565b620004e660408301866200044a565b620004f560608301856200045b565b620005046080830184620004a0565b9695505050505050565b600082825260208201905092915050565b7f596f752073656e74207468652077726f6e67207175616e7469747920746f206260008201527f6563616d652061207061727465636970616e742e000000000000000000000000602082015250565b60006200057d6034836200050e565b91506200058a826200051f565b604082019050919050565b60006020820190508181036000830152620005b0816200056e565b9050919050565b7f4e487b7100000000000000000000000000000000000000000000000000000000600052601160045260246000fd5b6000620005f382620003be565b91506200060083620003be565b9250827fffffffffffffffffffffffffffffffffffffffffffffffffffffffffffffffff03821115620006385762000637620005b7565b5b828201905092915050565b60006020820190506200065a60008301846200045b565b92915050565b7f4e487b7100000000000000000000000000000000000000000000000000000000600052602260045260246000fd5b60006002820490506001821680620006a857607f821691505b60208210811415620006bf57620006be62000660565b5b50919050565b60805160a05160c05160e0516101005161012051614242620007156000396000611b7d01526000611bbf01526000611b9e01526000611ad301526000611b2901526000611b5201526142426000f3fe6080604052600436106101445760003560e01c806354fd4d50116100b6578063c28bc2fa1161006f578063c28bc2fa14610516578063c59057e41461053f578063dd4e2ba51461057c578063deaaa7cc146105a7578063eb9019d4146105d2578063f8ce560a1461060f5761018a565b806354fd4d50146103cc57806356781388146103f75780637b3c71d3146104345780637d5e81e214610471578063b58131b0146104ae578063c01f9e37146104d95761018a565b80632d63f693116101085780632d63f6931461026e5780633932abb1146102ab5780633bccf4fd146102d65780633e4f49e6146103135780634385963214610350578063544ffc9c1461038d5761018a565b806301ffc9a71461018f57806302a251a3146101cc57806306fdde03146101f75780632656227d1461022257806328ffe6c8146102525761018a565b3661018a573073ffffffffffffffffffffffffffffffffffffffff1661016861064c565b73ffffffffffffffffffffffffffffffffffffffff161461018857600080fd5b005b600080fd5b34801561019b57600080fd5b506101b660048036038101906101b191906121cd565b610654565b6040516101c39190612215565b60405180910390f35b3480156101d857600080fd5b506101e16106ce565b6040516101ee9190612249565b60405180910390f35b34801561020357600080fd5b5061020c6106d8565b60405161021991906122fd565b60405180910390f35b61023c60048036038101906102379190612780565b61076a565b6040516102499190612249565b60405180910390f35b61026c6004803603810190610267919061283b565b61089d565b005b34801561027a57600080fd5b5061029560048036038101906102909190612868565b6109a6565b6040516102a29190612249565b60405180910390f35b3480156102b757600080fd5b506102c0610a14565b6040516102cd9190612249565b60405180910390f35b3480156102e257600080fd5b506102fd60048036038101906102f891906128ce565b610a19565b60405161030a9190612249565b60405180910390f35b34801561031f57600080fd5b5061033a60048036038101906103359190612868565b610ac5565b60405161034791906129c0565b60405180910390f35b34801561035c57600080fd5b50610377600480360381019061037291906129db565b610bda565b6040516103849190612215565b60405180910390f35b34801561039957600080fd5b506103b460048036038101906103af9190612868565b610c45565b6040516103c393929190612a1b565b60405180910390f35b3480156103d857600080fd5b506103e1610c7d565b6040516103ee91906122fd565b60405180910390f35b34801561040357600080fd5b5061041e60048036038101906104199190612a52565b610cba565b60405161042b9190612249565b60405180910390f35b34801561044057600080fd5b5061045b60048036038101906104569190612aed565b610d60565b6040516104689190612249565b60405180910390f35b34801561047d57600080fd5b5061049860048036038101906104939190612c02565b610e0a565b6040516104a59190612249565b60405180910390f35b3480156104ba57600080fd5b506104c3610eb5565b6040516104d09190612249565b60405180910390f35b3480156104e557600080fd5b5061050060048036038101906104fb9190612868565b610eba565b60405161050d9190612249565b60405180910390f35b34801561052257600080fd5b5061053d60048036038101906105389190612d2f565b610f28565b005b34801561054b57600080fd5b5061056660048036038101906105619190612780565b610ffa565b6040516105739190612249565b60405180910390f35b34801561058857600080fd5b50610591611036565b60405161059e91906122fd565b60405180910390f35b3480156105b357600080fd5b506105bc611073565b6040516105c99190612db2565b60405180910390f35b3480156105de57600080fd5b506105f960048036038101906105f49190612dcd565b611097565b6040516106069190612249565b60405180910390f35b34801561061b57600080fd5b5061063660048036038101906106319190612868565b6110a3565b6040516106439190612249565b60405180910390f35b600030905090565b60007fbf26d897000000000000000000000000000000000000000000000000000000007bffffffffffffffffffffffffffffffffffffffffffffffffffffffff1916827bffffffffffffffffffffffffffffffffffffffffffffffffffffffff191614806106c757506106c6826110c8565b5b9050919050565b600061b3cb905090565b6060600080546106e790612e3c565b80601f016020809104026020016040519081016040528092919081815260200182805461071390612e3c565b80156107605780601f1061073557610100808354040283529160200191610760565b820191906000526020600020905b81548152906001019060200180831161074357829003601f168201915b5050505050905090565b60008061077986868686610ffa565b9050600061078682610ac5565b90506004600781111561079c5761079b612949565b5b8160078111156107af576107ae612949565b5b14806107df5750600560078111156107ca576107c9612949565b5b8160078111156107dd576107dc612949565b5b145b61081e576040517f08c379a000000000000000000000000000000000000000000000000000000000815260040161081590612ee0565b60405180910390fd5b600180600084815260200190815260200160002060020160006101000a81548160ff0219169083151502179055507f712ae1383f79ac853f8d882153778e0260ef8f03b504e2866e0593e04d2b291f8260405161087b9190612249565b60405180910390a16108908288888888611132565b8192505050949350505050565b60045434146108e1576040517f08c379a00000000000000000000000000000000000000000000000000000000081526004016108d890612f72565b60405180910390fd5b6001600660008373ffffffffffffffffffffffffffffffffffffffff1673ffffffffffffffffffffffffffffffffffffffff16815260200190815260200160002060006101000a81548160ff02191690831515021790555060016005600082825461094c9190612fc1565b925050819055508073ffffffffffffffffffffffffffffffffffffffff167fc1efba844224a64cc38ac334b9273e034faf8dd15b452d43cc95d60f8fd20c1460055460405161099b9190612249565b60405180910390a250565b6000610a03600160008481526020019081526020016000206000016040518060200160405290816000820160009054906101000a900467ffffffffffffffff1667ffffffffffffffff1667ffffffffffffffff1681525050611241565b67ffffffffffffffff169050919050565b600090565b600060066000610a2761124f565b73ffffffffffffffffffffffffffffffffffffffff1673ffffffffffffffffffffffffffffffffffffffff16815260200190815260200160002060009054906101000a900460ff16610aae576040517f08c379a0000000000000000000000000000000000000000000000000000000008152600401610aa590613063565b60405180910390fd5b610abb8686868686611257565b5095945050505050565b6000806001600084815260200190815260200160002090508060020160009054906101000a900460ff1615610afe576007915050610bd5565b8060020160019054906101000a900460ff1615610b1f576002915050610bd5565b6000610b2a846109a6565b90506000811415610b70576040517f08c379a0000000000000000000000000000000000000000000000000000000008152600401610b67906130cf565b60405180910390fd5b438110610b8257600092505050610bd5565b6000610b8d85610eba565b9050438110610ba25760019350505050610bd5565b610bab856112e1565b8015610bbc5750610bbb85611328565b5b15610bcd5760049350505050610bd5565b600393505050505b919050565b60006002600084815260200190815260200160002060030160008373ffffffffffffffffffffffffffffffffffffffff1673ffffffffffffffffffffffffffffffffffffffff16815260200190815260200160002060009054906101000a900460ff16905092915050565b600080600080600260008681526020019081526020016000209050806000015481600101548260020154935093509350509193909250565b60606040518060400160405280600181526020017f3100000000000000000000000000000000000000000000000000000000000000815250905090565b600060066000610cc861124f565b73ffffffffffffffffffffffffffffffffffffffff1673ffffffffffffffffffffffffffffffffffffffff16815260200190815260200160002060009054906101000a900460ff16610d4f576040517f08c379a0000000000000000000000000000000000000000000000000000000008152600401610d4690613063565b60405180910390fd5b610d598383611353565b5092915050565b600060066000610d6e61124f565b73ffffffffffffffffffffffffffffffffffffffff1673ffffffffffffffffffffffffffffffffffffffff16815260200190815260200160002060009054906101000a900460ff16610df5576040517f08c379a0000000000000000000000000000000000000000000000000000000008152600401610dec90613063565b60405180910390fd5b610e0185858585611384565b50949350505050565b600060066000610e1861124f565b73ffffffffffffffffffffffffffffffffffffffff1673ffffffffffffffffffffffffffffffffffffffff16815260200190815260200160002060009054906101000a900460ff16610e9f576040517f08c379a0000000000000000000000000000000000000000000000000000000008152600401610e9690613063565b60405180910390fd5b610eab858585856113ec565b9050949350505050565b600090565b6000610f17600160008481526020019081526020016000206001016040518060200160405290816000820160009054906101000a900467ffffffffffffffff1667ffffffffffffffff1667ffffffffffffffff1681525050611241565b67ffffffffffffffff169050919050565b610f3061064c565b73ffffffffffffffffffffffffffffffffffffffff16610f4e61124f565b73ffffffffffffffffffffffffffffffffffffffff1614610fa4576040517f08c379a0000000000000000000000000000000000000000000000000000000008152600401610f9b9061313b565b60405180910390fd5b610ff38483838080601f016020809104026020016040519081016040528093929190818152602001838380828437600081840152601f19601f82011690508083019250505050505050856116ec565b5050505050565b60008484848460405160200161101394939291906133ee565b6040516020818303038152906040528051906020012060001c9050949350505050565b60606040518060400160405280602081526020017f737570706f72743d627261766f2671756f72756d3d666f722c6162737461696e815250905090565b7f150214d74d59b7d1e90c73fc22ef3d991dd0a76b046543d4d80ab92d2a50328f81565b60006001905092915050565b600060646003546110b49190613477565b6005546110c191906134a8565b9050919050565b60007f01ffc9a7000000000000000000000000000000000000000000000000000000007bffffffffffffffffffffffffffffffffffffffffffffffffffffffff1916827bffffffffffffffffffffffffffffffffffffffffffffffffffffffff1916149050919050565b60006040518060600160405280602781526020016141bd60279139905060005b85518110156112385760008087838151811061117157611170613502565b5b602002602001015173ffffffffffffffffffffffffffffffffffffffff168784815181106111a2576111a1613502565b5b60200260200101518785815181106111bd576111bc613502565b5b60200260200101516040516111d2919061356d565b60006040518083038185875af1925050503d806000811461120f576040519150601f19603f3d011682016040523d82523d6000602084013e611214565b606091505b509150915061122482828661171b565b5050508061123190613584565b9050611152565b50505050505050565b600081600001519050919050565b600033905090565b6000806112b86112b07f150214d74d59b7d1e90c73fc22ef3d991dd0a76b046543d4d80ab92d2a50328f8989604051602001611295939291906135dc565b60405160208183030381529060405280519060200120611782565b86868661179c565b90506112d5878288604051806020016040528060008152506117c7565b91505095945050505050565b6000806002600084815260200190815260200160002090508060020154816001015461130d9190612fc1565b61131e611319856109a6565b6110a3565b1115915050919050565b6000806002600084815260200190815260200160002090508060000154816001015411915050919050565b60008061135e61124f565b905061137b848285604051806020016040528060008152506117c7565b91505092915050565b60008061138f61124f565b90506113e186828787878080601f016020809104026020016040519081016040528093929190818152602001838380828437600081840152601f19601f820116905080830192505050505050506117c7565b915050949350505050565b60006113f6610eb5565b61140c336001436114079190613613565b611097565b101561144d576040517f08c379a0000000000000000000000000000000000000000000000000000000008152600401611444906136df565b60405180910390fd5b60006114628686868680519060200120610ffa565b905084518651146114a8576040517f08c379a000000000000000000000000000000000000000000000000000000000815260040161149f90613771565b60405180910390fd5b83518651146114ec576040517f08c379a00000000000000000000000000000000000000000000000000000000081526004016114e390613771565b60405180910390fd5b6000865111611530576040517f08c379a0000000000000000000000000000000000000000000000000000000008152600401611527906137dd565b60405180910390fd5b6000600160008381526020019081526020016000209050611590816000016040518060200160405290816000820160009054906101000a900467ffffffffffffffff1667ffffffffffffffff1667ffffffffffffffff168152505061191b565b6115cf576040517f08c379a00000000000000000000000000000000000000000000000000000000081526004016115c69061386f565b60405180910390fd5b60006115e16115dc610a14565b611935565b6115ea43611935565b6115f491906138a3565b905060006116086116036106ce565b611935565b8261161391906138a3565b905061162b828460000161198c90919063ffffffff16565b611641818460010161198c90919063ffffffff16565b7f7d84a6263ae0d98d3329bd7b46bb4e8d6f98cd35a7adb45c274c8b7fd5ebd5e08461166b61124f565b8b8b8d5167ffffffffffffffff81111561168857611687612324565b5b6040519080825280602002602001820160405280156116bb57816020015b60608152602001906001900390816116a65790505b508c88888e6040516116d599989796959493929190613a37565b60405180910390a183945050505050949350505050565b60606117128484846040518060600160405280602981526020016141e4602991396119bb565b90509392505050565b6060831561172b5782905061177b565b60008351111561173e5782518084602001fd5b816040517f08c379a000000000000000000000000000000000000000000000000000000000815260040161177291906122fd565b60405180910390fd5b9392505050565b600061179561178f611acf565b83611be9565b9050919050565b60008060006117ad87878787611c1c565b915091506117ba81611d29565b8192505050949350505050565b600080600160008781526020019081526020016000209050600160078111156117f3576117f2612949565b5b6117fc87610ac5565b600781111561180e5761180d612949565b5b1461184e576040517f08c379a000000000000000000000000000000000000000000000000000000000815260040161184590613b59565b60405180910390fd5b60006118ac8661189d846000016040518060200160405290816000820160009054906101000a900467ffffffffffffffff1667ffffffffffffffff1667ffffffffffffffff1681525050611241565b67ffffffffffffffff16611097565b90506118ba87878784611efe565b8573ffffffffffffffffffffffffffffffffffffffff167fb8e138887d0aa13bab447e82de9d5c1777041ecd21ca36ba824ff1e6c07ddda4888784886040516119069493929190613b79565b60405180910390a28092505050949350505050565b600080826000015167ffffffffffffffff16149050919050565b600067ffffffffffffffff8016821115611984576040517f08c379a000000000000000000000000000000000000000000000000000000000815260040161197b90613c37565b60405180910390fd5b819050919050565b808260000160006101000a81548167ffffffffffffffff021916908367ffffffffffffffff1602179055505050565b606082471015611a00576040517f08c379a00000000000000000000000000000000000000000000000000000000081526004016119f790613cc9565b60405180910390fd5b611a0985612104565b611a48576040517f08c379a0000000000000000000000000000000000000000000000000000000008152600401611a3f90613d35565b60405180910390fd5b6000808673ffffffffffffffffffffffffffffffffffffffff168587604051611a71919061356d565b60006040518083038185875af1925050503d8060008114611aae576040519150601f19603f3d011682016040523d82523d6000602084013e611ab3565b606091505b5091509150611ac382828661171b565b92505050949350505050565b60007f000000000000000000000000000000000000000000000000000000000000000073ffffffffffffffffffffffffffffffffffffffff163073ffffffffffffffffffffffffffffffffffffffff16148015611b4b57507f000000000000000000000000000000000000000000000000000000000000000046145b15611b78577f00000000000000000000000000000000000000000000000000000000000000009050611be6565b611be37f00000000000000000000000000000000000000000000000000000000000000007f00000000000000000000000000000000000000000000000000000000000000007f0000000000000000000000000000000000000000000000000000000000000000612127565b90505b90565b60008282604051602001611bfe929190613dcd565b60405160208183030381529060405280519060200120905092915050565b6000807f7fffffffffffffffffffffffffffffff5d576e7357a4501ddfe92f46681b20a08360001c1115611c57576000600391509150611d20565b601b8560ff1614158015611c6f5750601c8560ff1614155b15611c81576000600491509150611d20565b600060018787878760405160008152602001604052604051611ca69493929190613e04565b6020604051602081039080840390855afa158015611cc8573d6000803e3d6000fd5b505050602060405103519050600073ffffffffffffffffffffffffffffffffffffffff168173ffffffffffffffffffffffffffffffffffffffff161415611d1757600060019250925050611d20565b80600092509250505b94509492505050565b60006004811115611d3d57611d3c612949565b5b816004811115611d5057611d4f612949565b5b1415611d5b57611efb565b60016004811115611d6f57611d6e612949565b5b816004811115611d8257611d81612949565b5b1415611dc3576040517f08c379a0000000000000000000000000000000000000000000000000000000008152600401611dba90613e95565b60405180910390fd5b60026004811115611dd757611dd6612949565b5b816004811115611dea57611de9612949565b5b1415611e2b576040517f08c379a0000000000000000000000000000000000000000000000000000000008152600401611e2290613f01565b60405180910390fd5b60036004811115611e3f57611e3e612949565b5b816004811115611e5257611e51612949565b5b1415611e93576040517f08c379a0000000000000000000000000000000000000000000000000000000008152600401611e8a90613f93565b60405180910390fd5b600480811115611ea657611ea5612949565b5b816004811115611eb957611eb8612949565b5b1415611efa576040517f08c379a0000000000000000000000000000000000000000000000000000000008152600401611ef190614025565b60405180910390fd5b5b50565b60006002600086815260200190815260200160002090508060030160008573ffffffffffffffffffffffffffffffffffffffff1673ffffffffffffffffffffffffffffffffffffffff16815260200190815260200160002060009054906101000a900460ff1615611fa4576040517f08c379a0000000000000000000000000000000000000000000000000000000008152600401611f9b906140b7565b60405180910390fd5b60018160030160008673ffffffffffffffffffffffffffffffffffffffff1673ffffffffffffffffffffffffffffffffffffffff16815260200190815260200160002060006101000a81548160ff0219169083151502179055506000600281111561201257612011612949565b5b60ff168360ff16141561203f57818160000160008282546120339190612fc1565b925050819055506120fd565b6001600281111561205357612052612949565b5b60ff168360ff16141561208057818160010160008282546120749190612fc1565b925050819055506120fc565b60028081111561209357612092612949565b5b60ff168360ff1614156120c057818160020160008282546120b49190612fc1565b925050819055506120fb565b6040517f08c379a00000000000000000000000000000000000000000000000000000000081526004016120f290614149565b60405180910390fd5b5b5b5050505050565b6000808273ffffffffffffffffffffffffffffffffffffffff163b119050919050565b60008383834630604051602001612142959493929190614169565b6040516020818303038152906040528051906020012090509392505050565b6000604051905090565b600080fd5b600080fd5b60007fffffffff0000000000000000000000000000000000000000000000000000000082169050919050565b6121aa81612175565b81146121b557600080fd5b50565b6000813590506121c7816121a1565b92915050565b6000602082840312156121e3576121e261216b565b5b60006121f1848285016121b8565b91505092915050565b60008115159050919050565b61220f816121fa565b82525050565b600060208201905061222a6000830184612206565b92915050565b6000819050919050565b61224381612230565b82525050565b600060208201905061225e600083018461223a565b92915050565b600081519050919050565b600082825260208201905092915050565b60005b8381101561229e578082015181840152602081019050612283565b838111156122ad576000848401525b50505050565b6000601f19601f8301169050919050565b60006122cf82612264565b6122d9818561226f565b93506122e9818560208601612280565b6122f2816122b3565b840191505092915050565b6000602082019050818103600083015261231781846122c4565b905092915050565b600080fd5b7f4e487b7100000000000000000000000000000000000000000000000000000000600052604160045260246000fd5b61235c826122b3565b810181811067ffffffffffffffff8211171561237b5761237a612324565b5b80604052505050565b600061238e612161565b905061239a8282612353565b919050565b600067ffffffffffffffff8211156123ba576123b9612324565b5b602082029050602081019050919050565b600080fd5b600073ffffffffffffffffffffffffffffffffffffffff82169050919050565b60006123fb826123d0565b9050919050565b61240b816123f0565b811461241657600080fd5b50565b60008135905061242881612402565b92915050565b600061244161243c8461239f565b612384565b90508083825260208201905060208402830185811115612464576124636123cb565b5b835b8181101561248d57806124798882612419565b845260208401935050602081019050612466565b5050509392505050565b600082601f8301126124ac576124ab61231f565b5b81356124bc84826020860161242e565b91505092915050565b600067ffffffffffffffff8211156124e0576124df612324565b5b602082029050602081019050919050565b6124fa81612230565b811461250557600080fd5b50565b600081359050612517816124f1565b92915050565b600061253061252b846124c5565b612384565b90508083825260208201905060208402830185811115612553576125526123cb565b5b835b8181101561257c57806125688882612508565b845260208401935050602081019050612555565b5050509392505050565b600082601f83011261259b5761259a61231f565b5b81356125ab84826020860161251d565b91505092915050565b600067ffffffffffffffff8211156125cf576125ce612324565b5b602082029050602081019050919050565b600080fd5b600067ffffffffffffffff821115612600576125ff612324565b5b612609826122b3565b9050602081019050919050565b82818337600083830152505050565b6000612638612633846125e5565b612384565b905082815260208101848484011115612654576126536125e0565b5b61265f848285612616565b509392505050565b600082601f83011261267c5761267b61231f565b5b813561268c848260208601612625565b91505092915050565b60006126a86126a3846125b4565b612384565b905080838252602082019050602084028301858111156126cb576126ca6123cb565b5b835b8181101561271257803567ffffffffffffffff8111156126f0576126ef61231f565b5b8086016126fd8982612667565b855260208501945050506020810190506126cd565b5050509392505050565b600082601f8301126127315761273061231f565b5b8135612741848260208601612695565b91505092915050565b6000819050919050565b61275d8161274a565b811461276857600080fd5b50565b60008135905061277a81612754565b92915050565b6000806000806080858703121561279a5761279961216b565b5b600085013567ffffffffffffffff8111156127b8576127b7612170565b5b6127c487828801612497565b945050602085013567ffffffffffffffff8111156127e5576127e4612170565b5b6127f187828801612586565b935050604085013567ffffffffffffffff81111561281257612811612170565b5b61281e8782880161271c565b925050606061282f8782880161276b565b91505092959194509250565b6000602082840312156128515761285061216b565b5b600061285f84828501612419565b91505092915050565b60006020828403121561287e5761287d61216b565b5b600061288c84828501612508565b91505092915050565b600060ff82169050919050565b6128ab81612895565b81146128b657600080fd5b50565b6000813590506128c8816128a2565b92915050565b600080600080600060a086880312156128ea576128e961216b565b5b60006128f888828901612508565b9550506020612909888289016128b9565b945050604061291a888289016128b9565b935050606061292b8882890161276b565b925050608061293c8882890161276b565b9150509295509295909350565b7f4e487b7100000000000000000000000000000000000000000000000000000000600052602160045260246000fd5b6008811061298957612988612949565b5b50565b600081905061299a82612978565b919050565b60006129aa8261298c565b9050919050565b6129ba8161299f565b82525050565b60006020820190506129d560008301846129b1565b92915050565b600080604083850312156129f2576129f161216b565b5b6000612a0085828601612508565b9250506020612a1185828601612419565b9150509250929050565b6000606082019050612a30600083018661223a565b612a3d602083018561223a565b612a4a604083018461223a565b949350505050565b60008060408385031215612a6957612a6861216b565b5b6000612a7785828601612508565b9250506020612a88858286016128b9565b9150509250929050565b600080fd5b60008083601f840112612aad57612aac61231f565b5b8235905067ffffffffffffffff811115612aca57612ac9612a92565b5b602083019150836001820283011115612ae657612ae56123cb565b5b9250929050565b60008060008060608587031215612b0757612b0661216b565b5b6000612b1587828801612508565b9450506020612b26878288016128b9565b935050604085013567ffffffffffffffff811115612b4757612b46612170565b5b612b5387828801612a97565b925092505092959194509250565b600067ffffffffffffffff821115612b7c57612b7b612324565b5b612b85826122b3565b9050602081019050919050565b6000612ba5612ba084612b61565b612384565b905082815260208101848484011115612bc157612bc06125e0565b5b612bcc848285612616565b509392505050565b600082601f830112612be957612be861231f565b5b8135612bf9848260208601612b92565b91505092915050565b60008060008060808587031215612c1c57612c1b61216b565b5b600085013567ffffffffffffffff811115612c3a57612c39612170565b5b612c4687828801612497565b945050602085013567ffffffffffffffff811115612c6757612c66612170565b5b612c7387828801612586565b935050604085013567ffffffffffffffff811115612c9457612c93612170565b5b612ca08782880161271c565b925050606085013567ffffffffffffffff811115612cc157612cc0612170565b5b612ccd87828801612bd4565b91505092959194509250565b60008083601f840112612cef57612cee61231f565b5b8235905067ffffffffffffffff811115612d0c57612d0b612a92565b5b602083019150836001820283011115612d2857612d276123cb565b5b9250929050565b60008060008060608587031215612d4957612d4861216b565b5b6000612d5787828801612419565b9450506020612d6887828801612508565b935050604085013567ffffffffffffffff811115612d8957612d88612170565b5b612d9587828801612cd9565b925092505092959194509250565b612dac8161274a565b82525050565b6000602082019050612dc76000830184612da3565b92915050565b60008060408385031215612de457612de361216b565b5b6000612df285828601612419565b9250506020612e0385828601612508565b9150509250929050565b7f4e487b7100000000000000000000000000000000000000000000000000000000600052602260045260246000fd5b60006002820490506001821680612e5457607f821691505b60208210811415612e6857612e67612e0d565b5b50919050565b7f476f7665726e6f723a2070726f706f73616c206e6f742073756363657373667560008201527f6c00000000000000000000000000000000000000000000000000000000000000602082015250565b6000612eca60218361226f565b9150612ed582612e6e565b604082019050919050565b60006020820190508181036000830152612ef981612ebd565b9050919050565b7f596f752073656e74207468652077726f6e67207175616e7469747920746f206260008201527f6563616d652061207061727465636970616e742e000000000000000000000000602082015250565b6000612f5c60348361226f565b9150612f6782612f00565b604082019050919050565b60006020820190508181036000830152612f8b81612f4f565b9050919050565b7f4e487b7100000000000000000000000000000000000000000000000000000000600052601160045260246000fd5b6000612fcc82612230565b9150612fd783612230565b9250827fffffffffffffffffffffffffffffffffffffffffffffffffffffffffffffffff0382111561300c5761300b612f92565b5b828201905092915050565b7f596f7520617265206e6f742061207061727465636970616e742e000000000000600082015250565b600061304d601a8361226f565b915061305882613017565b602082019050919050565b6000602082019050818103600083015261307c81613040565b9050919050565b7f476f7665726e6f723a20756e6b6e6f776e2070726f706f73616c206964000000600082015250565b60006130b9601d8361226f565b91506130c482613083565b602082019050919050565b600060208201905081810360008301526130e8816130ac565b9050919050565b7f476f7665726e6f723a206f6e6c79476f7665726e616e63650000000000000000600082015250565b600061312560188361226f565b9150613130826130ef565b602082019050919050565b6000602082019050818103600083015261315481613118565b9050919050565b600081519050919050565b600082825260208201905092915050565b6000819050602082019050919050565b613190816123f0565b82525050565b60006131a28383613187565b60208301905092915050565b6000602082019050919050565b60006131c68261315b565b6131d08185613166565b93506131db83613177565b8060005b8381101561320c5781516131f38882613196565b97506131fe836131ae565b9250506001810190506131df565b5085935050505092915050565b600081519050919050565b600082825260208201905092915050565b6000819050602082019050919050565b61324e81612230565b82525050565b60006132608383613245565b60208301905092915050565b6000602082019050919050565b600061328482613219565b61328e8185613224565b935061329983613235565b8060005b838110156132ca5781516132b18882613254565b97506132bc8361326c565b92505060018101905061329d565b5085935050505092915050565b600081519050919050565b600082825260208201905092915050565b6000819050602082019050919050565b600081519050919050565b600082825260208201905092915050565b600061332a82613303565b613334818561330e565b9350613344818560208601612280565b61334d816122b3565b840191505092915050565b6000613364838361331f565b905092915050565b6000602082019050919050565b6000613384826132d7565b61338e81856132e2565b9350836020820285016133a0856132f3565b8060005b858110156133dc57848403895281516133bd8582613358565b94506133c88361336c565b925060208a019950506001810190506133a4565b50829750879550505050505092915050565b6000608082019050818103600083015261340881876131bb565b9050818103602083015261341c8186613279565b905081810360408301526134308185613379565b905061343f6060830184612da3565b95945050505050565b7f4e487b7100000000000000000000000000000000000000000000000000000000600052601260045260246000fd5b600061348282612230565b915061348d83612230565b92508261349d5761349c613448565b5b828204905092915050565b60006134b382612230565b91506134be83612230565b9250817fffffffffffffffffffffffffffffffffffffffffffffffffffffffffffffffff04831182151516156134f7576134f6612f92565b5b828202905092915050565b7f4e487b7100000000000000000000000000000000000000000000000000000000600052603260045260246000fd5b600081905092915050565b600061354782613303565b6135518185613531565b9350613561818560208601612280565b80840191505092915050565b6000613579828461353c565b915081905092915050565b600061358f82612230565b91507fffffffffffffffffffffffffffffffffffffffffffffffffffffffffffffffff8214156135c2576135c1612f92565b5b600182019050919050565b6135d681612895565b82525050565b60006060820190506135f16000830186612da3565b6135fe602083018561223a565b61360b60408301846135cd565b949350505050565b600061361e82612230565b915061362983612230565b92508282101561363c5761363b612f92565b5b828203905092915050565b7f476f7665726e6f72436f6d7061746962696c697479427261766f3a2070726f7060008201527f6f73657220766f7465732062656c6f772070726f706f73616c2074687265736860208201527f6f6c640000000000000000000000000000000000000000000000000000000000604082015250565b60006136c960438361226f565b91506136d482613647565b606082019050919050565b600060208201905081810360008301526136f8816136bc565b9050919050565b7f476f7665726e6f723a20696e76616c69642070726f706f73616c206c656e677460008201527f6800000000000000000000000000000000000000000000000000000000000000602082015250565b600061375b60218361226f565b9150613766826136ff565b604082019050919050565b6000602082019050818103600083015261378a8161374e565b9050919050565b7f476f7665726e6f723a20656d7074792070726f706f73616c0000000000000000600082015250565b60006137c760188361226f565b91506137d282613791565b602082019050919050565b600060208201905081810360008301526137f6816137ba565b9050919050565b7f476f7665726e6f723a2070726f706f73616c20616c726561647920657869737460008201527f7300000000000000000000000000000000000000000000000000000000000000602082015250565b600061385960218361226f565b9150613864826137fd565b604082019050919050565b600060208201905081810360008301526138888161384c565b9050919050565b600067ffffffffffffffff82169050919050565b60006138ae8261388f565b91506138b98361388f565b92508267ffffffffffffffff038211156138d6576138d5612f92565b5b828201905092915050565b6138ea816123f0565b82525050565b600081519050919050565b600082825260208201905092915050565b6000819050602082019050919050565b600082825260208201905092915050565b600061393882612264565b613942818561391c565b9350613952818560208601612280565b61395b816122b3565b840191505092915050565b6000613972838361392d565b905092915050565b6000602082019050919050565b6000613992826138f0565b61399c81856138fb565b9350836020820285016139ae8561390c565b8060005b858110156139ea57848403895281516139cb8582613966565b94506139d68361397a565b925060208a019950506001810190506139b2565b50829750879550505050505092915050565b6000819050919050565b6000613a21613a1c613a178461388f565b6139fc565b612230565b9050919050565b613a3181613a06565b82525050565b600061012082019050613a4d600083018c61223a565b613a5a602083018b6138e1565b8181036040830152613a6c818a6131bb565b90508181036060830152613a808189613279565b90508181036080830152613a948188613987565b905081810360a0830152613aa88187613379565b9050613ab760c0830186613a28565b613ac460e0830185613a28565b818103610100830152613ad781846122c4565b90509a9950505050505050505050565b7f476f7665726e6f723a20766f7465206e6f742063757272656e746c792061637460008201527f6976650000000000000000000000000000000000000000000000000000000000602082015250565b6000613b4360238361226f565b9150613b4e82613ae7565b604082019050919050565b60006020820190508181036000830152613b7281613b36565b9050919050565b6000608082019050613b8e600083018761223a565b613b9b60208301866135cd565b613ba8604083018561223a565b8181036060830152613bba81846122c4565b905095945050505050565b7f53616665436173743a2076616c756520646f65736e27742066697420696e203660008201527f3420626974730000000000000000000000000000000000000000000000000000602082015250565b6000613c2160268361226f565b9150613c2c82613bc5565b604082019050919050565b60006020820190508181036000830152613c5081613c14565b9050919050565b7f416464726573733a20696e73756666696369656e742062616c616e636520666f60008201527f722063616c6c0000000000000000000000000000000000000000000000000000602082015250565b6000613cb360268361226f565b9150613cbe82613c57565b604082019050919050565b60006020820190508181036000830152613ce281613ca6565b9050919050565b7f416464726573733a2063616c6c20746f206e6f6e2d636f6e7472616374000000600082015250565b6000613d1f601d8361226f565b9150613d2a82613ce9565b602082019050919050565b60006020820190508181036000830152613d4e81613d12565b9050919050565b600081905092915050565b7f1901000000000000000000000000000000000000000000000000000000000000600082015250565b6000613d96600283613d55565b9150613da182613d60565b600282019050919050565b6000819050919050565b613dc7613dc28261274a565b613dac565b82525050565b6000613dd882613d89565b9150613de48285613db6565b602082019150613df48284613db6565b6020820191508190509392505050565b6000608082019050613e196000830187612da3565b613e2660208301866135cd565b613e336040830185612da3565b613e406060830184612da3565b95945050505050565b7f45434453413a20696e76616c6964207369676e61747572650000000000000000600082015250565b6000613e7f60188361226f565b9150613e8a82613e49565b602082019050919050565b60006020820190508181036000830152613eae81613e72565b9050919050565b7f45434453413a20696e76616c6964207369676e6174757265206c656e67746800600082015250565b6000613eeb601f8361226f565b9150613ef682613eb5565b602082019050919050565b60006020820190508181036000830152613f1a81613ede565b9050919050565b7f45434453413a20696e76616c6964207369676e6174757265202773272076616c60008201527f7565000000000000000000000000000000000000000000000000000000000000602082015250565b6000613f7d60228361226f565b9150613f8882613f21565b604082019050919050565b60006020820190508181036000830152613fac81613f70565b9050919050565b7f45434453413a20696e76616c6964207369676e6174757265202776272076616c60008201527f7565000000000000000000000000000000000000000000000000000000000000602082015250565b600061400f60228361226f565b915061401a82613fb3565b604082019050919050565b6000602082019050818103600083015261403e81614002565b9050919050565b7f476f7665726e6f72566f74696e6753696d706c653a20766f746520616c72656160008201527f6479206361737400000000000000000000000000000000000000000000000000602082015250565b60006140a160278361226f565b91506140ac82614045565b604082019050919050565b600060208201905081810360008301526140d081614094565b9050919050565b7f476f7665726e6f72566f74696e6753696d706c653a20696e76616c696420766160008201527f6c756520666f7220656e756d20566f7465547970650000000000000000000000602082015250565b600061413360358361226f565b915061413e826140d7565b604082019050919050565b6000602082019050818103600083015261416281614126565b9050919050565b600060a08201905061417e6000830188612da3565b61418b6020830187612da3565b6141986040830186612da3565b6141a5606083018561223a565b6141b260808301846138e1565b969550505050505056fe476f7665726e6f723a2063616c6c20726576657274656420776974686f7574206d657373616765416464726573733a206c6f772d6c6576656c2063616c6c20776974682076616c7565206661696c6564a2646970667358221220652c9fac33c01cf4f64b97cddbd8e7992552d0f0c29447c8567ec1d135e97d2964736f6c634300080b0033",
  "immutableReferences": {
    "2717": [
      {
        "length": 32,
        "start": 6994
      }
    ],
    "2719": [
      {
        "length": 32,
        "start": 6953
      }
    ],
    "2721": [
      {
        "length": 32,
        "start": 6867
      }
    ],
    "2723": [
      {
        "length": 32,
        "start": 7070
      }
    ],
    "2725": [
      {
        "length": 32,
        "start": 7103
      }
    ],
    "2727": [
      {
        "length": 32,
        "start": 7037
      }
    ]
  },
  "source": "pragma solidity >=0.8;\n\n// import \"../node_modules/chainbridge-solidity/contracts/Bridge.sol\";\n// import \"../node_modules/@openzeppelin/contracts/governance/Governor.sol\";\nimport \"../node_modules/@openzeppelin/contracts/governance/extensions/GovernorCountingSimple.sol\";\nimport \"../node_modules/@openzeppelin/contracts/utils/Context.sol\";\n\ncontract BridgeGovernance is Context, GovernorCountingSimple {\n    uint256 private quorumPercentage;\n    uint256 private collateral;\n    uint256 private nPartecipants = 0;\n    mapping(address => bool) partecipants;\n\n    event PartecipantJoined(address indexed partecipant, uint256 nPartecipants);\n\n    modifier onlyPartecipant() {\n        require(partecipants[_msgSender()], \"You are not a partecipant.\");\n        _;\n    }\n\n    constructor(uint256 _quorum, uint256 _collateral)\n        Governor(\"BridgeGovernance\") payable\n    {\n        quorumPercentage = _quorum;\n        collateral = _collateral;\n        join(_msgSender());\n    }\n\n    // The user become a partecipant by sending a specific quantity\n    // of money. In this way we enforce a correct behaviour.\n    function join(address partecipant) public payable {\n        require(\n            msg.value == collateral,\n            \"You sent the wrong quantity to became a partecipant.\"\n        );\n        partecipants[partecipant] = true;\n        nPartecipants += 1;\n        emit PartecipantJoined(partecipant, nPartecipants);\n    }\n\n    //The quorum is a fraction of the partecipants\n    function quorum(uint256 blockNumber)\n        public\n        view\n        override\n        returns (uint256)\n    {\n        return nPartecipants * (quorumPercentage / 100);\n    }\n\n    //Returns the number of votes associated to each partecipant,\n    //in this implementation we use a fixed number.\n    function getVotes(address account, uint256 blockNumber)\n        public\n        view\n        override\n        returns (uint256)\n    {\n        return 1;\n    }\n\n    function votingDelay() public pure override returns (uint256) {\n        // for testing purposes we set 0 delay, but in a real context a slight delay would be better\n        return 0;\n        //return 6575; //one day (based on block production rate)\n    }\n\n    function votingPeriod() public pure override returns (uint256) {\n        return 46027; //one week\n    }\n\n    /**\n     * @dev Part of the Governor Bravo's interface: _\"The number of votes required in order for a voter to become a proposer\"_.\n     */\n    function proposalThreshold() public view override returns (uint256) {\n        return 0;\n    }\n\n    // Proposal function restricted only to partecipants who blocked funds.\n    function propose(\n        address[] memory targets,\n        uint256[] memory values,\n        bytes[] memory calldatas,\n        string memory description\n    ) public override onlyPartecipant returns (uint256) {\n        return super.propose(targets, values, calldatas, description);\n    }\n\n    function castVote(uint256 proposalId, uint8 support)\n        public\n        virtual\n        override\n        onlyPartecipant\n        returns (uint256)\n    {\n        super.castVote(proposalId, support);\n    }\n\n    function castVoteWithReason(\n        uint256 proposalId,\n        uint8 support,\n        string calldata reason\n    ) public virtual override onlyPartecipant returns (uint256) {\n        super.castVoteWithReason(proposalId, support, reason);\n    }\n\n    function castVoteBySig(\n        uint256 proposalId,\n        uint8 support,\n        uint8 v,\n        bytes32 r,\n        bytes32 s\n    ) public virtual override onlyPartecipant returns (uint256) {\n        super.castVoteBySig(proposalId, support, v, r, s);\n    }\n}\n",
  "sourcePath": "/home/norwegiangoat/git/bc_connector/crosscoin/contracts/BrigeGovernance.sol",
  "compiler": {
    "name": "solc",
    "version": "0.8.11+commit.d7f03943.Emscripten.clang"
  },
  "schemaVersion": "3.4.5",
  "updatedAt": "2022-05-19T12:35:58.565Z",
  "networkType": "ethereum",
  "devdoc": {
    "kind": "dev",
    "methods": {
      "COUNTING_MODE()": {
        "details": "See {IGovernor-COUNTING_MODE}."
      },
      "castVote(uint256,uint8)": {
        "details": "See {IGovernor-castVote}."
      },
      "castVoteBySig(uint256,uint8,uint8,bytes32,bytes32)": {
        "details": "See {IGovernor-castVoteBySig}."
      },
      "castVoteWithReason(uint256,uint8,string)": {
        "details": "See {IGovernor-castVoteWithReason}."
      },
      "execute(address[],uint256[],bytes[],bytes32)": {
        "details": "See {IGovernor-execute}."
      },
      "getVotes(address,uint256)": {
        "details": "Voting power of an `account` at a specific `blockNumber`. Note: this can be implemented in a number of ways, for example by reading the delegated balance from one (or multiple), {ERC20Votes} tokens."
      },
      "hasVoted(uint256,address)": {
        "details": "See {IGovernor-hasVoted}."
      },
      "hashProposal(address[],uint256[],bytes[],bytes32)": {
        "details": "See {IGovernor-hashProposal}. The proposal id is produced by hashing the RLC encoded `targets` array, the `values` array, the `calldatas` array and the descriptionHash (bytes32 which itself is the keccak256 hash of the description string). This proposal id can be produced from the proposal data which is part of the {ProposalCreated} event. It can even be computed in advance, before the proposal is submitted. Note that the chainId and the governor address are not part of the proposal id computation. Consequently, the same proposal (with same operation and same description) will have the same id if submitted on multiple governors accross multiple networks. This also means that in order to execute the same operation twice (on the same governor) the proposer will have to change the description in order to avoid proposal id conflicts."
      },
      "name()": {
        "details": "See {IGovernor-name}."
      },
      "proposalDeadline(uint256)": {
        "details": "See {IGovernor-proposalDeadline}."
      },
      "proposalSnapshot(uint256)": {
        "details": "See {IGovernor-proposalSnapshot}."
      },
      "proposalThreshold()": {
        "details": "Part of the Governor Bravo's interface: _\"The number of votes required in order for a voter to become a proposer\"_."
      },
      "proposalVotes(uint256)": {
        "details": "Accessor to the internal vote counts."
      },
      "propose(address[],uint256[],bytes[],string)": {
        "details": "See {IGovernor-propose}."
      },
      "quorum(uint256)": {
        "details": "Minimum number of cast voted required for a proposal to be successful. Note: The `blockNumber` parameter corresponds to the snaphot used for counting vote. This allows to scale the quroum depending on values such as the totalSupply of a token at this block (see {ERC20Votes})."
      },
      "relay(address,uint256,bytes)": {
        "details": "Relays a transaction or function call to an arbitrary target. In cases where the governance executor is some contract other than the governor itself, like when using a timelock, this function can be invoked in a governance proposal to recover tokens or Ether that was sent to the governor contract by mistake. Note that if the executor is simply the governor itself, use of `relay` is redundant."
      },
      "state(uint256)": {
        "details": "See {IGovernor-state}."
      },
      "supportsInterface(bytes4)": {
        "details": "See {IERC165-supportsInterface}."
      },
      "version()": {
        "details": "See {IGovernor-version}."
      },
      "votingDelay()": {
        "details": "Delay, in number of block, between the proposal is created and the vote starts. This can be increassed to leave time for users to buy voting power, of delegate it, before the voting of a proposal starts."
      },
      "votingPeriod()": {
        "details": "Delay, in number of blocks, between the vote start and vote ends. NOTE: The {votingDelay} can delay the start of the vote. This must be considered when setting the voting duration compared to the voting delay."
      }
    },
    "version": 1
  },
  "userdoc": {
    "kind": "user",
    "methods": {
      "getVotes(address,uint256)": {
        "notice": "module:reputation"
      },
      "quorum(uint256)": {
        "notice": "module:user-config"
      },
      "votingDelay()": {
        "notice": "module:user-config"
      },
      "votingPeriod()": {
        "notice": "module:user-config"
      }
    },
    "version": 1
  }
}