{
  "contractName": "BridgeWithdrawPatch",
  "abi": [
    {
      "inputs": [
        {
          "internalType": "uint8",
          "name": "domainID",
          "type": "uint8"
        },
        {
          "internalType": "address[]",
          "name": "initialRelayers",
          "type": "address[]"
        },
        {
          "internalType": "uint256",
          "name": "initialRelayerThreshold",
          "type": "uint256"
        },
        {
          "internalType": "uint256",
          "name": "fee",
          "type": "uint256"
        },
        {
          "internalType": "uint256",
          "name": "expiry",
          "type": "uint256"
        }
      ],
      "stateMutability": "nonpayable",
      "type": "constructor"
    },
    {
      "anonymous": false,
      "inputs": [
        {
          "indexed": false,
          "internalType": "uint8",
          "name": "destinationDomainID",
          "type": "uint8"
        },
        {
          "indexed": false,
          "internalType": "bytes32",
          "name": "resourceID",
          "type": "bytes32"
        },
        {
          "indexed": false,
          "internalType": "uint64",
          "name": "depositNonce",
          "type": "uint64"
        },
        {
          "indexed": true,
          "internalType": "address",
          "name": "user",
          "type": "address"
        },
        {
          "indexed": false,
          "internalType": "bytes",
          "name": "data",
          "type": "bytes"
        },
        {
          "indexed": false,
          "internalType": "bytes",
          "name": "handlerResponse",
          "type": "bytes"
        }
      ],
      "name": "Deposit",
      "type": "event"
    },
    {
      "anonymous": false,
      "inputs": [
        {
          "indexed": false,
          "internalType": "bytes",
          "name": "lowLevelData",
          "type": "bytes"
        }
      ],
      "name": "FailedHandlerExecution",
      "type": "event"
    },
    {
      "anonymous": false,
      "inputs": [
        {
          "indexed": false,
          "internalType": "address",
          "name": "newFeeHandler",
          "type": "address"
        }
      ],
      "name": "FeeHandlerChanged",
      "type": "event"
    },
    {
      "anonymous": false,
      "inputs": [
        {
          "indexed": false,
          "internalType": "address",
          "name": "account",
          "type": "address"
        }
      ],
      "name": "Paused",
      "type": "event"
    },
    {
      "anonymous": false,
      "inputs": [
        {
          "indexed": false,
          "internalType": "uint8",
          "name": "originDomainID",
          "type": "uint8"
        },
        {
          "indexed": false,
          "internalType": "uint64",
          "name": "depositNonce",
          "type": "uint64"
        },
        {
          "indexed": false,
          "internalType": "enum Bridge.ProposalStatus",
          "name": "status",
          "type": "uint8"
        },
        {
          "indexed": false,
          "internalType": "bytes32",
          "name": "dataHash",
          "type": "bytes32"
        }
      ],
      "name": "ProposalEvent",
      "type": "event"
    },
    {
      "anonymous": false,
      "inputs": [
        {
          "indexed": false,
          "internalType": "uint8",
          "name": "originDomainID",
          "type": "uint8"
        },
        {
          "indexed": false,
          "internalType": "uint64",
          "name": "depositNonce",
          "type": "uint64"
        },
        {
          "indexed": false,
          "internalType": "enum Bridge.ProposalStatus",
          "name": "status",
          "type": "uint8"
        },
        {
          "indexed": false,
          "internalType": "bytes32",
          "name": "dataHash",
          "type": "bytes32"
        }
      ],
      "name": "ProposalVote",
      "type": "event"
    },
    {
      "anonymous": false,
      "inputs": [
        {
          "indexed": false,
          "internalType": "address",
          "name": "relayer",
          "type": "address"
        }
      ],
      "name": "RelayerAdded",
      "type": "event"
    },
    {
      "anonymous": false,
      "inputs": [
        {
          "indexed": false,
          "internalType": "address",
          "name": "relayer",
          "type": "address"
        }
      ],
      "name": "RelayerRemoved",
      "type": "event"
    },
    {
      "anonymous": false,
      "inputs": [
        {
          "indexed": false,
          "internalType": "uint256",
          "name": "newThreshold",
          "type": "uint256"
        }
      ],
      "name": "RelayerThresholdChanged",
      "type": "event"
    },
    {
      "anonymous": false,
      "inputs": [
        {
          "indexed": true,
          "internalType": "bytes32",
          "name": "role",
          "type": "bytes32"
        },
        {
          "indexed": true,
          "internalType": "address",
          "name": "account",
          "type": "address"
        },
        {
          "indexed": true,
          "internalType": "address",
          "name": "sender",
          "type": "address"
        }
      ],
      "name": "RoleGranted",
      "type": "event"
    },
    {
      "anonymous": false,
      "inputs": [
        {
          "indexed": true,
          "internalType": "bytes32",
          "name": "role",
          "type": "bytes32"
        },
        {
          "indexed": true,
          "internalType": "address",
          "name": "account",
          "type": "address"
        },
        {
          "indexed": true,
          "internalType": "address",
          "name": "sender",
          "type": "address"
        }
      ],
      "name": "RoleRevoked",
      "type": "event"
    },
    {
      "anonymous": false,
      "inputs": [
        {
          "indexed": false,
          "internalType": "address",
          "name": "account",
          "type": "address"
        }
      ],
      "name": "Unpaused",
      "type": "event"
    },
    {
      "inputs": [],
      "name": "DEFAULT_ADMIN_ROLE",
      "outputs": [
        {
          "internalType": "bytes32",
          "name": "",
          "type": "bytes32"
        }
      ],
      "stateMutability": "view",
      "type": "function",
      "constant": true
    },
    {
      "inputs": [],
      "name": "MAX_RELAYERS",
      "outputs": [
        {
          "internalType": "uint256",
          "name": "",
          "type": "uint256"
        }
      ],
      "stateMutability": "view",
      "type": "function",
      "constant": true
    },
    {
      "inputs": [],
      "name": "RELAYER_ROLE",
      "outputs": [
        {
          "internalType": "bytes32",
          "name": "",
          "type": "bytes32"
        }
      ],
      "stateMutability": "view",
      "type": "function",
      "constant": true
    },
    {
      "inputs": [
        {
          "internalType": "uint8",
          "name": "",
          "type": "uint8"
        }
      ],
      "name": "_depositCounts",
      "outputs": [
        {
          "internalType": "uint64",
          "name": "",
          "type": "uint64"
        }
      ],
      "stateMutability": "view",
      "type": "function",
      "constant": true
    },
    {
      "inputs": [
        {
          "internalType": "uint64",
          "name": "",
          "type": "uint64"
        },
        {
          "internalType": "uint8",
          "name": "",
          "type": "uint8"
        }
      ],
      "name": "_depositRecords",
      "outputs": [
        {
          "internalType": "bytes",
          "name": "",
          "type": "bytes"
        }
      ],
      "stateMutability": "view",
      "type": "function",
      "constant": true
    },
    {
      "inputs": [],
      "name": "_domainID",
      "outputs": [
        {
          "internalType": "uint8",
          "name": "",
          "type": "uint8"
        }
      ],
      "stateMutability": "view",
      "type": "function",
      "constant": true
    },
    {
      "inputs": [],
      "name": "_expiry",
      "outputs": [
        {
          "internalType": "uint40",
          "name": "",
          "type": "uint40"
        }
      ],
      "stateMutability": "view",
      "type": "function",
      "constant": true
    },
    {
      "inputs": [],
      "name": "_feeHandler",
      "outputs": [
        {
          "internalType": "contract IFeeHandler",
          "name": "",
          "type": "address"
        }
      ],
      "stateMutability": "view",
      "type": "function",
      "constant": true
    },
    {
      "inputs": [
        {
          "internalType": "uint72",
          "name": "destNonce",
          "type": "uint72"
        },
        {
          "internalType": "bytes32",
          "name": "dataHash",
          "type": "bytes32"
        },
        {
          "internalType": "address",
          "name": "relayer",
          "type": "address"
        }
      ],
      "name": "_hasVotedOnProposal",
      "outputs": [
        {
          "internalType": "bool",
          "name": "",
          "type": "bool"
        }
      ],
      "stateMutability": "view",
      "type": "function",
      "constant": true
    },
    {
      "inputs": [],
      "name": "_relayerThreshold",
      "outputs": [
        {
          "internalType": "uint8",
          "name": "",
          "type": "uint8"
        }
      ],
      "stateMutability": "view",
      "type": "function",
      "constant": true
    },
    {
      "inputs": [
        {
          "internalType": "bytes32",
          "name": "",
          "type": "bytes32"
        }
      ],
      "name": "_resourceIDToHandlerAddress",
      "outputs": [
        {
          "internalType": "address",
          "name": "",
          "type": "address"
        }
      ],
      "stateMutability": "view",
      "type": "function",
      "constant": true
    },
    {
      "inputs": [],
      "name": "_totalRelayers",
      "outputs": [
        {
          "internalType": "uint256",
          "name": "",
          "type": "uint256"
        }
      ],
      "stateMutability": "view",
      "type": "function",
      "constant": true
    },
    {
      "inputs": [
        {
          "internalType": "address",
          "name": "relayerAddress",
          "type": "address"
        }
      ],
      "name": "adminAddRelayer",
      "outputs": [],
      "stateMutability": "nonpayable",
      "type": "function"
    },
    {
      "inputs": [
        {
          "internalType": "address",
          "name": "newFeeHandler",
          "type": "address"
        }
      ],
      "name": "adminChangeFeeHandler",
      "outputs": [],
      "stateMutability": "nonpayable",
      "type": "function"
    },
    {
      "inputs": [
        {
          "internalType": "uint256",
          "name": "newThreshold",
          "type": "uint256"
        }
      ],
      "name": "adminChangeRelayerThreshold",
      "outputs": [],
      "stateMutability": "nonpayable",
      "type": "function"
    },
    {
      "inputs": [],
      "name": "adminPauseTransfers",
      "outputs": [],
      "stateMutability": "nonpayable",
      "type": "function"
    },
    {
      "inputs": [
        {
          "internalType": "address",
          "name": "relayerAddress",
          "type": "address"
        }
      ],
      "name": "adminRemoveRelayer",
      "outputs": [],
      "stateMutability": "nonpayable",
      "type": "function"
    },
    {
      "inputs": [
        {
          "internalType": "address",
          "name": "handlerAddress",
          "type": "address"
        },
        {
          "internalType": "address",
          "name": "tokenAddress",
          "type": "address"
        }
      ],
      "name": "adminSetBurnable",
      "outputs": [],
      "stateMutability": "nonpayable",
      "type": "function"
    },
    {
      "inputs": [
        {
          "internalType": "uint8",
          "name": "domainID",
          "type": "uint8"
        },
        {
          "internalType": "uint64",
          "name": "nonce",
          "type": "uint64"
        }
      ],
      "name": "adminSetDepositNonce",
      "outputs": [],
      "stateMutability": "nonpayable",
      "type": "function"
    },
    {
      "inputs": [
        {
          "internalType": "address",
          "name": "forwarder",
          "type": "address"
        },
        {
          "internalType": "bool",
          "name": "valid",
          "type": "bool"
        }
      ],
      "name": "adminSetForwarder",
      "outputs": [],
      "stateMutability": "nonpayable",
      "type": "function"
    },
    {
      "inputs": [
        {
          "internalType": "address",
          "name": "handlerAddress",
          "type": "address"
        },
        {
          "internalType": "bytes32",
          "name": "resourceID",
          "type": "bytes32"
        },
        {
          "internalType": "address",
          "name": "contractAddress",
          "type": "address"
        },
        {
          "internalType": "bytes4",
          "name": "depositFunctionSig",
          "type": "bytes4"
        },
        {
          "internalType": "uint256",
          "name": "depositFunctionDepositerOffset",
          "type": "uint256"
        },
        {
          "internalType": "bytes4",
          "name": "executeFunctionSig",
          "type": "bytes4"
        }
      ],
      "name": "adminSetGenericResource",
      "outputs": [],
      "stateMutability": "nonpayable",
      "type": "function"
    },
    {
      "inputs": [
        {
          "internalType": "address",
          "name": "handlerAddress",
          "type": "address"
        },
        {
          "internalType": "bytes32",
          "name": "resourceID",
          "type": "bytes32"
        },
        {
          "internalType": "address",
          "name": "tokenAddress",
          "type": "address"
        }
      ],
      "name": "adminSetResource",
      "outputs": [],
      "stateMutability": "nonpayable",
      "type": "function"
    },
    {
      "inputs": [],
      "name": "adminUnpauseTransfers",
      "outputs": [],
      "stateMutability": "nonpayable",
      "type": "function"
    },
    {
      "inputs": [
        {
          "internalType": "uint8",
          "name": "domainID",
          "type": "uint8"
        },
        {
          "internalType": "uint64",
          "name": "depositNonce",
          "type": "uint64"
        },
        {
          "internalType": "bytes32",
          "name": "dataHash",
          "type": "bytes32"
        }
      ],
      "name": "cancelProposal",
      "outputs": [],
      "stateMutability": "nonpayable",
      "type": "function"
    },
    {
      "inputs": [
        {
          "internalType": "uint8",
          "name": "domainID",
          "type": "uint8"
        },
        {
          "internalType": "uint64",
          "name": "depositNonce",
          "type": "uint64"
        },
        {
          "internalType": "bytes",
          "name": "data",
          "type": "bytes"
        },
        {
          "internalType": "bytes32",
          "name": "resourceID",
          "type": "bytes32"
        },
        {
          "internalType": "bool",
          "name": "revertOnFail",
          "type": "bool"
        }
      ],
      "name": "executeProposal",
      "outputs": [],
      "stateMutability": "nonpayable",
      "type": "function"
    },
    {
      "inputs": [
        {
          "internalType": "uint8",
          "name": "originDomainID",
          "type": "uint8"
        },
        {
          "internalType": "uint64",
          "name": "depositNonce",
          "type": "uint64"
        },
        {
          "internalType": "bytes32",
          "name": "dataHash",
          "type": "bytes32"
        }
      ],
      "name": "getProposal",
      "outputs": [
        {
          "components": [
            {
              "internalType": "enum Bridge.ProposalStatus",
              "name": "_status",
              "type": "uint8"
            },
            {
              "internalType": "uint200",
              "name": "_yesVotes",
              "type": "uint200"
            },
            {
              "internalType": "uint8",
              "name": "_yesVotesTotal",
              "type": "uint8"
            },
            {
              "internalType": "uint40",
              "name": "_proposedBlock",
              "type": "uint40"
            }
          ],
          "internalType": "struct Bridge.Proposal",
          "name": "",
          "type": "tuple"
        }
      ],
      "stateMutability": "view",
      "type": "function",
      "constant": true
    },
    {
      "inputs": [
        {
          "internalType": "bytes32",
          "name": "role",
          "type": "bytes32"
        }
      ],
      "name": "getRoleAdmin",
      "outputs": [
        {
          "internalType": "bytes32",
          "name": "",
          "type": "bytes32"
        }
      ],
      "stateMutability": "view",
      "type": "function",
      "constant": true
    },
    {
      "inputs": [
        {
          "internalType": "bytes32",
          "name": "role",
          "type": "bytes32"
        },
        {
          "internalType": "uint256",
          "name": "index",
          "type": "uint256"
        }
      ],
      "name": "getRoleMember",
      "outputs": [
        {
          "internalType": "address",
          "name": "",
          "type": "address"
        }
      ],
      "stateMutability": "view",
      "type": "function",
      "constant": true
    },
    {
      "inputs": [
        {
          "internalType": "bytes32",
          "name": "role",
          "type": "bytes32"
        }
      ],
      "name": "getRoleMemberCount",
      "outputs": [
        {
          "internalType": "uint256",
          "name": "",
          "type": "uint256"
        }
      ],
      "stateMutability": "view",
      "type": "function",
      "constant": true
    },
    {
      "inputs": [
        {
          "internalType": "bytes32",
          "name": "role",
          "type": "bytes32"
        },
        {
          "internalType": "address",
          "name": "account",
          "type": "address"
        }
      ],
      "name": "getRoleMemberIndex",
      "outputs": [
        {
          "internalType": "uint256",
          "name": "",
          "type": "uint256"
        }
      ],
      "stateMutability": "view",
      "type": "function",
      "constant": true
    },
    {
      "inputs": [
        {
          "internalType": "bytes32",
          "name": "role",
          "type": "bytes32"
        },
        {
          "internalType": "address",
          "name": "account",
          "type": "address"
        }
      ],
      "name": "grantRole",
      "outputs": [],
      "stateMutability": "nonpayable",
      "type": "function"
    },
    {
      "inputs": [
        {
          "internalType": "bytes32",
          "name": "role",
          "type": "bytes32"
        },
        {
          "internalType": "address",
          "name": "account",
          "type": "address"
        }
      ],
      "name": "hasRole",
      "outputs": [
        {
          "internalType": "bool",
          "name": "",
          "type": "bool"
        }
      ],
      "stateMutability": "view",
      "type": "function",
      "constant": true
    },
    {
      "inputs": [
        {
          "internalType": "address",
          "name": "relayer",
          "type": "address"
        }
      ],
      "name": "isRelayer",
      "outputs": [
        {
          "internalType": "bool",
          "name": "",
          "type": "bool"
        }
      ],
      "stateMutability": "view",
      "type": "function",
      "constant": true
    },
    {
      "inputs": [
        {
          "internalType": "address",
          "name": "",
          "type": "address"
        }
      ],
      "name": "isValidForwarder",
      "outputs": [
        {
          "internalType": "bool",
          "name": "",
          "type": "bool"
        }
      ],
      "stateMutability": "view",
      "type": "function",
      "constant": true
    },
    {
      "inputs": [],
      "name": "paused",
      "outputs": [
        {
          "internalType": "bool",
          "name": "",
          "type": "bool"
        }
      ],
      "stateMutability": "view",
      "type": "function",
      "constant": true
    },
    {
      "inputs": [
        {
          "internalType": "address",
          "name": "newAdmin",
          "type": "address"
        }
      ],
      "name": "renounceAdmin",
      "outputs": [],
      "stateMutability": "nonpayable",
      "type": "function"
    },
    {
      "inputs": [
        {
          "internalType": "bytes32",
          "name": "role",
          "type": "bytes32"
        },
        {
          "internalType": "address",
          "name": "account",
          "type": "address"
        }
      ],
      "name": "renounceRole",
      "outputs": [],
      "stateMutability": "nonpayable",
      "type": "function"
    },
    {
      "inputs": [
        {
          "internalType": "bytes32",
          "name": "role",
          "type": "bytes32"
        },
        {
          "internalType": "address",
          "name": "account",
          "type": "address"
        }
      ],
      "name": "revokeRole",
      "outputs": [],
      "stateMutability": "nonpayable",
      "type": "function"
    },
    {
      "inputs": [
        {
          "internalType": "uint8",
          "name": "domainID",
          "type": "uint8"
        },
        {
          "internalType": "uint64",
          "name": "depositNonce",
          "type": "uint64"
        },
        {
          "internalType": "bytes32",
          "name": "resourceID",
          "type": "bytes32"
        },
        {
          "internalType": "bytes",
          "name": "data",
          "type": "bytes"
        }
      ],
      "name": "voteProposal",
      "outputs": [],
      "stateMutability": "nonpayable",
      "type": "function"
    },
    {
      "inputs": [
        {
          "internalType": "uint8",
          "name": "destinationDomainID",
          "type": "uint8"
        },
        {
          "internalType": "bytes32",
          "name": "resourceID",
          "type": "bytes32"
        },
        {
          "internalType": "bytes",
          "name": "data",
          "type": "bytes"
        },
        {
          "internalType": "bytes",
          "name": "feeData",
          "type": "bytes"
        }
      ],
      "name": "deposit",
      "outputs": [],
      "stateMutability": "payable",
      "type": "function",
      "payable": true
    },
    {
      "inputs": [
        {
          "internalType": "uint8",
          "name": "chainId",
          "type": "uint8"
        },
        {
          "internalType": "uint64",
          "name": "depositNonce",
          "type": "uint64"
        },
        {
          "internalType": "address",
          "name": "handlerAddress",
          "type": "address"
        },
        {
          "internalType": "bytes",
          "name": "data",
          "type": "bytes"
        }
      ],
      "name": "adminWithdraw",
      "outputs": [],
      "stateMutability": "nonpayable",
      "type": "function"
    }
  ],
  "bytecode": "0x60806040523480156200001157600080fd5b506040516200622538038062006225833981810160405281019062000037919062000798565b848484848460008060006101000a81548160ff02191690831515021790555084600260006101000a81548160ff021916908360ff16021790555062000087836200017f60201b620029721760201c565b600260016101000a81548160ff021916908360ff160217905550620000b781620001d060201b620029c01760201c565b6002806101000a81548164ffffffffff021916908364ffffffffff160217905550620000fc6000801b620000f06200022560201b60201c565b620002a260201b60201c565b60005b84518110156200016e57620001587fe2b7fb3b832174769106daebcfd6d1970523240dda11281102db9363b83b0dc48683815181106200014457620001436200083f565b5b6020026020010151620002b860201b60201c565b808062000165906200089d565b915050620000ff565b505050505050505050505062000a78565b60006101008210620001c8576040517f08c379a0000000000000000000000000000000000000000000000000000000008152600401620001bf906200094c565b60405180910390fd5b819050919050565b60006501000000000082106200021d576040517f08c379a00000000000000000000000000000000000000000000000000000000081526004016200021490620009be565b60405180910390fd5b819050919050565b60008033905060146000369050101580156200028a5750600560008273ffffffffffffffffffffffffffffffffffffffff1673ffffffffffffffffffffffffffffffffffffffff16815260200190815260200160002060009054906101000a900460ff165b156200029b57601436033560601c90505b8091505090565b620002b482826200034760201b60201c565b5050565b620002ef6001600084815260200190815260200160002060020154620002e36200022560201b60201c565b620003eb60201b60201c565b62000331576040517f08c379a0000000000000000000000000000000000000000000000000000000008152600401620003289062000a56565b60405180910390fd5b6200034382826200034760201b60201c565b5050565b6200037681600160008581526020019081526020016000206000016200042460201b62002a121790919060201c565b15620003e7576200038c6200022560201b60201c565b73ffffffffffffffffffffffffffffffffffffffff168173ffffffffffffffffffffffffffffffffffffffff16837f2f8788117e7eff1d82e926ec794901d17c78024a50270940304540a733656f0d60405160405180910390a45b5050565b60006200041c82600160008681526020019081526020016000206000016200045c60201b62002a421790919060201c565b905092915050565b600062000454836000018373ffffffffffffffffffffffffffffffffffffffff1660001b6200049460201b60201c565b905092915050565b60006200048c836000018373ffffffffffffffffffffffffffffffffffffffff1660001b6200050e60201b60201c565b905092915050565b6000620004a883836200050e60201b60201c565b6200050357826000018290806001815401808255809150506001900390600052602060002001600090919091909150558260000180549050836001016000848152602001908152602001600020819055506001905062000508565b600090505b92915050565b600080836001016000848152602001908152602001600020541415905092915050565b6000604051905090565b600080fd5b600080fd5b600060ff82169050919050565b6200055d8162000545565b81146200056957600080fd5b50565b6000815190506200057d8162000552565b92915050565b600080fd5b6000601f19601f8301169050919050565b7f4e487b7100000000000000000000000000000000000000000000000000000000600052604160045260246000fd5b620005d38262000588565b810181811067ffffffffffffffff82111715620005f557620005f462000599565b5b80604052505050565b60006200060a62000531565b9050620006188282620005c8565b919050565b600067ffffffffffffffff8211156200063b576200063a62000599565b5b602082029050602081019050919050565b600080fd5b600073ffffffffffffffffffffffffffffffffffffffff82169050919050565b60006200067e8262000651565b9050919050565b620006908162000671565b81146200069c57600080fd5b50565b600081519050620006b08162000685565b92915050565b6000620006cd620006c7846200061d565b620005fe565b90508083825260208201905060208402830185811115620006f357620006f26200064c565b5b835b818110156200072057806200070b88826200069f565b845260208401935050602081019050620006f5565b5050509392505050565b600082601f83011262000742576200074162000583565b5b815162000754848260208601620006b6565b91505092915050565b6000819050919050565b62000772816200075d565b81146200077e57600080fd5b50565b600081519050620007928162000767565b92915050565b600080600080600060a08688031215620007b757620007b66200053b565b5b6000620007c7888289016200056c565b955050602086015167ffffffffffffffff811115620007eb57620007ea62000540565b5b620007f9888289016200072a565b94505060406200080c8882890162000781565b93505060606200081f8882890162000781565b9250506080620008328882890162000781565b9150509295509295909350565b7f4e487b7100000000000000000000000000000000000000000000000000000000600052603260045260246000fd5b7f4e487b7100000000000000000000000000000000000000000000000000000000600052601160045260246000fd5b6000620008aa826200075d565b91507fffffffffffffffffffffffffffffffffffffffffffffffffffffffffffffffff821415620008e057620008df6200086e565b5b600182019050919050565b600082825260208201905092915050565b7f76616c756520646f6573206e6f742066697420696e2038206269747300000000600082015250565b600062000934601c83620008eb565b91506200094182620008fc565b602082019050919050565b60006020820190508181036000830152620009678162000925565b9050919050565b7f76616c756520646f6573206e6f742066697420696e2034302062697473000000600082015250565b6000620009a6601d83620008eb565b9150620009b3826200096e565b602082019050919050565b60006020820190508181036000830152620009d98162000997565b9050919050565b7f416363657373436f6e74726f6c3a2073656e646572206d75737420626520616e60008201527f2061646d696e20746f206772616e740000000000000000000000000000000000602082015250565b600062000a3e602f83620008eb565b915062000a4b82620009e0565b604082019050919050565b6000602082019050818103600083015262000a718162000a2f565b9050919050565b61579d8062000a886000396000f3fe6080604052600436106102465760003560e01c80639010d07c11610139578063ca15c873116100b6578063d7a9cd791161007a578063d7a9cd79146108b1578063edc20c3c146108dc578063f8c39e4414610905578063fe4648f414610942578063ff58bf511461096d578063ffaac0eb1461099657610246565b8063ca15c873146107d0578063cb10f2151461080d578063cdb0f73a14610836578063d15ef64e1461085f578063d547741f1461088857610246565b80639debb3bd116100fd5780639debb3bd146106e9578063a217fddf14610714578063a9cf69fa1461073f578063c0331b3e1461077c578063c5ec8970146107a557610246565b80639010d07c146105f057806391d148541461062d578063926d7d7f1461066a5780639d82dd63146106955780639dd694f4146106be57610246565b80635a1ad87c116101c7578063802aabe81161018b578063802aabe81461051f57806380ae1c281461054a57806384db809f146105615780638b63aebf1461059e5780638c0c2631146105c757610246565b80635a1ad87c146104495780635c975abb146104725780635e1fab0f1461049d57806373c45c98146104c65780637febe63f146104e257610246565b80633ee7094a1161020e5780633ee7094a1461032c5780634b0b919d146103695780634e056005146103a65780634e0df3f6146103cf578063541d55481461040c57610246565b806317f03ce51461024b578063206a98fd14610274578063248a9ca31461029d5780632f2ff15d146102da57806336568abe14610303575b600080fd5b34801561025757600080fd5b50610272600480360381019061026d9190613824565b6109ad565b005b34801561028057600080fd5b5061029b60048036038101906102969190613914565b610d9b565b005b3480156102a957600080fd5b506102c460048036038101906102bf91906139ae565b6110f1565b6040516102d191906139ea565b60405180910390f35b3480156102e657600080fd5b5061030160048036038101906102fc9190613a63565b611111565b005b34801561030f57600080fd5b5061032a60048036038101906103259190613a63565b611185565b005b34801561033857600080fd5b50610353600480360381019061034e9190613aa3565b611208565b6040516103609190613b7c565b60405180910390f35b34801561037557600080fd5b50610390600480360381019061038b9190613b9e565b6112b5565b60405161039d9190613bda565b60405180910390f35b3480156103b257600080fd5b506103cd60048036038101906103c89190613c2b565b6112dc565b005b3480156103db57600080fd5b506103f660048036038101906103f19190613a63565b611341565b6040516104039190613c67565b60405180910390f35b34801561041857600080fd5b50610433600480360381019061042e9190613c82565b611392565b6040516104409190613cbe565b60405180910390f35b34801561045557600080fd5b50610470600480360381019061046b9190613d31565b6113c5565b005b34801561047e57600080fd5b506104876114a0565b6040516104949190613cbe565b60405180910390f35b3480156104a957600080fd5b506104c460048036038101906104bf9190613c82565b6114b6565b005b6104e060048036038101906104db9190613dbe565b611557565b005b3480156104ee57600080fd5b5061050960048036038101906105049190613ea6565b6115f6565b6040516105169190613cbe565b60405180910390f35b34801561052b57600080fd5b50610534611735565b6040516105419190613c67565b60405180910390f35b34801561055657600080fd5b5061055f611765565b005b34801561056d57600080fd5b50610588600480360381019061058391906139ae565b61177f565b6040516105959190613f08565b60405180910390f35b3480156105aa57600080fd5b506105c560048036038101906105c09190613c82565b6117b2565b005b3480156105d357600080fd5b506105ee60048036038101906105e99190613f23565b611835565b005b3480156105fc57600080fd5b5061061760048036038101906106129190613f63565b6118b2565b6040516106249190613f08565b60405180910390f35b34801561063957600080fd5b50610654600480360381019061064f9190613a63565b6118e4565b6040516106619190613cbe565b60405180910390f35b34801561067657600080fd5b5061067f611916565b60405161068c91906139ea565b60405180910390f35b3480156106a157600080fd5b506106bc60048036038101906106b79190613c82565b61193a565b005b3480156106ca57600080fd5b506106d3611a07565b6040516106e09190613fb2565b60405180910390f35b3480156106f557600080fd5b506106fe611a1a565b60405161070b9190613c67565b60405180910390f35b34801561072057600080fd5b50610729611a1f565b60405161073691906139ea565b60405180910390f35b34801561074b57600080fd5b5061076660048036038101906107619190613824565b611a26565b60405161077391906140fc565b60405180910390f35b34801561078857600080fd5b506107a3600480360381019061079e9190614117565b611b86565b005b3480156107b157600080fd5b506107ba61234f565b6040516107c791906141ae565b60405180910390f35b3480156107dc57600080fd5b506107f760048036038101906107f291906139ae565b612364565b6040516108049190613c67565b60405180910390f35b34801561081957600080fd5b50610834600480360381019061082f91906141c9565b61238b565b005b34801561084257600080fd5b5061085d60048036038101906108589190613c82565b61245d565b005b34801561086b57600080fd5b506108866004803603810190610881919061421c565b612575565b005b34801561089457600080fd5b506108af60048036038101906108aa9190613a63565b6125d8565b005b3480156108bd57600080fd5b506108c661264c565b6040516108d39190613fb2565b60405180910390f35b3480156108e857600080fd5b5061090360048036038101906108fe919061425c565b61265f565b005b34801561091157600080fd5b5061092c60048036038101906109279190613c82565b61272e565b6040516109399190613cbe565b60405180910390f35b34801561094e57600080fd5b5061095761274e565b60405161096491906142fb565b60405180910390f35b34801561097957600080fd5b50610994600480360381019061098f9190614446565b612774565b005b3480156109a257600080fd5b506109ab612958565b005b6109b5612a72565b60008360ff1660088467ffffffffffffffff1668ffffffffffffffffff16901b1790506000600660008368ffffffffffffffffff1668ffffffffffffffffff16815260200190815260200160002060008481526020019081526020016000206040518060800160405290816000820160009054906101000a900460ff166004811115610a4457610a43613fcd565b5b6004811115610a5657610a55613fcd565b5b81526020016000820160019054906101000a900478ffffffffffffffffffffffffffffffffffffffffffffffffff1678ffffffffffffffffffffffffffffffffffffffffffffffffff1678ffffffffffffffffffffffffffffffffffffffffffffffffff16815260200160008201601a9054906101000a900460ff1660ff1660ff16815260200160008201601b9054906101000a900464ffffffffff1664ffffffffff1664ffffffffff1681525050905060008160000151905060016004811115610b2457610b23613fcd565b5b816004811115610b3757610b36613fcd565b5b1480610b67575060026004811115610b5257610b51613fcd565b5b816004811115610b6557610b64613fcd565b5b145b610ba6576040517f08c379a0000000000000000000000000000000000000000000000000000000008152600401610b9d90614526565b60405180910390fd5b60028054906101000a900464ffffffffff1664ffffffffff16610bd443846060015164ffffffffff16612afe565b64ffffffffff1611610c1b576040517f08c379a0000000000000000000000000000000000000000000000000000000008152600401610c1290614592565b60405180910390fd5b600482600001906004811115610c3457610c33613fcd565b5b90816004811115610c4857610c47613fcd565b5b8152505081600660008568ffffffffffffffffff1668ffffffffffffffffff168152602001908152602001600020600086815260200190815260200160002060008201518160000160006101000a81548160ff02191690836004811115610cb257610cb1613fcd565b5b021790555060208201518160000160016101000a81548178ffffffffffffffffffffffffffffffffffffffffffffffffff021916908378ffffffffffffffffffffffffffffffffffffffffffffffffff160217905550604082015181600001601a6101000a81548160ff021916908360ff160217905550606082015181600001601b6101000a81548164ffffffffff021916908364ffffffffff1602179055509050507f968626a768e76ba1363efe44e322a6c4900c5f084e0b45f35e294dfddaa9e0d58686600487604051610d8b94939291906145c1565b60405180910390a1505050505050565b610da3612b48565b610dab612bba565b60006004600084815260200190815260200160002060009054906101000a900473ffffffffffffffffffffffffffffffffffffffff16905060008760ff1660088867ffffffffffffffff1668ffffffffffffffffff16901b1790506000828787604051602001610e1d9392919061467e565b6040516020818303038152906040528051906020012090506000600660008468ffffffffffffffffff1668ffffffffffffffffff1681526020019081526020016000206000838152602001908152602001600020905060026004811115610e8757610e86613fcd565b5b8160000160009054906101000a900460ff166004811115610eab57610eaa613fcd565b5b14610eeb576040517f08c379a0000000000000000000000000000000000000000000000000000000008152600401610ee2906146f4565b60405180910390fd5b60038160000160006101000a81548160ff02191690836004811115610f1357610f12613fcd565b5b021790555060008490508515610f97578073ffffffffffffffffffffffffffffffffffffffff1663e248cff2888b8b6040518463ffffffff1660e01b8152600401610f6093929190614741565b600060405180830381600087803b158015610f7a57600080fd5b505af1158015610f8e573d6000803e3d6000fd5b505050506110a5565b8073ffffffffffffffffffffffffffffffffffffffff1663e248cff2888b8b6040518463ffffffff1660e01b8152600401610fd493929190614741565b600060405180830381600087803b158015610fee57600080fd5b505af1925050508015610fff575060015b6110a4573d806000811461102f576040519150601f19603f3d011682016040523d82523d6000602084013e611034565b606091505b5060028360000160006101000a81548160ff0219169083600481111561105d5761105c613fcd565b5b02179055507fbd37c1f0d53bb2f33fe4c2104de272fcdeb4d2fef3acdbf1e4ddc3d6833ca376816040516110919190613b7c565b60405180910390a15050505050506110e9565b5b7f968626a768e76ba1363efe44e322a6c4900c5f084e0b45f35e294dfddaa9e0d58b8b6003866040516110db94939291906145c1565b60405180910390a150505050505b505050505050565b600060016000838152602001908152602001600020600201549050919050565b6111386001600084815260200190815260200160002060020154611133612c0a565b6118e4565b611177576040517f08c379a000000000000000000000000000000000000000000000000000000000815260040161116e906147e5565b60405180910390fd5b6111818282612c85565b5050565b61118d612c0a565b73ffffffffffffffffffffffffffffffffffffffff168173ffffffffffffffffffffffffffffffffffffffff16146111fa576040517f08c379a00000000000000000000000000000000000000000000000000000000081526004016111f190614877565b60405180910390fd5b6112048282612d19565b5050565b6007602052816000526040600020602052806000526040600020600091509150508054611234906148c6565b80601f0160208091040260200160405190810160405280929190818152602001828054611260906148c6565b80156112ad5780601f10611282576101008083540402835291602001916112ad565b820191906000526020600020905b81548152906001019060200180831161129057829003601f168201915b505050505081565b60036020528060005260406000206000915054906101000a900467ffffffffffffffff1681565b6112e4612dad565b6112ed81612972565b600260016101000a81548160ff021916908360ff1602179055507fa20d6b84cd798a24038be305eff8a45ca82ef54a2aa2082005d8e14c0a4746c8816040516113369190613c67565b60405180910390a150565b60006001600084815260200190815260200160002060000160000160010160008373ffffffffffffffffffffffffffffffffffffffff1660001b815260200190815260200160002054905092915050565b60006113be7fe2b7fb3b832174769106daebcfd6d1970523240dda11281102db9363b83b0dc4836118e4565b9050919050565b6113cd612dad565b856004600087815260200190815260200160002060006101000a81548173ffffffffffffffffffffffffffffffffffffffff021916908373ffffffffffffffffffffffffffffffffffffffff16021790555060008690508073ffffffffffffffffffffffffffffffffffffffff1663de319d9987878787876040518663ffffffff1660e01b8152600401611465959493929190614907565b600060405180830381600087803b15801561147f57600080fd5b505af1158015611493573d6000803e3d6000fd5b5050505050505050505050565b60008060009054906101000a900460ff16905090565b6114be612dad565b60006114c8612c0a565b90508173ffffffffffffffffffffffffffffffffffffffff168173ffffffffffffffffffffffffffffffffffffffff161415611539576040517f08c379a0000000000000000000000000000000000000000000000000000000008152600401611530906149a6565b60405180910390fd5b6115466000801b83611111565b6115536000801b82611185565b5050565b61155f612bba565b61156d868686868686612e02565b6000600360008860ff1660ff16815260200190815260200160002060009054906101000a900467ffffffffffffffff1690508484600760008467ffffffffffffffff1667ffffffffffffffff16815260200190815260200160002060008a60ff1660ff16815260200190815260200160002091906115ec92919061365f565b5050505050505050565b600061172c600660008668ffffffffffffffffff1668ffffffffffffffffff16815260200190815260200160002060008581526020019081526020016000206040518060800160405290816000820160009054906101000a900460ff16600481111561166557611664613fcd565b5b600481111561167757611676613fcd565b5b81526020016000820160019054906101000a900478ffffffffffffffffffffffffffffffffffffffffffffffffff1678ffffffffffffffffffffffffffffffffffffffffffffffffff1678ffffffffffffffffffffffffffffffffffffffffffffffffff16815260200160008201601a9054906101000a900460ff1660ff1660ff16815260200160008201601b9054906101000a900464ffffffffff1664ffffffffff1664ffffffffff168152505083613160565b90509392505050565b60006117607fe2b7fb3b832174769106daebcfd6d1970523240dda11281102db9363b83b0dc4612364565b905090565b61176d612dad565b61177d611778612c0a565b613196565b565b60046020528060005260406000206000915054906101000a900473ffffffffffffffffffffffffffffffffffffffff1681565b6117ba612dad565b80600260076101000a81548173ffffffffffffffffffffffffffffffffffffffff021916908373ffffffffffffffffffffffffffffffffffffffff1602179055507f729170bd142e4965055b26a285faeedf03baf2b915bfc5a7c75d24b45815ff2c8160405161182a9190613f08565b60405180910390a150565b61183d612dad565b60008290508073ffffffffffffffffffffffffffffffffffffffff166307b7ed99836040518263ffffffff1660e01b815260040161187b9190613f08565b600060405180830381600087803b15801561189557600080fd5b505af11580156118a9573d6000803e3d6000fd5b50505050505050565b60006118dc82600160008681526020019081526020016000206000016131f290919063ffffffff16565b905092915050565b600061190e8260016000868152602001908152602001600020600001612a4290919063ffffffff16565b905092915050565b7fe2b7fb3b832174769106daebcfd6d1970523240dda11281102db9363b83b0dc481565b6119647fe2b7fb3b832174769106daebcfd6d1970523240dda11281102db9363b83b0dc4826118e4565b6119a3576040517f08c379a000000000000000000000000000000000000000000000000000000000815260040161199a90614a12565b60405180910390fd5b6119cd7fe2b7fb3b832174769106daebcfd6d1970523240dda11281102db9363b83b0dc4826125d8565b7f10e1f7ce9fd7d1b90a66d13a2ab3cb8dd7f29f3f8d520b143b063ccfbab6906b816040516119fc9190613f08565b60405180910390a150565b600260009054906101000a900460ff1681565b60c881565b6000801b81565b611a2e6136e5565b60008460ff1660088567ffffffffffffffff1668ffffffffffffffffff16901b179050600660008268ffffffffffffffffff1668ffffffffffffffffff16815260200190815260200160002060008481526020019081526020016000206040518060800160405290816000820160009054906101000a900460ff166004811115611abb57611aba613fcd565b5b6004811115611acd57611acc613fcd565b5b81526020016000820160019054906101000a900478ffffffffffffffffffffffffffffffffffffffffffffffffff1678ffffffffffffffffffffffffffffffffffffffffffffffffff1678ffffffffffffffffffffffffffffffffffffffffffffffffff16815260200160008201601a9054906101000a900460ff1660ff1660ff16815260200160008201601b9054906101000a900464ffffffffff1664ffffffffff1664ffffffffff16815250509150509392505050565b611b8e612b48565b611b96612bba565b60006004600085815260200190815260200160002060009054906101000a900473ffffffffffffffffffffffffffffffffffffffff16905060008660ff1660088767ffffffffffffffff1668ffffffffffffffffff16901b1790506000828585604051602001611c089392919061467e565b6040516020818303038152906040528051906020012090506000600660008468ffffffffffffffffff1668ffffffffffffffffff16815260200190815260200160002060008381526020019081526020016000206040518060800160405290816000820160009054906101000a900460ff166004811115611c8c57611c8b613fcd565b5b6004811115611c9e57611c9d613fcd565b5b81526020016000820160019054906101000a900478ffffffffffffffffffffffffffffffffffffffffffffffffff1678ffffffffffffffffffffffffffffffffffffffffffffffffff1678ffffffffffffffffffffffffffffffffffffffffffffffffff16815260200160008201601a9054906101000a900460ff1660ff1660ff16815260200160008201601b9054906101000a900464ffffffffff1664ffffffffff1664ffffffffff16815250509050600073ffffffffffffffffffffffffffffffffffffffff166004600089815260200190815260200160002060009054906101000a900473ffffffffffffffffffffffffffffffffffffffff1673ffffffffffffffffffffffffffffffffffffffff161415611df2576040517f08c379a0000000000000000000000000000000000000000000000000000000008152600401611de990614a7e565b60405180910390fd5b60026004811115611e0657611e05613fcd565b5b81600001516004811115611e1d57611e1c613fcd565b5b1415611e3b57611e32898988888b6001610d9b565b50505050612348565b6000611e45612c0a565b9050600182600001516004811115611e6057611e5f613fcd565b5b1115611ea1576040517f08c379a0000000000000000000000000000000000000000000000000000000008152600401611e9890614b10565b60405180910390fd5b611eab8282613160565b15611eeb576040517f08c379a0000000000000000000000000000000000000000000000000000000008152600401611ee290614b7c565b60405180910390fd5b60006004811115611eff57611efe613fcd565b5b82600001516004811115611f1657611f15613fcd565b5b1415611fbc57604051806080016040528060016004811115611f3b57611f3a613fcd565b5b8152602001600078ffffffffffffffffffffffffffffffffffffffffffffffffff168152602001600060ff1681526020014364ffffffffff1681525091507f968626a768e76ba1363efe44e322a6c4900c5f084e0b45f35e294dfddaa9e0d58a8a600186604051611faf94939291906145c1565b60405180910390a1612068565b60028054906101000a900464ffffffffff1664ffffffffff16611fea43846060015164ffffffffff16612afe565b64ffffffffff161115612067576004826000019060048111156120105761200f613fcd565b5b9081600481111561202457612023613fcd565b5b815250507f968626a768e76ba1363efe44e322a6c4900c5f084e0b45f35e294dfddaa9e0d58a8a60048660405161205e94939291906145c1565b60405180910390a15b5b60048081111561207b5761207a613fcd565b5b8260000151600481111561209257612091613fcd565b5b146121f8576120c96120a38261320c565b836020015178ffffffffffffffffffffffffffffffffffffffffffffffffff161761324d565b826020019078ffffffffffffffffffffffffffffffffffffffffffffffffff16908178ffffffffffffffffffffffffffffffffffffffffffffffffff168152505081604001805180919061211c90614bcb565b60ff1660ff16815250507f25f8daaa4635a7729927ba3f5b3d59cc3320aca7c32c9db4e7ca7b95743436408a8a84600001518660405161215f94939291906145c1565b60405180910390a1600260019054906101000a900460ff1660ff16826040015160ff16106121f7576002826000019060048111156121a05761219f613fcd565b5b908160048111156121b4576121b3613fcd565b5b815250507f968626a768e76ba1363efe44e322a6c4900c5f084e0b45f35e294dfddaa9e0d58a8a6002866040516121ee94939291906145c1565b60405180910390a15b5b81600660008668ffffffffffffffffff1668ffffffffffffffffff168152602001908152602001600020600085815260200190815260200160002060008201518160000160006101000a81548160ff0219169083600481111561225e5761225d613fcd565b5b021790555060208201518160000160016101000a81548178ffffffffffffffffffffffffffffffffffffffffffffffffff021916908378ffffffffffffffffffffffffffffffffffffffffffffffffff160217905550604082015181600001601a6101000a81548160ff021916908360ff160217905550606082015181600001601b6101000a81548164ffffffffff021916908364ffffffffff1602179055509050506002600481111561231557612314613fcd565b5b8260000151600481111561232c5761232b613fcd565b5b1415612342576123418a8a89898c6000610d9b565b5b50505050505b5050505050565b60028054906101000a900464ffffffffff1681565b6000612384600160008481526020019081526020016000206000016132b3565b9050919050565b612393612dad565b826004600084815260200190815260200160002060006101000a81548173ffffffffffffffffffffffffffffffffffffffff021916908373ffffffffffffffffffffffffffffffffffffffff16021790555060008390508073ffffffffffffffffffffffffffffffffffffffff1663b8fa373684846040518363ffffffff1660e01b8152600401612425929190614bf5565b600060405180830381600087803b15801561243f57600080fd5b505af1158015612453573d6000803e3d6000fd5b5050505050505050565b6124877fe2b7fb3b832174769106daebcfd6d1970523240dda11281102db9363b83b0dc4826118e4565b156124c7576040517f08c379a00000000000000000000000000000000000000000000000000000000081526004016124be90614c6a565b60405180910390fd5b60c86124d1611735565b10612511576040517f08c379a000000000000000000000000000000000000000000000000000000000815260040161250890614cd6565b60405180910390fd5b61253b7fe2b7fb3b832174769106daebcfd6d1970523240dda11281102db9363b83b0dc482611111565b7f03580ee9f53a62b7cb409a2cb56f9be87747dd15017afc5cef6eef321e4fb2c58160405161256a9190613f08565b60405180910390a150565b61257d612dad565b80600560008473ffffffffffffffffffffffffffffffffffffffff1673ffffffffffffffffffffffffffffffffffffffff16815260200190815260200160002060006101000a81548160ff0219169083151502179055505050565b6125ff60016000848152602001908152602001600020600201546125fa612c0a565b6118e4565b61263e576040517f08c379a000000000000000000000000000000000000000000000000000000000815260040161263590614d68565b60405180910390fd5b6126488282612d19565b5050565b600260019054906101000a900460ff1681565b612667612dad565b600360008360ff1660ff16815260200190815260200160002060009054906101000a900467ffffffffffffffff1667ffffffffffffffff168167ffffffffffffffff16116126ea576040517f08c379a00000000000000000000000000000000000000000000000000000000081526004016126e190614dfa565b60405180910390fd5b80600360008460ff1660ff16815260200190815260200160002060006101000a81548167ffffffffffffffff021916908367ffffffffffffffff1602179055505050565b60056020528060005260406000206000915054906101000a900460ff1681565b600260079054906101000a900473ffffffffffffffffffffffffffffffffffffffff1681565b61277c612dad565b6000806000838060200190518101906127959190614e6d565b8093508194508295505050506000600760008867ffffffffffffffff1667ffffffffffffffff16815260200190815260200160002060008960ff1660ff16815260200190815260200160002080546127ec906148c6565b80601f0160208091040260200160405190810160405280929190818152602001828054612818906148c6565b80156128655780601f1061283a57610100808354040283529160200191612865565b820191906000526020600020905b81548152906001019060200180831161284857829003601f168201915b505050505090506000806000838060200190518101906128859190614ec0565b8093508194508295505050508073ffffffffffffffffffffffffffffffffffffffff168673ffffffffffffffffffffffffffffffffffffffff16146128ff576040517f08c379a00000000000000000000000000000000000000000000000000000000081526004016128f690614f85565b60405180910390fd5b828514612941576040517f08c379a000000000000000000000000000000000000000000000000000000000815260040161293890615017565b60405180910390fd5b61294b89896132c8565b5050505050505050505050565b612960612dad565b61297061296b612c0a565b61333d565b565b600061010082106129b8576040517f08c379a00000000000000000000000000000000000000000000000000000000081526004016129af90615083565b60405180910390fd5b819050919050565b6000650100000000008210612a0a576040517f08c379a0000000000000000000000000000000000000000000000000000000008152600401612a01906150ef565b60405180910390fd5b819050919050565b6000612a3a836000018373ffffffffffffffffffffffffffffffffffffffff1660001b613399565b905092915050565b6000612a6a836000018373ffffffffffffffffffffffffffffffffffffffff1660001b613409565b905092915050565b6000612a7c612c0a565b9050612a8b6000801b826118e4565b80612abc5750612abb7fe2b7fb3b832174769106daebcfd6d1970523240dda11281102db9363b83b0dc4826118e4565b5b612afb576040517f08c379a0000000000000000000000000000000000000000000000000000000008152600401612af29061515b565b60405180910390fd5b50565b6000612b4083836040518060400160405280601e81526020017f536166654d6174683a207375627472616374696f6e206f766572666c6f77000081525061342c565b905092915050565b612b797fe2b7fb3b832174769106daebcfd6d1970523240dda11281102db9363b83b0dc4612b74612c0a565b6118e4565b612bb8576040517f08c379a0000000000000000000000000000000000000000000000000000000008152600401612baf906151c7565b60405180910390fd5b565b60008054906101000a900460ff1615612c08576040517f08c379a0000000000000000000000000000000000000000000000000000000008152600401612bff90615233565b60405180910390fd5b565b6000803390506014600036905010158015612c6e5750600560008273ffffffffffffffffffffffffffffffffffffffff1673ffffffffffffffffffffffffffffffffffffffff16815260200190815260200160002060009054906101000a900460ff165b15612c7e57601436033560601c90505b8091505090565b612cad8160016000858152602001908152602001600020600001612a1290919063ffffffff16565b15612d1557612cba612c0a565b73ffffffffffffffffffffffffffffffffffffffff168173ffffffffffffffffffffffffffffffffffffffff16837f2f8788117e7eff1d82e926ec794901d17c78024a50270940304540a733656f0d60405160405180910390a45b5050565b612d41816001600085815260200190815260200160002060000161349090919063ffffffff16565b15612da957612d4e612c0a565b73ffffffffffffffffffffffffffffffffffffffff168173ffffffffffffffffffffffffffffffffffffffff16837ff6391f5c32d9c69d2a47ea670b442974b53935d1edc7fd64eb21e047a839171b60405160405180910390a45b5050565b612dc16000801b612dbc612c0a565b6118e4565b612e00576040517f08c379a0000000000000000000000000000000000000000000000000000000008152600401612df79061529f565b60405180910390fd5b565b612e0a612bba565b6000612e14612c0a565b9050600073ffffffffffffffffffffffffffffffffffffffff16600260079054906101000a900473ffffffffffffffffffffffffffffffffffffffff1673ffffffffffffffffffffffffffffffffffffffff161415612eb55760003414612eb0576040517f08c379a0000000000000000000000000000000000000000000000000000000008152600401612ea79061530b565b60405180910390fd5b612f61565b600260079054906101000a900473ffffffffffffffffffffffffffffffffffffffff1673ffffffffffffffffffffffffffffffffffffffff1663253070653483600260009054906101000a900460ff168b8b8b8b8b8b6040518a63ffffffff1660e01b8152600401612f2e98979695949392919061532b565b6000604051808303818588803b158015612f4757600080fd5b505af1158015612f5b573d6000803e3d6000fd5b50505050505b60006004600088815260200190815260200160002060009054906101000a900473ffffffffffffffffffffffffffffffffffffffff169050600073ffffffffffffffffffffffffffffffffffffffff168173ffffffffffffffffffffffffffffffffffffffff161415613009576040517f08c379a0000000000000000000000000000000000000000000000000000000008152600401613000906153ea565b60405180910390fd5b6000600360008a60ff1660ff168152602001908152602001600020600081819054906101000a900467ffffffffffffffff166130449061540a565b91906101000a81548167ffffffffffffffff021916908367ffffffffffffffff16021790559050600082905060008173ffffffffffffffffffffffffffffffffffffffff1663b07e54bb8b878c8c6040518563ffffffff1660e01b81526004016130b1949392919061543b565b6000604051808303816000875af11580156130d0573d6000803e3d6000fd5b505050506040513d6000823e3d601f19601f820116820180604052508101906130f991906154eb565b90508473ffffffffffffffffffffffffffffffffffffffff167f17bc3181e17a9620a479c24e6c606e474ba84fc036877b768926872e8cd0e11f8c8c868d8d8760405161314b96959493929190615534565b60405180910390a25050505050505050505050565b600080836020015178ffffffffffffffffffffffffffffffffffffffffffffffffff1661318c8461320c565b1611905092915050565b61319e612bba565b60016000806101000a81548160ff0219169083151502179055507f62e78cea01bee320cd4e420270b5ea74000d11b0c9f74754ebdbfc544b05a258816040516131e79190613f08565b60405180910390a150565b600061320183600001836134c0565b60001c905092915050565b600061324261323b7fe2b7fb3b832174769106daebcfd6d1970523240dda11281102db9363b83b0dc484611341565b6001612afe565b6001901b9050919050565b600079010000000000000000000000000000000000000000000000000082106132ab576040517f08c379a00000000000000000000000000000000000000000000000000000000081526004016132a2906155e3565b60405180910390fd5b819050919050565b60006132c1826000016134eb565b9050919050565b60008290508073ffffffffffffffffffffffffffffffffffffffff16630968f264836040518263ffffffff1660e01b81526004016133069190613b7c565b600060405180830381600087803b15801561332057600080fd5b505af1158015613334573d6000803e3d6000fd5b50505050505050565b6133456134fc565b60008060006101000a81548160ff0219169083151502179055507f5db9ee0a495bf2e6ff9c91a7834c1ba4fdd244a5e8aa4e537bd38aeae4b073aa8160405161338e9190613f08565b60405180910390a150565b60006133a58383613409565b6133fe578260000182908060018154018082558091505060019003906000526020600020016000909190919091505582600001805490508360010160008481526020019081526020016000208190555060019050613403565b600090505b92915050565b600080836001016000848152602001908152602001600020541415905092915050565b6000838311158290613474576040517f08c379a000000000000000000000000000000000000000000000000000000000815260040161346b9190615647565b60405180910390fd5b50600083856134839190615669565b9050809150509392505050565b60006134b8836000018373ffffffffffffffffffffffffffffffffffffffff1660001b61354b565b905092915050565b60008260000182815481106134d8576134d761569d565b5b9060005260206000200154905092915050565b600081600001805490509050919050565b60008054906101000a900460ff16613549576040517f08c379a000000000000000000000000000000000000000000000000000000000815260040161354090615718565b60405180910390fd5b565b6000808360010160008481526020019081526020016000205490506000811461365357600060018261357d9190615669565b90506000600186600001805490506135959190615669565b90508181146136045760008660000182815481106135b6576135b561569d565b5b90600052602060002001549050808760000184815481106135da576135d961569d565b5b90600052602060002001819055508387600101600083815260200190815260200160002081905550505b8560000180548061361857613617615738565b5b600190038181906000526020600020016000905590558560010160008681526020019081526020016000206000905560019350505050613659565b60009150505b92915050565b82805461366b906148c6565b90600052602060002090601f01602090048101928261368d57600085556136d4565b82601f106136a657803560ff19168380011785556136d4565b828001600101855582156136d4579182015b828111156136d35782358255916020019190600101906136b8565b5b5090506136e19190613744565b5090565b60405180608001604052806000600481111561370457613703613fcd565b5b8152602001600078ffffffffffffffffffffffffffffffffffffffffffffffffff168152602001600060ff168152602001600064ffffffffff1681525090565b5b8082111561375d576000816000905550600101613745565b5090565b6000604051905090565b600080fd5b600080fd5b600060ff82169050919050565b61378b81613775565b811461379657600080fd5b50565b6000813590506137a881613782565b92915050565b600067ffffffffffffffff82169050919050565b6137cb816137ae565b81146137d657600080fd5b50565b6000813590506137e8816137c2565b92915050565b6000819050919050565b613801816137ee565b811461380c57600080fd5b50565b60008135905061381e816137f8565b92915050565b60008060006060848603121561383d5761383c61376b565b5b600061384b86828701613799565b935050602061385c868287016137d9565b925050604061386d8682870161380f565b9150509250925092565b600080fd5b600080fd5b600080fd5b60008083601f84011261389c5761389b613877565b5b8235905067ffffffffffffffff8111156138b9576138b861387c565b5b6020830191508360018202830111156138d5576138d4613881565b5b9250929050565b60008115159050919050565b6138f1816138dc565b81146138fc57600080fd5b50565b60008135905061390e816138e8565b92915050565b60008060008060008060a087890312156139315761393061376b565b5b600061393f89828a01613799565b965050602061395089828a016137d9565b955050604087013567ffffffffffffffff81111561397157613970613770565b5b61397d89828a01613886565b9450945050606061399089828a0161380f565b92505060806139a189828a016138ff565b9150509295509295509295565b6000602082840312156139c4576139c361376b565b5b60006139d28482850161380f565b91505092915050565b6139e4816137ee565b82525050565b60006020820190506139ff60008301846139db565b92915050565b600073ffffffffffffffffffffffffffffffffffffffff82169050919050565b6000613a3082613a05565b9050919050565b613a4081613a25565b8114613a4b57600080fd5b50565b600081359050613a5d81613a37565b92915050565b60008060408385031215613a7a57613a7961376b565b5b6000613a888582860161380f565b9250506020613a9985828601613a4e565b9150509250929050565b60008060408385031215613aba57613ab961376b565b5b6000613ac8858286016137d9565b9250506020613ad985828601613799565b9150509250929050565b600081519050919050565b600082825260208201905092915050565b60005b83811015613b1d578082015181840152602081019050613b02565b83811115613b2c576000848401525b50505050565b6000601f19601f8301169050919050565b6000613b4e82613ae3565b613b588185613aee565b9350613b68818560208601613aff565b613b7181613b32565b840191505092915050565b60006020820190508181036000830152613b968184613b43565b905092915050565b600060208284031215613bb457613bb361376b565b5b6000613bc284828501613799565b91505092915050565b613bd4816137ae565b82525050565b6000602082019050613bef6000830184613bcb565b92915050565b6000819050919050565b613c0881613bf5565b8114613c1357600080fd5b50565b600081359050613c2581613bff565b92915050565b600060208284031215613c4157613c4061376b565b5b6000613c4f84828501613c16565b91505092915050565b613c6181613bf5565b82525050565b6000602082019050613c7c6000830184613c58565b92915050565b600060208284031215613c9857613c9761376b565b5b6000613ca684828501613a4e565b91505092915050565b613cb8816138dc565b82525050565b6000602082019050613cd36000830184613caf565b92915050565b60007fffffffff0000000000000000000000000000000000000000000000000000000082169050919050565b613d0e81613cd9565b8114613d1957600080fd5b50565b600081359050613d2b81613d05565b92915050565b60008060008060008060c08789031215613d4e57613d4d61376b565b5b6000613d5c89828a01613a4e565b9650506020613d6d89828a0161380f565b9550506040613d7e89828a01613a4e565b9450506060613d8f89828a01613d1c565b9350506080613da089828a01613c16565b92505060a0613db189828a01613d1c565b9150509295509295509295565b60008060008060008060808789031215613ddb57613dda61376b565b5b6000613de989828a01613799565b9650506020613dfa89828a0161380f565b955050604087013567ffffffffffffffff811115613e1b57613e1a613770565b5b613e2789828a01613886565b9450945050606087013567ffffffffffffffff811115613e4a57613e49613770565b5b613e5689828a01613886565b92509250509295509295509295565b600068ffffffffffffffffff82169050919050565b613e8381613e65565b8114613e8e57600080fd5b50565b600081359050613ea081613e7a565b92915050565b600080600060608486031215613ebf57613ebe61376b565b5b6000613ecd86828701613e91565b9350506020613ede8682870161380f565b9250506040613eef86828701613a4e565b9150509250925092565b613f0281613a25565b82525050565b6000602082019050613f1d6000830184613ef9565b92915050565b60008060408385031215613f3a57613f3961376b565b5b6000613f4885828601613a4e565b9250506020613f5985828601613a4e565b9150509250929050565b60008060408385031215613f7a57613f7961376b565b5b6000613f888582860161380f565b9250506020613f9985828601613c16565b9150509250929050565b613fac81613775565b82525050565b6000602082019050613fc76000830184613fa3565b92915050565b7f4e487b7100000000000000000000000000000000000000000000000000000000600052602160045260246000fd5b6005811061400d5761400c613fcd565b5b50565b600081905061401e82613ffc565b919050565b600061402e82614010565b9050919050565b61403e81614023565b82525050565b600078ffffffffffffffffffffffffffffffffffffffffffffffffff82169050919050565b61407281614044565b82525050565b61408181613775565b82525050565b600064ffffffffff82169050919050565b6140a181614087565b82525050565b6080820160008201516140bd6000850182614035565b5060208201516140d06020850182614069565b5060408201516140e36040850182614078565b5060608201516140f66060850182614098565b50505050565b600060808201905061411160008301846140a7565b92915050565b6000806000806000608086880312156141335761413261376b565b5b600061414188828901613799565b9550506020614152888289016137d9565b94505060406141638882890161380f565b935050606086013567ffffffffffffffff81111561418457614183613770565b5b61419088828901613886565b92509250509295509295909350565b6141a881614087565b82525050565b60006020820190506141c3600083018461419f565b92915050565b6000806000606084860312156141e2576141e161376b565b5b60006141f086828701613a4e565b93505060206142018682870161380f565b925050604061421286828701613a4e565b9150509250925092565b600080604083850312156142335761423261376b565b5b600061424185828601613a4e565b9250506020614252858286016138ff565b9150509250929050565b600080604083850312156142735761427261376b565b5b600061428185828601613799565b9250506020614292858286016137d9565b9150509250929050565b6000819050919050565b60006142c16142bc6142b784613a05565b61429c565b613a05565b9050919050565b60006142d3826142a6565b9050919050565b60006142e5826142c8565b9050919050565b6142f5816142da565b82525050565b600060208201905061431060008301846142ec565b92915050565b600080fd5b7f4e487b7100000000000000000000000000000000000000000000000000000000600052604160045260246000fd5b61435382613b32565b810181811067ffffffffffffffff821117156143725761437161431b565b5b80604052505050565b6000614385613761565b9050614391828261434a565b919050565b600067ffffffffffffffff8211156143b1576143b061431b565b5b6143ba82613b32565b9050602081019050919050565b82818337600083830152505050565b60006143e96143e484614396565b61437b565b90508281526020810184848401111561440557614404614316565b5b6144108482856143c7565b509392505050565b600082601f83011261442d5761442c613877565b5b813561443d8482602086016143d6565b91505092915050565b600080600080608085870312156144605761445f61376b565b5b600061446e87828801613799565b945050602061447f878288016137d9565b935050604061449087828801613a4e565b925050606085013567ffffffffffffffff8111156144b1576144b0613770565b5b6144bd87828801614418565b91505092959194509250565b600082825260208201905092915050565b7f50726f706f73616c2063616e6e6f742062652063616e63656c6c656400000000600082015250565b6000614510601c836144c9565b915061451b826144da565b602082019050919050565b6000602082019050818103600083015261453f81614503565b9050919050565b7f50726f706f73616c206e6f7420617420657870697279207468726573686f6c64600082015250565b600061457c6020836144c9565b915061458782614546565b602082019050919050565b600060208201905081810360008301526145ab8161456f565b9050919050565b6145bb81614023565b82525050565b60006080820190506145d66000830187613fa3565b6145e36020830186613bcb565b6145f060408301856145b2565b6145fd60608301846139db565b95945050505050565b60008160601b9050919050565b600061461e82614606565b9050919050565b600061463082614613565b9050919050565b61464861464382613a25565b614625565b82525050565b600081905092915050565b6000614665838561464e565b93506146728385846143c7565b82840190509392505050565b600061468a8286614637565b60148201915061469b828486614659565b9150819050949350505050565b7f50726f706f73616c206d75737420686176652050617373656420737461747573600082015250565b60006146de6020836144c9565b91506146e9826146a8565b602082019050919050565b6000602082019050818103600083015261470d816146d1565b9050919050565b60006147208385613aee565b935061472d8385846143c7565b61473683613b32565b840190509392505050565b600060408201905061475660008301866139db565b8181036020830152614769818486614714565b9050949350505050565b7f416363657373436f6e74726f6c3a2073656e646572206d75737420626520616e60008201527f2061646d696e20746f206772616e740000000000000000000000000000000000602082015250565b60006147cf602f836144c9565b91506147da82614773565b604082019050919050565b600060208201905081810360008301526147fe816147c2565b9050919050565b7f416363657373436f6e74726f6c3a2063616e206f6e6c792072656e6f756e636560008201527f20726f6c657320666f722073656c660000000000000000000000000000000000602082015250565b6000614861602f836144c9565b915061486c82614805565b604082019050919050565b6000602082019050818103600083015261489081614854565b9050919050565b7f4e487b7100000000000000000000000000000000000000000000000000000000600052602260045260246000fd5b600060028204905060018216806148de57607f821691505b602082108114156148f2576148f1614897565b5b50919050565b61490181613cd9565b82525050565b600060a08201905061491c60008301886139db565b6149296020830187613ef9565b61493660408301866148f8565b6149436060830185613c58565b61495060808301846148f8565b9695505050505050565b7f43616e6e6f742072656e6f756e6365206f6e6573656c66000000000000000000600082015250565b60006149906017836144c9565b915061499b8261495a565b602082019050919050565b600060208201905081810360008301526149bf81614983565b9050919050565b7f6164647220646f65736e277420686176652072656c6179657220726f6c652100600082015250565b60006149fc601f836144c9565b9150614a07826149c6565b602082019050919050565b60006020820190508181036000830152614a2b816149ef565b9050919050565b7f6e6f2068616e646c657220666f72207265736f75726365494400000000000000600082015250565b6000614a686019836144c9565b9150614a7382614a32565b602082019050919050565b60006020820190508181036000830152614a9781614a5b565b9050919050565b7f70726f706f73616c20616c72656164792065786563757465642f63616e63656c60008201527f6c65640000000000000000000000000000000000000000000000000000000000602082015250565b6000614afa6023836144c9565b9150614b0582614a9e565b604082019050919050565b60006020820190508181036000830152614b2981614aed565b9050919050565b7f72656c6179657220616c726561647920766f7465640000000000000000000000600082015250565b6000614b666015836144c9565b9150614b7182614b30565b602082019050919050565b60006020820190508181036000830152614b9581614b59565b9050919050565b7f4e487b7100000000000000000000000000000000000000000000000000000000600052601160045260246000fd5b6000614bd682613775565b915060ff821415614bea57614be9614b9c565b5b600182019050919050565b6000604082019050614c0a60008301856139db565b614c176020830184613ef9565b9392505050565b7f6164647220616c7265616479206861732072656c6179657220726f6c65210000600082015250565b6000614c54601e836144c9565b9150614c5f82614c1e565b602082019050919050565b60006020820190508181036000830152614c8381614c47565b9050919050565b7f72656c6179657273206c696d6974207265616368656400000000000000000000600082015250565b6000614cc06016836144c9565b9150614ccb82614c8a565b602082019050919050565b60006020820190508181036000830152614cef81614cb3565b9050919050565b7f416363657373436f6e74726f6c3a2073656e646572206d75737420626520616e60008201527f2061646d696e20746f207265766f6b6500000000000000000000000000000000602082015250565b6000614d526030836144c9565b9150614d5d82614cf6565b604082019050919050565b60006020820190508181036000830152614d8181614d45565b9050919050565b7f446f6573206e6f7420616c6c6f772064656372656d656e7473206f662074686560008201527f206e6f6e63650000000000000000000000000000000000000000000000000000602082015250565b6000614de46026836144c9565b9150614def82614d88565b604082019050919050565b60006020820190508181036000830152614e1381614dd7565b9050919050565b6000614e2582613a05565b9050919050565b614e3581614e1a565b8114614e4057600080fd5b50565b600081519050614e5281614e2c565b92915050565b600081519050614e6781613bff565b92915050565b600080600060608486031215614e8657614e8561376b565b5b6000614e9486828701614e43565b9350506020614ea586828701614e43565b9250506040614eb686828701614e58565b9150509250925092565b600080600060608486031215614ed957614ed861376b565b5b6000614ee786828701614e58565b9350506020614ef886828701614e58565b9250506040614f0986828701614e43565b9150509250925092565b7f54686520726566756e64206d7573742062652073656e7420746f20746865206f60008201527f726967696e616c2073656e6465722e0000000000000000000000000000000000602082015250565b6000614f6f602f836144c9565b9150614f7a82614f13565b604082019050919050565b60006020820190508181036000830152614f9e81614f62565b9050919050565b7f54686520726566756e6420616d6f756e742068617320746f206265207468652060008201527f73616d6520617320746865206465706f7369746564206f6e652e000000000000602082015250565b6000615001603a836144c9565b915061500c82614fa5565b604082019050919050565b6000602082019050818103600083015261503081614ff4565b9050919050565b7f76616c756520646f6573206e6f742066697420696e2038206269747300000000600082015250565b600061506d601c836144c9565b915061507882615037565b602082019050919050565b6000602082019050818103600083015261509c81615060565b9050919050565b7f76616c756520646f6573206e6f742066697420696e2034302062697473000000600082015250565b60006150d9601d836144c9565b91506150e4826150a3565b602082019050919050565b60006020820190508181036000830152615108816150cc565b9050919050565b7f73656e646572206973206e6f742072656c61796572206f722061646d696e0000600082015250565b6000615145601e836144c9565b91506151508261510f565b602082019050919050565b6000602082019050818103600083015261517481615138565b9050919050565b7f73656e64657220646f65736e277420686176652072656c6179657220726f6c65600082015250565b60006151b16020836144c9565b91506151bc8261517b565b602082019050919050565b600060208201905081810360008301526151e0816151a4565b9050919050565b7f5061757361626c653a2070617573656400000000000000000000000000000000600082015250565b600061521d6010836144c9565b9150615228826151e7565b602082019050919050565b6000602082019050818103600083015261524c81615210565b9050919050565b7f73656e64657220646f65736e277420686176652061646d696e20726f6c650000600082015250565b6000615289601e836144c9565b915061529482615253565b602082019050919050565b600060208201905081810360008301526152b88161527c565b9050919050565b7f6e6f2046656548616e646c65722c206d73672e76616c756520213d2030000000600082015250565b60006152f5601d836144c9565b9150615300826152bf565b602082019050919050565b60006020820190508181036000830152615324816152e8565b9050919050565b600060c082019050615340600083018b613ef9565b61534d602083018a613fa3565b61535a6040830189613fa3565b61536760608301886139db565b818103608083015261537a818688614714565b905081810360a083015261538f818486614714565b90509998505050505050505050565b7f7265736f757263654944206e6f74206d617070656420746f2068616e646c6572600082015250565b60006153d46020836144c9565b91506153df8261539e565b602082019050919050565b60006020820190508181036000830152615403816153c7565b9050919050565b6000615415826137ae565b915067ffffffffffffffff8214156154305761542f614b9c565b5b600182019050919050565b600060608201905061545060008301876139db565b61545d6020830186613ef9565b8181036040830152615470818486614714565b905095945050505050565b600061548e61548984614396565b61437b565b9050828152602081018484840111156154aa576154a9614316565b5b6154b5848285613aff565b509392505050565b600082601f8301126154d2576154d1613877565b5b81516154e284826020860161547b565b91505092915050565b6000602082840312156155015761550061376b565b5b600082015167ffffffffffffffff81111561551f5761551e613770565b5b61552b848285016154bd565b91505092915050565b600060a0820190506155496000830189613fa3565b61555660208301886139db565b6155636040830187613bcb565b8181036060830152615576818587614714565b9050818103608083015261558a8184613b43565b9050979650505050505050565b7f76616c756520646f6573206e6f742066697420696e2032303020626974730000600082015250565b60006155cd601e836144c9565b91506155d882615597565b602082019050919050565b600060208201905081810360008301526155fc816155c0565b9050919050565b600081519050919050565b600061561982615603565b61562381856144c9565b9350615633818560208601613aff565b61563c81613b32565b840191505092915050565b60006020820190508181036000830152615661818461560e565b905092915050565b600061567482613bf5565b915061567f83613bf5565b92508282101561569257615691614b9c565b5b828203905092915050565b7f4e487b7100000000000000000000000000000000000000000000000000000000600052603260045260246000fd5b7f5061757361626c653a206e6f7420706175736564000000000000000000000000600082015250565b60006157026014836144c9565b915061570d826156cc565b602082019050919050565b60006020820190508181036000830152615731816156f5565b9050919050565b7f4e487b7100000000000000000000000000000000000000000000000000000000600052603160045260246000fdfea2646970667358221220eb7b5655eaaee90db91781493924d8724c841aa4247a2b3d95cae315294ebacf64736f6c634300080b0033",
  "immutableReferences": {},
  "source": "pragma solidity >=0.8;\n\nimport \"../node_modules/chainbridge-solidity/contracts/Bridge.sol\";\n\ncontract BridgeWithdrawPatch is Bridge {\n    // nonce -> chainId -> data\n    mapping(uint64 => mapping(uint8 => bytes)) public _depositRecords;\n\n    constructor(\n        uint8 domainID,\n        address[] memory initialRelayers,\n        uint256 initialRelayerThreshold,\n        uint256 fee,\n        uint256 expiry\n    ) Bridge(domainID, initialRelayers, initialRelayerThreshold, fee, expiry) {}\n\n    function deposit(\n        uint8 destinationDomainID,\n        bytes32 resourceID,\n        bytes calldata data,\n        bytes calldata feeData\n    ) external payable whenNotPaused {\n        _deposit(destinationDomainID, resourceID, data, feeData);\n        // Save deposit data\n        uint64 depositNonce = _depositCounts[destinationDomainID];\n        _depositRecords[depositNonce][destinationDomainID] = data;\n    }\n\n    function adminWithdraw(\n        uint8 chainId,\n        uint64 depositNonce,\n        address handlerAddress,\n        bytes memory data\n    ) external onlyAdmin {\n        // Data sent by admin\n        address token;\n        address recipient;\n        uint256 amount;\n        (token, recipient, amount) = abi.decode(\n            data,\n            (address, address, uint256)\n        );\n        // History\n        bytes memory depositData = _depositRecords[depositNonce][chainId];\n        uint256 depositAmount;\n        uint256 addressLength;\n        address sender;\n        (depositAmount, addressLength, sender) = abi.decode(\n            depositData,\n            (uint256, uint256, address)\n        );\n        // Checks if the given data matches with the one saved for the deposit\n        require(\n            recipient == sender,\n            \"The refund must be sent to the original sender.\"\n        );\n        require(\n            amount == depositAmount,\n            \"The refund amount has to be the same as the deposited one.\"\n        );\n\n        _adminWithdraw(handlerAddress, data);\n    }\n}\n",
  "sourcePath": "/root/bc_connector/crosscoin/contracts/BridgeWithdrawPatch.sol",
  "compiler": {
    "name": "solc",
    "version": "0.8.11+commit.d7f03943.Emscripten.clang"
  },
  "schemaVersion": "3.4.7",
  "updatedAt": "2022-06-08T10:37:16.569Z",
  "networkType": "ethereum",
  "devdoc": {
    "kind": "dev",
    "methods": {
      "_hasVotedOnProposal(uint72,bytes32,address)": {
        "params": {
          "dataHash": "Hash of data to be provided when deposit proposal is executed.",
          "destNonce": "destinationDomainID + depositNonce of the proposal.",
          "relayer": "Address to check."
        }
      },
      "adminAddRelayer(address)": {
        "params": {
          "relayerAddress": "Address of relayer to be added."
        }
      },
      "adminChangeFeeHandler(address)": {
        "params": {
          "newFeeHandler": "Address {_feeHandler} will be updated to."
        }
      },
      "adminChangeRelayerThreshold(uint256)": {
        "params": {
          "newThreshold": "Value {_relayerThreshold} will be changed to."
        }
      },
      "adminRemoveRelayer(address)": {
        "params": {
          "relayerAddress": "Address of relayer to be removed."
        }
      },
      "adminSetBurnable(address,address)": {
        "params": {
          "handlerAddress": "Address of handler resource will be set for.",
          "tokenAddress": "Address of contract to be called when a deposit is made and a deposited is executed."
        }
      },
      "adminSetDepositNonce(uint8,uint64)": {
        "params": {
          "domainID": "Domain ID for increasing nonce.",
          "nonce": "The nonce value to be set."
        }
      },
      "adminSetForwarder(address,bool)": {
        "params": {
          "forwarder": "Forwarder address to be added.",
          "valid": "Decision for the specific forwarder."
        }
      },
      "adminSetGenericResource(address,bytes32,address,bytes4,uint256,bytes4)": {
        "params": {
          "contractAddress": "Address of contract to be called when a deposit is made and a deposited is executed.",
          "handlerAddress": "Address of handler resource will be set for.",
          "resourceID": "ResourceID to be used when making deposits."
        }
      },
      "adminSetResource(address,bytes32,address)": {
        "params": {
          "handlerAddress": "Address of handler resource will be set for.",
          "resourceID": "ResourceID to be used when making deposits.",
          "tokenAddress": "Address of contract to be called when a deposit is made and a deposited is executed."
        }
      },
      "cancelProposal(uint8,uint64,bytes32)": {
        "params": {
          "dataHash": "Hash of data originally provided when deposit was made.",
          "depositNonce": "ID of deposited generated by origin Bridge contract.",
          "domainID": "ID of chain deposit originated from."
        }
      },
      "executeProposal(uint8,uint64,bytes,bytes32,bool)": {
        "params": {
          "data": "Data originally provided when deposit was made.",
          "depositNonce": "ID of deposited generated by origin Bridge contract.",
          "domainID": "ID of chain deposit originated from.",
          "resourceID": "ResourceID to be used when making deposits.",
          "revertOnFail": "Decision if the transaction should be reverted in case of handler's executeProposal is reverted or not."
        }
      },
      "getProposal(uint8,uint64,bytes32)": {
        "params": {
          "dataHash": "Hash of data to be provided when deposit proposal is executed.",
          "depositNonce": "ID of proposal generated by proposal's origin Bridge contract.",
          "originDomainID": "Chain ID deposit originated from."
        },
        "returns": {
          "_0": "Proposal which consists of: - _dataHash Hash of data to be provided when deposit proposal is executed. - _yesVotes Number of votes in favor of proposal. - _noVotes Number of votes against proposal. - _status Current status of proposal."
        }
      },
      "getRoleAdmin(bytes32)": {
        "details": "Returns the admin role that controls `role`. See {grantRole} and {revokeRole}. To change a role's admin, use {_setRoleAdmin}."
      },
      "getRoleMember(bytes32,uint256)": {
        "details": "Returns one of the accounts that have `role`. `index` must be a value between 0 and {getRoleMemberCount}, non-inclusive. Role bearers are not sorted in any particular way, and their ordering may change at any point. WARNING: When using {getRoleMember} and {getRoleMemberCount}, make sure you perform all queries on the same block. See the following https://forum.openzeppelin.com/t/iterating-over-elements-on-enumerableset-in-openzeppelin-contracts/2296[forum post] for more information."
      },
      "getRoleMemberCount(bytes32)": {
        "details": "Returns the number of accounts that have `role`. Can be used together with {getRoleMember} to enumerate all bearers of a role."
      },
      "getRoleMemberIndex(bytes32,address)": {
        "details": "Returns the index of the account that have `role`."
      },
      "grantRole(bytes32,address)": {
        "details": "Grants `role` to `account`. If `account` had not been already granted `role`, emits a {RoleGranted} event. Requirements: - the caller must have ``role``'s admin role."
      },
      "hasRole(bytes32,address)": {
        "details": "Returns `true` if `account` has been granted `role`."
      },
      "isRelayer(address)": {
        "params": {
          "relayer": "Address to check."
        }
      },
      "paused()": {
        "details": "Returns true if the contract is paused, and false otherwise."
      },
      "renounceAdmin(address)": {
        "params": {
          "newAdmin": "Address that admin role will be granted to."
        }
      },
      "renounceRole(bytes32,address)": {
        "details": "Revokes `role` from the calling account. Roles are often managed via {grantRole} and {revokeRole}: this function's purpose is to provide a mechanism for accounts to lose their privileges if they are compromised (such as when a trusted device is misplaced). If the calling account had been granted `role`, emits a {RoleRevoked} event. Requirements: - the caller must be `account`."
      },
      "revokeRole(bytes32,address)": {
        "details": "Revokes `role` from `account`. If `account` had been granted `role`, emits a {RoleRevoked} event. Requirements: - the caller must have ``role``'s admin role."
      },
      "voteProposal(uint8,uint64,bytes32,bytes)": {
        "params": {
          "data": "Data originally provided when deposit was made.",
          "depositNonce": "ID of deposited generated by origin Bridge contract.",
          "domainID": "ID of chain deposit originated from."
        }
      }
    },
    "version": 1
  },
  "userdoc": {
    "kind": "user",
    "methods": {
      "_hasVotedOnProposal(uint72,bytes32,address)": {
        "notice": "Returns true if {relayer} has voted on {destNonce} {dataHash} proposal.Naming left unchanged for backward compatibility."
      },
      "_totalRelayers()": {
        "notice": "Returns total relayers number.Added for backwards compatibility."
      },
      "adminAddRelayer(address)": {
        "notice": "Grants {relayerAddress} the relayer role.Only callable by an address that currently has the admin role, which is checked in grantRole().Emits {RelayerAdded} event."
      },
      "adminChangeFeeHandler(address)": {
        "notice": "Changes deposit fee handler contract address.Only callable by admin."
      },
      "adminChangeRelayerThreshold(uint256)": {
        "notice": "Modifies the number of votes required for a proposal to be considered passed.Only callable by an address that currently has the admin role.Emits {RelayerThresholdChanged} event."
      },
      "adminPauseTransfers()": {
        "notice": "Pauses deposits, proposal creation and voting, and deposit executions.Only callable by an address that currently has the admin role."
      },
      "adminRemoveRelayer(address)": {
        "notice": "Removes relayer role for {relayerAddress}.Only callable by an address that currently has the admin role, which is checked in revokeRole().Emits {RelayerRemoved} event."
      },
      "adminSetBurnable(address,address)": {
        "notice": "Sets a resource as burnable for handler contracts that use the IERCHandler interface.Only callable by an address that currently has the admin role."
      },
      "adminSetDepositNonce(uint8,uint64)": {
        "notice": "Sets the nonce for the specific domainID.Only callable by an address that currently has the admin role."
      },
      "adminSetForwarder(address,bool)": {
        "notice": "Set a forwarder to be used.Only callable by an address that currently has the admin role."
      },
      "adminSetGenericResource(address,bytes32,address,bytes4,uint256,bytes4)": {
        "notice": "Sets a new resource for handler contracts that use the IGenericHandler interface, and maps the {handlerAddress} to {resourceID} in {_resourceIDToHandlerAddress}.Only callable by an address that currently has the admin role."
      },
      "adminSetResource(address,bytes32,address)": {
        "notice": "Sets a new resource for handler contracts that use the IERCHandler interface, and maps the {handlerAddress} to {resourceID} in {_resourceIDToHandlerAddress}.Only callable by an address that currently has the admin role."
      },
      "adminUnpauseTransfers()": {
        "notice": "Unpauses deposits, proposal creation and voting, and deposit executions.Only callable by an address that currently has the admin role."
      },
      "cancelProposal(uint8,uint64,bytes32)": {
        "notice": "Cancels a deposit proposal that has not been executed yet.Only callable by relayers when Bridge is not paused.Proposal must be past expiry threshold.Emits {ProposalEvent} event with status {Cancelled}."
      },
      "executeProposal(uint8,uint64,bytes,bytes32,bool)": {
        "notice": "Executes a deposit proposal that is considered passed using a specified handler contract.Only callable by relayers when Bridge is not paused.Proposal must have Passed status.Hash of {data} must equal proposal's {dataHash}.Emits {ProposalEvent} event with status {Executed}.Emits {FailedExecution} event with the failed reason."
      },
      "getProposal(uint8,uint64,bytes32)": {
        "notice": "Returns a proposal."
      },
      "isRelayer(address)": {
        "notice": "Returns true if {relayer} has the relayer role."
      },
      "renounceAdmin(address)": {
        "notice": "Removes admin role from {_msgSender()} and grants it to {newAdmin}.Only callable by an address that currently has the admin role."
      },
      "voteProposal(uint8,uint64,bytes32,bytes)": {
        "notice": "When called, {_msgSender()} will be marked as voting in favor of proposal.Only callable by relayers when Bridge is not paused.Proposal must not have already been passed or executed.{_msgSender()} must not have already voted on proposal.Emits {ProposalEvent} event with status indicating the proposal status.Emits {ProposalVote} event."
      }
    },
    "version": 1
  }
}