{
  "contractName": "CentrifugeAsset",
  "abi": [
    {
      "anonymous": false,
      "inputs": [
        {
          "indexed": true,
          "internalType": "bytes32",
          "name": "asset",
          "type": "bytes32"
        }
      ],
      "name": "AssetStored",
      "type": "event"
    },
    {
      "inputs": [
        {
          "internalType": "bytes32",
          "name": "",
          "type": "bytes32"
        }
      ],
      "name": "_assetsStored",
      "outputs": [
        {
          "internalType": "bool",
          "name": "",
          "type": "bool"
        }
      ],
      "stateMutability": "view",
      "type": "function"
    },
    {
      "inputs": [
        {
          "internalType": "bytes32",
          "name": "asset",
          "type": "bytes32"
        }
      ],
      "name": "store",
      "outputs": [],
      "stateMutability": "nonpayable",
      "type": "function"
    }
  ],
  "bytecode": "0x608060405234801561001057600080fd5b506102b3806100206000396000f3fe608060405234801561001057600080fd5b50600436106100365760003560e01c8063654cf88c1461003b57806396add60014610057575b600080fd5b6100556004803603810190610050919061019d565b610087565b005b610071600480360381019061006c919061019d565b610142565b60405161007e91906101e5565b60405180910390f35b60008082815260200190815260200160002060009054906101000a900460ff16156100e7576040517f08c379a00000000000000000000000000000000000000000000000000000000081526004016100de9061025d565b60405180910390fd5b600160008083815260200190815260200160002060006101000a81548160ff021916908315150217905550807f08ae553713effae7116be03743b167b8b803449ee8fb912c2ec43dc2c824f53560405160405180910390a250565b60006020528060005260406000206000915054906101000a900460ff1681565b600080fd5b6000819050919050565b61017a81610167565b811461018557600080fd5b50565b60008135905061019781610171565b92915050565b6000602082840312156101b3576101b2610162565b5b60006101c184828501610188565b91505092915050565b60008115159050919050565b6101df816101ca565b82525050565b60006020820190506101fa60008301846101d6565b92915050565b600082825260208201905092915050565b7f617373657420697320616c72656164792073746f726564000000000000000000600082015250565b6000610247601783610200565b915061025282610211565b602082019050919050565b600060208201905081810360008301526102768161023a565b905091905056fea26469706673582212206e864469f9eac79e89fb550698fc7376c76582145aff51011042312f51786d3c64736f6c634300080b0033",
  "immutableReferences": {},
  "source": "// SPDX-License-Identifier: LGPL-3.0-only\npragma solidity 0.8.11;\n\n/**\n    @title Represents a bridged Centrifuge asset.\n    @author ChainSafe Systems.\n */\ncontract CentrifugeAsset {\n  mapping (bytes32 => bool) public _assetsStored;\n\n  event AssetStored(bytes32 indexed asset);\n\n  /**\n    @notice Marks {asset} as stored.\n    @param asset Hash of asset deposited on Centrifuge chain.\n    @notice {asset} must not have already been stored.\n    @notice Emits {AssetStored} event.\n   */\n  function store(bytes32 asset) external {\n      require(!_assetsStored[asset], \"asset is already stored\");\n\n      _assetsStored[asset] = true;\n      emit AssetStored(asset);\n  }\n}",
  "sourcePath": "/root/bc_connector/crosscoin/contracts/chainbridge-solidity/contracts/CentrifugeAsset.sol",
  "compiler": {
    "name": "solc",
    "version": "0.8.11+commit.d7f03943.Emscripten.clang"
  },
  "schemaVersion": "3.4.7",
  "updatedAt": "2022-06-02T13:10:46.817Z",
  "devdoc": {
    "author": "ChainSafe Systems.",
    "kind": "dev",
    "methods": {
      "store(bytes32)": {
        "params": {
          "asset": "Hash of asset deposited on Centrifuge chain."
        }
      }
    },
    "title": "Represents a bridged Centrifuge asset.",
    "version": 1
  },
  "userdoc": {
    "kind": "user",
    "methods": {
      "store(bytes32)": {
        "notice": "Marks {asset} as stored.{asset} must not have already been stored.Emits {AssetStored} event."
      }
    },
    "version": 1
  }
}