{
  "contractName": "CrossNft",
  "abi": [
    {
      "inputs": [],
      "stateMutability": "nonpayable",
      "type": "constructor"
    },
    {
      "anonymous": false,
      "inputs": [
        {
          "indexed": true,
          "internalType": "address",
          "name": "owner",
          "type": "address"
        },
        {
          "indexed": true,
          "internalType": "address",
          "name": "approved",
          "type": "address"
        },
        {
          "indexed": true,
          "internalType": "uint256",
          "name": "tokenId",
          "type": "uint256"
        }
      ],
      "name": "Approval",
      "type": "event"
    },
    {
      "anonymous": false,
      "inputs": [
        {
          "indexed": true,
          "internalType": "address",
          "name": "owner",
          "type": "address"
        },
        {
          "indexed": true,
          "internalType": "address",
          "name": "operator",
          "type": "address"
        },
        {
          "indexed": false,
          "internalType": "bool",
          "name": "approved",
          "type": "bool"
        }
      ],
      "name": "ApprovalForAll",
      "type": "event"
    },
    {
      "anonymous": false,
      "inputs": [
        {
          "indexed": true,
          "internalType": "address",
          "name": "from",
          "type": "address"
        },
        {
          "indexed": true,
          "internalType": "address",
          "name": "to",
          "type": "address"
        },
        {
          "indexed": true,
          "internalType": "uint256",
          "name": "tokenId",
          "type": "uint256"
        }
      ],
      "name": "Transfer",
      "type": "event"
    },
    {
      "inputs": [
        {
          "internalType": "address",
          "name": "to",
          "type": "address"
        },
        {
          "internalType": "uint256",
          "name": "tokenId",
          "type": "uint256"
        }
      ],
      "name": "approve",
      "outputs": [],
      "stateMutability": "nonpayable",
      "type": "function"
    },
    {
      "inputs": [
        {
          "internalType": "address",
          "name": "owner",
          "type": "address"
        }
      ],
      "name": "balanceOf",
      "outputs": [
        {
          "internalType": "uint256",
          "name": "",
          "type": "uint256"
        }
      ],
      "stateMutability": "view",
      "type": "function",
      "constant": true
    },
    {
      "inputs": [
        {
          "internalType": "uint256",
          "name": "tokenId",
          "type": "uint256"
        }
      ],
      "name": "getApproved",
      "outputs": [
        {
          "internalType": "address",
          "name": "",
          "type": "address"
        }
      ],
      "stateMutability": "view",
      "type": "function",
      "constant": true
    },
    {
      "inputs": [
        {
          "internalType": "address",
          "name": "owner",
          "type": "address"
        },
        {
          "internalType": "address",
          "name": "operator",
          "type": "address"
        }
      ],
      "name": "isApprovedForAll",
      "outputs": [
        {
          "internalType": "bool",
          "name": "",
          "type": "bool"
        }
      ],
      "stateMutability": "view",
      "type": "function",
      "constant": true
    },
    {
      "inputs": [],
      "name": "name",
      "outputs": [
        {
          "internalType": "string",
          "name": "",
          "type": "string"
        }
      ],
      "stateMutability": "view",
      "type": "function",
      "constant": true
    },
    {
      "inputs": [
        {
          "internalType": "uint256",
          "name": "tokenId",
          "type": "uint256"
        }
      ],
      "name": "ownerOf",
      "outputs": [
        {
          "internalType": "address",
          "name": "",
          "type": "address"
        }
      ],
      "stateMutability": "view",
      "type": "function",
      "constant": true
    },
    {
      "inputs": [
        {
          "internalType": "address",
          "name": "from",
          "type": "address"
        },
        {
          "internalType": "address",
          "name": "to",
          "type": "address"
        },
        {
          "internalType": "uint256",
          "name": "tokenId",
          "type": "uint256"
        }
      ],
      "name": "safeTransferFrom",
      "outputs": [],
      "stateMutability": "nonpayable",
      "type": "function"
    },
    {
      "inputs": [
        {
          "internalType": "address",
          "name": "from",
          "type": "address"
        },
        {
          "internalType": "address",
          "name": "to",
          "type": "address"
        },
        {
          "internalType": "uint256",
          "name": "tokenId",
          "type": "uint256"
        },
        {
          "internalType": "bytes",
          "name": "_data",
          "type": "bytes"
        }
      ],
      "name": "safeTransferFrom",
      "outputs": [],
      "stateMutability": "nonpayable",
      "type": "function"
    },
    {
      "inputs": [
        {
          "internalType": "address",
          "name": "operator",
          "type": "address"
        },
        {
          "internalType": "bool",
          "name": "approved",
          "type": "bool"
        }
      ],
      "name": "setApprovalForAll",
      "outputs": [],
      "stateMutability": "nonpayable",
      "type": "function"
    },
    {
      "inputs": [
        {
          "internalType": "bytes4",
          "name": "interfaceId",
          "type": "bytes4"
        }
      ],
      "name": "supportsInterface",
      "outputs": [
        {
          "internalType": "bool",
          "name": "",
          "type": "bool"
        }
      ],
      "stateMutability": "view",
      "type": "function",
      "constant": true
    },
    {
      "inputs": [],
      "name": "symbol",
      "outputs": [
        {
          "internalType": "string",
          "name": "",
          "type": "string"
        }
      ],
      "stateMutability": "view",
      "type": "function",
      "constant": true
    },
    {
      "inputs": [
        {
          "internalType": "uint256",
          "name": "index",
          "type": "uint256"
        }
      ],
      "name": "tokenByIndex",
      "outputs": [
        {
          "internalType": "uint256",
          "name": "",
          "type": "uint256"
        }
      ],
      "stateMutability": "view",
      "type": "function",
      "constant": true
    },
    {
      "inputs": [
        {
          "internalType": "address",
          "name": "owner",
          "type": "address"
        },
        {
          "internalType": "uint256",
          "name": "index",
          "type": "uint256"
        }
      ],
      "name": "tokenOfOwnerByIndex",
      "outputs": [
        {
          "internalType": "uint256",
          "name": "",
          "type": "uint256"
        }
      ],
      "stateMutability": "view",
      "type": "function",
      "constant": true
    },
    {
      "inputs": [
        {
          "internalType": "uint256",
          "name": "tokenId",
          "type": "uint256"
        }
      ],
      "name": "tokenURI",
      "outputs": [
        {
          "internalType": "string",
          "name": "",
          "type": "string"
        }
      ],
      "stateMutability": "view",
      "type": "function",
      "constant": true
    },
    {
      "inputs": [],
      "name": "totalSupply",
      "outputs": [
        {
          "internalType": "uint256",
          "name": "",
          "type": "uint256"
        }
      ],
      "stateMutability": "view",
      "type": "function",
      "constant": true
    },
    {
      "inputs": [
        {
          "internalType": "address",
          "name": "from",
          "type": "address"
        },
        {
          "internalType": "address",
          "name": "to",
          "type": "address"
        },
        {
          "internalType": "uint256",
          "name": "tokenId",
          "type": "uint256"
        }
      ],
      "name": "transferFrom",
      "outputs": [],
      "stateMutability": "nonpayable",
      "type": "function"
    },
    {
      "inputs": [
        {
          "internalType": "address",
          "name": "_beneficiary",
          "type": "address"
        },
        {
          "internalType": "uint256",
          "name": "_quantity",
          "type": "uint256"
        }
      ],
      "name": "mint",
      "outputs": [],
      "stateMutability": "nonpayable",
      "type": "function"
    }
  ],
  "bytecode": "0x60806040523480156200001157600080fd5b506040518060400160405280600881526020017f43726f73734e66740000000000000000000000000000000000000000000000008152506040518060400160405280600281526020017f434e000000000000000000000000000000000000000000000000000000000000815250816000908051906020019062000096929190620000b8565b508060019080519060200190620000af929190620000b8565b505050620001cd565b828054620000c69062000197565b90600052602060002090601f016020900481019282620000ea576000855562000136565b82601f106200010557805160ff191683800117855562000136565b8280016001018555821562000136579182015b828111156200013557825182559160200191906001019062000118565b5b50905062000145919062000149565b5090565b5b80821115620001645760008160009055506001016200014a565b5090565b7f4e487b7100000000000000000000000000000000000000000000000000000000600052602260045260246000fd5b60006002820490506001821680620001b057607f821691505b60208210811415620001c757620001c662000168565b5b50919050565b612f2f80620001dd6000396000f3fe608060405234801561001057600080fd5b506004361061010b5760003560e01c806342842e0e116100a257806395d89b411161007157806395d89b41146102dc578063a22cb465146102fa578063b88d4fde14610316578063c87b56dd14610332578063e985e9c5146103625761010b565b806342842e0e146102305780634f6ccce71461024c5780636352211e1461027c57806370a08231146102ac5761010b565b806318160ddd116100de57806318160ddd146101aa57806323b872dd146101c85780632f745c59146101e457806340c10f19146102145761010b565b806301ffc9a71461011057806306fdde0314610140578063081812fc1461015e578063095ea7b31461018e575b600080fd5b61012a60048036038101906101259190611d5f565b610392565b6040516101379190611da7565b60405180910390f35b61014861040c565b6040516101559190611e5b565b60405180910390f35b61017860048036038101906101739190611eb3565b61049e565b6040516101859190611f21565b60405180910390f35b6101a860048036038101906101a39190611f68565b610523565b005b6101b261063b565b6040516101bf9190611fb7565b60405180910390f35b6101e260048036038101906101dd9190611fd2565b610648565b005b6101fe60048036038101906101f99190611f68565b6106a8565b60405161020b9190611fb7565b60405180910390f35b61022e60048036038101906102299190611f68565b61074d565b005b61024a60048036038101906102459190611fd2565b610792565b005b61026660048036038101906102619190611eb3565b6107b2565b6040516102739190611fb7565b60405180910390f35b61029660048036038101906102919190611eb3565b610823565b6040516102a39190611f21565b60405180910390f35b6102c660048036038101906102c19190612025565b6108d5565b6040516102d39190611fb7565b60405180910390f35b6102e461098d565b6040516102f19190611e5b565b60405180910390f35b610314600480360381019061030f919061207e565b610a1f565b005b610330600480360381019061032b91906121f3565b610a35565b005b61034c60048036038101906103479190611eb3565b610a97565b6040516103599190611e5b565b60405180910390f35b61037c60048036038101906103779190612276565b610b3e565b6040516103899190611da7565b60405180910390f35b60007f780e9d63000000000000000000000000000000000000000000000000000000007bffffffffffffffffffffffffffffffffffffffffffffffffffffffff1916827bffffffffffffffffffffffffffffffffffffffffffffffffffffffff19161480610405575061040482610bd2565b5b9050919050565b60606000805461041b906122e5565b80601f0160208091040260200160405190810160405280929190818152602001828054610447906122e5565b80156104945780601f1061046957610100808354040283529160200191610494565b820191906000526020600020905b81548152906001019060200180831161047757829003601f168201915b5050505050905090565b60006104a982610cb4565b6104e8576040517f08c379a00000000000000000000000000000000000000000000000000000000081526004016104df90612389565b60405180910390fd5b6004600083815260200190815260200160002060009054906101000a900473ffffffffffffffffffffffffffffffffffffffff169050919050565b600061052e82610823565b90508073ffffffffffffffffffffffffffffffffffffffff168373ffffffffffffffffffffffffffffffffffffffff16141561059f576040517f08c379a00000000000000000000000000000000000000000000000000000000081526004016105969061241b565b60405180910390fd5b8073ffffffffffffffffffffffffffffffffffffffff166105be610d20565b73ffffffffffffffffffffffffffffffffffffffff1614806105ed57506105ec816105e7610d20565b610b3e565b5b61062c576040517f08c379a0000000000000000000000000000000000000000000000000000000008152600401610623906124ad565b60405180910390fd5b6106368383610d28565b505050565b6000600880549050905090565b610659610653610d20565b82610de1565b610698576040517f08c379a000000000000000000000000000000000000000000000000000000000815260040161068f9061253f565b60405180910390fd5b6106a3838383610ebf565b505050565b60006106b3836108d5565b82106106f4576040517f08c379a00000000000000000000000000000000000000000000000000000000081526004016106eb906125d1565b60405180910390fd5b600660008473ffffffffffffffffffffffffffffffffffffffff1673ffffffffffffffffffffffffffffffffffffffff168152602001908152602001600020600083815260200190815260200160002054905092915050565b600061075761063b565b905060005b8281101561078c576107798482846107749190612620565b611126565b808061078490612676565b91505061075c565b50505050565b6107ad83838360405180602001604052806000815250610a35565b505050565b60006107bc61063b565b82106107fd576040517f08c379a00000000000000000000000000000000000000000000000000000000081526004016107f490612731565b60405180910390fd5b6008828154811061081157610810612751565b5b90600052602060002001549050919050565b6000806002600084815260200190815260200160002060009054906101000a900473ffffffffffffffffffffffffffffffffffffffff169050600073ffffffffffffffffffffffffffffffffffffffff168173ffffffffffffffffffffffffffffffffffffffff1614156108cc576040517f08c379a00000000000000000000000000000000000000000000000000000000081526004016108c3906127f2565b60405180910390fd5b80915050919050565b60008073ffffffffffffffffffffffffffffffffffffffff168273ffffffffffffffffffffffffffffffffffffffff161415610946576040517f08c379a000000000000000000000000000000000000000000000000000000000815260040161093d90612884565b60405180910390fd5b600360008373ffffffffffffffffffffffffffffffffffffffff1673ffffffffffffffffffffffffffffffffffffffff168152602001908152602001600020549050919050565b60606001805461099c906122e5565b80601f01602080910402602001604051908101604052809291908181526020018280546109c8906122e5565b8015610a155780601f106109ea57610100808354040283529160200191610a15565b820191906000526020600020905b8154815290600101906020018083116109f857829003601f168201915b5050505050905090565b610a31610a2a610d20565b8383611144565b5050565b610a46610a40610d20565b83610de1565b610a85576040517f08c379a0000000000000000000000000000000000000000000000000000000008152600401610a7c9061253f565b60405180910390fd5b610a91848484846112b1565b50505050565b6060610aa282610cb4565b610ae1576040517f08c379a0000000000000000000000000000000000000000000000000000000008152600401610ad890612916565b60405180910390fd5b6000610aeb61130d565b90506000815111610b0b5760405180602001604052806000815250610b36565b80610b1584611324565b604051602001610b26929190612972565b6040516020818303038152906040525b915050919050565b6000600560008473ffffffffffffffffffffffffffffffffffffffff1673ffffffffffffffffffffffffffffffffffffffff16815260200190815260200160002060008373ffffffffffffffffffffffffffffffffffffffff1673ffffffffffffffffffffffffffffffffffffffff16815260200190815260200160002060009054906101000a900460ff16905092915050565b60007f80ac58cd000000000000000000000000000000000000000000000000000000007bffffffffffffffffffffffffffffffffffffffffffffffffffffffff1916827bffffffffffffffffffffffffffffffffffffffffffffffffffffffff19161480610c9d57507f5b5e139f000000000000000000000000000000000000000000000000000000007bffffffffffffffffffffffffffffffffffffffffffffffffffffffff1916827bffffffffffffffffffffffffffffffffffffffffffffffffffffffff1916145b80610cad5750610cac82611485565b5b9050919050565b60008073ffffffffffffffffffffffffffffffffffffffff166002600084815260200190815260200160002060009054906101000a900473ffffffffffffffffffffffffffffffffffffffff1673ffffffffffffffffffffffffffffffffffffffff1614159050919050565b600033905090565b816004600083815260200190815260200160002060006101000a81548173ffffffffffffffffffffffffffffffffffffffff021916908373ffffffffffffffffffffffffffffffffffffffff160217905550808273ffffffffffffffffffffffffffffffffffffffff16610d9b83610823565b73ffffffffffffffffffffffffffffffffffffffff167f8c5be1e5ebec7d5bd14f71427d1e84f3dd0314c0f7b2291e5b200ac8c7c3b92560405160405180910390a45050565b6000610dec82610cb4565b610e2b576040517f08c379a0000000000000000000000000000000000000000000000000000000008152600401610e2290612a08565b60405180910390fd5b6000610e3683610823565b90508073ffffffffffffffffffffffffffffffffffffffff168473ffffffffffffffffffffffffffffffffffffffff161480610e785750610e778185610b3e565b5b80610eb657508373ffffffffffffffffffffffffffffffffffffffff16610e9e8461049e565b73ffffffffffffffffffffffffffffffffffffffff16145b91505092915050565b8273ffffffffffffffffffffffffffffffffffffffff16610edf82610823565b73ffffffffffffffffffffffffffffffffffffffff1614610f35576040517f08c379a0000000000000000000000000000000000000000000000000000000008152600401610f2c90612a9a565b60405180910390fd5b600073ffffffffffffffffffffffffffffffffffffffff168273ffffffffffffffffffffffffffffffffffffffff161415610fa5576040517f08c379a0000000000000000000000000000000000000000000000000000000008152600401610f9c90612b2c565b60405180910390fd5b610fb08383836114ef565b610fbb600082610d28565b6001600360008573ffffffffffffffffffffffffffffffffffffffff1673ffffffffffffffffffffffffffffffffffffffff168152602001908152602001600020600082825461100b9190612b4c565b925050819055506001600360008473ffffffffffffffffffffffffffffffffffffffff1673ffffffffffffffffffffffffffffffffffffffff16815260200190815260200160002060008282546110629190612620565b92505081905550816002600083815260200190815260200160002060006101000a81548173ffffffffffffffffffffffffffffffffffffffff021916908373ffffffffffffffffffffffffffffffffffffffff160217905550808273ffffffffffffffffffffffffffffffffffffffff168473ffffffffffffffffffffffffffffffffffffffff167fddf252ad1be2c89b69c2b068fc378daa952ba7f163c4a11628f55a4df523b3ef60405160405180910390a4611121838383611603565b505050565b611140828260405180602001604052806000815250611608565b5050565b8173ffffffffffffffffffffffffffffffffffffffff168373ffffffffffffffffffffffffffffffffffffffff1614156111b3576040517f08c379a00000000000000000000000000000000000000000000000000000000081526004016111aa90612bcc565b60405180910390fd5b80600560008573ffffffffffffffffffffffffffffffffffffffff1673ffffffffffffffffffffffffffffffffffffffff16815260200190815260200160002060008473ffffffffffffffffffffffffffffffffffffffff1673ffffffffffffffffffffffffffffffffffffffff16815260200190815260200160002060006101000a81548160ff0219169083151502179055508173ffffffffffffffffffffffffffffffffffffffff168373ffffffffffffffffffffffffffffffffffffffff167f17307eab39ab6107e8899845ad3d59bd9653f200f220920489ca2b5937696c31836040516112a49190611da7565b60405180910390a3505050565b6112bc848484610ebf565b6112c884848484611663565b611307576040517f08c379a00000000000000000000000000000000000000000000000000000000081526004016112fe90612c5e565b60405180910390fd5b50505050565b606060405180602001604052806000815250905090565b6060600082141561136c576040518060400160405280600181526020017f30000000000000000000000000000000000000000000000000000000000000008152509050611480565b600082905060005b6000821461139e57808061138790612676565b915050600a826113979190612cad565b9150611374565b60008167ffffffffffffffff8111156113ba576113b96120c8565b5b6040519080825280601f01601f1916602001820160405280156113ec5781602001600182028036833780820191505090505b5090505b60008514611479576001826114059190612b4c565b9150600a856114149190612cde565b60306114209190612620565b60f81b81838151811061143657611435612751565b5b60200101907effffffffffffffffffffffffffffffffffffffffffffffffffffffffffffff1916908160001a905350600a856114729190612cad565b94506113f0565b8093505050505b919050565b60007f01ffc9a7000000000000000000000000000000000000000000000000000000007bffffffffffffffffffffffffffffffffffffffffffffffffffffffff1916827bffffffffffffffffffffffffffffffffffffffffffffffffffffffff1916149050919050565b6114fa8383836117eb565b600073ffffffffffffffffffffffffffffffffffffffff168373ffffffffffffffffffffffffffffffffffffffff16141561153d57611538816117f0565b61157c565b8173ffffffffffffffffffffffffffffffffffffffff168373ffffffffffffffffffffffffffffffffffffffff161461157b5761157a8382611839565b5b5b600073ffffffffffffffffffffffffffffffffffffffff168273ffffffffffffffffffffffffffffffffffffffff1614156115bf576115ba816119a6565b6115fe565b8273ffffffffffffffffffffffffffffffffffffffff168273ffffffffffffffffffffffffffffffffffffffff16146115fd576115fc8282611a77565b5b5b505050565b505050565b6116128383611af6565b61161f6000848484611663565b61165e576040517f08c379a000000000000000000000000000000000000000000000000000000000815260040161165590612c5e565b60405180910390fd5b505050565b60006116848473ffffffffffffffffffffffffffffffffffffffff16611cd0565b156117de578373ffffffffffffffffffffffffffffffffffffffff1663150b7a026116ad610d20565b8786866040518563ffffffff1660e01b81526004016116cf9493929190612d64565b6020604051808303816000875af192505050801561170b57506040513d601f19601f820116820180604052508101906117089190612dc5565b60015b61178e573d806000811461173b576040519150601f19603f3d011682016040523d82523d6000602084013e611740565b606091505b50600081511415611786576040517f08c379a000000000000000000000000000000000000000000000000000000000815260040161177d90612c5e565b60405180910390fd5b805181602001fd5b63150b7a0260e01b7bffffffffffffffffffffffffffffffffffffffffffffffffffffffff1916817bffffffffffffffffffffffffffffffffffffffffffffffffffffffff1916149150506117e3565b600190505b949350505050565b505050565b6008805490506009600083815260200190815260200160002081905550600881908060018154018082558091505060019003906000526020600020016000909190919091505550565b60006001611846846108d5565b6118509190612b4c565b9050600060076000848152602001908152602001600020549050818114611935576000600660008673ffffffffffffffffffffffffffffffffffffffff1673ffffffffffffffffffffffffffffffffffffffff168152602001908152602001600020600084815260200190815260200160002054905080600660008773ffffffffffffffffffffffffffffffffffffffff1673ffffffffffffffffffffffffffffffffffffffff168152602001908152602001600020600084815260200190815260200160002081905550816007600083815260200190815260200160002081905550505b6007600084815260200190815260200160002060009055600660008573ffffffffffffffffffffffffffffffffffffffff1673ffffffffffffffffffffffffffffffffffffffff16815260200190815260200160002060008381526020019081526020016000206000905550505050565b600060016008805490506119ba9190612b4c565b90506000600960008481526020019081526020016000205490506000600883815481106119ea576119e9612751565b5b906000526020600020015490508060088381548110611a0c57611a0b612751565b5b906000526020600020018190555081600960008381526020019081526020016000208190555060096000858152602001908152602001600020600090556008805480611a5b57611a5a612df2565b5b6001900381819060005260206000200160009055905550505050565b6000611a82836108d5565b905081600660008573ffffffffffffffffffffffffffffffffffffffff1673ffffffffffffffffffffffffffffffffffffffff168152602001908152602001600020600083815260200190815260200160002081905550806007600084815260200190815260200160002081905550505050565b600073ffffffffffffffffffffffffffffffffffffffff168273ffffffffffffffffffffffffffffffffffffffff161415611b66576040517f08c379a0000000000000000000000000000000000000000000000000000000008152600401611b5d90612e6d565b60405180910390fd5b611b6f81610cb4565b15611baf576040517f08c379a0000000000000000000000000000000000000000000000000000000008152600401611ba690612ed9565b60405180910390fd5b611bbb600083836114ef565b6001600360008473ffffffffffffffffffffffffffffffffffffffff1673ffffffffffffffffffffffffffffffffffffffff1681526020019081526020016000206000828254611c0b9190612620565b92505081905550816002600083815260200190815260200160002060006101000a81548173ffffffffffffffffffffffffffffffffffffffff021916908373ffffffffffffffffffffffffffffffffffffffff160217905550808273ffffffffffffffffffffffffffffffffffffffff16600073ffffffffffffffffffffffffffffffffffffffff167fddf252ad1be2c89b69c2b068fc378daa952ba7f163c4a11628f55a4df523b3ef60405160405180910390a4611ccc60008383611603565b5050565b6000808273ffffffffffffffffffffffffffffffffffffffff163b119050919050565b6000604051905090565b600080fd5b600080fd5b60007fffffffff0000000000000000000000000000000000000000000000000000000082169050919050565b611d3c81611d07565b8114611d4757600080fd5b50565b600081359050611d5981611d33565b92915050565b600060208284031215611d7557611d74611cfd565b5b6000611d8384828501611d4a565b91505092915050565b60008115159050919050565b611da181611d8c565b82525050565b6000602082019050611dbc6000830184611d98565b92915050565b600081519050919050565b600082825260208201905092915050565b60005b83811015611dfc578082015181840152602081019050611de1565b83811115611e0b576000848401525b50505050565b6000601f19601f8301169050919050565b6000611e2d82611dc2565b611e378185611dcd565b9350611e47818560208601611dde565b611e5081611e11565b840191505092915050565b60006020820190508181036000830152611e758184611e22565b905092915050565b6000819050919050565b611e9081611e7d565b8114611e9b57600080fd5b50565b600081359050611ead81611e87565b92915050565b600060208284031215611ec957611ec8611cfd565b5b6000611ed784828501611e9e565b91505092915050565b600073ffffffffffffffffffffffffffffffffffffffff82169050919050565b6000611f0b82611ee0565b9050919050565b611f1b81611f00565b82525050565b6000602082019050611f366000830184611f12565b92915050565b611f4581611f00565b8114611f5057600080fd5b50565b600081359050611f6281611f3c565b92915050565b60008060408385031215611f7f57611f7e611cfd565b5b6000611f8d85828601611f53565b9250506020611f9e85828601611e9e565b9150509250929050565b611fb181611e7d565b82525050565b6000602082019050611fcc6000830184611fa8565b92915050565b600080600060608486031215611feb57611fea611cfd565b5b6000611ff986828701611f53565b935050602061200a86828701611f53565b925050604061201b86828701611e9e565b9150509250925092565b60006020828403121561203b5761203a611cfd565b5b600061204984828501611f53565b91505092915050565b61205b81611d8c565b811461206657600080fd5b50565b60008135905061207881612052565b92915050565b6000806040838503121561209557612094611cfd565b5b60006120a385828601611f53565b92505060206120b485828601612069565b9150509250929050565b600080fd5b600080fd5b7f4e487b7100000000000000000000000000000000000000000000000000000000600052604160045260246000fd5b61210082611e11565b810181811067ffffffffffffffff8211171561211f5761211e6120c8565b5b80604052505050565b6000612132611cf3565b905061213e82826120f7565b919050565b600067ffffffffffffffff82111561215e5761215d6120c8565b5b61216782611e11565b9050602081019050919050565b82818337600083830152505050565b600061219661219184612143565b612128565b9050828152602081018484840111156121b2576121b16120c3565b5b6121bd848285612174565b509392505050565b600082601f8301126121da576121d96120be565b5b81356121ea848260208601612183565b91505092915050565b6000806000806080858703121561220d5761220c611cfd565b5b600061221b87828801611f53565b945050602061222c87828801611f53565b935050604061223d87828801611e9e565b925050606085013567ffffffffffffffff81111561225e5761225d611d02565b5b61226a878288016121c5565b91505092959194509250565b6000806040838503121561228d5761228c611cfd565b5b600061229b85828601611f53565b92505060206122ac85828601611f53565b9150509250929050565b7f4e487b7100000000000000000000000000000000000000000000000000000000600052602260045260246000fd5b600060028204905060018216806122fd57607f821691505b60208210811415612311576123106122b6565b5b50919050565b7f4552433732313a20617070726f76656420717565727920666f72206e6f6e657860008201527f697374656e7420746f6b656e0000000000000000000000000000000000000000602082015250565b6000612373602c83611dcd565b915061237e82612317565b604082019050919050565b600060208201905081810360008301526123a281612366565b9050919050565b7f4552433732313a20617070726f76616c20746f2063757272656e74206f776e6560008201527f7200000000000000000000000000000000000000000000000000000000000000602082015250565b6000612405602183611dcd565b9150612410826123a9565b604082019050919050565b60006020820190508181036000830152612434816123f8565b9050919050565b7f4552433732313a20617070726f76652063616c6c6572206973206e6f74206f7760008201527f6e6572206e6f7220617070726f76656420666f7220616c6c0000000000000000602082015250565b6000612497603883611dcd565b91506124a28261243b565b604082019050919050565b600060208201905081810360008301526124c68161248a565b9050919050565b7f4552433732313a207472616e736665722063616c6c6572206973206e6f74206f60008201527f776e6572206e6f7220617070726f766564000000000000000000000000000000602082015250565b6000612529603183611dcd565b9150612534826124cd565b604082019050919050565b600060208201905081810360008301526125588161251c565b9050919050565b7f455243373231456e756d657261626c653a206f776e657220696e646578206f7560008201527f74206f6620626f756e6473000000000000000000000000000000000000000000602082015250565b60006125bb602b83611dcd565b91506125c68261255f565b604082019050919050565b600060208201905081810360008301526125ea816125ae565b9050919050565b7f4e487b7100000000000000000000000000000000000000000000000000000000600052601160045260246000fd5b600061262b82611e7d565b915061263683611e7d565b9250827fffffffffffffffffffffffffffffffffffffffffffffffffffffffffffffffff0382111561266b5761266a6125f1565b5b828201905092915050565b600061268182611e7d565b91507fffffffffffffffffffffffffffffffffffffffffffffffffffffffffffffffff8214156126b4576126b36125f1565b5b600182019050919050565b7f455243373231456e756d657261626c653a20676c6f62616c20696e646578206f60008201527f7574206f6620626f756e64730000000000000000000000000000000000000000602082015250565b600061271b602c83611dcd565b9150612726826126bf565b604082019050919050565b6000602082019050818103600083015261274a8161270e565b9050919050565b7f4e487b7100000000000000000000000000000000000000000000000000000000600052603260045260246000fd5b7f4552433732313a206f776e657220717565727920666f72206e6f6e657869737460008201527f656e7420746f6b656e0000000000000000000000000000000000000000000000602082015250565b60006127dc602983611dcd565b91506127e782612780565b604082019050919050565b6000602082019050818103600083015261280b816127cf565b9050919050565b7f4552433732313a2062616c616e636520717565727920666f7220746865207a6560008201527f726f206164647265737300000000000000000000000000000000000000000000602082015250565b600061286e602a83611dcd565b915061287982612812565b604082019050919050565b6000602082019050818103600083015261289d81612861565b9050919050565b7f4552433732314d657461646174613a2055524920717565727920666f72206e6f60008201527f6e6578697374656e7420746f6b656e0000000000000000000000000000000000602082015250565b6000612900602f83611dcd565b915061290b826128a4565b604082019050919050565b6000602082019050818103600083015261292f816128f3565b9050919050565b600081905092915050565b600061294c82611dc2565b6129568185612936565b9350612966818560208601611dde565b80840191505092915050565b600061297e8285612941565b915061298a8284612941565b91508190509392505050565b7f4552433732313a206f70657261746f7220717565727920666f72206e6f6e657860008201527f697374656e7420746f6b656e0000000000000000000000000000000000000000602082015250565b60006129f2602c83611dcd565b91506129fd82612996565b604082019050919050565b60006020820190508181036000830152612a21816129e5565b9050919050565b7f4552433732313a207472616e736665722066726f6d20696e636f72726563742060008201527f6f776e6572000000000000000000000000000000000000000000000000000000602082015250565b6000612a84602583611dcd565b9150612a8f82612a28565b604082019050919050565b60006020820190508181036000830152612ab381612a77565b9050919050565b7f4552433732313a207472616e7366657220746f20746865207a65726f2061646460008201527f7265737300000000000000000000000000000000000000000000000000000000602082015250565b6000612b16602483611dcd565b9150612b2182612aba565b604082019050919050565b60006020820190508181036000830152612b4581612b09565b9050919050565b6000612b5782611e7d565b9150612b6283611e7d565b925082821015612b7557612b746125f1565b5b828203905092915050565b7f4552433732313a20617070726f766520746f2063616c6c657200000000000000600082015250565b6000612bb6601983611dcd565b9150612bc182612b80565b602082019050919050565b60006020820190508181036000830152612be581612ba9565b9050919050565b7f4552433732313a207472616e7366657220746f206e6f6e20455243373231526560008201527f63656976657220696d706c656d656e7465720000000000000000000000000000602082015250565b6000612c48603283611dcd565b9150612c5382612bec565b604082019050919050565b60006020820190508181036000830152612c7781612c3b565b9050919050565b7f4e487b7100000000000000000000000000000000000000000000000000000000600052601260045260246000fd5b6000612cb882611e7d565b9150612cc383611e7d565b925082612cd357612cd2612c7e565b5b828204905092915050565b6000612ce982611e7d565b9150612cf483611e7d565b925082612d0457612d03612c7e565b5b828206905092915050565b600081519050919050565b600082825260208201905092915050565b6000612d3682612d0f565b612d408185612d1a565b9350612d50818560208601611dde565b612d5981611e11565b840191505092915050565b6000608082019050612d796000830187611f12565b612d866020830186611f12565b612d936040830185611fa8565b8181036060830152612da58184612d2b565b905095945050505050565b600081519050612dbf81611d33565b92915050565b600060208284031215612ddb57612dda611cfd565b5b6000612de984828501612db0565b91505092915050565b7f4e487b7100000000000000000000000000000000000000000000000000000000600052603160045260246000fd5b7f4552433732313a206d696e7420746f20746865207a65726f2061646472657373600082015250565b6000612e57602083611dcd565b9150612e6282612e21565b602082019050919050565b60006020820190508181036000830152612e8681612e4a565b9050919050565b7f4552433732313a20746f6b656e20616c7265616479206d696e74656400000000600082015250565b6000612ec3601c83611dcd565b9150612ece82612e8d565b602082019050919050565b60006020820190508181036000830152612ef281612eb6565b905091905056fea264697066735822122060dd2d80957eccd2e6935428f79904d6c9c60954cfd9a832cd70ee7758caf55664736f6c634300080b0033",
  "immutableReferences": {},
  "source": "pragma solidity >=0.8;\n\nimport \"../node_modules/@openzeppelin/contracts/token/ERC721/extensions/ERC721Enumerable.sol\";\n\ncontract CrossNft is ERC721Enumerable {\n    constructor() ERC721(\"CrossNft\", \"CN\") {}\n\n    function mint(address _beneficiary, uint256 _quantity) external {\n        uint256 currentSupply = totalSupply();\n        for (uint256 i = 0; i < _quantity; i++) {\n            _safeMint(_beneficiary, currentSupply + i);\n        }\n    }\n}\n",
  "sourcePath": "/root/bc_connector/crosscoin/contracts/CrossNft.sol",
  "compiler": {
    "name": "solc",
    "version": "0.8.11+commit.d7f03943.Emscripten.clang"
  },
  "schemaVersion": "3.4.7",
  "updatedAt": "2022-06-07T16:30:52.862Z",
  "networkType": "ethereum",
  "devdoc": {
    "kind": "dev",
    "methods": {
      "approve(address,uint256)": {
        "details": "See {IERC721-approve}."
      },
      "balanceOf(address)": {
        "details": "See {IERC721-balanceOf}."
      },
      "getApproved(uint256)": {
        "details": "See {IERC721-getApproved}."
      },
      "isApprovedForAll(address,address)": {
        "details": "See {IERC721-isApprovedForAll}."
      },
      "name()": {
        "details": "See {IERC721Metadata-name}."
      },
      "ownerOf(uint256)": {
        "details": "See {IERC721-ownerOf}."
      },
      "safeTransferFrom(address,address,uint256)": {
        "details": "See {IERC721-safeTransferFrom}."
      },
      "safeTransferFrom(address,address,uint256,bytes)": {
        "details": "See {IERC721-safeTransferFrom}."
      },
      "setApprovalForAll(address,bool)": {
        "details": "See {IERC721-setApprovalForAll}."
      },
      "supportsInterface(bytes4)": {
        "details": "See {IERC165-supportsInterface}."
      },
      "symbol()": {
        "details": "See {IERC721Metadata-symbol}."
      },
      "tokenByIndex(uint256)": {
        "details": "See {IERC721Enumerable-tokenByIndex}."
      },
      "tokenOfOwnerByIndex(address,uint256)": {
        "details": "See {IERC721Enumerable-tokenOfOwnerByIndex}."
      },
      "tokenURI(uint256)": {
        "details": "See {IERC721Metadata-tokenURI}."
      },
      "totalSupply()": {
        "details": "See {IERC721Enumerable-totalSupply}."
      },
      "transferFrom(address,address,uint256)": {
        "details": "See {IERC721-transferFrom}."
      }
    },
    "version": 1
  },
  "userdoc": {
    "kind": "user",
    "methods": {},
    "version": 1
  }
}