{
  "contractName": "ERC721MinterBurnerPauser",
  "abi": [
    {
      "inputs": [
        {
          "internalType": "string",
          "name": "name",
          "type": "string"
        },
        {
          "internalType": "string",
          "name": "symbol",
          "type": "string"
        },
        {
          "internalType": "string",
          "name": "baseURI",
          "type": "string"
        }
      ],
      "stateMutability": "nonpayable",
      "type": "constructor"
    },
    {
      "anonymous": false,
      "inputs": [
        {
          "indexed": true,
          "internalType": "address",
          "name": "owner",
          "type": "address"
        },
        {
          "indexed": true,
          "internalType": "address",
          "name": "approved",
          "type": "address"
        },
        {
          "indexed": true,
          "internalType": "uint256",
          "name": "tokenId",
          "type": "uint256"
        }
      ],
      "name": "Approval",
      "type": "event"
    },
    {
      "anonymous": false,
      "inputs": [
        {
          "indexed": true,
          "internalType": "address",
          "name": "owner",
          "type": "address"
        },
        {
          "indexed": true,
          "internalType": "address",
          "name": "operator",
          "type": "address"
        },
        {
          "indexed": false,
          "internalType": "bool",
          "name": "approved",
          "type": "bool"
        }
      ],
      "name": "ApprovalForAll",
      "type": "event"
    },
    {
      "anonymous": false,
      "inputs": [
        {
          "indexed": false,
          "internalType": "address",
          "name": "account",
          "type": "address"
        }
      ],
      "name": "Paused",
      "type": "event"
    },
    {
      "anonymous": false,
      "inputs": [
        {
          "indexed": true,
          "internalType": "bytes32",
          "name": "role",
          "type": "bytes32"
        },
        {
          "indexed": true,
          "internalType": "address",
          "name": "account",
          "type": "address"
        },
        {
          "indexed": true,
          "internalType": "address",
          "name": "sender",
          "type": "address"
        }
      ],
      "name": "RoleGranted",
      "type": "event"
    },
    {
      "anonymous": false,
      "inputs": [
        {
          "indexed": true,
          "internalType": "bytes32",
          "name": "role",
          "type": "bytes32"
        },
        {
          "indexed": true,
          "internalType": "address",
          "name": "account",
          "type": "address"
        },
        {
          "indexed": true,
          "internalType": "address",
          "name": "sender",
          "type": "address"
        }
      ],
      "name": "RoleRevoked",
      "type": "event"
    },
    {
      "anonymous": false,
      "inputs": [
        {
          "indexed": true,
          "internalType": "address",
          "name": "from",
          "type": "address"
        },
        {
          "indexed": true,
          "internalType": "address",
          "name": "to",
          "type": "address"
        },
        {
          "indexed": true,
          "internalType": "uint256",
          "name": "tokenId",
          "type": "uint256"
        }
      ],
      "name": "Transfer",
      "type": "event"
    },
    {
      "anonymous": false,
      "inputs": [
        {
          "indexed": false,
          "internalType": "address",
          "name": "account",
          "type": "address"
        }
      ],
      "name": "Unpaused",
      "type": "event"
    },
    {
      "inputs": [],
      "name": "DEFAULT_ADMIN_ROLE",
      "outputs": [
        {
          "internalType": "bytes32",
          "name": "",
          "type": "bytes32"
        }
      ],
      "stateMutability": "view",
      "type": "function"
    },
    {
      "inputs": [],
      "name": "MINTER_ROLE",
      "outputs": [
        {
          "internalType": "bytes32",
          "name": "",
          "type": "bytes32"
        }
      ],
      "stateMutability": "view",
      "type": "function"
    },
    {
      "inputs": [],
      "name": "PAUSER_ROLE",
      "outputs": [
        {
          "internalType": "bytes32",
          "name": "",
          "type": "bytes32"
        }
      ],
      "stateMutability": "view",
      "type": "function"
    },
    {
      "inputs": [
        {
          "internalType": "address",
          "name": "to",
          "type": "address"
        },
        {
          "internalType": "uint256",
          "name": "tokenId",
          "type": "uint256"
        }
      ],
      "name": "approve",
      "outputs": [],
      "stateMutability": "nonpayable",
      "type": "function"
    },
    {
      "inputs": [
        {
          "internalType": "address",
          "name": "owner",
          "type": "address"
        }
      ],
      "name": "balanceOf",
      "outputs": [
        {
          "internalType": "uint256",
          "name": "",
          "type": "uint256"
        }
      ],
      "stateMutability": "view",
      "type": "function"
    },
    {
      "inputs": [],
      "name": "baseURI",
      "outputs": [
        {
          "internalType": "string",
          "name": "",
          "type": "string"
        }
      ],
      "stateMutability": "view",
      "type": "function"
    },
    {
      "inputs": [
        {
          "internalType": "uint256",
          "name": "tokenId",
          "type": "uint256"
        }
      ],
      "name": "burn",
      "outputs": [],
      "stateMutability": "nonpayable",
      "type": "function"
    },
    {
      "inputs": [
        {
          "internalType": "uint256",
          "name": "tokenId",
          "type": "uint256"
        }
      ],
      "name": "getApproved",
      "outputs": [
        {
          "internalType": "address",
          "name": "",
          "type": "address"
        }
      ],
      "stateMutability": "view",
      "type": "function"
    },
    {
      "inputs": [
        {
          "internalType": "bytes32",
          "name": "role",
          "type": "bytes32"
        }
      ],
      "name": "getRoleAdmin",
      "outputs": [
        {
          "internalType": "bytes32",
          "name": "",
          "type": "bytes32"
        }
      ],
      "stateMutability": "view",
      "type": "function"
    },
    {
      "inputs": [
        {
          "internalType": "bytes32",
          "name": "role",
          "type": "bytes32"
        },
        {
          "internalType": "uint256",
          "name": "index",
          "type": "uint256"
        }
      ],
      "name": "getRoleMember",
      "outputs": [
        {
          "internalType": "address",
          "name": "",
          "type": "address"
        }
      ],
      "stateMutability": "view",
      "type": "function"
    },
    {
      "inputs": [
        {
          "internalType": "bytes32",
          "name": "role",
          "type": "bytes32"
        }
      ],
      "name": "getRoleMemberCount",
      "outputs": [
        {
          "internalType": "uint256",
          "name": "",
          "type": "uint256"
        }
      ],
      "stateMutability": "view",
      "type": "function"
    },
    {
      "inputs": [
        {
          "internalType": "bytes32",
          "name": "role",
          "type": "bytes32"
        },
        {
          "internalType": "address",
          "name": "account",
          "type": "address"
        }
      ],
      "name": "getRoleMemberIndex",
      "outputs": [
        {
          "internalType": "uint256",
          "name": "",
          "type": "uint256"
        }
      ],
      "stateMutability": "view",
      "type": "function"
    },
    {
      "inputs": [
        {
          "internalType": "bytes32",
          "name": "role",
          "type": "bytes32"
        },
        {
          "internalType": "address",
          "name": "account",
          "type": "address"
        }
      ],
      "name": "grantRole",
      "outputs": [],
      "stateMutability": "nonpayable",
      "type": "function"
    },
    {
      "inputs": [
        {
          "internalType": "bytes32",
          "name": "role",
          "type": "bytes32"
        },
        {
          "internalType": "address",
          "name": "account",
          "type": "address"
        }
      ],
      "name": "hasRole",
      "outputs": [
        {
          "internalType": "bool",
          "name": "",
          "type": "bool"
        }
      ],
      "stateMutability": "view",
      "type": "function"
    },
    {
      "inputs": [
        {
          "internalType": "address",
          "name": "owner",
          "type": "address"
        },
        {
          "internalType": "address",
          "name": "operator",
          "type": "address"
        }
      ],
      "name": "isApprovedForAll",
      "outputs": [
        {
          "internalType": "bool",
          "name": "",
          "type": "bool"
        }
      ],
      "stateMutability": "view",
      "type": "function"
    },
    {
      "inputs": [],
      "name": "name",
      "outputs": [
        {
          "internalType": "string",
          "name": "",
          "type": "string"
        }
      ],
      "stateMutability": "view",
      "type": "function"
    },
    {
      "inputs": [
        {
          "internalType": "uint256",
          "name": "tokenId",
          "type": "uint256"
        }
      ],
      "name": "ownerOf",
      "outputs": [
        {
          "internalType": "address",
          "name": "",
          "type": "address"
        }
      ],
      "stateMutability": "view",
      "type": "function"
    },
    {
      "inputs": [],
      "name": "paused",
      "outputs": [
        {
          "internalType": "bool",
          "name": "",
          "type": "bool"
        }
      ],
      "stateMutability": "view",
      "type": "function"
    },
    {
      "inputs": [
        {
          "internalType": "bytes32",
          "name": "role",
          "type": "bytes32"
        },
        {
          "internalType": "address",
          "name": "account",
          "type": "address"
        }
      ],
      "name": "renounceRole",
      "outputs": [],
      "stateMutability": "nonpayable",
      "type": "function"
    },
    {
      "inputs": [
        {
          "internalType": "bytes32",
          "name": "role",
          "type": "bytes32"
        },
        {
          "internalType": "address",
          "name": "account",
          "type": "address"
        }
      ],
      "name": "revokeRole",
      "outputs": [],
      "stateMutability": "nonpayable",
      "type": "function"
    },
    {
      "inputs": [
        {
          "internalType": "address",
          "name": "from",
          "type": "address"
        },
        {
          "internalType": "address",
          "name": "to",
          "type": "address"
        },
        {
          "internalType": "uint256",
          "name": "tokenId",
          "type": "uint256"
        }
      ],
      "name": "safeTransferFrom",
      "outputs": [],
      "stateMutability": "nonpayable",
      "type": "function"
    },
    {
      "inputs": [
        {
          "internalType": "address",
          "name": "from",
          "type": "address"
        },
        {
          "internalType": "address",
          "name": "to",
          "type": "address"
        },
        {
          "internalType": "uint256",
          "name": "tokenId",
          "type": "uint256"
        },
        {
          "internalType": "bytes",
          "name": "_data",
          "type": "bytes"
        }
      ],
      "name": "safeTransferFrom",
      "outputs": [],
      "stateMutability": "nonpayable",
      "type": "function"
    },
    {
      "inputs": [
        {
          "internalType": "address",
          "name": "operator",
          "type": "address"
        },
        {
          "internalType": "bool",
          "name": "approved",
          "type": "bool"
        }
      ],
      "name": "setApprovalForAll",
      "outputs": [],
      "stateMutability": "nonpayable",
      "type": "function"
    },
    {
      "inputs": [
        {
          "internalType": "bytes4",
          "name": "interfaceId",
          "type": "bytes4"
        }
      ],
      "name": "supportsInterface",
      "outputs": [
        {
          "internalType": "bool",
          "name": "",
          "type": "bool"
        }
      ],
      "stateMutability": "view",
      "type": "function"
    },
    {
      "inputs": [],
      "name": "symbol",
      "outputs": [
        {
          "internalType": "string",
          "name": "",
          "type": "string"
        }
      ],
      "stateMutability": "view",
      "type": "function"
    },
    {
      "inputs": [
        {
          "internalType": "address",
          "name": "from",
          "type": "address"
        },
        {
          "internalType": "address",
          "name": "to",
          "type": "address"
        },
        {
          "internalType": "uint256",
          "name": "tokenId",
          "type": "uint256"
        }
      ],
      "name": "transferFrom",
      "outputs": [],
      "stateMutability": "nonpayable",
      "type": "function"
    },
    {
      "inputs": [
        {
          "internalType": "address",
          "name": "to",
          "type": "address"
        },
        {
          "internalType": "uint256",
          "name": "tokenId",
          "type": "uint256"
        },
        {
          "internalType": "string",
          "name": "_data",
          "type": "string"
        }
      ],
      "name": "mint",
      "outputs": [],
      "stateMutability": "nonpayable",
      "type": "function"
    },
    {
      "inputs": [],
      "name": "pause",
      "outputs": [],
      "stateMutability": "nonpayable",
      "type": "function"
    },
    {
      "inputs": [],
      "name": "unpause",
      "outputs": [],
      "stateMutability": "nonpayable",
      "type": "function"
    },
    {
      "inputs": [
        {
          "internalType": "uint256",
          "name": "tokenId",
          "type": "uint256"
        }
      ],
      "name": "tokenURI",
      "outputs": [
        {
          "internalType": "string",
          "name": "",
          "type": "string"
        }
      ],
      "stateMutability": "view",
      "type": "function"
    }
  ],
  "bytecode": "0x60806040523480156200001157600080fd5b506040516200486338038062004863833981810160405281019062000037919062000547565b8282816001908051906020019062000051929190620002fa565b5080600290805190602001906200006a929190620002fa565b5050506000600760006101000a81548160ff021916908315150217905550620000ac6000801b620000a06200014860201b60201c565b6200015060201b60201c565b620000ed7f9f2df0fed2c77648de5860a4cc508cd0818c85b8b8a1ab4ceeef8d981c8956a6620000e16200014860201b60201c565b6200015060201b60201c565b6200012e7f65d7a28e3265b37a6474929f336521b332c1681b933f6cb9f3376673440d862a620001226200014860201b60201c565b6200015060201b60201c565b6200013f816200016660201b60201c565b50505062000665565b600033905090565b6200016282826200018260201b60201c565b5050565b80600990805190602001906200017e929190620002fa565b5050565b620001b0816000808581526020019081526020016000206000016200022560201b620011c51790919060201c565b156200022157620001c66200014860201b60201c565b73ffffffffffffffffffffffffffffffffffffffff168173ffffffffffffffffffffffffffffffffffffffff16837f2f8788117e7eff1d82e926ec794901d17c78024a50270940304540a733656f0d60405160405180910390a45b5050565b600062000255836000018373ffffffffffffffffffffffffffffffffffffffff1660001b6200025d60201b60201c565b905092915050565b6000620002718383620002d760201b60201c565b620002cc578260000182908060018154018082558091505060019003906000526020600020016000909190919091505582600001805490508360010160008481526020019081526020016000208190555060019050620002d1565b600090505b92915050565b600080836001016000848152602001908152602001600020541415905092915050565b82805462000308906200062f565b90600052602060002090601f0160209004810192826200032c576000855562000378565b82601f106200034757805160ff191683800117855562000378565b8280016001018555821562000378579182015b82811115620003775782518255916020019190600101906200035a565b5b5090506200038791906200038b565b5090565b5b80821115620003a65760008160009055506001016200038c565b5090565b6000604051905090565b600080fd5b600080fd5b600080fd5b600080fd5b6000601f19601f8301169050919050565b7f4e487b7100000000000000000000000000000000000000000000000000000000600052604160045260246000fd5b6200041382620003c8565b810181811067ffffffffffffffff82111715620004355762000434620003d9565b5b80604052505050565b60006200044a620003aa565b905062000458828262000408565b919050565b600067ffffffffffffffff8211156200047b576200047a620003d9565b5b6200048682620003c8565b9050602081019050919050565b60005b83811015620004b357808201518184015260208101905062000496565b83811115620004c3576000848401525b50505050565b6000620004e0620004da846200045d565b6200043e565b905082815260208101848484011115620004ff57620004fe620003c3565b5b6200050c84828562000493565b509392505050565b600082601f8301126200052c576200052b620003be565b5b81516200053e848260208601620004c9565b91505092915050565b600080600060608486031215620005635762000562620003b4565b5b600084015167ffffffffffffffff811115620005845762000583620003b9565b5b620005928682870162000514565b935050602084015167ffffffffffffffff811115620005b657620005b5620003b9565b5b620005c48682870162000514565b925050604084015167ffffffffffffffff811115620005e857620005e7620003b9565b5b620005f68682870162000514565b9150509250925092565b7f4e487b7100000000000000000000000000000000000000000000000000000000600052602260045260246000fd5b600060028204905060018216806200064857607f821691505b602082108114156200065f576200065e62000600565b5b50919050565b6141ee80620006756000396000f3fe608060405234801561001057600080fd5b50600436106101da5760003560e01c806370a0823111610104578063b88d4fde116100a2578063d539139311610071578063d539139314610565578063d547741f14610583578063e63ab1e91461059f578063e985e9c5146105bd576101da565b8063b88d4fde146104cd578063c87b56dd146104e9578063ca15c87314610519578063d3fc986414610549576101da565b806391d14854116100de57806391d148541461044557806395d89b4114610475578063a217fddf14610493578063a22cb465146104b1576101da565b806370a08231146103db5780638456cb591461040b5780639010d07c14610415576101da565b806336568abe1161017c5780634e0df3f61161014b5780634e0df3f61461033f5780635c975abb1461036f5780636352211e1461038d5780636c0360eb146103bd576101da565b806336568abe146102e15780633f4ba83a146102fd57806342842e0e1461030757806342966c6814610323576101da565b8063095ea7b3116101b8578063095ea7b31461025d57806323b872dd14610279578063248a9ca3146102955780632f2ff15d146102c5576101da565b806301ffc9a7146101df57806306fdde031461020f578063081812fc1461022d575b600080fd5b6101f960048036038101906101f49190612899565b6105ed565b60405161020691906128e1565b60405180910390f35b6102176106cf565b6040516102249190612995565b60405180910390f35b610247600480360381019061024291906129ed565b610761565b6040516102549190612a5b565b60405180910390f35b61027760048036038101906102729190612aa2565b6107e6565b005b610293600480360381019061028e9190612ae2565b6108fe565b005b6102af60048036038101906102aa9190612b6b565b61095e565b6040516102bc9190612ba7565b60405180910390f35b6102df60048036038101906102da9190612bc2565b61097d565b005b6102fb60048036038101906102f69190612bc2565b6109f0565b005b610305610a73565b005b610321600480360381019061031c9190612ae2565b610aed565b005b61033d600480360381019061033891906129ed565b610b0d565b005b61035960048036038101906103549190612bc2565b610b69565b6040516103669190612c11565b60405180910390f35b610377610bb9565b60405161038491906128e1565b60405180910390f35b6103a760048036038101906103a291906129ed565b610bd0565b6040516103b49190612a5b565b60405180910390f35b6103c5610c82565b6040516103d29190612995565b60405180910390f35b6103f560048036038101906103f09190612c2c565b610d10565b6040516104029190612c11565b60405180910390f35b610413610dc8565b005b61042f600480360381019061042a9190612c59565b610e42565b60405161043c9190612a5b565b60405180910390f35b61045f600480360381019061045a9190612bc2565b610e73565b60405161046c91906128e1565b60405180910390f35b61047d610ea4565b60405161048a9190612995565b60405180910390f35b61049b610f36565b6040516104a89190612ba7565b60405180910390f35b6104cb60048036038101906104c69190612cc5565b610f3d565b005b6104e760048036038101906104e29190612e3a565b610f53565b005b61050360048036038101906104fe91906129ed565b610fb5565b6040516105109190612995565b60405180910390f35b610533600480360381019061052e9190612b6b565b610fc7565b6040516105409190612c11565b60405180910390f35b610563600480360381019061055e9190612f5e565b610fed565b005b61056d611076565b60405161057a9190612ba7565b60405180910390f35b61059d60048036038101906105989190612bc2565b61109a565b005b6105a761110d565b6040516105b49190612ba7565b60405180910390f35b6105d760048036038101906105d29190612fcd565b611131565b6040516105e491906128e1565b60405180910390f35b60007f80ac58cd000000000000000000000000000000000000000000000000000000007bffffffffffffffffffffffffffffffffffffffffffffffffffffffff1916827bffffffffffffffffffffffffffffffffffffffffffffffffffffffff191614806106b857507f5b5e139f000000000000000000000000000000000000000000000000000000007bffffffffffffffffffffffffffffffffffffffffffffffffffffffff1916827bffffffffffffffffffffffffffffffffffffffffffffffffffffffff1916145b806106c857506106c7826111f5565b5b9050919050565b6060600180546106de9061303c565b80601f016020809104026020016040519081016040528092919081815260200182805461070a9061303c565b80156107575780601f1061072c57610100808354040283529160200191610757565b820191906000526020600020905b81548152906001019060200180831161073a57829003601f168201915b5050505050905090565b600061076c8261125f565b6107ab576040517f08c379a00000000000000000000000000000000000000000000000000000000081526004016107a2906130e0565b60405180910390fd5b6005600083815260200190815260200160002060009054906101000a900473ffffffffffffffffffffffffffffffffffffffff169050919050565b60006107f182610bd0565b90508073ffffffffffffffffffffffffffffffffffffffff168373ffffffffffffffffffffffffffffffffffffffff161415610862576040517f08c379a000000000000000000000000000000000000000000000000000000000815260040161085990613172565b60405180910390fd5b8073ffffffffffffffffffffffffffffffffffffffff166108816112cb565b73ffffffffffffffffffffffffffffffffffffffff1614806108b057506108af816108aa6112cb565b611131565b5b6108ef576040517f08c379a00000000000000000000000000000000000000000000000000000000081526004016108e690613204565b60405180910390fd5b6108f983836112d3565b505050565b61090f6109096112cb565b8261138c565b61094e576040517f08c379a000000000000000000000000000000000000000000000000000000000815260040161094590613296565b60405180910390fd5b61095983838361146a565b505050565b6000806000838152602001908152602001600020600201549050919050565b6109a36000808481526020019081526020016000206002015461099e6112cb565b610e73565b6109e2576040517f08c379a00000000000000000000000000000000000000000000000000000000081526004016109d990613328565b60405180910390fd5b6109ec82826116d1565b5050565b6109f86112cb565b73ffffffffffffffffffffffffffffffffffffffff168173ffffffffffffffffffffffffffffffffffffffff1614610a65576040517f08c379a0000000000000000000000000000000000000000000000000000000008152600401610a5c906133ba565b60405180910390fd5b610a6f8282611764565b5050565b610aa47f65d7a28e3265b37a6474929f336521b332c1681b933f6cb9f3376673440d862a610a9f6112cb565b610e73565b610ae3576040517f08c379a0000000000000000000000000000000000000000000000000000000008152600401610ada9061344c565b60405180910390fd5b610aeb6117f7565b565b610b0883838360405180602001604052806000815250610f53565b505050565b610b1e610b186112cb565b8261138c565b610b5d576040517f08c379a0000000000000000000000000000000000000000000000000000000008152600401610b54906134de565b60405180910390fd5b610b6681611899565b50565b600080600084815260200190815260200160002060000160000160010160008373ffffffffffffffffffffffffffffffffffffffff1660001b815260200190815260200160002054905092915050565b6000600760009054906101000a900460ff16905090565b6000806003600084815260200190815260200160002060009054906101000a900473ffffffffffffffffffffffffffffffffffffffff169050600073ffffffffffffffffffffffffffffffffffffffff168173ffffffffffffffffffffffffffffffffffffffff161415610c79576040517f08c379a0000000000000000000000000000000000000000000000000000000008152600401610c7090613570565b60405180910390fd5b80915050919050565b60098054610c8f9061303c565b80601f0160208091040260200160405190810160405280929190818152602001828054610cbb9061303c565b8015610d085780601f10610cdd57610100808354040283529160200191610d08565b820191906000526020600020905b815481529060010190602001808311610ceb57829003601f168201915b505050505081565b60008073ffffffffffffffffffffffffffffffffffffffff168273ffffffffffffffffffffffffffffffffffffffff161415610d81576040517f08c379a0000000000000000000000000000000000000000000000000000000008152600401610d7890613602565b60405180910390fd5b600460008373ffffffffffffffffffffffffffffffffffffffff1673ffffffffffffffffffffffffffffffffffffffff168152602001908152602001600020549050919050565b610df97f65d7a28e3265b37a6474929f336521b332c1681b933f6cb9f3376673440d862a610df46112cb565b610e73565b610e38576040517f08c379a0000000000000000000000000000000000000000000000000000000008152600401610e2f90613694565b60405180910390fd5b610e406118a5565b565b6000610e6b8260008086815260200190815260200160002060000161194890919063ffffffff16565b905092915050565b6000610e9c8260008086815260200190815260200160002060000161196290919063ffffffff16565b905092915050565b606060028054610eb39061303c565b80601f0160208091040260200160405190810160405280929190818152602001828054610edf9061303c565b8015610f2c5780601f10610f0157610100808354040283529160200191610f2c565b820191906000526020600020905b815481529060010190602001808311610f0f57829003601f168201915b5050505050905090565b6000801b81565b610f4f610f486112cb565b8383611992565b5050565b610f64610f5e6112cb565b8361138c565b610fa3576040517f08c379a0000000000000000000000000000000000000000000000000000000008152600401610f9a90613296565b60405180910390fd5b610faf84848484611aff565b50505050565b6060610fc082611b5b565b9050919050565b6000610fe6600080848152602001908152602001600020600001611cad565b9050919050565b61101e7f9f2df0fed2c77648de5860a4cc508cd0818c85b8b8a1ab4ceeef8d981c8956a66110196112cb565b610e73565b61105d576040517f08c379a000000000000000000000000000000000000000000000000000000000815260040161105490613726565b60405180910390fd5b6110678383611cc2565b6110718282611e9c565b505050565b7f9f2df0fed2c77648de5860a4cc508cd0818c85b8b8a1ab4ceeef8d981c8956a681565b6110c0600080848152602001908152602001600020600201546110bb6112cb565b610e73565b6110ff576040517f08c379a00000000000000000000000000000000000000000000000000000000081526004016110f6906137b8565b60405180910390fd5b6111098282611764565b5050565b7f65d7a28e3265b37a6474929f336521b332c1681b933f6cb9f3376673440d862a81565b6000600660008473ffffffffffffffffffffffffffffffffffffffff1673ffffffffffffffffffffffffffffffffffffffff16815260200190815260200160002060008373ffffffffffffffffffffffffffffffffffffffff1673ffffffffffffffffffffffffffffffffffffffff16815260200190815260200160002060009054906101000a900460ff16905092915050565b60006111ed836000018373ffffffffffffffffffffffffffffffffffffffff1660001b611f10565b905092915050565b60007f01ffc9a7000000000000000000000000000000000000000000000000000000007bffffffffffffffffffffffffffffffffffffffffffffffffffffffff1916827bffffffffffffffffffffffffffffffffffffffffffffffffffffffff1916149050919050565b60008073ffffffffffffffffffffffffffffffffffffffff166003600084815260200190815260200160002060009054906101000a900473ffffffffffffffffffffffffffffffffffffffff1673ffffffffffffffffffffffffffffffffffffffff1614159050919050565b600033905090565b816005600083815260200190815260200160002060006101000a81548173ffffffffffffffffffffffffffffffffffffffff021916908373ffffffffffffffffffffffffffffffffffffffff160217905550808273ffffffffffffffffffffffffffffffffffffffff1661134683610bd0565b73ffffffffffffffffffffffffffffffffffffffff167f8c5be1e5ebec7d5bd14f71427d1e84f3dd0314c0f7b2291e5b200ac8c7c3b92560405160405180910390a45050565b60006113978261125f565b6113d6576040517f08c379a00000000000000000000000000000000000000000000000000000000081526004016113cd9061384a565b60405180910390fd5b60006113e183610bd0565b90508073ffffffffffffffffffffffffffffffffffffffff168473ffffffffffffffffffffffffffffffffffffffff16148061142357506114228185611131565b5b8061146157508373ffffffffffffffffffffffffffffffffffffffff1661144984610761565b73ffffffffffffffffffffffffffffffffffffffff16145b91505092915050565b8273ffffffffffffffffffffffffffffffffffffffff1661148a82610bd0565b73ffffffffffffffffffffffffffffffffffffffff16146114e0576040517f08c379a00000000000000000000000000000000000000000000000000000000081526004016114d7906138dc565b60405180910390fd5b600073ffffffffffffffffffffffffffffffffffffffff168273ffffffffffffffffffffffffffffffffffffffff161415611550576040517f08c379a00000000000000000000000000000000000000000000000000000000081526004016115479061396e565b60405180910390fd5b61155b838383611f80565b6115666000826112d3565b6001600460008573ffffffffffffffffffffffffffffffffffffffff1673ffffffffffffffffffffffffffffffffffffffff16815260200190815260200160002060008282546115b691906139bd565b925050819055506001600460008473ffffffffffffffffffffffffffffffffffffffff1673ffffffffffffffffffffffffffffffffffffffff168152602001908152602001600020600082825461160d91906139f1565b92505081905550816003600083815260200190815260200160002060006101000a81548173ffffffffffffffffffffffffffffffffffffffff021916908373ffffffffffffffffffffffffffffffffffffffff160217905550808273ffffffffffffffffffffffffffffffffffffffff168473ffffffffffffffffffffffffffffffffffffffff167fddf252ad1be2c89b69c2b068fc378daa952ba7f163c4a11628f55a4df523b3ef60405160405180910390a46116cc838383611f90565b505050565b6116f8816000808581526020019081526020016000206000016111c590919063ffffffff16565b15611760576117056112cb565b73ffffffffffffffffffffffffffffffffffffffff168173ffffffffffffffffffffffffffffffffffffffff16837f2f8788117e7eff1d82e926ec794901d17c78024a50270940304540a733656f0d60405160405180910390a45b5050565b61178b81600080858152602001908152602001600020600001611f9590919063ffffffff16565b156117f3576117986112cb565b73ffffffffffffffffffffffffffffffffffffffff168173ffffffffffffffffffffffffffffffffffffffff16837ff6391f5c32d9c69d2a47ea670b442974b53935d1edc7fd64eb21e047a839171b60405160405180910390a45b5050565b6117ff610bb9565b61183e576040517f08c379a000000000000000000000000000000000000000000000000000000000815260040161183590613a93565b60405180910390fd5b6000600760006101000a81548160ff0219169083151502179055507f5db9ee0a495bf2e6ff9c91a7834c1ba4fdd244a5e8aa4e537bd38aeae4b073aa6118826112cb565b60405161188f9190612a5b565b60405180910390a1565b6118a281611fc5565b50565b6118ad610bb9565b156118ed576040517f08c379a00000000000000000000000000000000000000000000000000000000081526004016118e490613aff565b60405180910390fd5b6001600760006101000a81548160ff0219169083151502179055507f62e78cea01bee320cd4e420270b5ea74000d11b0c9f74754ebdbfc544b05a2586119316112cb565b60405161193e9190612a5b565b60405180910390a1565b60006119578360000183612018565b60001c905092915050565b600061198a836000018373ffffffffffffffffffffffffffffffffffffffff1660001b612043565b905092915050565b8173ffffffffffffffffffffffffffffffffffffffff168373ffffffffffffffffffffffffffffffffffffffff161415611a01576040517f08c379a00000000000000000000000000000000000000000000000000000000081526004016119f890613b6b565b60405180910390fd5b80600660008573ffffffffffffffffffffffffffffffffffffffff1673ffffffffffffffffffffffffffffffffffffffff16815260200190815260200160002060008473ffffffffffffffffffffffffffffffffffffffff1673ffffffffffffffffffffffffffffffffffffffff16815260200190815260200160002060006101000a81548160ff0219169083151502179055508173ffffffffffffffffffffffffffffffffffffffff168373ffffffffffffffffffffffffffffffffffffffff167f17307eab39ab6107e8899845ad3d59bd9653f200f220920489ca2b5937696c3183604051611af291906128e1565b60405180910390a3505050565b611b0a84848461146a565b611b1684848484612066565b611b55576040517f08c379a0000000000000000000000000000000000000000000000000000000008152600401611b4c90613bfd565b60405180910390fd5b50505050565b6060611b668261125f565b611ba5576040517f08c379a0000000000000000000000000000000000000000000000000000000008152600401611b9c90613c8f565b60405180910390fd5b6000600860008481526020019081526020016000208054611bc59061303c565b80601f0160208091040260200160405190810160405280929190818152602001828054611bf19061303c565b8015611c3e5780601f10611c1357610100808354040283529160200191611c3e565b820191906000526020600020905b815481529060010190602001808311611c2157829003601f168201915b505050505090506000611c4f6121ee565b9050600081511415611c65578192505050611ca8565b600082511115611c9a578082604051602001611c82929190613ceb565b60405160208183030381529060405292505050611ca8565b611ca384612280565b925050505b919050565b6000611cbb82600001612327565b9050919050565b600073ffffffffffffffffffffffffffffffffffffffff168273ffffffffffffffffffffffffffffffffffffffff161415611d32576040517f08c379a0000000000000000000000000000000000000000000000000000000008152600401611d2990613d5b565b60405180910390fd5b611d3b8161125f565b15611d7b576040517f08c379a0000000000000000000000000000000000000000000000000000000008152600401611d7290613dc7565b60405180910390fd5b611d8760008383611f80565b6001600460008473ffffffffffffffffffffffffffffffffffffffff1673ffffffffffffffffffffffffffffffffffffffff1681526020019081526020016000206000828254611dd791906139f1565b92505081905550816003600083815260200190815260200160002060006101000a81548173ffffffffffffffffffffffffffffffffffffffff021916908373ffffffffffffffffffffffffffffffffffffffff160217905550808273ffffffffffffffffffffffffffffffffffffffff16600073ffffffffffffffffffffffffffffffffffffffff167fddf252ad1be2c89b69c2b068fc378daa952ba7f163c4a11628f55a4df523b3ef60405160405180910390a4611e9860008383611f90565b5050565b611ea58261125f565b611ee4576040517f08c379a0000000000000000000000000000000000000000000000000000000008152600401611edb90613e59565b60405180910390fd5b80600860008481526020019081526020016000209080519060200190611f0b92919061274a565b505050565b6000611f1c8383612043565b611f75578260000182908060018154018082558091505060019003906000526020600020016000909190919091505582600001805490508360010160008481526020019081526020016000208190555060019050611f7a565b600090505b92915050565b611f8b838383612338565b505050565b505050565b6000611fbd836000018373ffffffffffffffffffffffffffffffffffffffff1660001b612390565b905092915050565b611fce816124a4565b6000600860008381526020019081526020016000208054611fee9061303c565b9050146120155760086000828152602001908152602001600020600061201491906127d0565b5b50565b60008260000182815481106120305761202f613e79565b5b9060005260206000200154905092915050565b600080836001016000848152602001908152602001600020541415905092915050565b60006120878473ffffffffffffffffffffffffffffffffffffffff166125c1565b156121e1578373ffffffffffffffffffffffffffffffffffffffff1663150b7a026120b06112cb565b8786866040518563ffffffff1660e01b81526004016120d29493929190613efd565b6020604051808303816000875af192505050801561210e57506040513d601f19601f8201168201806040525081019061210b9190613f5e565b60015b612191573d806000811461213e576040519150601f19603f3d011682016040523d82523d6000602084013e612143565b606091505b50600081511415612189576040517f08c379a000000000000000000000000000000000000000000000000000000000815260040161218090613bfd565b60405180910390fd5b805181602001fd5b63150b7a0260e01b7bffffffffffffffffffffffffffffffffffffffffffffffffffffffff1916817bffffffffffffffffffffffffffffffffffffffffffffffffffffffff1916149150506121e6565b600190505b949350505050565b6060600980546121fd9061303c565b80601f01602080910402602001604051908101604052809291908181526020018280546122299061303c565b80156122765780601f1061224b57610100808354040283529160200191612276565b820191906000526020600020905b81548152906001019060200180831161225957829003601f168201915b5050505050905090565b606061228b8261125f565b6122ca576040517f08c379a00000000000000000000000000000000000000000000000000000000081526004016122c190613ffd565b60405180910390fd5b60006122d46121ee565b905060008151116122f4576040518060200160405280600081525061231f565b806122fe846125e4565b60405160200161230f929190613ceb565b6040516020818303038152906040525b915050919050565b600081600001805490509050919050565b612343838383612745565b61234b610bb9565b1561238b576040517f08c379a00000000000000000000000000000000000000000000000000000000081526004016123829061408f565b60405180910390fd5b505050565b600080836001016000848152602001908152602001600020549050600081146124985760006001826123c291906139bd565b90506000600186600001805490506123da91906139bd565b90508181146124495760008660000182815481106123fb576123fa613e79565b5b906000526020600020015490508087600001848154811061241f5761241e613e79565b5b90600052602060002001819055508387600101600083815260200190815260200160002081905550505b8560000180548061245d5761245c6140af565b5b60019003818190600052602060002001600090559055856001016000868152602001908152602001600020600090556001935050505061249e565b60009150505b92915050565b60006124af82610bd0565b90506124bd81600084611f80565b6124c86000836112d3565b6001600460008373ffffffffffffffffffffffffffffffffffffffff1673ffffffffffffffffffffffffffffffffffffffff168152602001908152602001600020600082825461251891906139bd565b925050819055506003600083815260200190815260200160002060006101000a81549073ffffffffffffffffffffffffffffffffffffffff021916905581600073ffffffffffffffffffffffffffffffffffffffff168273ffffffffffffffffffffffffffffffffffffffff167fddf252ad1be2c89b69c2b068fc378daa952ba7f163c4a11628f55a4df523b3ef60405160405180910390a46125bd81600084611f90565b5050565b6000808273ffffffffffffffffffffffffffffffffffffffff163b119050919050565b6060600082141561262c576040518060400160405280600181526020017f30000000000000000000000000000000000000000000000000000000000000008152509050612740565b600082905060005b6000821461265e578080612647906140de565b915050600a826126579190614156565b9150612634565b60008167ffffffffffffffff81111561267a57612679612d0f565b5b6040519080825280601f01601f1916602001820160405280156126ac5781602001600182028036833780820191505090505b5090505b60008514612739576001826126c591906139bd565b9150600a856126d49190614187565b60306126e091906139f1565b60f81b8183815181106126f6576126f5613e79565b5b60200101907effffffffffffffffffffffffffffffffffffffffffffffffffffffffffffff1916908160001a905350600a856127329190614156565b94506126b0565b8093505050505b919050565b505050565b8280546127569061303c565b90600052602060002090601f01602090048101928261277857600085556127bf565b82601f1061279157805160ff19168380011785556127bf565b828001600101855582156127bf579182015b828111156127be5782518255916020019190600101906127a3565b5b5090506127cc9190612810565b5090565b5080546127dc9061303c565b6000825580601f106127ee575061280d565b601f01602090049060005260206000209081019061280c9190612810565b5b50565b5b80821115612829576000816000905550600101612811565b5090565b6000604051905090565b600080fd5b600080fd5b60007fffffffff0000000000000000000000000000000000000000000000000000000082169050919050565b61287681612841565b811461288157600080fd5b50565b6000813590506128938161286d565b92915050565b6000602082840312156128af576128ae612837565b5b60006128bd84828501612884565b91505092915050565b60008115159050919050565b6128db816128c6565b82525050565b60006020820190506128f660008301846128d2565b92915050565b600081519050919050565b600082825260208201905092915050565b60005b8381101561293657808201518184015260208101905061291b565b83811115612945576000848401525b50505050565b6000601f19601f8301169050919050565b6000612967826128fc565b6129718185612907565b9350612981818560208601612918565b61298a8161294b565b840191505092915050565b600060208201905081810360008301526129af818461295c565b905092915050565b6000819050919050565b6129ca816129b7565b81146129d557600080fd5b50565b6000813590506129e7816129c1565b92915050565b600060208284031215612a0357612a02612837565b5b6000612a11848285016129d8565b91505092915050565b600073ffffffffffffffffffffffffffffffffffffffff82169050919050565b6000612a4582612a1a565b9050919050565b612a5581612a3a565b82525050565b6000602082019050612a706000830184612a4c565b92915050565b612a7f81612a3a565b8114612a8a57600080fd5b50565b600081359050612a9c81612a76565b92915050565b60008060408385031215612ab957612ab8612837565b5b6000612ac785828601612a8d565b9250506020612ad8858286016129d8565b9150509250929050565b600080600060608486031215612afb57612afa612837565b5b6000612b0986828701612a8d565b9350506020612b1a86828701612a8d565b9250506040612b2b868287016129d8565b9150509250925092565b6000819050919050565b612b4881612b35565b8114612b5357600080fd5b50565b600081359050612b6581612b3f565b92915050565b600060208284031215612b8157612b80612837565b5b6000612b8f84828501612b56565b91505092915050565b612ba181612b35565b82525050565b6000602082019050612bbc6000830184612b98565b92915050565b60008060408385031215612bd957612bd8612837565b5b6000612be785828601612b56565b9250506020612bf885828601612a8d565b9150509250929050565b612c0b816129b7565b82525050565b6000602082019050612c266000830184612c02565b92915050565b600060208284031215612c4257612c41612837565b5b6000612c5084828501612a8d565b91505092915050565b60008060408385031215612c7057612c6f612837565b5b6000612c7e85828601612b56565b9250506020612c8f858286016129d8565b9150509250929050565b612ca2816128c6565b8114612cad57600080fd5b50565b600081359050612cbf81612c99565b92915050565b60008060408385031215612cdc57612cdb612837565b5b6000612cea85828601612a8d565b9250506020612cfb85828601612cb0565b9150509250929050565b600080fd5b600080fd5b7f4e487b7100000000000000000000000000000000000000000000000000000000600052604160045260246000fd5b612d478261294b565b810181811067ffffffffffffffff82111715612d6657612d65612d0f565b5b80604052505050565b6000612d7961282d565b9050612d858282612d3e565b919050565b600067ffffffffffffffff821115612da557612da4612d0f565b5b612dae8261294b565b9050602081019050919050565b82818337600083830152505050565b6000612ddd612dd884612d8a565b612d6f565b905082815260208101848484011115612df957612df8612d0a565b5b612e04848285612dbb565b509392505050565b600082601f830112612e2157612e20612d05565b5b8135612e31848260208601612dca565b91505092915050565b60008060008060808587031215612e5457612e53612837565b5b6000612e6287828801612a8d565b9450506020612e7387828801612a8d565b9350506040612e84878288016129d8565b925050606085013567ffffffffffffffff811115612ea557612ea461283c565b5b612eb187828801612e0c565b91505092959194509250565b600067ffffffffffffffff821115612ed857612ed7612d0f565b5b612ee18261294b565b9050602081019050919050565b6000612f01612efc84612ebd565b612d6f565b905082815260208101848484011115612f1d57612f1c612d0a565b5b612f28848285612dbb565b509392505050565b600082601f830112612f4557612f44612d05565b5b8135612f55848260208601612eee565b91505092915050565b600080600060608486031215612f7757612f76612837565b5b6000612f8586828701612a8d565b9350506020612f96868287016129d8565b925050604084013567ffffffffffffffff811115612fb757612fb661283c565b5b612fc386828701612f30565b9150509250925092565b60008060408385031215612fe457612fe3612837565b5b6000612ff285828601612a8d565b925050602061300385828601612a8d565b9150509250929050565b7f4e487b7100000000000000000000000000000000000000000000000000000000600052602260045260246000fd5b6000600282049050600182168061305457607f821691505b602082108114156130685761306761300d565b5b50919050565b7f4552433732313a20617070726f76656420717565727920666f72206e6f6e657860008201527f697374656e7420746f6b656e0000000000000000000000000000000000000000602082015250565b60006130ca602c83612907565b91506130d58261306e565b604082019050919050565b600060208201905081810360008301526130f9816130bd565b9050919050565b7f4552433732313a20617070726f76616c20746f2063757272656e74206f776e6560008201527f7200000000000000000000000000000000000000000000000000000000000000602082015250565b600061315c602183612907565b915061316782613100565b604082019050919050565b6000602082019050818103600083015261318b8161314f565b9050919050565b7f4552433732313a20617070726f76652063616c6c6572206973206e6f74206f7760008201527f6e6572206e6f7220617070726f76656420666f7220616c6c0000000000000000602082015250565b60006131ee603883612907565b91506131f982613192565b604082019050919050565b6000602082019050818103600083015261321d816131e1565b9050919050565b7f4552433732313a207472616e736665722063616c6c6572206973206e6f74206f60008201527f776e6572206e6f7220617070726f766564000000000000000000000000000000602082015250565b6000613280603183612907565b915061328b82613224565b604082019050919050565b600060208201905081810360008301526132af81613273565b9050919050565b7f416363657373436f6e74726f6c3a2073656e646572206d75737420626520616e60008201527f2061646d696e20746f206772616e740000000000000000000000000000000000602082015250565b6000613312602f83612907565b915061331d826132b6565b604082019050919050565b6000602082019050818103600083015261334181613305565b9050919050565b7f416363657373436f6e74726f6c3a2063616e206f6e6c792072656e6f756e636560008201527f20726f6c657320666f722073656c660000000000000000000000000000000000602082015250565b60006133a4602f83612907565b91506133af82613348565b604082019050919050565b600060208201905081810360008301526133d381613397565b9050919050565b7f4552433732314d696e7465724275726e65725061757365723a206d757374206860008201527f6176652070617573657220726f6c6520746f20756e7061757365000000000000602082015250565b6000613436603a83612907565b9150613441826133da565b604082019050919050565b6000602082019050818103600083015261346581613429565b9050919050565b7f4552433732314275726e61626c653a2063616c6c6572206973206e6f74206f7760008201527f6e6572206e6f7220617070726f76656400000000000000000000000000000000602082015250565b60006134c8603083612907565b91506134d38261346c565b604082019050919050565b600060208201905081810360008301526134f7816134bb565b9050919050565b7f4552433732313a206f776e657220717565727920666f72206e6f6e657869737460008201527f656e7420746f6b656e0000000000000000000000000000000000000000000000602082015250565b600061355a602983612907565b9150613565826134fe565b604082019050919050565b600060208201905081810360008301526135898161354d565b9050919050565b7f4552433732313a2062616c616e636520717565727920666f7220746865207a6560008201527f726f206164647265737300000000000000000000000000000000000000000000602082015250565b60006135ec602a83612907565b91506135f782613590565b604082019050919050565b6000602082019050818103600083015261361b816135df565b9050919050565b7f4552433732314d696e7465724275726e65725061757365723a206d757374206860008201527f6176652070617573657220726f6c6520746f2070617573650000000000000000602082015250565b600061367e603883612907565b915061368982613622565b604082019050919050565b600060208201905081810360008301526136ad81613671565b9050919050565b7f4552433732314d696e7465724275726e65725061757365723a206d757374206860008201527f617665206d696e74657220726f6c6520746f206d696e74000000000000000000602082015250565b6000613710603783612907565b915061371b826136b4565b604082019050919050565b6000602082019050818103600083015261373f81613703565b9050919050565b7f416363657373436f6e74726f6c3a2073656e646572206d75737420626520616e60008201527f2061646d696e20746f207265766f6b6500000000000000000000000000000000602082015250565b60006137a2603083612907565b91506137ad82613746565b604082019050919050565b600060208201905081810360008301526137d181613795565b9050919050565b7f4552433732313a206f70657261746f7220717565727920666f72206e6f6e657860008201527f697374656e7420746f6b656e0000000000000000000000000000000000000000602082015250565b6000613834602c83612907565b915061383f826137d8565b604082019050919050565b6000602082019050818103600083015261386381613827565b9050919050565b7f4552433732313a207472616e736665722066726f6d20696e636f72726563742060008201527f6f776e6572000000000000000000000000000000000000000000000000000000602082015250565b60006138c6602583612907565b91506138d18261386a565b604082019050919050565b600060208201905081810360008301526138f5816138b9565b9050919050565b7f4552433732313a207472616e7366657220746f20746865207a65726f2061646460008201527f7265737300000000000000000000000000000000000000000000000000000000602082015250565b6000613958602483612907565b9150613963826138fc565b604082019050919050565b600060208201905081810360008301526139878161394b565b9050919050565b7f4e487b7100000000000000000000000000000000000000000000000000000000600052601160045260246000fd5b60006139c8826129b7565b91506139d3836129b7565b9250828210156139e6576139e561398e565b5b828203905092915050565b60006139fc826129b7565b9150613a07836129b7565b9250827fffffffffffffffffffffffffffffffffffffffffffffffffffffffffffffffff03821115613a3c57613a3b61398e565b5b828201905092915050565b7f5061757361626c653a206e6f7420706175736564000000000000000000000000600082015250565b6000613a7d601483612907565b9150613a8882613a47565b602082019050919050565b60006020820190508181036000830152613aac81613a70565b9050919050565b7f5061757361626c653a2070617573656400000000000000000000000000000000600082015250565b6000613ae9601083612907565b9150613af482613ab3565b602082019050919050565b60006020820190508181036000830152613b1881613adc565b9050919050565b7f4552433732313a20617070726f766520746f2063616c6c657200000000000000600082015250565b6000613b55601983612907565b9150613b6082613b1f565b602082019050919050565b60006020820190508181036000830152613b8481613b48565b9050919050565b7f4552433732313a207472616e7366657220746f206e6f6e20455243373231526560008201527f63656976657220696d706c656d656e7465720000000000000000000000000000602082015250565b6000613be7603283612907565b9150613bf282613b8b565b604082019050919050565b60006020820190508181036000830152613c1681613bda565b9050919050565b7f45524337323155524953746f726167653a2055524920717565727920666f722060008201527f6e6f6e6578697374656e7420746f6b656e000000000000000000000000000000602082015250565b6000613c79603183612907565b9150613c8482613c1d565b604082019050919050565b60006020820190508181036000830152613ca881613c6c565b9050919050565b600081905092915050565b6000613cc5826128fc565b613ccf8185613caf565b9350613cdf818560208601612918565b80840191505092915050565b6000613cf78285613cba565b9150613d038284613cba565b91508190509392505050565b7f4552433732313a206d696e7420746f20746865207a65726f2061646472657373600082015250565b6000613d45602083612907565b9150613d5082613d0f565b602082019050919050565b60006020820190508181036000830152613d7481613d38565b9050919050565b7f4552433732313a20746f6b656e20616c7265616479206d696e74656400000000600082015250565b6000613db1601c83612907565b9150613dbc82613d7b565b602082019050919050565b60006020820190508181036000830152613de081613da4565b9050919050565b7f45524337323155524953746f726167653a2055524920736574206f66206e6f6e60008201527f6578697374656e7420746f6b656e000000000000000000000000000000000000602082015250565b6000613e43602e83612907565b9150613e4e82613de7565b604082019050919050565b60006020820190508181036000830152613e7281613e36565b9050919050565b7f4e487b7100000000000000000000000000000000000000000000000000000000600052603260045260246000fd5b600081519050919050565b600082825260208201905092915050565b6000613ecf82613ea8565b613ed98185613eb3565b9350613ee9818560208601612918565b613ef28161294b565b840191505092915050565b6000608082019050613f126000830187612a4c565b613f1f6020830186612a4c565b613f2c6040830185612c02565b8181036060830152613f3e8184613ec4565b905095945050505050565b600081519050613f588161286d565b92915050565b600060208284031215613f7457613f73612837565b5b6000613f8284828501613f49565b91505092915050565b7f4552433732314d657461646174613a2055524920717565727920666f72206e6f60008201527f6e6578697374656e7420746f6b656e0000000000000000000000000000000000602082015250565b6000613fe7602f83612907565b9150613ff282613f8b565b604082019050919050565b6000602082019050818103600083015261401681613fda565b9050919050565b7f4552433732315061757361626c653a20746f6b656e207472616e73666572207760008201527f68696c6520706175736564000000000000000000000000000000000000000000602082015250565b6000614079602b83612907565b91506140848261401d565b604082019050919050565b600060208201905081810360008301526140a88161406c565b9050919050565b7f4e487b7100000000000000000000000000000000000000000000000000000000600052603160045260246000fd5b60006140e9826129b7565b91507fffffffffffffffffffffffffffffffffffffffffffffffffffffffffffffffff82141561411c5761411b61398e565b5b600182019050919050565b7f4e487b7100000000000000000000000000000000000000000000000000000000600052601260045260246000fd5b6000614161826129b7565b915061416c836129b7565b92508261417c5761417b614127565b5b828204905092915050565b6000614192826129b7565b915061419d836129b7565b9250826141ad576141ac614127565b5b82820690509291505056fea2646970667358221220c5a946330aa7095848f8ac2e1e690e3ef99f91343b154b4f76a1443789c06e8d64736f6c634300080b0033",
  "immutableReferences": {},
  "source": "// SPDX-License-Identifier: LGPL-3.0-only\npragma solidity 0.8.11;\n\n// This is adapted from https://github.com/OpenZeppelin/openzeppelin-contracts/blob/v3.0.0/contracts/presets/ERC721PresetMinterPauserAutoId.sol\n\nimport \"./utils/AccessControl.sol\";\nimport \"@openzeppelin/contracts/utils/Context.sol\";\nimport \"@openzeppelin/contracts/utils/Counters.sol\";\nimport \"@openzeppelin/contracts/token/ERC721/extensions/ERC721Burnable.sol\";\nimport \"@openzeppelin/contracts/token/ERC721/extensions/ERC721Pausable.sol\";\nimport \"@openzeppelin/contracts/token/ERC721/extensions/ERC721URIStorage.sol\";\n\ncontract ERC721MinterBurnerPauser is Context, AccessControl, ERC721Burnable, ERC721Pausable, ERC721URIStorage {\n    bytes32 public constant MINTER_ROLE = keccak256(\"MINTER_ROLE\");\n    bytes32 public constant PAUSER_ROLE = keccak256(\"PAUSER_ROLE\");\n\n    string public baseURI;\n\n    /**\n     * @dev Grants `DEFAULT_ADMIN_ROLE` and `MINTER_ROLE`to the account that\n     * deploys the contract.\n     *\n     * Token URIs will be autogenerated based on `baseURI` and their token IDs.\n     * See {ERC721-tokenURI}.\n     */\n    constructor(string memory name, string memory symbol, string memory baseURI) ERC721(name, symbol) {\n        _setupRole(DEFAULT_ADMIN_ROLE, _msgSender());\n\n        _setupRole(MINTER_ROLE, _msgSender());\n        _setupRole(PAUSER_ROLE, _msgSender());\n\n        _setBaseURI(baseURI);\n    }\n\n    /**\n     * @dev Creates a new token for `to`. Its token ID will be automatically\n     * assigned (and available on the emitted {Transfer} event), and the token\n     * URI autogenerated based on the base URI passed at construction.\n     *\n     * See {ERC721-_mint}.\n     *\n     * Requirements:\n     *\n     * - the caller must have the `MINTER_ROLE`.\n     */\n    function mint(address to, uint256 tokenId, string memory _data) public {\n        require(hasRole(MINTER_ROLE, _msgSender()), \"ERC721MinterBurnerPauser: must have minter role to mint\");\n\n        _mint(to, tokenId);\n        _setTokenURI(tokenId, _data);\n    }\n\n    /**\n     * @dev Pauses all token transfers.\n     *\n     * See {ERC721Pausable} and {Pausable-_pause}.\n     *\n     * Requirements:\n     *\n     * - the caller must have the `PAUSER_ROLE`.\n     */\n    function pause() public {\n        require(hasRole(PAUSER_ROLE, _msgSender()), \"ERC721MinterBurnerPauser: must have pauser role to pause\");\n        _pause();\n    }\n\n    /**\n     * @dev Unpauses all token transfers.\n     *\n     * See {ERC721Pausable} and {Pausable-_unpause}.\n     *\n     * Requirements:\n     *\n     * - the caller must have the `PAUSER_ROLE`.\n     */\n    function unpause() public {\n        require(hasRole(PAUSER_ROLE, _msgSender()), \"ERC721MinterBurnerPauser: must have pauser role to unpause\");\n        _unpause();\n    }\n\n    function tokenURI(uint256 tokenId) public view virtual override(ERC721, ERC721URIStorage) returns (string memory) {\n        return super.tokenURI(tokenId);\n    }\n\n    function _beforeTokenTransfer(address from, address to, uint256 tokenId) internal override(ERC721, ERC721Pausable) {\n        super._beforeTokenTransfer(from, to, tokenId);\n    }\n\n    function _setBaseURI(string memory baseURI_) internal {\n        baseURI = baseURI_;\n    }\n\n    function _baseURI() internal view virtual override returns (string memory) {\n        return baseURI;\n    }\n\n    function _burn(uint256 tokenId) internal virtual override(ERC721, ERC721URIStorage) {\n        super._burn(tokenId);\n    }\n}\n",
  "sourcePath": "/root/bc_connector/crosscoin/contracts/chainbridge-solidity/contracts/ERC721MinterBurnerPauser.sol",
  "compiler": {
    "name": "solc",
    "version": "0.8.11+commit.d7f03943.Emscripten.clang"
  },
  "schemaVersion": "3.4.7",
  "updatedAt": "2022-06-02T13:10:47.421Z",
  "devdoc": {
    "kind": "dev",
    "methods": {
      "approve(address,uint256)": {
        "details": "See {IERC721-approve}."
      },
      "balanceOf(address)": {
        "details": "See {IERC721-balanceOf}."
      },
      "burn(uint256)": {
        "details": "Burns `tokenId`. See {ERC721-_burn}. Requirements: - The caller must own `tokenId` or be an approved operator."
      },
      "constructor": {
        "details": "Grants `DEFAULT_ADMIN_ROLE` and `MINTER_ROLE`to the account that deploys the contract. Token URIs will be autogenerated based on `baseURI` and their token IDs. See {ERC721-tokenURI}."
      },
      "getApproved(uint256)": {
        "details": "See {IERC721-getApproved}."
      },
      "getRoleAdmin(bytes32)": {
        "details": "Returns the admin role that controls `role`. See {grantRole} and {revokeRole}. To change a role's admin, use {_setRoleAdmin}."
      },
      "getRoleMember(bytes32,uint256)": {
        "details": "Returns one of the accounts that have `role`. `index` must be a value between 0 and {getRoleMemberCount}, non-inclusive. Role bearers are not sorted in any particular way, and their ordering may change at any point. WARNING: When using {getRoleMember} and {getRoleMemberCount}, make sure you perform all queries on the same block. See the following https://forum.openzeppelin.com/t/iterating-over-elements-on-enumerableset-in-openzeppelin-contracts/2296[forum post] for more information."
      },
      "getRoleMemberCount(bytes32)": {
        "details": "Returns the number of accounts that have `role`. Can be used together with {getRoleMember} to enumerate all bearers of a role."
      },
      "getRoleMemberIndex(bytes32,address)": {
        "details": "Returns the index of the account that have `role`."
      },
      "grantRole(bytes32,address)": {
        "details": "Grants `role` to `account`. If `account` had not been already granted `role`, emits a {RoleGranted} event. Requirements: - the caller must have ``role``'s admin role."
      },
      "hasRole(bytes32,address)": {
        "details": "Returns `true` if `account` has been granted `role`."
      },
      "isApprovedForAll(address,address)": {
        "details": "See {IERC721-isApprovedForAll}."
      },
      "mint(address,uint256,string)": {
        "details": "Creates a new token for `to`. Its token ID will be automatically assigned (and available on the emitted {Transfer} event), and the token URI autogenerated based on the base URI passed at construction. See {ERC721-_mint}. Requirements: - the caller must have the `MINTER_ROLE`."
      },
      "name()": {
        "details": "See {IERC721Metadata-name}."
      },
      "ownerOf(uint256)": {
        "details": "See {IERC721-ownerOf}."
      },
      "pause()": {
        "details": "Pauses all token transfers. See {ERC721Pausable} and {Pausable-_pause}. Requirements: - the caller must have the `PAUSER_ROLE`."
      },
      "paused()": {
        "details": "Returns true if the contract is paused, and false otherwise."
      },
      "renounceRole(bytes32,address)": {
        "details": "Revokes `role` from the calling account. Roles are often managed via {grantRole} and {revokeRole}: this function's purpose is to provide a mechanism for accounts to lose their privileges if they are compromised (such as when a trusted device is misplaced). If the calling account had been granted `role`, emits a {RoleRevoked} event. Requirements: - the caller must be `account`."
      },
      "revokeRole(bytes32,address)": {
        "details": "Revokes `role` from `account`. If `account` had been granted `role`, emits a {RoleRevoked} event. Requirements: - the caller must have ``role``'s admin role."
      },
      "safeTransferFrom(address,address,uint256)": {
        "details": "See {IERC721-safeTransferFrom}."
      },
      "safeTransferFrom(address,address,uint256,bytes)": {
        "details": "See {IERC721-safeTransferFrom}."
      },
      "setApprovalForAll(address,bool)": {
        "details": "See {IERC721-setApprovalForAll}."
      },
      "supportsInterface(bytes4)": {
        "details": "See {IERC165-supportsInterface}."
      },
      "symbol()": {
        "details": "See {IERC721Metadata-symbol}."
      },
      "transferFrom(address,address,uint256)": {
        "details": "See {IERC721-transferFrom}."
      },
      "unpause()": {
        "details": "Unpauses all token transfers. See {ERC721Pausable} and {Pausable-_unpause}. Requirements: - the caller must have the `PAUSER_ROLE`."
      }
    },
    "version": 1
  },
  "userdoc": {
    "kind": "user",
    "methods": {},
    "version": 1
  }
}