{
  "contractName": "ERC721Handler",
  "abi": [
    {
      "inputs": [
        {
          "internalType": "address",
          "name": "bridgeAddress",
          "type": "address"
        }
      ],
      "stateMutability": "nonpayable",
      "type": "constructor"
    },
    {
      "inputs": [],
      "name": "_bridgeAddress",
      "outputs": [
        {
          "internalType": "address",
          "name": "",
          "type": "address"
        }
      ],
      "stateMutability": "view",
      "type": "function"
    },
    {
      "inputs": [
        {
          "internalType": "address",
          "name": "",
          "type": "address"
        }
      ],
      "name": "_burnList",
      "outputs": [
        {
          "internalType": "bool",
          "name": "",
          "type": "bool"
        }
      ],
      "stateMutability": "view",
      "type": "function"
    },
    {
      "inputs": [
        {
          "internalType": "address",
          "name": "",
          "type": "address"
        }
      ],
      "name": "_contractWhitelist",
      "outputs": [
        {
          "internalType": "bool",
          "name": "",
          "type": "bool"
        }
      ],
      "stateMutability": "view",
      "type": "function"
    },
    {
      "inputs": [
        {
          "internalType": "bytes32",
          "name": "",
          "type": "bytes32"
        }
      ],
      "name": "_resourceIDToTokenContractAddress",
      "outputs": [
        {
          "internalType": "address",
          "name": "",
          "type": "address"
        }
      ],
      "stateMutability": "view",
      "type": "function"
    },
    {
      "inputs": [
        {
          "internalType": "address",
          "name": "",
          "type": "address"
        }
      ],
      "name": "_tokenContractAddressToResourceID",
      "outputs": [
        {
          "internalType": "bytes32",
          "name": "",
          "type": "bytes32"
        }
      ],
      "stateMutability": "view",
      "type": "function"
    },
    {
      "inputs": [
        {
          "internalType": "address",
          "name": "contractAddress",
          "type": "address"
        }
      ],
      "name": "setBurnable",
      "outputs": [],
      "stateMutability": "nonpayable",
      "type": "function"
    },
    {
      "inputs": [
        {
          "internalType": "bytes32",
          "name": "resourceID",
          "type": "bytes32"
        },
        {
          "internalType": "address",
          "name": "contractAddress",
          "type": "address"
        }
      ],
      "name": "setResource",
      "outputs": [],
      "stateMutability": "nonpayable",
      "type": "function"
    },
    {
      "inputs": [
        {
          "internalType": "bytes32",
          "name": "resourceID",
          "type": "bytes32"
        },
        {
          "internalType": "address",
          "name": "depositer",
          "type": "address"
        },
        {
          "internalType": "bytes",
          "name": "data",
          "type": "bytes"
        }
      ],
      "name": "deposit",
      "outputs": [
        {
          "internalType": "bytes",
          "name": "metaData",
          "type": "bytes"
        }
      ],
      "stateMutability": "nonpayable",
      "type": "function"
    },
    {
      "inputs": [
        {
          "internalType": "bytes32",
          "name": "resourceID",
          "type": "bytes32"
        },
        {
          "internalType": "bytes",
          "name": "data",
          "type": "bytes"
        }
      ],
      "name": "executeProposal",
      "outputs": [],
      "stateMutability": "nonpayable",
      "type": "function"
    },
    {
      "inputs": [
        {
          "internalType": "bytes",
          "name": "data",
          "type": "bytes"
        }
      ],
      "name": "withdraw",
      "outputs": [],
      "stateMutability": "nonpayable",
      "type": "function"
    }
  ],
  "bytecode": "0x60a06040523480156200001157600080fd5b5060405162001ad838038062001ad88339818101604052810190620000379190620000de565b808073ffffffffffffffffffffffffffffffffffffffff1660808173ffffffffffffffffffffffffffffffffffffffff1681525050505062000110565b600080fd5b600073ffffffffffffffffffffffffffffffffffffffff82169050919050565b6000620000a68262000079565b9050919050565b620000b88162000099565b8114620000c457600080fd5b50565b600081519050620000d881620000ad565b92915050565b600060208284031215620000f757620000f662000074565b5b60006200010784828501620000c7565b91505092915050565b6080516119a562000133600039600081816102a901526107ca01526119a56000f3fe608060405234801561001057600080fd5b506004361061009e5760003560e01c80637f79bea8116100665780637f79bea814610159578063b07e54bb14610189578063b8fa3736146101b9578063c8ba6c87146101d5578063e248cff2146102055761009e565b806307b7ed99146100a35780630968f264146100bf5780630a6d55d8146100db578063318c136e1461010b5780636a70d08114610129575b600080fd5b6100bd60048036038101906100b89190610e25565b610221565b005b6100d960048036038101906100d49190610f98565b610235565b005b6100f560048036038101906100f09190611017565b610274565b6040516101029190611053565b60405180910390f35b6101136102a7565b6040516101209190611053565b60405180910390f35b610143600480360381019061013e9190610e25565b6102cb565b6040516101509190611089565b60405180910390f35b610173600480360381019061016e9190610e25565b6102eb565b6040516101809190611089565b60405180910390f35b6101a3600480360381019061019e9190611104565b61030b565b6040516101b09190611200565b60405180910390f35b6101d360048036038101906101ce9190611222565b610520565b005b6101ef60048036038101906101ea9190610e25565b610536565b6040516101fc9190611271565b60405180910390f35b61021f600480360381019061021a919061128c565b61054e565b005b6102296107c8565b61023281610858565b50565b61023d6107c8565b6000806000838060200190518101906102569190611360565b80935081945082955050505061026e8330848461093f565b50505050565b60006020528060005260406000206000915054906101000a900473ffffffffffffffffffffffffffffffffffffffff1681565b7f000000000000000000000000000000000000000000000000000000000000000081565b60036020528060005260406000206000915054906101000a900460ff1681565b60026020528060005260406000206000915054906101000a900460ff1681565b60606103156107c8565b6000838381019061032691906113c8565b9050600080600088815260200190815260200160002060009054906101000a900473ffffffffffffffffffffffffffffffffffffffff169050600260008273ffffffffffffffffffffffffffffffffffffffff1673ffffffffffffffffffffffffffffffffffffffff16815260200190815260200160002060009054906101000a900460ff166103eb576040517f08c379a00000000000000000000000000000000000000000000000000000000081526004016103e290611478565b60405180910390fd5b61041b635b5e139f60e01b8273ffffffffffffffffffffffffffffffffffffffff166109ba90919063ffffffff16565b156104a85760008190508073ffffffffffffffffffffffffffffffffffffffff1663c87b56dd846040518263ffffffff1660e01b815260040161045e91906114a7565b600060405180830381865afa15801561047b573d6000803e3d6000fd5b505050506040513d6000823e3d601f19601f820116820180604052508101906104a49190611563565b9350505b600360008273ffffffffffffffffffffffffffffffffffffffff1673ffffffffffffffffffffffffffffffffffffffff16815260200190815260200160002060009054906101000a900460ff16156105095761050481836109df565b610516565b61051581873085610a54565b5b5050949350505050565b6105286107c8565b6105328282610acf565b5050565b60016020528060005260406000206000915090505481565b6105566107c8565b60008060606000806060878781019061056f91906115ac565b8096508197505050846040610584919061161b565b9250878760409085926105999392919061167b565b8080601f016020809104026020016040519081016040528093929190818152602001838380828437600081840152601f19601f8201169050808301925050505050505093508787849080926105f09392919061167b565b8101906105fd91906113c8565b9150878760208561060e919061161b565b908460208761061d919061161b565b610627919061161b565b926106349392919061167b565b8080601f016020809104026020016040519081016040528093929190818152602001838380828437600081840152601f19601f82011690508083019250505050505050905060006020850151905060008060008c815260200190815260200160002060009054906101000a900473ffffffffffffffffffffffffffffffffffffffff169050600260008273ffffffffffffffffffffffffffffffffffffffff1673ffffffffffffffffffffffffffffffffffffffff16815260200190815260200160002060009054906101000a900460ff16610745576040517f08c379a000000000000000000000000000000000000000000000000000000000815260040161073c90611478565b60405180910390fd5b600360008273ffffffffffffffffffffffffffffffffffffffff1673ffffffffffffffffffffffffffffffffffffffff16815260200190815260200160002060009054906101000a900460ff16156107ab576107a6818360601c8a86610bc0565b6107bb565b6107ba81308460601c8b61093f565b5b5050505050505050505050565b7f000000000000000000000000000000000000000000000000000000000000000073ffffffffffffffffffffffffffffffffffffffff163373ffffffffffffffffffffffffffffffffffffffff1614610856576040517f08c379a000000000000000000000000000000000000000000000000000000000815260040161084d90611702565b60405180910390fd5b565b600260008273ffffffffffffffffffffffffffffffffffffffff1673ffffffffffffffffffffffffffffffffffffffff16815260200190815260200160002060009054906101000a900460ff166108e4576040517f08c379a00000000000000000000000000000000000000000000000000000000081526004016108db90611794565b60405180910390fd5b6001600360008373ffffffffffffffffffffffffffffffffffffffff1673ffffffffffffffffffffffffffffffffffffffff16815260200190815260200160002060006101000a81548160ff02191690831515021790555050565b60008490508073ffffffffffffffffffffffffffffffffffffffff166323b872dd8585856040518463ffffffff1660e01b8152600401610981939291906117b4565b600060405180830381600087803b15801561099b57600080fd5b505af11580156109af573d6000803e3d6000fd5b505050505050505050565b60006109c583610c3b565b80156109d757506109d68383610c88565b5b905092915050565b60008290508073ffffffffffffffffffffffffffffffffffffffff166342966c68836040518263ffffffff1660e01b8152600401610a1d91906114a7565b600060405180830381600087803b158015610a3757600080fd5b505af1158015610a4b573d6000803e3d6000fd5b50505050505050565b60008490508073ffffffffffffffffffffffffffffffffffffffff166323b872dd8585856040518463ffffffff1660e01b8152600401610a96939291906117b4565b600060405180830381600087803b158015610ab057600080fd5b505af1158015610ac4573d6000803e3d6000fd5b505050505050505050565b8060008084815260200190815260200160002060006101000a81548173ffffffffffffffffffffffffffffffffffffffff021916908373ffffffffffffffffffffffffffffffffffffffff16021790555081600160008373ffffffffffffffffffffffffffffffffffffffff1673ffffffffffffffffffffffffffffffffffffffff168152602001908152602001600020819055506001600260008373ffffffffffffffffffffffffffffffffffffffff1673ffffffffffffffffffffffffffffffffffffffff16815260200190815260200160002060006101000a81548160ff0219169083151502179055505050565b60008490508073ffffffffffffffffffffffffffffffffffffffff1663d3fc98648585856040518463ffffffff1660e01b8152600401610c029392919061182f565b600060405180830381600087803b158015610c1c57600080fd5b505af1158015610c30573d6000803e3d6000fd5b505050505050505050565b6000610c67827f01ffc9a700000000000000000000000000000000000000000000000000000000610c88565b8015610c815750610c7f8263ffffffff60e01b610c88565b155b9050919050565b6000806301ffc9a760e01b83604051602401610ca491906118a8565b604051602081830303815290604052907bffffffffffffffffffffffffffffffffffffffffffffffffffffffff19166020820180517bffffffffffffffffffffffffffffffffffffffffffffffffffffffff838183161783525050505090506000808573ffffffffffffffffffffffffffffffffffffffff1661753084604051610d2e91906118ff565b6000604051808303818686fa925050503d8060008114610d6a576040519150601f19603f3d011682016040523d82523d6000602084013e610d6f565b606091505b5091509150602081511015610d8a5760009350505050610dad565b818015610da7575080806020019051810190610da69190611942565b5b93505050505b92915050565b6000604051905090565b600080fd5b600080fd5b600073ffffffffffffffffffffffffffffffffffffffff82169050919050565b6000610df282610dc7565b9050919050565b610e0281610de7565b8114610e0d57600080fd5b50565b600081359050610e1f81610df9565b92915050565b600060208284031215610e3b57610e3a610dbd565b5b6000610e4984828501610e10565b91505092915050565b600080fd5b600080fd5b6000601f19601f8301169050919050565b7f4e487b7100000000000000000000000000000000000000000000000000000000600052604160045260246000fd5b610ea582610e5c565b810181811067ffffffffffffffff82111715610ec457610ec3610e6d565b5b80604052505050565b6000610ed7610db3565b9050610ee38282610e9c565b919050565b600067ffffffffffffffff821115610f0357610f02610e6d565b5b610f0c82610e5c565b9050602081019050919050565b82818337600083830152505050565b6000610f3b610f3684610ee8565b610ecd565b905082815260208101848484011115610f5757610f56610e57565b5b610f62848285610f19565b509392505050565b600082601f830112610f7f57610f7e610e52565b5b8135610f8f848260208601610f28565b91505092915050565b600060208284031215610fae57610fad610dbd565b5b600082013567ffffffffffffffff811115610fcc57610fcb610dc2565b5b610fd884828501610f6a565b91505092915050565b6000819050919050565b610ff481610fe1565b8114610fff57600080fd5b50565b60008135905061101181610feb565b92915050565b60006020828403121561102d5761102c610dbd565b5b600061103b84828501611002565b91505092915050565b61104d81610de7565b82525050565b60006020820190506110686000830184611044565b92915050565b60008115159050919050565b6110838161106e565b82525050565b600060208201905061109e600083018461107a565b92915050565b600080fd5b600080fd5b60008083601f8401126110c4576110c3610e52565b5b8235905067ffffffffffffffff8111156110e1576110e06110a4565b5b6020830191508360018202830111156110fd576110fc6110a9565b5b9250929050565b6000806000806060858703121561111e5761111d610dbd565b5b600061112c87828801611002565b945050602061113d87828801610e10565b935050604085013567ffffffffffffffff81111561115e5761115d610dc2565b5b61116a878288016110ae565b925092505092959194509250565b600081519050919050565b600082825260208201905092915050565b60005b838110156111b2578082015181840152602081019050611197565b838111156111c1576000848401525b50505050565b60006111d282611178565b6111dc8185611183565b93506111ec818560208601611194565b6111f581610e5c565b840191505092915050565b6000602082019050818103600083015261121a81846111c7565b905092915050565b6000806040838503121561123957611238610dbd565b5b600061124785828601611002565b925050602061125885828601610e10565b9150509250929050565b61126b81610fe1565b82525050565b60006020820190506112866000830184611262565b92915050565b6000806000604084860312156112a5576112a4610dbd565b5b60006112b386828701611002565b935050602084013567ffffffffffffffff8111156112d4576112d3610dc2565b5b6112e0868287016110ae565b92509250509250925092565b60006112f782610dc7565b9050919050565b611307816112ec565b811461131257600080fd5b50565b600081519050611324816112fe565b92915050565b6000819050919050565b61133d8161132a565b811461134857600080fd5b50565b60008151905061135a81611334565b92915050565b60008060006060848603121561137957611378610dbd565b5b600061138786828701611315565b935050602061139886828701611315565b92505060406113a98682870161134b565b9150509250925092565b6000813590506113c281611334565b92915050565b6000602082840312156113de576113dd610dbd565b5b60006113ec848285016113b3565b91505092915050565b600082825260208201905092915050565b7f70726f766964656420746f6b656e41646472657373206973206e6f742077686960008201527f74656c6973746564000000000000000000000000000000000000000000000000602082015250565b60006114626028836113f5565b915061146d82611406565b604082019050919050565b6000602082019050818103600083015261149181611455565b9050919050565b6114a18161132a565b82525050565b60006020820190506114bc6000830184611498565b92915050565b600067ffffffffffffffff8211156114dd576114dc610e6d565b5b6114e682610e5c565b9050602081019050919050565b6000611506611501846114c2565b610ecd565b90508281526020810184848401111561152257611521610e57565b5b61152d848285611194565b509392505050565b600082601f83011261154a57611549610e52565b5b815161155a8482602086016114f3565b91505092915050565b60006020828403121561157957611578610dbd565b5b600082015167ffffffffffffffff81111561159757611596610dc2565b5b6115a384828501611535565b91505092915050565b600080604083850312156115c3576115c2610dbd565b5b60006115d1858286016113b3565b92505060206115e2858286016113b3565b9150509250929050565b7f4e487b7100000000000000000000000000000000000000000000000000000000600052601160045260246000fd5b60006116268261132a565b91506116318361132a565b9250827fffffffffffffffffffffffffffffffffffffffffffffffffffffffffffffffff03821115611666576116656115ec565b5b828201905092915050565b600080fd5b600080fd5b6000808585111561168f5761168e611671565b5b838611156116a05761169f611676565b5b6001850283019150848603905094509492505050565b7f73656e646572206d7573742062652062726964676520636f6e74726163740000600082015250565b60006116ec601e836113f5565b91506116f7826116b6565b602082019050919050565b6000602082019050818103600083015261171b816116df565b9050919050565b7f70726f766964656420636f6e7472616374206973206e6f742077686974656c6960008201527f7374656400000000000000000000000000000000000000000000000000000000602082015250565b600061177e6024836113f5565b915061178982611722565b604082019050919050565b600060208201905081810360008301526117ad81611771565b9050919050565b60006060820190506117c96000830186611044565b6117d66020830185611044565b6117e36040830184611498565b949350505050565b600081519050919050565b6000611801826117eb565b61180b81856113f5565b935061181b818560208601611194565b61182481610e5c565b840191505092915050565b60006060820190506118446000830186611044565b6118516020830185611498565b818103604083015261186381846117f6565b9050949350505050565b60007fffffffff0000000000000000000000000000000000000000000000000000000082169050919050565b6118a28161186d565b82525050565b60006020820190506118bd6000830184611899565b92915050565b600081905092915050565b60006118d982611178565b6118e381856118c3565b93506118f3818560208601611194565b80840191505092915050565b600061190b82846118ce565b915081905092915050565b61191f8161106e565b811461192a57600080fd5b50565b60008151905061193c81611916565b92915050565b60006020828403121561195857611957610dbd565b5b60006119668482850161192d565b9150509291505056fea2646970667358221220d392b10ffe079ffc072b851c7f2b8366360c55db6821318b30fa5b6f6f811b9764736f6c634300080b0033",
  "immutableReferences": {
    "10514": [
      {
        "length": 32,
        "start": 681
      },
      {
        "length": 32,
        "start": 1994
      }
    ]
  },
  "source": "// SPDX-License-Identifier: LGPL-3.0-only\npragma solidity 0.8.11;\n\nimport \"../interfaces/IDepositExecute.sol\";\nimport \"./HandlerHelpers.sol\";\nimport \"../ERC721Safe.sol\";\nimport \"@openzeppelin/contracts/utils/introspection/ERC165Checker.sol\";\nimport \"@openzeppelin/contracts/token/ERC721/extensions/IERC721Metadata.sol\";\n\n\n/**\n    @title Handles ERC721 deposits and deposit executions.\n    @author ChainSafe Systems.\n    @notice This contract is intended to be used with the Bridge contract.\n */\ncontract ERC721Handler is IDepositExecute, HandlerHelpers, ERC721Safe {\n    using ERC165Checker for address;\n\n    bytes4 private constant _INTERFACE_ERC721_METADATA = 0x5b5e139f;\n\n    /**\n        @param bridgeAddress Contract address of previously deployed Bridge.\n     */\n    constructor(\n        address bridgeAddress\n    ) HandlerHelpers(bridgeAddress) {\n    }\n\n    /**\n        @notice A deposit is initiatied by making a deposit in the Bridge contract.\n        @param resourceID ResourceID used to find address of token to be used for deposit.\n        @param depositer Address of account making the deposit in the Bridge contract.\n        @param data Consists of {tokenID} padded to 32 bytes.\n        @notice Data passed into the function should be constructed as follows:\n        tokenID                                     uint256    bytes    0  - 32\n        @notice If the corresponding {tokenAddress} for the parsed {resourceID} supports {_INTERFACE_ERC721_METADATA},\n        then {metaData} will be set according to the {tokenURI} method in the token contract.\n        @dev Depending if the corresponding {tokenAddress} for the parsed {resourceID} is\n        marked true in {_burnList}, deposited tokens will be burned, if not, they will be locked.\n        @return metaData : the deposited token metadata acquired by calling a {tokenURI} method in the token contract.\n     */\n    function deposit(bytes32    resourceID,\n                    address     depositer,\n                    bytes       calldata data\n                    ) external override onlyBridge returns (bytes memory metaData) {\n        uint         tokenID;\n\n        (tokenID) = abi.decode(data, (uint));\n\n        address tokenAddress = _resourceIDToTokenContractAddress[resourceID];\n        require(_contractWhitelist[tokenAddress], \"provided tokenAddress is not whitelisted\");\n\n        // Check if the contract supports metadata, fetch it if it does\n        if (tokenAddress.supportsInterface(_INTERFACE_ERC721_METADATA)) {\n            IERC721Metadata erc721 = IERC721Metadata(tokenAddress);\n            metaData = bytes(erc721.tokenURI(tokenID));\n        }\n\n        if (_burnList[tokenAddress]) {\n            burnERC721(tokenAddress, tokenID);\n        } else {\n            lockERC721(tokenAddress, depositer, address(this), tokenID);\n        }\n    }\n\n    /**\n        @notice Proposal execution should be initiated when a proposal is finalized in the Bridge contract.\n        by a relayer on the deposit's destination chain.\n        @param data Consists of {tokenID}, {resourceID}, {lenDestinationRecipientAddress},\n        {destinationRecipientAddress}, {lenMeta}, and {metaData} all padded to 32 bytes.\n        @notice Data passed into the function should be constructed as follows:\n        tokenID                                     uint256    bytes    0  - 32\n        destinationRecipientAddress     length      uint256    bytes    32 - 64\n        destinationRecipientAddress                   bytes    bytes    64 - (64 + len(destinationRecipientAddress))\n        metadata                        length      uint256    bytes    (64 + len(destinationRecipientAddress)) - (64 + len(destinationRecipientAddress) + 32)\n        metadata                                      bytes    bytes    (64 + len(destinationRecipientAddress) + 32) - END\n     */\n    function executeProposal(bytes32 resourceID, bytes calldata data) external override onlyBridge {\n        uint         tokenID;\n        uint         lenDestinationRecipientAddress;\n        bytes memory destinationRecipientAddress;\n        uint         offsetMetaData;\n        uint         lenMetaData;\n        bytes memory metaData;\n\n        (tokenID, lenDestinationRecipientAddress) = abi.decode(data, (uint, uint));\n        offsetMetaData = 64 + lenDestinationRecipientAddress;\n        destinationRecipientAddress = bytes(data[64:offsetMetaData]);\n        lenMetaData = abi.decode(data[offsetMetaData:], (uint));\n        metaData = bytes(data[offsetMetaData + 32:offsetMetaData + 32 + lenMetaData]);\n\n        bytes20 recipientAddress;\n\n        assembly {\n            recipientAddress := mload(add(destinationRecipientAddress, 0x20))\n        }\n\n        address tokenAddress = _resourceIDToTokenContractAddress[resourceID];\n        require(_contractWhitelist[address(tokenAddress)], \"provided tokenAddress is not whitelisted\");\n\n        if (_burnList[tokenAddress]) {\n            mintERC721(tokenAddress, address(recipientAddress), tokenID, metaData);\n        } else {\n            releaseERC721(tokenAddress, address(this), address(recipientAddress), tokenID);\n        }\n    }\n\n    /**\n        @notice Used to manually release ERC721 tokens from ERC721Safe.\n        @param data Consists of {tokenAddress}, {recipient}, and {tokenID} all padded to 32 bytes.\n        @notice Data passed into the function should be constructed as follows:\n        tokenAddress                           address     bytes  0 - 32\n        recipient                              address     bytes  32 - 64\n        tokenID                                uint        bytes  64 - 96\n     */\n    function withdraw(bytes memory data) external override onlyBridge {\n        address tokenAddress;\n        address recipient;\n        uint tokenID;\n\n        (tokenAddress, recipient, tokenID) = abi.decode(data, (address, address, uint));\n\n        releaseERC721(tokenAddress, address(this), recipient, tokenID);\n    }\n}\n",
  "sourcePath": "/root/bc_connector/crosscoin/contracts/chainbridge-solidity/contracts/handlers/ERC721Handler.sol",
  "compiler": {
    "name": "solc",
    "version": "0.8.11+commit.d7f03943.Emscripten.clang"
  },
  "schemaVersion": "3.4.7",
  "updatedAt": "2022-06-02T13:10:47.845Z",
  "devdoc": {
    "author": "ChainSafe Systems.",
    "kind": "dev",
    "methods": {
      "constructor": {
        "params": {
          "bridgeAddress": "Contract address of previously deployed Bridge."
        }
      },
      "deposit(bytes32,address,bytes)": {
        "details": "Depending if the corresponding {tokenAddress} for the parsed {resourceID} is marked true in {_burnList}, deposited tokens will be burned, if not, they will be locked.",
        "params": {
          "data": "Consists of {tokenID} padded to 32 bytes.",
          "depositer": "Address of account making the deposit in the Bridge contract.",
          "resourceID": "ResourceID used to find address of token to be used for deposit."
        },
        "returns": {
          "metaData": ": the deposited token metadata acquired by calling a {tokenURI} method in the token contract."
        }
      },
      "executeProposal(bytes32,bytes)": {
        "params": {
          "data": "Consists of {tokenID}, {resourceID}, {lenDestinationRecipientAddress}, {destinationRecipientAddress}, {lenMeta}, and {metaData} all padded to 32 bytes."
        }
      },
      "setBurnable(address)": {
        "params": {
          "contractAddress": "Address of contract to be used when making or executing deposits."
        }
      },
      "setResource(bytes32,address)": {
        "params": {
          "contractAddress": "Address of contract to be called when a deposit is made and a deposited is executed.",
          "resourceID": "ResourceID to be used when making deposits."
        }
      },
      "withdraw(bytes)": {
        "params": {
          "data": "Consists of {tokenAddress}, {recipient}, and {tokenID} all padded to 32 bytes."
        }
      }
    },
    "title": "Handles ERC721 deposits and deposit executions.",
    "version": 1
  },
  "userdoc": {
    "kind": "user",
    "methods": {
      "_resourceIDToTokenContractAddress(bytes32)": {
        "notice": "Exposing getter for {_resourceIDToTokenContractAddress}."
      },
      "deposit(bytes32,address,bytes)": {
        "notice": "A deposit is initiatied by making a deposit in the Bridge contract.Data passed into the function should be constructed as follows: tokenID                                     uint256    bytes    0  - 32If the corresponding {tokenAddress} for the parsed {resourceID} supports {_INTERFACE_ERC721_METADATA}, then {metaData} will be set according to the {tokenURI} method in the token contract."
      },
      "executeProposal(bytes32,bytes)": {
        "notice": "Proposal execution should be initiated when a proposal is finalized in the Bridge contract. by a relayer on the deposit's destination chain.Data passed into the function should be constructed as follows: tokenID                                     uint256    bytes    0  - 32 destinationRecipientAddress     length      uint256    bytes    32 - 64 destinationRecipientAddress                   bytes    bytes    64 - (64 + len(destinationRecipientAddress)) metadata                        length      uint256    bytes    (64 + len(destinationRecipientAddress)) - (64 + len(destinationRecipientAddress) + 32) metadata                                      bytes    bytes    (64 + len(destinationRecipientAddress) + 32) - END"
      },
      "setBurnable(address)": {
        "notice": "First verifies {contractAddress} is whitelisted, then sets {_burnList}[{contractAddress}] to true."
      },
      "setResource(bytes32,address)": {
        "notice": "First verifies {_resourceIDToContractAddress}[{resourceID}] and {_contractAddressToResourceID}[{contractAddress}] are not already set, then sets {_resourceIDToContractAddress} with {contractAddress}, {_contractAddressToResourceID} with {resourceID}, and {_contractWhitelist} to true for {contractAddress}."
      },
      "withdraw(bytes)": {
        "notice": "Used to manually release ERC721 tokens from ERC721Safe.Data passed into the function should be constructed as follows: tokenAddress                           address     bytes  0 - 32 recipient                              address     bytes  32 - 64 tokenID                                uint        bytes  64 - 96"
      }
    },
    "notice": "This contract is intended to be used with the Bridge contract.",
    "version": 1
  }
}