{
  "contractName": "FakeLockHandler",
  "abi": [
    {
      "inputs": [
        {
          "internalType": "address",
          "name": "bridgeAddress",
          "type": "address"
        }
      ],
      "stateMutability": "nonpayable",
      "type": "constructor"
    },
    {
      "inputs": [],
      "name": "_bridgeAddress",
      "outputs": [
        {
          "internalType": "address",
          "name": "",
          "type": "address"
        }
      ],
      "stateMutability": "view",
      "type": "function"
    },
    {
      "inputs": [
        {
          "internalType": "address",
          "name": "",
          "type": "address"
        }
      ],
      "name": "_burnList",
      "outputs": [
        {
          "internalType": "bool",
          "name": "",
          "type": "bool"
        }
      ],
      "stateMutability": "view",
      "type": "function"
    },
    {
      "inputs": [
        {
          "internalType": "address",
          "name": "",
          "type": "address"
        }
      ],
      "name": "_contractWhitelist",
      "outputs": [
        {
          "internalType": "bool",
          "name": "",
          "type": "bool"
        }
      ],
      "stateMutability": "view",
      "type": "function"
    },
    {
      "inputs": [
        {
          "internalType": "bytes32",
          "name": "",
          "type": "bytes32"
        }
      ],
      "name": "_resourceIDToTokenContractAddress",
      "outputs": [
        {
          "internalType": "address",
          "name": "",
          "type": "address"
        }
      ],
      "stateMutability": "view",
      "type": "function"
    },
    {
      "inputs": [
        {
          "internalType": "address",
          "name": "",
          "type": "address"
        }
      ],
      "name": "_tokenContractAddressToResourceID",
      "outputs": [
        {
          "internalType": "bytes32",
          "name": "",
          "type": "bytes32"
        }
      ],
      "stateMutability": "view",
      "type": "function"
    },
    {
      "inputs": [
        {
          "internalType": "bytes32",
          "name": "resourceID",
          "type": "bytes32"
        },
        {
          "internalType": "bytes",
          "name": "data",
          "type": "bytes"
        }
      ],
      "name": "executeProposal",
      "outputs": [],
      "stateMutability": "nonpayable",
      "type": "function"
    },
    {
      "inputs": [
        {
          "internalType": "address",
          "name": "contractAddress",
          "type": "address"
        }
      ],
      "name": "setBurnable",
      "outputs": [],
      "stateMutability": "nonpayable",
      "type": "function"
    },
    {
      "inputs": [
        {
          "internalType": "bytes32",
          "name": "resourceID",
          "type": "bytes32"
        },
        {
          "internalType": "address",
          "name": "contractAddress",
          "type": "address"
        }
      ],
      "name": "setResource",
      "outputs": [],
      "stateMutability": "nonpayable",
      "type": "function"
    },
    {
      "inputs": [
        {
          "internalType": "bytes",
          "name": "data",
          "type": "bytes"
        }
      ],
      "name": "withdraw",
      "outputs": [],
      "stateMutability": "nonpayable",
      "type": "function"
    },
    {
      "inputs": [
        {
          "internalType": "bytes32",
          "name": "resourceID",
          "type": "bytes32"
        },
        {
          "internalType": "address",
          "name": "depositer",
          "type": "address"
        },
        {
          "internalType": "bytes",
          "name": "data",
          "type": "bytes"
        }
      ],
      "name": "deposit",
      "outputs": [
        {
          "internalType": "bytes",
          "name": "",
          "type": "bytes"
        }
      ],
      "stateMutability": "nonpayable",
      "type": "function"
    }
  ],
  "bytecode": "0x60a06040523480156200001157600080fd5b506040516200190d3803806200190d8339818101604052810190620000379190620000e0565b80808073ffffffffffffffffffffffffffffffffffffffff1660808173ffffffffffffffffffffffffffffffffffffffff168152505050505062000112565b600080fd5b600073ffffffffffffffffffffffffffffffffffffffff82169050919050565b6000620000a8826200007b565b9050919050565b620000ba816200009b565b8114620000c657600080fd5b50565b600081519050620000da81620000af565b92915050565b600060208284031215620000f957620000f862000076565b5b60006200010984828501620000c9565b91505092915050565b6080516117d862000135600039600081816102a8015261066601526117d86000f3fe608060405234801561001057600080fd5b506004361061009e5760003560e01c80637f79bea8116100665780637f79bea814610159578063b07e54bb14610189578063b8fa3736146101b9578063c8ba6c87146101d5578063e248cff2146102055761009e565b806307b7ed99146100a35780630968f264146100bf5780630a6d55d8146100db578063318c136e1461010b5780636a70d08114610129575b600080fd5b6100bd60048036038101906100b89190610cc8565b610221565b005b6100d960048036038101906100d49190610e3b565b610235565b005b6100f560048036038101906100f09190610eba565b610273565b6040516101029190610ef6565b60405180910390f35b6101136102a6565b6040516101209190610ef6565b60405180910390f35b610143600480360381019061013e9190610cc8565b6102ca565b6040516101509190610f2c565b60405180910390f35b610173600480360381019061016e9190610cc8565b6102ea565b6040516101809190610f2c565b60405180910390f35b6101a3600480360381019061019e9190610fa7565b61030a565b6040516101b091906110a3565b60405180910390f35b6101d360048036038101906101ce91906110c5565b610465565b005b6101ef60048036038101906101ea9190610cc8565b61047b565b6040516101fc9190611114565b60405180910390f35b61021f600480360381019061021a919061112f565b610493565b005b610229610664565b610232816106f4565b50565b61023d610664565b6000806000838060200190518101906102569190611203565b80935081945082955050505061026d8383836107db565b50505050565b60006020528060005260406000206000915054906101000a900473ffffffffffffffffffffffffffffffffffffffff1681565b7f000000000000000000000000000000000000000000000000000000000000000081565b60036020528060005260406000206000915054906101000a900460ff1681565b60026020528060005260406000206000915054906101000a900460ff1681565b6060610314610664565b60008383810190610325919061126b565b9050600080600088815260200190815260200160002060009054906101000a900473ffffffffffffffffffffffffffffffffffffffff169050600260008273ffffffffffffffffffffffffffffffffffffffff1673ffffffffffffffffffffffffffffffffffffffff16815260200190815260200160002060009054906101000a900460ff166103ea576040517f08c379a00000000000000000000000000000000000000000000000000000000081526004016103e19061131b565b60405180910390fd5b600360008273ffffffffffffffffffffffffffffffffffffffff1673ffffffffffffffffffffffffffffffffffffffff16815260200190815260200160002060009054906101000a900460ff161561044d57610448818760006107f1565b61045b565b61045a8187306000610869565b5b5050949350505050565b61046d610664565b6104778282610881565b5050565b60016020528060005260406000206000915090505481565b61049b610664565b600080606084848101906104af919061133b565b809350819450505084846040908460406104c991906113aa565b926104d69392919061140a565b8080601f016020809104026020016040519081016040528093929190818152602001838380828437600081840152601f19601f82011690508083019250505050505050905060008060008089815260200190815260200160002060009054906101000a900473ffffffffffffffffffffffffffffffffffffffff16905060208301519150600260008273ffffffffffffffffffffffffffffffffffffffff1673ffffffffffffffffffffffffffffffffffffffff16815260200190815260200160002060009054906101000a900460ff166105e6576040517f08c379a00000000000000000000000000000000000000000000000000000000081526004016105dd9061131b565b60405180910390fd5b600360008273ffffffffffffffffffffffffffffffffffffffff1673ffffffffffffffffffffffffffffffffffffffff16815260200190815260200160002060009054906101000a900460ff161561064b57610646818360601c87610972565b61065a565b610659818360601c876107db565b5b5050505050505050565b7f000000000000000000000000000000000000000000000000000000000000000073ffffffffffffffffffffffffffffffffffffffff163373ffffffffffffffffffffffffffffffffffffffff16146106f2576040517f08c379a00000000000000000000000000000000000000000000000000000000081526004016106e990611491565b60405180910390fd5b565b600260008273ffffffffffffffffffffffffffffffffffffffff1673ffffffffffffffffffffffffffffffffffffffff16815260200190815260200160002060009054906101000a900460ff16610780576040517f08c379a000000000000000000000000000000000000000000000000000000000815260040161077790611523565b60405180910390fd5b6001600360008373ffffffffffffffffffffffffffffffffffffffff1673ffffffffffffffffffffffffffffffffffffffff16815260200190815260200160002060006101000a81548160ff02191690831515021790555050565b60008390506107eb8184846109ea565b50505050565b60008390508073ffffffffffffffffffffffffffffffffffffffff166379cc679084846040518363ffffffff1660e01b8152600401610831929190611552565b600060405180830381600087803b15801561084b57600080fd5b505af115801561085f573d6000803e3d6000fd5b5050505050505050565b600084905061087a81858585610a70565b5050505050565b8060008084815260200190815260200160002060006101000a81548173ffffffffffffffffffffffffffffffffffffffff021916908373ffffffffffffffffffffffffffffffffffffffff16021790555081600160008373ffffffffffffffffffffffffffffffffffffffff1673ffffffffffffffffffffffffffffffffffffffff168152602001908152602001600020819055506001600260008373ffffffffffffffffffffffffffffffffffffffff1673ffffffffffffffffffffffffffffffffffffffff16815260200190815260200160002060006101000a81548160ff0219169083151502179055505050565b60008390508073ffffffffffffffffffffffffffffffffffffffff166340c10f1984846040518363ffffffff1660e01b81526004016109b2929190611552565b600060405180830381600087803b1580156109cc57600080fd5b505af11580156109e0573d6000803e3d6000fd5b5050505050505050565b610a6b8363a9059cbb60e01b8484604051602401610a09929190611552565b604051602081830303815290604052907bffffffffffffffffffffffffffffffffffffffffffffffffffffffff19166020820180517bffffffffffffffffffffffffffffffffffffffffffffffffffffffff8381831617835250505050610af9565b505050565b610af3846323b872dd60e01b858585604051602401610a919392919061157b565b604051602081830303815290604052907bffffffffffffffffffffffffffffffffffffffffffffffffffffffff19166020820180517bffffffffffffffffffffffffffffffffffffffffffffffffffffffff8381831617835250505050610af9565b50505050565b6000823b905060008111610b42576040517f08c379a0000000000000000000000000000000000000000000000000000000008152600401610b39906115fe565b60405180910390fd5b6000808473ffffffffffffffffffffffffffffffffffffffff1684604051610b6a919061165a565b6000604051808303816000865af19150503d8060008114610ba7576040519150601f19603f3d011682016040523d82523d6000602084013e610bac565b606091505b509150915081610bf1576040517f08c379a0000000000000000000000000000000000000000000000000000000008152600401610be8906116bd565b60405180910390fd5b600081511115610c4f5780806020019051810190610c0f9190611709565b610c4e576040517f08c379a0000000000000000000000000000000000000000000000000000000008152600401610c4590611782565b60405180910390fd5b5b5050505050565b6000604051905090565b600080fd5b600080fd5b600073ffffffffffffffffffffffffffffffffffffffff82169050919050565b6000610c9582610c6a565b9050919050565b610ca581610c8a565b8114610cb057600080fd5b50565b600081359050610cc281610c9c565b92915050565b600060208284031215610cde57610cdd610c60565b5b6000610cec84828501610cb3565b91505092915050565b600080fd5b600080fd5b6000601f19601f8301169050919050565b7f4e487b7100000000000000000000000000000000000000000000000000000000600052604160045260246000fd5b610d4882610cff565b810181811067ffffffffffffffff82111715610d6757610d66610d10565b5b80604052505050565b6000610d7a610c56565b9050610d868282610d3f565b919050565b600067ffffffffffffffff821115610da657610da5610d10565b5b610daf82610cff565b9050602081019050919050565b82818337600083830152505050565b6000610dde610dd984610d8b565b610d70565b905082815260208101848484011115610dfa57610df9610cfa565b5b610e05848285610dbc565b509392505050565b600082601f830112610e2257610e21610cf5565b5b8135610e32848260208601610dcb565b91505092915050565b600060208284031215610e5157610e50610c60565b5b600082013567ffffffffffffffff811115610e6f57610e6e610c65565b5b610e7b84828501610e0d565b91505092915050565b6000819050919050565b610e9781610e84565b8114610ea257600080fd5b50565b600081359050610eb481610e8e565b92915050565b600060208284031215610ed057610ecf610c60565b5b6000610ede84828501610ea5565b91505092915050565b610ef081610c8a565b82525050565b6000602082019050610f0b6000830184610ee7565b92915050565b60008115159050919050565b610f2681610f11565b82525050565b6000602082019050610f416000830184610f1d565b92915050565b600080fd5b600080fd5b60008083601f840112610f6757610f66610cf5565b5b8235905067ffffffffffffffff811115610f8457610f83610f47565b5b602083019150836001820283011115610fa057610f9f610f4c565b5b9250929050565b60008060008060608587031215610fc157610fc0610c60565b5b6000610fcf87828801610ea5565b9450506020610fe087828801610cb3565b935050604085013567ffffffffffffffff81111561100157611000610c65565b5b61100d87828801610f51565b925092505092959194509250565b600081519050919050565b600082825260208201905092915050565b60005b8381101561105557808201518184015260208101905061103a565b83811115611064576000848401525b50505050565b60006110758261101b565b61107f8185611026565b935061108f818560208601611037565b61109881610cff565b840191505092915050565b600060208201905081810360008301526110bd818461106a565b905092915050565b600080604083850312156110dc576110db610c60565b5b60006110ea85828601610ea5565b92505060206110fb85828601610cb3565b9150509250929050565b61110e81610e84565b82525050565b60006020820190506111296000830184611105565b92915050565b60008060006040848603121561114857611147610c60565b5b600061115686828701610ea5565b935050602084013567ffffffffffffffff81111561117757611176610c65565b5b61118386828701610f51565b92509250509250925092565b600061119a82610c6a565b9050919050565b6111aa8161118f565b81146111b557600080fd5b50565b6000815190506111c7816111a1565b92915050565b6000819050919050565b6111e0816111cd565b81146111eb57600080fd5b50565b6000815190506111fd816111d7565b92915050565b60008060006060848603121561121c5761121b610c60565b5b600061122a868287016111b8565b935050602061123b868287016111b8565b925050604061124c868287016111ee565b9150509250925092565b600081359050611265816111d7565b92915050565b60006020828403121561128157611280610c60565b5b600061128f84828501611256565b91505092915050565b600082825260208201905092915050565b7f70726f766964656420746f6b656e41646472657373206973206e6f742077686960008201527f74656c6973746564000000000000000000000000000000000000000000000000602082015250565b6000611305602883611298565b9150611310826112a9565b604082019050919050565b60006020820190508181036000830152611334816112f8565b9050919050565b6000806040838503121561135257611351610c60565b5b600061136085828601611256565b925050602061137185828601611256565b9150509250929050565b7f4e487b7100000000000000000000000000000000000000000000000000000000600052601160045260246000fd5b60006113b5826111cd565b91506113c0836111cd565b9250827fffffffffffffffffffffffffffffffffffffffffffffffffffffffffffffffff038211156113f5576113f461137b565b5b828201905092915050565b600080fd5b600080fd5b6000808585111561141e5761141d611400565b5b8386111561142f5761142e611405565b5b6001850283019150848603905094509492505050565b7f73656e646572206d7573742062652062726964676520636f6e74726163740000600082015250565b600061147b601e83611298565b915061148682611445565b602082019050919050565b600060208201905081810360008301526114aa8161146e565b9050919050565b7f70726f766964656420636f6e7472616374206973206e6f742077686974656c6960008201527f7374656400000000000000000000000000000000000000000000000000000000602082015250565b600061150d602483611298565b9150611518826114b1565b604082019050919050565b6000602082019050818103600083015261153c81611500565b9050919050565b61154c816111cd565b82525050565b60006040820190506115676000830185610ee7565b6115746020830184611543565b9392505050565b60006060820190506115906000830186610ee7565b61159d6020830185610ee7565b6115aa6040830184611543565b949350505050565b7f45524332303a206e6f74206120636f6e74726163740000000000000000000000600082015250565b60006115e8601583611298565b91506115f3826115b2565b602082019050919050565b60006020820190508181036000830152611617816115db565b9050919050565b600081905092915050565b60006116348261101b565b61163e818561161e565b935061164e818560208601611037565b80840191505092915050565b60006116668284611629565b915081905092915050565b7f45524332303a2063616c6c206661696c65640000000000000000000000000000600082015250565b60006116a7601283611298565b91506116b282611671565b602082019050919050565b600060208201905081810360008301526116d68161169a565b9050919050565b6116e681610f11565b81146116f157600080fd5b50565b600081519050611703816116dd565b92915050565b60006020828403121561171f5761171e610c60565b5b600061172d848285016116f4565b91505092915050565b7f45524332303a206f7065726174696f6e20646964206e6f742073756363656564600082015250565b600061176c602083611298565b915061177782611736565b602082019050919050565b6000602082019050818103600083015261179b8161175f565b905091905056fea26469706673582212208d4553b7be8cb731bd6824ed5633207c3caee82ebfb862c3afa07a6d1812588c64736f6c634300080b0033",
  "immutableReferences": {
    "3227": [
      {
        "length": 32,
        "start": 680
      },
      {
        "length": 32,
        "start": 1638
      }
    ]
  },
  "source": "pragma solidity >=0.8;\n\nimport \"../node_modules/chainbridge-solidity/contracts/handlers/ERC20Handler.sol\";\n\ncontract FakeLockHandler is ERC20Handler {\n    constructor(address bridgeAddress) ERC20Handler(bridgeAddress) {}\n\n    function deposit(\n        bytes32 resourceID,\n        address depositer,\n        bytes calldata data\n    ) external override onlyBridge returns (bytes memory) {\n        uint256 amount;\n        (amount) = abi.decode(data, (uint256));\n\n        address tokenAddress = _resourceIDToTokenContractAddress[resourceID];\n        require(\n            _contractWhitelist[tokenAddress],\n            \"provided tokenAddress is not whitelisted\"\n        );\n        // No token gets burned or locked.\n        if (_burnList[tokenAddress]) {\n            burnERC20(tokenAddress, depositer, 0);\n        } else {\n            lockERC20(tokenAddress, depositer, address(this), 0);\n        }\n    }\n}\n",
  "sourcePath": "/home/norwegiangoat/git/bc_connector/crosscoin/contracts/FakeLockHandler.sol",
  "compiler": {
    "name": "solc",
    "version": "0.8.11+commit.d7f03943.Emscripten.clang"
  },
  "schemaVersion": "3.4.5",
  "updatedAt": "2022-03-21T08:29:45.448Z",
  "devdoc": {
    "kind": "dev",
    "methods": {
      "deposit(bytes32,address,bytes)": {
        "details": "Depending if the corresponding {tokenAddress} for the parsed {resourceID} is marked true in {_burnList}, deposited tokens will be burned, if not, they will be locked.",
        "params": {
          "data": "Consists of {amount} padded to 32 bytes.",
          "depositer": "Address of account making the deposit in the Bridge contract.",
          "resourceID": "ResourceID used to find address of token to be used for deposit."
        },
        "returns": {
          "_0": "an empty data."
        }
      },
      "executeProposal(bytes32,bytes)": {
        "params": {
          "data": "Consists of {resourceID}, {amount}, {lenDestinationRecipientAddress}, and {destinationRecipientAddress} all padded to 32 bytes."
        }
      },
      "setBurnable(address)": {
        "params": {
          "contractAddress": "Address of contract to be used when making or executing deposits."
        }
      },
      "setResource(bytes32,address)": {
        "params": {
          "contractAddress": "Address of contract to be called when a deposit is made and a deposited is executed.",
          "resourceID": "ResourceID to be used when making deposits."
        }
      },
      "withdraw(bytes)": {
        "params": {
          "data": "Consists of {tokenAddress}, {recipient}, and {amount} all padded to 32 bytes."
        }
      }
    },
    "version": 1
  },
  "userdoc": {
    "kind": "user",
    "methods": {
      "deposit(bytes32,address,bytes)": {
        "notice": "A deposit is initiatied by making a deposit in the Bridge contract.Data passed into the function should be constructed as follows: amount                      uint256     bytes   0 - 32"
      },
      "executeProposal(bytes32,bytes)": {
        "notice": "Proposal execution should be initiated when a proposal is finalized in the Bridge contract. by a relayer on the deposit's destination chain.Data passed into the function should be constructed as follows: amount                                 uint256     bytes  0 - 32 destinationRecipientAddress length     uint256     bytes  32 - 64 destinationRecipientAddress            bytes       bytes  64 - END"
      },
      "setBurnable(address)": {
        "notice": "First verifies {contractAddress} is whitelisted, then sets {_burnList}[{contractAddress}] to true."
      },
      "setResource(bytes32,address)": {
        "notice": "First verifies {_resourceIDToContractAddress}[{resourceID}] and {_contractAddressToResourceID}[{contractAddress}] are not already set, then sets {_resourceIDToContractAddress} with {contractAddress}, {_contractAddressToResourceID} with {resourceID}, and {_contractWhitelist} to true for {contractAddress}."
      },
      "withdraw(bytes)": {
        "notice": "Used to manually release ERC20 tokens from ERC20Safe.Data passed into the function should be constructed as follows: tokenAddress                           address     bytes  0 - 32 recipient                              address     bytes  32 - 64 amount                                 uint        bytes  64 - 96"
      }
    },
    "version": 1
  }
}