{
  "contractName": "FeeHandlerLockTime",
  "abi": [
    {
      "inputs": [
        {
          "internalType": "address",
          "name": "bridgeAddress",
          "type": "address"
        }
      ],
      "stateMutability": "nonpayable",
      "type": "constructor"
    },
    {
      "anonymous": false,
      "inputs": [
        {
          "indexed": false,
          "internalType": "uint256",
          "name": "newFee",
          "type": "uint256"
        }
      ],
      "name": "FeeChanged",
      "type": "event"
    },
    {
      "anonymous": false,
      "inputs": [
        {
          "indexed": false,
          "internalType": "address",
          "name": "sender",
          "type": "address"
        },
        {
          "indexed": false,
          "internalType": "uint8",
          "name": "fromDomainID",
          "type": "uint8"
        },
        {
          "indexed": false,
          "internalType": "uint8",
          "name": "destinationDomainID",
          "type": "uint8"
        },
        {
          "indexed": false,
          "internalType": "bytes32",
          "name": "resourceID",
          "type": "bytes32"
        },
        {
          "indexed": false,
          "internalType": "uint256",
          "name": "fee",
          "type": "uint256"
        },
        {
          "indexed": false,
          "internalType": "address",
          "name": "tokenAddress",
          "type": "address"
        }
      ],
      "name": "FeeCollected",
      "type": "event"
    },
    {
      "anonymous": false,
      "inputs": [
        {
          "indexed": false,
          "internalType": "address",
          "name": "tokenAddress",
          "type": "address"
        },
        {
          "indexed": false,
          "internalType": "address",
          "name": "recipient",
          "type": "address"
        },
        {
          "indexed": false,
          "internalType": "uint256",
          "name": "amount",
          "type": "uint256"
        }
      ],
      "name": "FeeDistributed",
      "type": "event"
    },
    {
      "anonymous": false,
      "inputs": [
        {
          "indexed": true,
          "internalType": "bytes32",
          "name": "role",
          "type": "bytes32"
        },
        {
          "indexed": true,
          "internalType": "address",
          "name": "account",
          "type": "address"
        },
        {
          "indexed": true,
          "internalType": "address",
          "name": "sender",
          "type": "address"
        }
      ],
      "name": "RoleGranted",
      "type": "event"
    },
    {
      "anonymous": false,
      "inputs": [
        {
          "indexed": true,
          "internalType": "bytes32",
          "name": "role",
          "type": "bytes32"
        },
        {
          "indexed": true,
          "internalType": "address",
          "name": "account",
          "type": "address"
        },
        {
          "indexed": true,
          "internalType": "address",
          "name": "sender",
          "type": "address"
        }
      ],
      "name": "RoleRevoked",
      "type": "event"
    },
    {
      "inputs": [],
      "name": "DEFAULT_ADMIN_ROLE",
      "outputs": [
        {
          "internalType": "bytes32",
          "name": "",
          "type": "bytes32"
        }
      ],
      "stateMutability": "view",
      "type": "function",
      "constant": true
    },
    {
      "inputs": [],
      "name": "_bridgeAddress",
      "outputs": [
        {
          "internalType": "address",
          "name": "",
          "type": "address"
        }
      ],
      "stateMutability": "view",
      "type": "function",
      "constant": true
    },
    {
      "inputs": [],
      "name": "_fee",
      "outputs": [
        {
          "internalType": "uint256",
          "name": "",
          "type": "uint256"
        }
      ],
      "stateMutability": "view",
      "type": "function",
      "constant": true
    },
    {
      "inputs": [
        {
          "internalType": "address",
          "name": "sender",
          "type": "address"
        },
        {
          "internalType": "uint8",
          "name": "fromDomainID",
          "type": "uint8"
        },
        {
          "internalType": "uint8",
          "name": "destinationDomainID",
          "type": "uint8"
        },
        {
          "internalType": "bytes32",
          "name": "resourceID",
          "type": "bytes32"
        },
        {
          "internalType": "bytes",
          "name": "depositData",
          "type": "bytes"
        },
        {
          "internalType": "bytes",
          "name": "feeData",
          "type": "bytes"
        }
      ],
      "name": "calculateFee",
      "outputs": [
        {
          "internalType": "uint256",
          "name": "",
          "type": "uint256"
        },
        {
          "internalType": "address",
          "name": "",
          "type": "address"
        }
      ],
      "stateMutability": "view",
      "type": "function",
      "constant": true
    },
    {
      "inputs": [
        {
          "internalType": "uint256",
          "name": "newFee",
          "type": "uint256"
        }
      ],
      "name": "changeFee",
      "outputs": [],
      "stateMutability": "nonpayable",
      "type": "function"
    },
    {
      "inputs": [
        {
          "internalType": "address",
          "name": "sender",
          "type": "address"
        },
        {
          "internalType": "uint8",
          "name": "fromDomainID",
          "type": "uint8"
        },
        {
          "internalType": "uint8",
          "name": "destinationDomainID",
          "type": "uint8"
        },
        {
          "internalType": "bytes32",
          "name": "resourceID",
          "type": "bytes32"
        },
        {
          "internalType": "bytes",
          "name": "depositData",
          "type": "bytes"
        },
        {
          "internalType": "bytes",
          "name": "feeData",
          "type": "bytes"
        }
      ],
      "name": "collectFee",
      "outputs": [],
      "stateMutability": "payable",
      "type": "function",
      "payable": true
    },
    {
      "inputs": [
        {
          "internalType": "bytes32",
          "name": "role",
          "type": "bytes32"
        }
      ],
      "name": "getRoleAdmin",
      "outputs": [
        {
          "internalType": "bytes32",
          "name": "",
          "type": "bytes32"
        }
      ],
      "stateMutability": "view",
      "type": "function",
      "constant": true
    },
    {
      "inputs": [
        {
          "internalType": "bytes32",
          "name": "role",
          "type": "bytes32"
        },
        {
          "internalType": "uint256",
          "name": "index",
          "type": "uint256"
        }
      ],
      "name": "getRoleMember",
      "outputs": [
        {
          "internalType": "address",
          "name": "",
          "type": "address"
        }
      ],
      "stateMutability": "view",
      "type": "function",
      "constant": true
    },
    {
      "inputs": [
        {
          "internalType": "bytes32",
          "name": "role",
          "type": "bytes32"
        }
      ],
      "name": "getRoleMemberCount",
      "outputs": [
        {
          "internalType": "uint256",
          "name": "",
          "type": "uint256"
        }
      ],
      "stateMutability": "view",
      "type": "function",
      "constant": true
    },
    {
      "inputs": [
        {
          "internalType": "bytes32",
          "name": "role",
          "type": "bytes32"
        },
        {
          "internalType": "address",
          "name": "account",
          "type": "address"
        }
      ],
      "name": "getRoleMemberIndex",
      "outputs": [
        {
          "internalType": "uint256",
          "name": "",
          "type": "uint256"
        }
      ],
      "stateMutability": "view",
      "type": "function",
      "constant": true
    },
    {
      "inputs": [
        {
          "internalType": "bytes32",
          "name": "role",
          "type": "bytes32"
        },
        {
          "internalType": "address",
          "name": "account",
          "type": "address"
        }
      ],
      "name": "grantRole",
      "outputs": [],
      "stateMutability": "nonpayable",
      "type": "function"
    },
    {
      "inputs": [
        {
          "internalType": "bytes32",
          "name": "role",
          "type": "bytes32"
        },
        {
          "internalType": "address",
          "name": "account",
          "type": "address"
        }
      ],
      "name": "hasRole",
      "outputs": [
        {
          "internalType": "bool",
          "name": "",
          "type": "bool"
        }
      ],
      "stateMutability": "view",
      "type": "function",
      "constant": true
    },
    {
      "inputs": [
        {
          "internalType": "bytes32",
          "name": "role",
          "type": "bytes32"
        },
        {
          "internalType": "address",
          "name": "account",
          "type": "address"
        }
      ],
      "name": "renounceRole",
      "outputs": [],
      "stateMutability": "nonpayable",
      "type": "function"
    },
    {
      "inputs": [
        {
          "internalType": "bytes32",
          "name": "role",
          "type": "bytes32"
        },
        {
          "internalType": "address",
          "name": "account",
          "type": "address"
        }
      ],
      "name": "revokeRole",
      "outputs": [],
      "stateMutability": "nonpayable",
      "type": "function"
    },
    {
      "inputs": [
        {
          "internalType": "address payable[]",
          "name": "addrs",
          "type": "address[]"
        },
        {
          "internalType": "uint256[]",
          "name": "amounts",
          "type": "uint256[]"
        }
      ],
      "name": "transferFee",
      "outputs": [],
      "stateMutability": "nonpayable",
      "type": "function"
    }
  ],
  "bytecode": "0x60a06040523480156200001157600080fd5b5060405162001f4f38038062001f4f833981810160405281019062000037919062000290565b808073ffffffffffffffffffffffffffffffffffffffff1660808173ffffffffffffffffffffffffffffffffffffffff1681525050620000816000801b336200009060201b60201c565b504360028190555050620002c2565b620000a28282620000a660201b60201c565b5050565b620000d4816000808581526020019081526020016000206000016200014960201b620008921790919060201c565b156200014557620000ea6200018160201b60201c565b73ffffffffffffffffffffffffffffffffffffffff168173ffffffffffffffffffffffffffffffffffffffff16837f2f8788117e7eff1d82e926ec794901d17c78024a50270940304540a733656f0d60405160405180910390a45b5050565b600062000179836000018373ffffffffffffffffffffffffffffffffffffffff1660001b6200018960201b60201c565b905092915050565b600033905090565b60006200019d83836200020360201b60201c565b620001f8578260000182908060018154018082558091505060019003906000526020600020016000909190919091505582600001805490508360010160008481526020019081526020016000208190555060019050620001fd565b600090505b92915050565b600080836001016000848152602001908152602001600020541415905092915050565b600080fd5b600073ffffffffffffffffffffffffffffffffffffffff82169050919050565b600062000258826200022b565b9050919050565b6200026a816200024b565b81146200027657600080fd5b50565b6000815190506200028a816200025f565b92915050565b600060208284031215620002a957620002a862000226565b5b6000620002b98482850162000279565b91505092915050565b608051611c6a620002e5600039600081816104f401526108c40152611c6a6000f3fe6080604052600436106100e85760003560e01c80639010d07c1161008a578063c5b37c2211610059578063c5b37c22146102f7578063ca15c87314610322578063d547741f1461035f578063ef4f081f14610388576100e8565b80639010d07c14610229578063904e9b2b1461026657806391d148541461028f578063a217fddf146102cc576100e8565b8063318c136e116100c6578063318c136e1461016f57806336568abe1461019a5780634e0df3f6146101c35780636a1db1bf14610200576100e8565b8063248a9ca3146100ed578063253070651461012a5780632f2ff15d14610146575b600080fd5b3480156100f957600080fd5b50610114600480360381019061010f9190610f57565b6103c6565b6040516101219190610f93565b60405180910390f35b610144600480360381019061013f91906110aa565b6103e5565b005b34801561015257600080fd5b5061016d60048036038101906101689190611179565b61047f565b005b34801561017b57600080fd5b506101846104f2565b60405161019191906111c8565b60405180910390f35b3480156101a657600080fd5b506101c160048036038101906101bc9190611179565b610516565b005b3480156101cf57600080fd5b506101ea60048036038101906101e59190611179565b610599565b6040516101f791906111fc565b60405180910390f35b34801561020c57600080fd5b5061022760048036038101906102229190611243565b6105e9565b005b34801561023557600080fd5b50610250600480360381019061024b9190611270565b6106bb565b60405161025d91906111c8565b60405180910390f35b34801561027257600080fd5b5061028d6004803603810190610288919061135c565b6106ec565b005b34801561029b57600080fd5b506102b660048036038101906102b19190611179565b6107a2565b6040516102c391906113f8565b60405180910390f35b3480156102d857600080fd5b506102e16107d3565b6040516102ee9190610f93565b60405180910390f35b34801561030357600080fd5b5061030c6107da565b60405161031991906111fc565b60405180910390f35b34801561032e57600080fd5b5061034960048036038101906103449190610f57565b6107e0565b60405161035691906111fc565b60405180910390f35b34801561036b57600080fd5b5061038660048036038101906103819190611179565b610806565b005b34801561039457600080fd5b506103af60048036038101906103aa91906110aa565b610879565b6040516103bd929190611413565b60405180910390f35b6000806000838152602001908152602001600020600201549050919050565b6103ed6108c2565b6001543414610431576040517f08c379a000000000000000000000000000000000000000000000000000000000815260040161042890611499565b60405180910390fd5b7fbd231b7fa4103e15e7a238c72f07e8aff310701af121895aa6c793b80245e43388888888600154600060405161046d969594939291906114c8565b60405180910390a15050505050505050565b6104a5600080848152602001908152602001600020600201546104a0610952565b6107a2565b6104e4576040517f08c379a00000000000000000000000000000000000000000000000000000000081526004016104db9061159b565b60405180910390fd5b6104ee828261095a565b5050565b7f000000000000000000000000000000000000000000000000000000000000000081565b61051e610952565b73ffffffffffffffffffffffffffffffffffffffff168173ffffffffffffffffffffffffffffffffffffffff161461058b576040517f08c379a00000000000000000000000000000000000000000000000000000000081526004016105829061162d565b60405180910390fd5b61059582826109ed565b5050565b600080600084815260200190815260200160002060000160000160010160008373ffffffffffffffffffffffffffffffffffffffff1660001b815260200190815260200160002054905092915050565b6105f66000801b336107a2565b610635576040517f08c379a000000000000000000000000000000000000000000000000000000000815260040161062c90611699565b60405180910390fd5b80600154141561067a576040517f08c379a000000000000000000000000000000000000000000000000000000000815260040161067190611705565b60405180910390fd5b806001819055507f6bbc57480a46553fa4d156ce702beef5f3ad66303b0ed1a5d4cb44966c6584c3816040516106b091906111fc565b60405180910390a150565b60006106e482600080868152602001908152602001600020600001610a8090919063ffffffff16565b905092915050565b6106f96000801b336107a2565b610738576040517f08c379a000000000000000000000000000000000000000000000000000000000815260040161072f90611699565b60405180910390fd5b600a6002546107479190611754565b431015610789576040517f08c379a00000000000000000000000000000000000000000000000000000000081526004016107809061181c565b60405180910390fd5b4360028190555061079c84848484610a9a565b50505050565b60006107cb82600080868152602001908152602001600020600001610cbf90919063ffffffff16565b905092915050565b6000801b81565b60015481565b60006107ff600080848152602001908152602001600020600001610cef565b9050919050565b61082c60008084815260200190815260200160002060020154610827610952565b6107a2565b61086b576040517f08c379a0000000000000000000000000000000000000000000000000000000008152600401610862906118ae565b60405180910390fd5b61087582826109ed565b5050565b6000806001546000915091509850989650505050505050565b60006108ba836000018373ffffffffffffffffffffffffffffffffffffffff1660001b610d04565b905092915050565b7f000000000000000000000000000000000000000000000000000000000000000073ffffffffffffffffffffffffffffffffffffffff163373ffffffffffffffffffffffffffffffffffffffff1614610950576040517f08c379a00000000000000000000000000000000000000000000000000000000081526004016109479061191a565b60405180910390fd5b565b600033905090565b6109818160008085815260200190815260200160002060000161089290919063ffffffff16565b156109e95761098e610952565b73ffffffffffffffffffffffffffffffffffffffff168173ffffffffffffffffffffffffffffffffffffffff16837f2f8788117e7eff1d82e926ec794901d17c78024a50270940304540a733656f0d60405160405180910390a45b5050565b610a1481600080858152602001908152602001600020600001610d7490919063ffffffff16565b15610a7c57610a21610952565b73ffffffffffffffffffffffffffffffffffffffff168173ffffffffffffffffffffffffffffffffffffffff16837ff6391f5c32d9c69d2a47ea670b442974b53935d1edc7fd64eb21e047a839171b60405160405180910390a45b5050565b6000610a8f8360000183610da4565b60001c905092915050565b610aa76000801b336107a2565b610ae6576040517f08c379a0000000000000000000000000000000000000000000000000000000008152600401610add90611699565b60405180910390fd5b818190508484905014610b2e576040517f08c379a0000000000000000000000000000000000000000000000000000000008152600401610b2590611986565b60405180910390fd5b60005b84849050811015610cb8576000858583818110610b5157610b506119a6565b5b9050602002016020810190610b669190611a13565b73ffffffffffffffffffffffffffffffffffffffff16848484818110610b8f57610b8e6119a6565b5b90506020020135604051610ba290611a71565b60006040518083038185875af1925050503d8060008114610bdf576040519150601f19603f3d011682016040523d82523d6000602084013e610be4565b606091505b5050905080610c28576040517f08c379a0000000000000000000000000000000000000000000000000000000008152600401610c1f90611ad2565b60405180910390fd5b7faaa40a232aaf133fdd28f3485f6fdd163514cfadbffa981f3610f42398efe34b6000878785818110610c5e57610c5d6119a6565b5b9050602002016020810190610c739190611a13565b868686818110610c8657610c856119a6565b5b90506020020135604051610c9c93929190611b51565b60405180910390a1508080610cb090611b88565b915050610b31565b5050505050565b6000610ce7836000018373ffffffffffffffffffffffffffffffffffffffff1660001b610dcf565b905092915050565b6000610cfd82600001610df2565b9050919050565b6000610d108383610dcf565b610d69578260000182908060018154018082558091505060019003906000526020600020016000909190919091505582600001805490508360010160008481526020019081526020016000208190555060019050610d6e565b600090505b92915050565b6000610d9c836000018373ffffffffffffffffffffffffffffffffffffffff1660001b610e03565b905092915050565b6000826000018281548110610dbc57610dbb6119a6565b5b9060005260206000200154905092915050565b600080836001016000848152602001908152602001600020541415905092915050565b600081600001805490509050919050565b60008083600101600084815260200190815260200160002054905060008114610f0b576000600182610e359190611bd1565b9050600060018660000180549050610e4d9190611bd1565b9050818114610ebc576000866000018281548110610e6e57610e6d6119a6565b5b9060005260206000200154905080876000018481548110610e9257610e916119a6565b5b90600052602060002001819055508387600101600083815260200190815260200160002081905550505b85600001805480610ed057610ecf611c05565b5b600190038181906000526020600020016000905590558560010160008681526020019081526020016000206000905560019350505050610f11565b60009150505b92915050565b600080fd5b600080fd5b6000819050919050565b610f3481610f21565b8114610f3f57600080fd5b50565b600081359050610f5181610f2b565b92915050565b600060208284031215610f6d57610f6c610f17565b5b6000610f7b84828501610f42565b91505092915050565b610f8d81610f21565b82525050565b6000602082019050610fa86000830184610f84565b92915050565b600073ffffffffffffffffffffffffffffffffffffffff82169050919050565b6000610fd982610fae565b9050919050565b610fe981610fce565b8114610ff457600080fd5b50565b60008135905061100681610fe0565b92915050565b600060ff82169050919050565b6110228161100c565b811461102d57600080fd5b50565b60008135905061103f81611019565b92915050565b600080fd5b600080fd5b600080fd5b60008083601f84011261106a57611069611045565b5b8235905067ffffffffffffffff8111156110875761108661104a565b5b6020830191508360018202830111156110a3576110a261104f565b5b9250929050565b60008060008060008060008060c0898b0312156110ca576110c9610f17565b5b60006110d88b828c01610ff7565b98505060206110e98b828c01611030565b97505060406110fa8b828c01611030565b965050606061110b8b828c01610f42565b955050608089013567ffffffffffffffff81111561112c5761112b610f1c565b5b6111388b828c01611054565b945094505060a089013567ffffffffffffffff81111561115b5761115a610f1c565b5b6111678b828c01611054565b92509250509295985092959890939650565b600080604083850312156111905761118f610f17565b5b600061119e85828601610f42565b92505060206111af85828601610ff7565b9150509250929050565b6111c281610fce565b82525050565b60006020820190506111dd60008301846111b9565b92915050565b6000819050919050565b6111f6816111e3565b82525050565b600060208201905061121160008301846111ed565b92915050565b611220816111e3565b811461122b57600080fd5b50565b60008135905061123d81611217565b92915050565b60006020828403121561125957611258610f17565b5b60006112678482850161122e565b91505092915050565b6000806040838503121561128757611286610f17565b5b600061129585828601610f42565b92505060206112a68582860161122e565b9150509250929050565b60008083601f8401126112c6576112c5611045565b5b8235905067ffffffffffffffff8111156112e3576112e261104a565b5b6020830191508360208202830111156112ff576112fe61104f565b5b9250929050565b60008083601f84011261131c5761131b611045565b5b8235905067ffffffffffffffff8111156113395761133861104a565b5b6020830191508360208202830111156113555761135461104f565b5b9250929050565b6000806000806040858703121561137657611375610f17565b5b600085013567ffffffffffffffff81111561139457611393610f1c565b5b6113a0878288016112b0565b9450945050602085013567ffffffffffffffff8111156113c3576113c2610f1c565b5b6113cf87828801611306565b925092505092959194509250565b60008115159050919050565b6113f2816113dd565b82525050565b600060208201905061140d60008301846113e9565b92915050565b600060408201905061142860008301856111ed565b61143560208301846111b9565b9392505050565b600082825260208201905092915050565b7f496e636f72726563742066656520737570706c69656400000000000000000000600082015250565b600061148360168361143c565b915061148e8261144d565b602082019050919050565b600060208201905081810360008301526114b281611476565b9050919050565b6114c28161100c565b82525050565b600060c0820190506114dd60008301896111b9565b6114ea60208301886114b9565b6114f760408301876114b9565b6115046060830186610f84565b61151160808301856111ed565b61151e60a08301846111b9565b979650505050505050565b7f416363657373436f6e74726f6c3a2073656e646572206d75737420626520616e60008201527f2061646d696e20746f206772616e740000000000000000000000000000000000602082015250565b6000611585602f8361143c565b915061159082611529565b604082019050919050565b600060208201905081810360008301526115b481611578565b9050919050565b7f416363657373436f6e74726f6c3a2063616e206f6e6c792072656e6f756e636560008201527f20726f6c657320666f722073656c660000000000000000000000000000000000602082015250565b6000611617602f8361143c565b9150611622826115bb565b604082019050919050565b600060208201905081810360008301526116468161160a565b9050919050565b7f73656e64657220646f65736e277420686176652061646d696e20726f6c650000600082015250565b6000611683601e8361143c565b915061168e8261164d565b602082019050919050565b600060208201905081810360008301526116b281611676565b9050919050565b7f43757272656e742066656520697320657175616c20746f206e65772066656500600082015250565b60006116ef601f8361143c565b91506116fa826116b9565b602082019050919050565b6000602082019050818103600083015261171e816116e2565b9050919050565b7f4e487b7100000000000000000000000000000000000000000000000000000000600052601160045260246000fd5b600061175f826111e3565b915061176a836111e3565b9250827fffffffffffffffffffffffffffffffffffffffffffffffffffffffffffffffff0382111561179f5761179e611725565b5b828201905092915050565b7f596f75206e65656420746f2077616974206265666f726520796f752063616e2060008201527f77697468647261772e0000000000000000000000000000000000000000000000602082015250565b600061180660298361143c565b9150611811826117aa565b604082019050919050565b60006020820190508181036000830152611835816117f9565b9050919050565b7f416363657373436f6e74726f6c3a2073656e646572206d75737420626520616e60008201527f2061646d696e20746f207265766f6b6500000000000000000000000000000000602082015250565b600061189860308361143c565b91506118a38261183c565b604082019050919050565b600060208201905081810360008301526118c78161188b565b9050919050565b7f73656e646572206d7573742062652062726964676520636f6e74726163740000600082015250565b6000611904601e8361143c565b915061190f826118ce565b602082019050919050565b60006020820190508181036000830152611933816118f7565b9050919050565b7f61646472735b5d2c20616d6f756e74735b5d3a2064696666206c656e67746800600082015250565b6000611970601f8361143c565b915061197b8261193a565b602082019050919050565b6000602082019050818103600083015261199f81611963565b9050919050565b7f4e487b7100000000000000000000000000000000000000000000000000000000600052603260045260246000fd5b60006119e082610fae565b9050919050565b6119f0816119d5565b81146119fb57600080fd5b50565b600081359050611a0d816119e7565b92915050565b600060208284031215611a2957611a28610f17565b5b6000611a37848285016119fe565b91505092915050565b600081905092915050565b50565b6000611a5b600083611a40565b9150611a6682611a4b565b600082019050919050565b6000611a7c82611a4e565b9150819050919050565b7f466565206574686572207472616e73666572206661696c656400000000000000600082015250565b6000611abc60198361143c565b9150611ac782611a86565b602082019050919050565b60006020820190508181036000830152611aeb81611aaf565b9050919050565b6000819050919050565b6000611b17611b12611b0d84610fae565b611af2565b610fae565b9050919050565b6000611b2982611afc565b9050919050565b6000611b3b82611b1e565b9050919050565b611b4b81611b30565b82525050565b6000606082019050611b6660008301866111b9565b611b736020830185611b42565b611b8060408301846111ed565b949350505050565b6000611b93826111e3565b91507fffffffffffffffffffffffffffffffffffffffffffffffffffffffffffffffff821415611bc657611bc5611725565b5b600182019050919050565b6000611bdc826111e3565b9150611be7836111e3565b925082821015611bfa57611bf9611725565b5b828203905092915050565b7f4e487b7100000000000000000000000000000000000000000000000000000000600052603160045260246000fdfea264697066735822122042057c61c13107773d285b3c00fc0c7aa64b7432439dcd5068383f95aa269f6f64736f6c634300080b0033",
  "immutableReferences": {
    "13169": [
      {
        "length": 32,
        "start": 1268
      },
      {
        "length": 32,
        "start": 2244
      }
    ]
  },
  "source": "pragma solidity >=0.8;\n\nimport \"../node_modules/chainbridge-solidity/contracts/handlers/fee/BasicFeeHandler.sol\";\n\ncontract FeeHandlerLockTime is BasicFeeHandler {\n    uint256 private latestWithdraw;\n    uint256 constant COOLDOWN = 10; //7776000; //6 months at 30 blocks per minute\n\n    constructor(address bridgeAddress) BasicFeeHandler(bridgeAddress) {\n        latestWithdraw = block.number;\n    }\n\n    function transferFee(\n        address payable[] calldata addrs,\n        uint256[] calldata amounts\n    ) external onlyAdmin {\n        require(\n            block.number >= latestWithdraw + COOLDOWN,\n            \"You need to wait before you can withdraw.\"\n        );\n        latestWithdraw = block.number;\n        _transferFee(addrs, amounts);\n    }\n}\n",
  "sourcePath": "/root/bc_connector/crosscoin/contracts/FeeHandlerLockTime.sol",
  "compiler": {
    "name": "solc",
    "version": "0.8.11+commit.d7f03943.Emscripten.clang"
  },
  "schemaVersion": "3.4.7",
  "updatedAt": "2022-06-08T10:37:16.656Z",
  "networkType": "ethereum",
  "devdoc": {
    "kind": "dev",
    "methods": {
      "calculateFee(address,uint8,uint8,bytes32,bytes,bytes)": {
        "params": {
          "depositData": "Additional data to be passed to specified handler.",
          "destinationDomainID": "ID of chain deposit will be bridged to.",
          "feeData": "Additional data to be passed to the fee handler.",
          "resourceID": "ResourceID to be used when making deposits.",
          "sender": "Sender of the deposit."
        },
        "returns": {
          "_0": "Returns the fee amount."
        }
      },
      "changeFee(uint256)": {
        "params": {
          "newFee": "Value {_fee} will be updated to."
        }
      },
      "collectFee(address,uint8,uint8,bytes32,bytes,bytes)": {
        "params": {
          "depositData": "Additional data to be passed to specified handler.",
          "destinationDomainID": "ID of chain deposit will be bridged to.",
          "feeData": "Additional data to be passed to the fee handler.",
          "resourceID": "ResourceID to be used when making deposits.",
          "sender": "Sender of the deposit."
        }
      },
      "getRoleAdmin(bytes32)": {
        "details": "Returns the admin role that controls `role`. See {grantRole} and {revokeRole}. To change a role's admin, use {_setRoleAdmin}."
      },
      "getRoleMember(bytes32,uint256)": {
        "details": "Returns one of the accounts that have `role`. `index` must be a value between 0 and {getRoleMemberCount}, non-inclusive. Role bearers are not sorted in any particular way, and their ordering may change at any point. WARNING: When using {getRoleMember} and {getRoleMemberCount}, make sure you perform all queries on the same block. See the following https://forum.openzeppelin.com/t/iterating-over-elements-on-enumerableset-in-openzeppelin-contracts/2296[forum post] for more information."
      },
      "getRoleMemberCount(bytes32)": {
        "details": "Returns the number of accounts that have `role`. Can be used together with {getRoleMember} to enumerate all bearers of a role."
      },
      "getRoleMemberIndex(bytes32,address)": {
        "details": "Returns the index of the account that have `role`."
      },
      "grantRole(bytes32,address)": {
        "details": "Grants `role` to `account`. If `account` had not been already granted `role`, emits a {RoleGranted} event. Requirements: - the caller must have ``role``'s admin role."
      },
      "hasRole(bytes32,address)": {
        "details": "Returns `true` if `account` has been granted `role`."
      },
      "renounceRole(bytes32,address)": {
        "details": "Revokes `role` from the calling account. Roles are often managed via {grantRole} and {revokeRole}: this function's purpose is to provide a mechanism for accounts to lose their privileges if they are compromised (such as when a trusted device is misplaced). If the calling account had been granted `role`, emits a {RoleRevoked} event. Requirements: - the caller must be `account`."
      },
      "revokeRole(bytes32,address)": {
        "details": "Revokes `role` from `account`. If `account` had been granted `role`, emits a {RoleRevoked} event. Requirements: - the caller must have ``role``'s admin role."
      }
    },
    "version": 1
  },
  "userdoc": {
    "events": {
      "FeeCollected(address,uint8,uint8,bytes32,uint256,address)": {
        "notice": "This event is emitted when the fee is collected."
      },
      "FeeDistributed(address,address,uint256)": {
        "notice": "This event is emitted when the fee is distributed to an address."
      }
    },
    "kind": "user",
    "methods": {
      "calculateFee(address,uint8,uint8,bytes32,bytes,bytes)": {
        "notice": "Calculates fee for deposit."
      },
      "changeFee(uint256)": {
        "notice": "Sets new value of the fee.Only callable by admin."
      },
      "collectFee(address,uint8,uint8,bytes32,bytes,bytes)": {
        "notice": "Collects fee for deposit."
      }
    },
    "version": 1
  }
}