{
  "contractName": "FeeHandlerWithOracle",
  "abi": [
    {
      "inputs": [
        {
          "internalType": "address",
          "name": "bridgeAddress",
          "type": "address"
        }
      ],
      "stateMutability": "nonpayable",
      "type": "constructor"
    },
    {
      "anonymous": false,
      "inputs": [
        {
          "indexed": false,
          "internalType": "address",
          "name": "sender",
          "type": "address"
        },
        {
          "indexed": false,
          "internalType": "uint8",
          "name": "fromDomainID",
          "type": "uint8"
        },
        {
          "indexed": false,
          "internalType": "uint8",
          "name": "destinationDomainID",
          "type": "uint8"
        },
        {
          "indexed": false,
          "internalType": "bytes32",
          "name": "resourceID",
          "type": "bytes32"
        },
        {
          "indexed": false,
          "internalType": "uint256",
          "name": "fee",
          "type": "uint256"
        },
        {
          "indexed": false,
          "internalType": "address",
          "name": "tokenAddress",
          "type": "address"
        }
      ],
      "name": "FeeCollected",
      "type": "event"
    },
    {
      "anonymous": false,
      "inputs": [
        {
          "indexed": false,
          "internalType": "address",
          "name": "tokenAddress",
          "type": "address"
        },
        {
          "indexed": false,
          "internalType": "address",
          "name": "recipient",
          "type": "address"
        },
        {
          "indexed": false,
          "internalType": "uint256",
          "name": "amount",
          "type": "uint256"
        }
      ],
      "name": "FeeDistributed",
      "type": "event"
    },
    {
      "anonymous": false,
      "inputs": [
        {
          "indexed": true,
          "internalType": "bytes32",
          "name": "role",
          "type": "bytes32"
        },
        {
          "indexed": true,
          "internalType": "bytes32",
          "name": "previousAdminRole",
          "type": "bytes32"
        },
        {
          "indexed": true,
          "internalType": "bytes32",
          "name": "newAdminRole",
          "type": "bytes32"
        }
      ],
      "name": "RoleAdminChanged",
      "type": "event"
    },
    {
      "anonymous": false,
      "inputs": [
        {
          "indexed": true,
          "internalType": "bytes32",
          "name": "role",
          "type": "bytes32"
        },
        {
          "indexed": true,
          "internalType": "address",
          "name": "account",
          "type": "address"
        },
        {
          "indexed": true,
          "internalType": "address",
          "name": "sender",
          "type": "address"
        }
      ],
      "name": "RoleGranted",
      "type": "event"
    },
    {
      "anonymous": false,
      "inputs": [
        {
          "indexed": true,
          "internalType": "bytes32",
          "name": "role",
          "type": "bytes32"
        },
        {
          "indexed": true,
          "internalType": "address",
          "name": "account",
          "type": "address"
        },
        {
          "indexed": true,
          "internalType": "address",
          "name": "sender",
          "type": "address"
        }
      ],
      "name": "RoleRevoked",
      "type": "event"
    },
    {
      "inputs": [],
      "name": "DEFAULT_ADMIN_ROLE",
      "outputs": [
        {
          "internalType": "bytes32",
          "name": "",
          "type": "bytes32"
        }
      ],
      "stateMutability": "view",
      "type": "function"
    },
    {
      "inputs": [],
      "name": "_bridgeAddress",
      "outputs": [
        {
          "internalType": "address",
          "name": "",
          "type": "address"
        }
      ],
      "stateMutability": "view",
      "type": "function"
    },
    {
      "inputs": [],
      "name": "_feePercent",
      "outputs": [
        {
          "internalType": "uint16",
          "name": "",
          "type": "uint16"
        }
      ],
      "stateMutability": "view",
      "type": "function"
    },
    {
      "inputs": [],
      "name": "_gasUsed",
      "outputs": [
        {
          "internalType": "uint32",
          "name": "",
          "type": "uint32"
        }
      ],
      "stateMutability": "view",
      "type": "function"
    },
    {
      "inputs": [],
      "name": "_oracleAddress",
      "outputs": [
        {
          "internalType": "address",
          "name": "",
          "type": "address"
        }
      ],
      "stateMutability": "view",
      "type": "function"
    },
    {
      "inputs": [
        {
          "internalType": "bytes32",
          "name": "role",
          "type": "bytes32"
        }
      ],
      "name": "getRoleAdmin",
      "outputs": [
        {
          "internalType": "bytes32",
          "name": "",
          "type": "bytes32"
        }
      ],
      "stateMutability": "view",
      "type": "function"
    },
    {
      "inputs": [
        {
          "internalType": "bytes32",
          "name": "role",
          "type": "bytes32"
        },
        {
          "internalType": "address",
          "name": "account",
          "type": "address"
        }
      ],
      "name": "grantRole",
      "outputs": [],
      "stateMutability": "nonpayable",
      "type": "function"
    },
    {
      "inputs": [
        {
          "internalType": "bytes32",
          "name": "role",
          "type": "bytes32"
        },
        {
          "internalType": "address",
          "name": "account",
          "type": "address"
        }
      ],
      "name": "hasRole",
      "outputs": [
        {
          "internalType": "bool",
          "name": "",
          "type": "bool"
        }
      ],
      "stateMutability": "view",
      "type": "function"
    },
    {
      "inputs": [
        {
          "internalType": "bytes32",
          "name": "role",
          "type": "bytes32"
        },
        {
          "internalType": "address",
          "name": "account",
          "type": "address"
        }
      ],
      "name": "renounceRole",
      "outputs": [],
      "stateMutability": "nonpayable",
      "type": "function"
    },
    {
      "inputs": [
        {
          "internalType": "bytes32",
          "name": "role",
          "type": "bytes32"
        },
        {
          "internalType": "address",
          "name": "account",
          "type": "address"
        }
      ],
      "name": "revokeRole",
      "outputs": [],
      "stateMutability": "nonpayable",
      "type": "function"
    },
    {
      "inputs": [
        {
          "internalType": "bytes4",
          "name": "interfaceId",
          "type": "bytes4"
        }
      ],
      "name": "supportsInterface",
      "outputs": [
        {
          "internalType": "bool",
          "name": "",
          "type": "bool"
        }
      ],
      "stateMutability": "view",
      "type": "function"
    },
    {
      "inputs": [
        {
          "internalType": "address",
          "name": "oracleAddress",
          "type": "address"
        }
      ],
      "name": "setFeeOracle",
      "outputs": [],
      "stateMutability": "nonpayable",
      "type": "function"
    },
    {
      "inputs": [
        {
          "internalType": "uint32",
          "name": "gasUsed",
          "type": "uint32"
        },
        {
          "internalType": "uint16",
          "name": "feePercent",
          "type": "uint16"
        }
      ],
      "name": "setFeeProperties",
      "outputs": [],
      "stateMutability": "nonpayable",
      "type": "function"
    },
    {
      "inputs": [
        {
          "internalType": "address",
          "name": "sender",
          "type": "address"
        },
        {
          "internalType": "uint8",
          "name": "fromDomainID",
          "type": "uint8"
        },
        {
          "internalType": "uint8",
          "name": "destinationDomainID",
          "type": "uint8"
        },
        {
          "internalType": "bytes32",
          "name": "resourceID",
          "type": "bytes32"
        },
        {
          "internalType": "bytes",
          "name": "depositData",
          "type": "bytes"
        },
        {
          "internalType": "bytes",
          "name": "feeData",
          "type": "bytes"
        }
      ],
      "name": "collectFee",
      "outputs": [],
      "stateMutability": "payable",
      "type": "function"
    },
    {
      "inputs": [
        {
          "internalType": "address",
          "name": "sender",
          "type": "address"
        },
        {
          "internalType": "uint8",
          "name": "fromDomainID",
          "type": "uint8"
        },
        {
          "internalType": "uint8",
          "name": "destinationDomainID",
          "type": "uint8"
        },
        {
          "internalType": "bytes32",
          "name": "resourceID",
          "type": "bytes32"
        },
        {
          "internalType": "bytes",
          "name": "depositData",
          "type": "bytes"
        },
        {
          "internalType": "bytes",
          "name": "feeData",
          "type": "bytes"
        }
      ],
      "name": "calculateFee",
      "outputs": [
        {
          "internalType": "uint256",
          "name": "fee",
          "type": "uint256"
        },
        {
          "internalType": "address",
          "name": "tokenAddress",
          "type": "address"
        }
      ],
      "stateMutability": "view",
      "type": "function"
    },
    {
      "inputs": [
        {
          "internalType": "bytes32",
          "name": "resourceID",
          "type": "bytes32"
        },
        {
          "internalType": "address[]",
          "name": "addrs",
          "type": "address[]"
        },
        {
          "internalType": "uint256[]",
          "name": "amounts",
          "type": "uint256[]"
        }
      ],
      "name": "transferFee",
      "outputs": [],
      "stateMutability": "nonpayable",
      "type": "function"
    }
  ],
  "bytecode": "0x60a06040523480156200001157600080fd5b50604051620034b1380380620034b183398181016040528101906200003791906200026a565b8073ffffffffffffffffffffffffffffffffffffffff1660808173ffffffffffffffffffffffffffffffffffffffff1681525050620000806000801b336200008760201b60201c565b506200029c565b6200009982826200009d60201b60201c565b5050565b620000af82826200018e60201b60201c565b6200018a57600160008084815260200190815260200160002060000160008373ffffffffffffffffffffffffffffffffffffffff1673ffffffffffffffffffffffffffffffffffffffff16815260200190815260200160002060006101000a81548160ff0219169083151502179055506200012f620001f860201b60201c565b73ffffffffffffffffffffffffffffffffffffffff168173ffffffffffffffffffffffffffffffffffffffff16837f2f8788117e7eff1d82e926ec794901d17c78024a50270940304540a733656f0d60405160405180910390a45b5050565b600080600084815260200190815260200160002060000160008373ffffffffffffffffffffffffffffffffffffffff1673ffffffffffffffffffffffffffffffffffffffff16815260200190815260200160002060009054906101000a900460ff16905092915050565b600033905090565b600080fd5b600073ffffffffffffffffffffffffffffffffffffffff82169050919050565b6000620002328262000205565b9050919050565b620002448162000225565b81146200025057600080fd5b50565b600081519050620002648162000239565b92915050565b60006020828403121562000283576200028262000200565b5b6000620002938482850162000253565b91505092915050565b6080516131e4620002cd6000396000818161054d015281816107c501528181610b230152610e0401526131e46000f3fe6080604052600436106100f35760003560e01c806391d148541161008a578063c297983f11610059578063c297983f1461031b578063d547741f14610344578063ef4f081f1461036d578063fc818cfb146103ab576100f3565b806391d1485414610261578063a217fddf1461029e578063a8a98962146102c9578063bff42755146102f2576100f3565b8063318c136e116100c6578063318c136e146101b757806336568abe146101e2578063692229481461020b5780636fb7cb5714610236576100f3565b806301ffc9a7146100f8578063248a9ca31461013557806325307065146101725780632f2ff15d1461018e575b600080fd5b34801561010457600080fd5b5061011f600480360381019061011a9190611c0c565b6103d6565b60405161012c9190611c54565b60405180910390f35b34801561014157600080fd5b5061015c60048036038101906101579190611ca5565b610450565b6040516101699190611ce1565b60405180910390f35b61018c60048036038101906101879190611df8565b61046f565b005b34801561019a57600080fd5b506101b560048036038101906101b09190611ec7565b61052a565b005b3480156101c357600080fd5b506101cc61054b565b6040516101d99190611f16565b60405180910390f35b3480156101ee57600080fd5b5061020960048036038101906102049190611ec7565b61056f565b005b34801561021757600080fd5b506102206105f2565b60405161022d9190611f4e565b60405180910390f35b34801561024257600080fd5b5061024b610606565b6040516102589190611f16565b60405180910390f35b34801561026d57600080fd5b5061028860048036038101906102839190611ec7565b61062c565b6040516102959190611c54565b60405180910390f35b3480156102aa57600080fd5b506102b3610696565b6040516102c09190611ce1565b60405180910390f35b3480156102d557600080fd5b506102f060048036038101906102eb9190611f69565b61069d565b005b3480156102fe57600080fd5b5061031960048036038101906103149190612042565b61072d565b005b34801561032757600080fd5b50610342600480360381019061033d919061213f565b6109ce565b005b34801561035057600080fd5b5061036b60048036038101906103669190611ec7565b610a5c565b005b34801561037957600080fd5b50610394600480360381019061038f9190611df8565b610a7d565b6040516103a2929190612198565b60405180910390f35b3480156103b757600080fd5b506103c0610aa1565b6040516103cd91906121d0565b60405180910390f35b60007f7965db0b000000000000000000000000000000000000000000000000000000007bffffffffffffffffffffffffffffffffffffffffffffffffffffffff1916827bffffffffffffffffffffffffffffffffffffffffffffffffffffffff19161480610449575061044882610ab7565b5b9050919050565b6000806000838152602001908152602001600020600101549050919050565b610477610b21565b600034146104ba576040517f08c379a00000000000000000000000000000000000000000000000000000000081526004016104b190612248565b60405180910390fd5b6000806104cd8a8a8a8a8a8a8a8a610bb1565b915091506104dd818b3085610fc2565b7fbd231b7fa4103e15e7a238c72f07e8aff310701af121895aa6c793b80245e4338a8a8a8a868660405161051696959493929190612277565b60405180910390a150505050505050505050565b61053382610450565b61053c81610fda565b6105468383610fee565b505050565b7f000000000000000000000000000000000000000000000000000000000000000081565b6105776110ce565b73ffffffffffffffffffffffffffffffffffffffff168173ffffffffffffffffffffffffffffffffffffffff16146105e4576040517f08c379a00000000000000000000000000000000000000000000000000000000081526004016105db9061234a565b60405180910390fd5b6105ee82826110d6565b5050565b600160189054906101000a900461ffff1681565b600160009054906101000a900473ffffffffffffffffffffffffffffffffffffffff1681565b600080600084815260200190815260200160002060000160008373ffffffffffffffffffffffffffffffffffffffff1673ffffffffffffffffffffffffffffffffffffffff16815260200190815260200160002060009054906101000a900460ff16905092915050565b6000801b81565b6106aa6000801b3361062c565b6106e9576040517f08c379a00000000000000000000000000000000000000000000000000000000081526004016106e0906123b6565b60405180910390fd5b80600160006101000a81548173ffffffffffffffffffffffffffffffffffffffff021916908373ffffffffffffffffffffffffffffffffffffffff16021790555050565b61073a6000801b3361062c565b610779576040517f08c379a0000000000000000000000000000000000000000000000000000000008152600401610770906123b6565b60405180910390fd5b8181905084849050146107c1576040517f08c379a00000000000000000000000000000000000000000000000000000000081526004016107b890612422565b60405180910390fd5b60007f000000000000000000000000000000000000000000000000000000000000000073ffffffffffffffffffffffffffffffffffffffff166384db809f876040518263ffffffff1660e01b815260040161081c9190611ce1565b602060405180830381865afa158015610839573d6000803e3d6000fd5b505050506040513d601f19601f8201168201806040525081019061085d9190612457565b905060008173ffffffffffffffffffffffffffffffffffffffff16630a6d55d8886040518263ffffffff1660e01b815260040161089a9190611ce1565b602060405180830381865afa1580156108b7573d6000803e3d6000fd5b505050506040513d601f19601f820116820180604052508101906108db9190612457565b905060005b868690508110156109c4576109368288888481811061090257610901612484565b5b90506020020160208101906109179190611f69565b87878581811061092a57610929612484565b5b905060200201356111b7565b7faaa40a232aaf133fdd28f3485f6fdd163514cfadbffa981f3610f42398efe34b8288888481811061096b5761096a612484565b5b90506020020160208101906109809190611f69565b87878581811061099357610992612484565b5b905060200201356040516109a9939291906124b3565b60405180910390a180806109bc90612519565b9150506108e0565b5050505050505050565b6109db6000801b3361062c565b610a1a576040517f08c379a0000000000000000000000000000000000000000000000000000000008152600401610a11906123b6565b60405180910390fd5b81600160146101000a81548163ffffffff021916908363ffffffff16021790555080600160186101000a81548161ffff021916908361ffff1602179055505050565b610a6582610450565b610a6e81610fda565b610a7883836110d6565b505050565b600080610a908a8a8a8a8a8a8a8a610bb1565b915091509850989650505050505050565b600160149054906101000a900463ffffffff1681565b60007f01ffc9a7000000000000000000000000000000000000000000000000000000007bffffffffffffffffffffffffffffffffffffffffffffffffffffffff1916827bffffffffffffffffffffffffffffffffffffffffffffffffffffffff1916149050919050565b7f000000000000000000000000000000000000000000000000000000000000000073ffffffffffffffffffffffffffffffffffffffff163373ffffffffffffffffffffffffffffffffffffffff1614610baf576040517f08c379a0000000000000000000000000000000000000000000000000000000008152600401610ba6906125ae565b60405180910390fd5b565b6000806101418484905014610bfb576040517f08c379a0000000000000000000000000000000000000000000000000000000008152600401610bf29061261a565b60405180910390fd5b610c03611b7f565b848460009060e092610c1793929190612644565b8080601f016020809104026020016040519081016040528093929190818152602001838380828437600081840152601f19601f820116905080830192505050505050508160000181905250848460e09061012192610c7793929190612644565b8080601f016020809104026020016040519081016040528093929190818152602001838380828437600081840152601f19601f8201169050808301925050505050505081602001819052508484610121908092610cd693929190612644565b810190610ce391906126ab565b81604001818152505060008160000151806020019051810190610d06919061285c565b90508060600151421115610d4f576040517f08c379a0000000000000000000000000000000000000000000000000000000008152600401610d46906128d5565b60405180910390fd5b8a60ff16816080015160ff16148015610d7157508960ff168160a0015160ff16145b8015610d805750888160c00151145b610dbf576040517f08c379a0000000000000000000000000000000000000000000000000000000008152600401610db690612941565b60405180910390fd5b60008260000151805190602001209050610e00818460200151600160009054906101000a900473ffffffffffffffffffffffffffffffffffffffff166111cd565b60007f000000000000000000000000000000000000000000000000000000000000000073ffffffffffffffffffffffffffffffffffffffff166384db809f8c6040518263ffffffff1660e01b8152600401610e5b9190611ce1565b602060405180830381865afa158015610e78573d6000803e3d6000fd5b505050506040513d601f19601f82011682018060405250810190610e9c9190612457565b905060008173ffffffffffffffffffffffffffffffffffffffff16630a6d55d88d6040518263ffffffff1660e01b8152600401610ed99190611ce1565b602060405180830381865afa158015610ef6573d6000803e3d6000fd5b505050506040513d601f19601f82011682018060405250810190610f1a9190612457565b90506000670de0b6b3a76400008560200151600160149054906101000a900463ffffffff1663ffffffff168760400151610f549190612961565b610f5e9190612961565b610f6891906129ea565b9050612710600160189054906101000a900461ffff1661ffff168760400151610f919190612961565b610f9b91906129ea565b975080881015610fa9578097505b8782975097505050505050509850989650505050505050565b6000849050610fd38185858561124f565b5050505050565b610feb81610fe66110ce565b6112d8565b50565b610ff8828261062c565b6110ca57600160008084815260200190815260200160002060000160008373ffffffffffffffffffffffffffffffffffffffff1673ffffffffffffffffffffffffffffffffffffffff16815260200190815260200160002060006101000a81548160ff02191690831515021790555061106f6110ce565b73ffffffffffffffffffffffffffffffffffffffff168173ffffffffffffffffffffffffffffffffffffffff16837f2f8788117e7eff1d82e926ec794901d17c78024a50270940304540a733656f0d60405160405180910390a45b5050565b600033905090565b6110e0828261062c565b156111b357600080600084815260200190815260200160002060000160008373ffffffffffffffffffffffffffffffffffffffff1673ffffffffffffffffffffffffffffffffffffffff16815260200190815260200160002060006101000a81548160ff0219169083151502179055506111586110ce565b73ffffffffffffffffffffffffffffffffffffffff168173ffffffffffffffffffffffffffffffffffffffff16837ff6391f5c32d9c69d2a47ea670b442974b53935d1edc7fd64eb21e047a839171b60405160405180910390a45b5050565b60008390506111c7818484611375565b50505050565b60006111d984846113fb565b90508173ffffffffffffffffffffffffffffffffffffffff168173ffffffffffffffffffffffffffffffffffffffff1614611249576040517f08c379a000000000000000000000000000000000000000000000000000000000815260040161124090612a67565b60405180910390fd5b50505050565b6112d2846323b872dd60e01b858585604051602401611270939291906124b3565b604051602081830303815290604052907bffffffffffffffffffffffffffffffffffffffffffffffffffffffff19166020820180517bffffffffffffffffffffffffffffffffffffffffffffffffffffffff8381831617835250505050611422565b50505050565b6112e2828261062c565b611371576113078173ffffffffffffffffffffffffffffffffffffffff16601461157f565b6113158360001c602061157f565b604051602001611326929190612b99565b6040516020818303038152906040526040517f08c379a00000000000000000000000000000000000000000000000000000000081526004016113689190612c0c565b60405180910390fd5b5050565b6113f68363a9059cbb60e01b8484604051602401611394929190612c2e565b604051602081830303815290604052907bffffffffffffffffffffffffffffffffffffffffffffffffffffffff19166020820180517bffffffffffffffffffffffffffffffffffffffffffffffffffffffff8381831617835250505050611422565b505050565b600080600061140a85856117bb565b915091506114178161183e565b819250505092915050565b6000823b90506000811161146b576040517f08c379a000000000000000000000000000000000000000000000000000000000815260040161146290612ca3565b60405180910390fd5b6000808473ffffffffffffffffffffffffffffffffffffffff16846040516114939190612d0a565b6000604051808303816000865af19150503d80600081146114d0576040519150601f19603f3d011682016040523d82523d6000602084013e6114d5565b606091505b50915091508161151a576040517f08c379a000000000000000000000000000000000000000000000000000000000815260040161151190612d6d565b60405180910390fd5b60008151111561157857808060200190518101906115389190612db9565b611577576040517f08c379a000000000000000000000000000000000000000000000000000000000815260040161156e90612e32565b60405180910390fd5b5b5050505050565b6060600060028360026115929190612961565b61159c9190612e52565b67ffffffffffffffff8111156115b5576115b46126ee565b5b6040519080825280601f01601f1916602001820160405280156115e75781602001600182028036833780820191505090505b5090507f30000000000000000000000000000000000000000000000000000000000000008160008151811061161f5761161e612484565b5b60200101907effffffffffffffffffffffffffffffffffffffffffffffffffffffffffffff1916908160001a9053507f78000000000000000000000000000000000000000000000000000000000000008160018151811061168357611682612484565b5b60200101907effffffffffffffffffffffffffffffffffffffffffffffffffffffffffffff1916908160001a905350600060018460026116c39190612961565b6116cd9190612e52565b90505b600181111561176d577f3031323334353637383961626364656600000000000000000000000000000000600f86166010811061170f5761170e612484565b5b1a60f81b82828151811061172657611725612484565b5b60200101907effffffffffffffffffffffffffffffffffffffffffffffffffffffffffffff1916908160001a905350600485901c94508061176690612ea8565b90506116d0565b50600084146117b1576040517f08c379a00000000000000000000000000000000000000000000000000000000081526004016117a890612f1e565b60405180910390fd5b8091505092915050565b6000806041835114156117fd5760008060006020860151925060408601519150606086015160001a90506117f187828585611a13565b94509450505050611837565b60408351141561182e576000806020850151915060408501519050611823868383611b20565b935093505050611837565b60006002915091505b9250929050565b6000600481111561185257611851612f3e565b5b81600481111561186557611864612f3e565b5b141561187057611a10565b6001600481111561188457611883612f3e565b5b81600481111561189757611896612f3e565b5b14156118d8576040517f08c379a00000000000000000000000000000000000000000000000000000000081526004016118cf90612fb9565b60405180910390fd5b600260048111156118ec576118eb612f3e565b5b8160048111156118ff576118fe612f3e565b5b1415611940576040517f08c379a000000000000000000000000000000000000000000000000000000000815260040161193790613025565b60405180910390fd5b6003600481111561195457611953612f3e565b5b81600481111561196757611966612f3e565b5b14156119a8576040517f08c379a000000000000000000000000000000000000000000000000000000000815260040161199f906130b7565b60405180910390fd5b6004808111156119bb576119ba612f3e565b5b8160048111156119ce576119cd612f3e565b5b1415611a0f576040517f08c379a0000000000000000000000000000000000000000000000000000000008152600401611a0690613149565b60405180910390fd5b5b50565b6000807f7fffffffffffffffffffffffffffffff5d576e7357a4501ddfe92f46681b20a08360001c1115611a4e576000600391509150611b17565b601b8560ff1614158015611a665750601c8560ff1614155b15611a78576000600491509150611b17565b600060018787878760405160008152602001604052604051611a9d9493929190613169565b6020604051602081039080840390855afa158015611abf573d6000803e3d6000fd5b505050602060405103519050600073ffffffffffffffffffffffffffffffffffffffff168173ffffffffffffffffffffffffffffffffffffffff161415611b0e57600060019250925050611b17565b80600092509250505b94509492505050565b60008060007f7fffffffffffffffffffffffffffffffffffffffffffffffffffffffffffffff60001b841690506000601b60ff8660001c901c611b639190612e52565b9050611b7187828885611a13565b935093505050935093915050565b60405180606001604052806060815260200160608152602001600081525090565b6000604051905090565b600080fd5b600080fd5b60007fffffffff0000000000000000000000000000000000000000000000000000000082169050919050565b611be981611bb4565b8114611bf457600080fd5b50565b600081359050611c0681611be0565b92915050565b600060208284031215611c2257611c21611baa565b5b6000611c3084828501611bf7565b91505092915050565b60008115159050919050565b611c4e81611c39565b82525050565b6000602082019050611c696000830184611c45565b92915050565b6000819050919050565b611c8281611c6f565b8114611c8d57600080fd5b50565b600081359050611c9f81611c79565b92915050565b600060208284031215611cbb57611cba611baa565b5b6000611cc984828501611c90565b91505092915050565b611cdb81611c6f565b82525050565b6000602082019050611cf66000830184611cd2565b92915050565b600073ffffffffffffffffffffffffffffffffffffffff82169050919050565b6000611d2782611cfc565b9050919050565b611d3781611d1c565b8114611d4257600080fd5b50565b600081359050611d5481611d2e565b92915050565b600060ff82169050919050565b611d7081611d5a565b8114611d7b57600080fd5b50565b600081359050611d8d81611d67565b92915050565b600080fd5b600080fd5b600080fd5b60008083601f840112611db857611db7611d93565b5b8235905067ffffffffffffffff811115611dd557611dd4611d98565b5b602083019150836001820283011115611df157611df0611d9d565b5b9250929050565b60008060008060008060008060c0898b031215611e1857611e17611baa565b5b6000611e268b828c01611d45565b9850506020611e378b828c01611d7e565b9750506040611e488b828c01611d7e565b9650506060611e598b828c01611c90565b955050608089013567ffffffffffffffff811115611e7a57611e79611baf565b5b611e868b828c01611da2565b945094505060a089013567ffffffffffffffff811115611ea957611ea8611baf565b5b611eb58b828c01611da2565b92509250509295985092959890939650565b60008060408385031215611ede57611edd611baa565b5b6000611eec85828601611c90565b9250506020611efd85828601611d45565b9150509250929050565b611f1081611d1c565b82525050565b6000602082019050611f2b6000830184611f07565b92915050565b600061ffff82169050919050565b611f4881611f31565b82525050565b6000602082019050611f636000830184611f3f565b92915050565b600060208284031215611f7f57611f7e611baa565b5b6000611f8d84828501611d45565b91505092915050565b60008083601f840112611fac57611fab611d93565b5b8235905067ffffffffffffffff811115611fc957611fc8611d98565b5b602083019150836020820283011115611fe557611fe4611d9d565b5b9250929050565b60008083601f84011261200257612001611d93565b5b8235905067ffffffffffffffff81111561201f5761201e611d98565b5b60208301915083602082028301111561203b5761203a611d9d565b5b9250929050565b60008060008060006060868803121561205e5761205d611baa565b5b600061206c88828901611c90565b955050602086013567ffffffffffffffff81111561208d5761208c611baf565b5b61209988828901611f96565b9450945050604086013567ffffffffffffffff8111156120bc576120bb611baf565b5b6120c888828901611fec565b92509250509295509295909350565b600063ffffffff82169050919050565b6120f0816120d7565b81146120fb57600080fd5b50565b60008135905061210d816120e7565b92915050565b61211c81611f31565b811461212757600080fd5b50565b60008135905061213981612113565b92915050565b6000806040838503121561215657612155611baa565b5b6000612164858286016120fe565b92505060206121758582860161212a565b9150509250929050565b6000819050919050565b6121928161217f565b82525050565b60006040820190506121ad6000830185612189565b6121ba6020830184611f07565b9392505050565b6121ca816120d7565b82525050565b60006020820190506121e560008301846121c1565b92915050565b600082825260208201905092915050565b7f636f6c6c6563744665653a206d73672e76616c756520213d2030000000000000600082015250565b6000612232601a836121eb565b915061223d826121fc565b602082019050919050565b6000602082019050818103600083015261226181612225565b9050919050565b61227181611d5a565b82525050565b600060c08201905061228c6000830189611f07565b6122996020830188612268565b6122a66040830187612268565b6122b36060830186611cd2565b6122c06080830185612189565b6122cd60a0830184611f07565b979650505050505050565b7f416363657373436f6e74726f6c3a2063616e206f6e6c792072656e6f756e636560008201527f20726f6c657320666f722073656c660000000000000000000000000000000000602082015250565b6000612334602f836121eb565b915061233f826122d8565b604082019050919050565b6000602082019050818103600083015261236381612327565b9050919050565b7f73656e64657220646f65736e277420686176652061646d696e20726f6c650000600082015250565b60006123a0601e836121eb565b91506123ab8261236a565b602082019050919050565b600060208201905081810360008301526123cf81612393565b9050919050565b7f61646472735b5d2c20616d6f756e74735b5d3a2064696666206c656e67746800600082015250565b600061240c601f836121eb565b9150612417826123d6565b602082019050919050565b6000602082019050818103600083015261243b816123ff565b9050919050565b60008151905061245181611d2e565b92915050565b60006020828403121561246d5761246c611baa565b5b600061247b84828501612442565b91505092915050565b7f4e487b7100000000000000000000000000000000000000000000000000000000600052603260045260246000fd5b60006060820190506124c86000830186611f07565b6124d56020830185611f07565b6124e26040830184612189565b949350505050565b7f4e487b7100000000000000000000000000000000000000000000000000000000600052601160045260246000fd5b60006125248261217f565b91507fffffffffffffffffffffffffffffffffffffffffffffffffffffffffffffffff821415612557576125566124ea565b5b600182019050919050565b7f73656e646572206d7573742062652062726964676520636f6e74726163740000600082015250565b6000612598601e836121eb565b91506125a382612562565b602082019050919050565b600060208201905081810360008301526125c78161258b565b9050919050565b7f496e636f72726563742066656544617461206c656e6774680000000000000000600082015250565b60006126046018836121eb565b915061260f826125ce565b602082019050919050565b60006020820190508181036000830152612633816125f7565b9050919050565b600080fd5b600080fd5b600080858511156126585761265761263a565b5b838611156126695761266861263f565b5b6001850283019150848603905094509492505050565b6126888161217f565b811461269357600080fd5b50565b6000813590506126a58161267f565b92915050565b6000602082840312156126c1576126c0611baa565b5b60006126cf84828501612696565b91505092915050565b600080fd5b6000601f19601f8301169050919050565b7f4e487b7100000000000000000000000000000000000000000000000000000000600052604160045260246000fd5b612726826126dd565b810181811067ffffffffffffffff82111715612745576127446126ee565b5b80604052505050565b6000612758611ba0565b9050612764828261271d565b919050565b6000815190506127788161267f565b92915050565b60008151905061278d81611d67565b92915050565b6000815190506127a281611c79565b92915050565b600060e082840312156127be576127bd6126d8565b5b6127c860e061274e565b905060006127d884828501612769565b60008301525060206127ec84828501612769565b602083015250604061280084828501612769565b604083015250606061281484828501612769565b60608301525060806128288482850161277e565b60808301525060a061283c8482850161277e565b60a08301525060c061285084828501612793565b60c08301525092915050565b600060e0828403121561287257612871611baa565b5b6000612880848285016127a8565b91505092915050565b7f4f62736f6c657465206f7261636c652064617461000000000000000000000000600082015250565b60006128bf6014836121eb565b91506128ca82612889565b602082019050919050565b600060208201905081810360008301526128ee816128b2565b9050919050565b7f496e636f7272656374206465706f73697420706172616d730000000000000000600082015250565b600061292b6018836121eb565b9150612936826128f5565b602082019050919050565b6000602082019050818103600083015261295a8161291e565b9050919050565b600061296c8261217f565b91506129778361217f565b9250817fffffffffffffffffffffffffffffffffffffffffffffffffffffffffffffffff04831182151516156129b0576129af6124ea565b5b828202905092915050565b7f4e487b7100000000000000000000000000000000000000000000000000000000600052601260045260246000fd5b60006129f58261217f565b9150612a008361217f565b925082612a1057612a0f6129bb565b5b828204905092915050565b7f496e76616c6964207369676e6174757265000000000000000000000000000000600082015250565b6000612a516011836121eb565b9150612a5c82612a1b565b602082019050919050565b60006020820190508181036000830152612a8081612a44565b9050919050565b600081905092915050565b7f416363657373436f6e74726f6c3a206163636f756e7420000000000000000000600082015250565b6000612ac8601783612a87565b9150612ad382612a92565b601782019050919050565b600081519050919050565b60005b83811015612b07578082015181840152602081019050612aec565b83811115612b16576000848401525b50505050565b6000612b2782612ade565b612b318185612a87565b9350612b41818560208601612ae9565b80840191505092915050565b7f206973206d697373696e6720726f6c6520000000000000000000000000000000600082015250565b6000612b83601183612a87565b9150612b8e82612b4d565b601182019050919050565b6000612ba482612abb565b9150612bb08285612b1c565b9150612bbb82612b76565b9150612bc78284612b1c565b91508190509392505050565b6000612bde82612ade565b612be881856121eb565b9350612bf8818560208601612ae9565b612c01816126dd565b840191505092915050565b60006020820190508181036000830152612c268184612bd3565b905092915050565b6000604082019050612c436000830185611f07565b612c506020830184612189565b9392505050565b7f45524332303a206e6f74206120636f6e74726163740000000000000000000000600082015250565b6000612c8d6015836121eb565b9150612c9882612c57565b602082019050919050565b60006020820190508181036000830152612cbc81612c80565b9050919050565b600081519050919050565b600081905092915050565b6000612ce482612cc3565b612cee8185612cce565b9350612cfe818560208601612ae9565b80840191505092915050565b6000612d168284612cd9565b915081905092915050565b7f45524332303a2063616c6c206661696c65640000000000000000000000000000600082015250565b6000612d576012836121eb565b9150612d6282612d21565b602082019050919050565b60006020820190508181036000830152612d8681612d4a565b9050919050565b612d9681611c39565b8114612da157600080fd5b50565b600081519050612db381612d8d565b92915050565b600060208284031215612dcf57612dce611baa565b5b6000612ddd84828501612da4565b91505092915050565b7f45524332303a206f7065726174696f6e20646964206e6f742073756363656564600082015250565b6000612e1c6020836121eb565b9150612e2782612de6565b602082019050919050565b60006020820190508181036000830152612e4b81612e0f565b9050919050565b6000612e5d8261217f565b9150612e688361217f565b9250827fffffffffffffffffffffffffffffffffffffffffffffffffffffffffffffffff03821115612e9d57612e9c6124ea565b5b828201905092915050565b6000612eb38261217f565b91506000821415612ec757612ec66124ea565b5b600182039050919050565b7f537472696e67733a20686578206c656e67746820696e73756666696369656e74600082015250565b6000612f086020836121eb565b9150612f1382612ed2565b602082019050919050565b60006020820190508181036000830152612f3781612efb565b9050919050565b7f4e487b7100000000000000000000000000000000000000000000000000000000600052602160045260246000fd5b7f45434453413a20696e76616c6964207369676e61747572650000000000000000600082015250565b6000612fa36018836121eb565b9150612fae82612f6d565b602082019050919050565b60006020820190508181036000830152612fd281612f96565b9050919050565b7f45434453413a20696e76616c6964207369676e6174757265206c656e67746800600082015250565b600061300f601f836121eb565b915061301a82612fd9565b602082019050919050565b6000602082019050818103600083015261303e81613002565b9050919050565b7f45434453413a20696e76616c6964207369676e6174757265202773272076616c60008201527f7565000000000000000000000000000000000000000000000000000000000000602082015250565b60006130a16022836121eb565b91506130ac82613045565b604082019050919050565b600060208201905081810360008301526130d081613094565b9050919050565b7f45434453413a20696e76616c6964207369676e6174757265202776272076616c60008201527f7565000000000000000000000000000000000000000000000000000000000000602082015250565b60006131336022836121eb565b915061313e826130d7565b604082019050919050565b6000602082019050818103600083015261316281613126565b9050919050565b600060808201905061317e6000830187611cd2565b61318b6020830186612268565b6131986040830185611cd2565b6131a56060830184611cd2565b9594505050505056fea2646970667358221220a7b6cd1bcefe282e41b4254b4ec122e330a1d6cd9bc65805eeb90edea9c17e1064736f6c634300080b0033",
  "immutableReferences": {
    "10887": [
      {
        "length": 32,
        "start": 1357
      },
      {
        "length": 32,
        "start": 1989
      },
      {
        "length": 32,
        "start": 2851
      },
      {
        "length": 32,
        "start": 3588
      }
    ]
  },
  "source": "// SPDX-License-Identifier: LGPL-3.0-only\npragma solidity 0.8.11;\npragma experimental ABIEncoderV2;\n\nimport \"@openzeppelin/contracts/utils/cryptography/ECDSA.sol\";\n\nimport \"../../interfaces/IFeeHandler.sol\";\nimport \"../../interfaces/IERCHandler.sol\";\nimport \"../../interfaces/IBridge.sol\";\nimport \"../../ERC20Safe.sol\";\nimport \"@openzeppelin/contracts/token/ERC20/IERC20.sol\";\n\n/**\n    @title Handles deposit fees based on Effective rates provided by Fee oracle.\n    @author ChainSafe Systems.\n    @notice This contract is intended to be used with the Bridge contract.\n */\ncontract FeeHandlerWithOracle is IFeeHandler, AccessControl, ERC20Safe {\n    address public immutable _bridgeAddress;\n\n    address public _oracleAddress;\n\n    uint32 public _gasUsed;\n    uint16 public _feePercent; // multiplied by 100 to avoid precision loss\n\n    struct OracleMessageType {\n        // Base Effective Rate - effective rate between base currencies of source and dest networks (eg. MATIC/ETH)\n        uint256 ber; \n        // Token Effective Rate - rate between base currency of destination network and token that is being trasferred (eg. MATIC/USDT)\n        uint256 ter;\n        uint256 dstGasPrice;\n        uint256 expiresAt;\n        uint8 fromDomainID;\n        uint8 toDomainID;\n        bytes32 resourceID;\n    }\n\n    struct FeeDataType {\n        bytes message;\n        bytes sig;\n        uint256 amount;\n    }\n\n    /**\n        @param bridgeAddress Contract address of previously deployed Bridge.\n     */\n    constructor(address bridgeAddress) public {\n        _bridgeAddress = bridgeAddress;\n        _setupRole(DEFAULT_ADMIN_ROLE, msg.sender);\n    }\n\n    // Admin functions\n\n    /**\n        @notice Sets the fee oracle address for signature verification.\n        @param oracleAddress Fee oracle address.\n     */\n    function setFeeOracle(address oracleAddress) external onlyAdmin {\n        _oracleAddress = oracleAddress;\n    }\n\n    /**\n        @notice Sets the fee properties.\n        @param gasUsed Gas used for transfer.\n        @param feePercent Added to fee amount. total fee = fee + fee * feePercent\n     */\n    function setFeeProperties(uint32 gasUsed, uint16 feePercent) external onlyAdmin {\n        _gasUsed = gasUsed;\n        _feePercent = feePercent;\n    }\n\n    /**\n        @notice Collects fee for deposit.\n        @param sender Sender of the deposit.\n        @param fromDomainID ID of the source chain.\n        @param destinationDomainID ID of chain deposit will be bridged to.\n        @param resourceID ResourceID to be used when making deposits.\n        @param depositData Additional data to be passed to specified handler.\n        @param feeData Additional data to be passed to the fee handler.\n     */\n    function collectFee(address sender, uint8 fromDomainID, uint8 destinationDomainID, bytes32 resourceID, bytes calldata depositData, bytes calldata feeData) payable external onlyBridge {\n        require(msg.value == 0, \"collectFee: msg.value != 0\");\n        (uint256 fee, address tokenAddress) = _calculateFee(sender, fromDomainID, destinationDomainID, resourceID, depositData, feeData);\n        lockERC20(tokenAddress, sender, address(this), fee);\n        emit FeeCollected(sender, fromDomainID, destinationDomainID, resourceID, fee, tokenAddress);\n    }\n\n     /**\n        @notice Calculates fee for deposit.\n        @param sender Sender of the deposit.\n        @param fromDomainID ID of the source chain.\n        @param destinationDomainID ID of chain deposit will be bridged to.\n        @param resourceID ResourceID to be used when making deposits.\n        @param depositData Additional data to be passed to specified handler.\n        @param feeData Additional data to be passed to the fee handler.\n        @return fee Returns the fee amount.\n        @return tokenAddress Returns the address of the token to be used for fee.\n     */\n    function calculateFee(address sender, uint8 fromDomainID, uint8 destinationDomainID, bytes32 resourceID, bytes calldata depositData, bytes calldata feeData) external view returns(uint256 fee, address tokenAddress) {\n        return _calculateFee(sender, fromDomainID, destinationDomainID, resourceID, depositData, feeData);\n    }\n\n    function _calculateFee(address sender, uint8 fromDomainID, uint8 destinationDomainID, bytes32 resourceID, bytes calldata depositData, bytes calldata feeData) internal view returns(uint256 fee, address tokenAddress) {\n        /** \n            Message:\n            ber * 10^18:  uint256\n            ter * 10^18:  uint256\n            dstGasPrice:  uint256\n            expiresAt:    uint256\n            fromDomainID: uint8 encoded as uint256\n            toDomainID:   uint8 encoded as uint256\n            resourceID:   bytes32\n            sig:          bytes(65 bytes)\n\n            total in bytes:\n            message:\n            32 * 7  = 224\n            message + sig:\n            224 + 65 = 289\n\n            amount: uint256\n            total: 321\n        */  \n\n        require(feeData.length == 321, \"Incorrect feeData length\");\n\n        FeeDataType memory feeDataDecoded;\n\n        feeDataDecoded.message = bytes(feeData[: 224]);\n        feeDataDecoded.sig = bytes(feeData[224: 289]);\n        feeDataDecoded.amount = abi.decode(feeData[289:], (uint256));\n\n        OracleMessageType memory oracleMessage = abi.decode(feeDataDecoded.message, (OracleMessageType));\n        require(block.timestamp <= oracleMessage.expiresAt, \"Obsolete oracle data\");\n        require((oracleMessage.fromDomainID == fromDomainID) \n            && (oracleMessage.toDomainID == destinationDomainID) \n            && (oracleMessage.resourceID == resourceID), \n            \"Incorrect deposit params\"\n        );\n\n        bytes32 messageHash = keccak256(feeDataDecoded.message);\n\n        verifySig(messageHash, feeDataDecoded.sig, _oracleAddress);\n\n        address tokenHandler = IBridge(_bridgeAddress)._resourceIDToHandlerAddress(resourceID);\n        address tokenAddress = IERCHandler(tokenHandler)._resourceIDToTokenContractAddress(resourceID);\n        \n        // txCost = dstGasPrice * _gasUsed * Token Effective Rate (rate of dest base currency to token)\n        uint256 txCost = oracleMessage.dstGasPrice * _gasUsed * oracleMessage.ter / 1e18;\n\n        fee = feeDataDecoded.amount * _feePercent / 1e4; // 100 for percent and 100 to avoid precision loss\n        \n        if (fee < txCost) {\n            fee = txCost;\n        }\n        return (fee, tokenAddress);\n    }\n\n    /**\n        @notice Transfers tokens from the contract to the specified addresses. The parameters addrs and amounts are mapped 1-1.\n        This means that the address at index 0 for addrs will receive the amount of tokens from amounts at index 0.\n        @param resourceID ResourceID of the token.\n        @param addrs Array of addresses to transfer {amounts} to.\n        @param amounts Array of amounts to transfer to {addrs}.\n     */\n    function transferFee(bytes32 resourceID, address[] calldata addrs, uint[] calldata amounts) external onlyAdmin {\n        require(addrs.length == amounts.length, \"addrs[], amounts[]: diff length\");\n        address tokenHandler = IBridge(_bridgeAddress)._resourceIDToHandlerAddress(resourceID);\n        address tokenAddress = IERCHandler(tokenHandler)._resourceIDToTokenContractAddress(resourceID);\n        for (uint256 i = 0; i < addrs.length; i++) {\n            releaseERC20(tokenAddress, addrs[i], amounts[i]);\n            emit FeeDistributed(tokenAddress, addrs[i], amounts[i]);\n        }\n    }\n\n    function verifySig(bytes32 message, bytes memory signature, address signerAddress) internal view {\n        address signerAddressRecovered = ECDSA.recover(message, signature);\n        require(signerAddressRecovered == signerAddress, 'Invalid signature');\n    }\n\n    modifier onlyAdmin() {\n        require(hasRole(DEFAULT_ADMIN_ROLE, msg.sender), \"sender doesn't have admin role\");\n        _;\n    }\n\n    modifier onlyBridge() {\n        _onlyBridge();\n        _;\n    }\n\n    function _onlyBridge() private view {\n        require(msg.sender == _bridgeAddress, \"sender must be bridge contract\");\n    }\n}\n",
  "sourcePath": "/root/bc_connector/crosscoin/contracts/chainbridge-solidity/contracts/handlers/fee/FeeHandlerWithOracle.sol",
  "compiler": {
    "name": "solc",
    "version": "0.8.11+commit.d7f03943.Emscripten.clang"
  },
  "schemaVersion": "3.4.7",
  "updatedAt": "2022-06-02T13:10:48.230Z",
  "devdoc": {
    "author": "ChainSafe Systems.",
    "kind": "dev",
    "methods": {
      "calculateFee(address,uint8,uint8,bytes32,bytes,bytes)": {
        "params": {
          "depositData": "Additional data to be passed to specified handler.",
          "destinationDomainID": "ID of chain deposit will be bridged to.",
          "feeData": "Additional data to be passed to the fee handler.",
          "fromDomainID": "ID of the source chain.",
          "resourceID": "ResourceID to be used when making deposits.",
          "sender": "Sender of the deposit."
        },
        "returns": {
          "fee": "Returns the fee amount.",
          "tokenAddress": "Returns the address of the token to be used for fee."
        }
      },
      "collectFee(address,uint8,uint8,bytes32,bytes,bytes)": {
        "params": {
          "depositData": "Additional data to be passed to specified handler.",
          "destinationDomainID": "ID of chain deposit will be bridged to.",
          "feeData": "Additional data to be passed to the fee handler.",
          "fromDomainID": "ID of the source chain.",
          "resourceID": "ResourceID to be used when making deposits.",
          "sender": "Sender of the deposit."
        }
      },
      "constructor": {
        "params": {
          "bridgeAddress": "Contract address of previously deployed Bridge."
        }
      },
      "getRoleAdmin(bytes32)": {
        "details": "Returns the admin role that controls `role`. See {grantRole} and {revokeRole}. To change a role's admin, use {_setRoleAdmin}."
      },
      "grantRole(bytes32,address)": {
        "details": "Grants `role` to `account`. If `account` had not been already granted `role`, emits a {RoleGranted} event. Requirements: - the caller must have ``role``'s admin role."
      },
      "hasRole(bytes32,address)": {
        "details": "Returns `true` if `account` has been granted `role`."
      },
      "renounceRole(bytes32,address)": {
        "details": "Revokes `role` from the calling account. Roles are often managed via {grantRole} and {revokeRole}: this function's purpose is to provide a mechanism for accounts to lose their privileges if they are compromised (such as when a trusted device is misplaced). If the calling account had been revoked `role`, emits a {RoleRevoked} event. Requirements: - the caller must be `account`."
      },
      "revokeRole(bytes32,address)": {
        "details": "Revokes `role` from `account`. If `account` had been granted `role`, emits a {RoleRevoked} event. Requirements: - the caller must have ``role``'s admin role."
      },
      "setFeeOracle(address)": {
        "params": {
          "oracleAddress": "Fee oracle address."
        }
      },
      "setFeeProperties(uint32,uint16)": {
        "params": {
          "feePercent": "Added to fee amount. total fee = fee + fee * feePercent",
          "gasUsed": "Gas used for transfer."
        }
      },
      "supportsInterface(bytes4)": {
        "details": "See {IERC165-supportsInterface}."
      },
      "transferFee(bytes32,address[],uint256[])": {
        "params": {
          "addrs": "Array of addresses to transfer {amounts} to.",
          "amounts": "Array of amounts to transfer to {addrs}.",
          "resourceID": "ResourceID of the token."
        }
      }
    },
    "title": "Handles deposit fees based on Effective rates provided by Fee oracle.",
    "version": 1
  },
  "userdoc": {
    "events": {
      "FeeCollected(address,uint8,uint8,bytes32,uint256,address)": {
        "notice": "This event is emitted when the fee is collected."
      },
      "FeeDistributed(address,address,uint256)": {
        "notice": "This event is emitted when the fee is distributed to an address."
      }
    },
    "kind": "user",
    "methods": {
      "calculateFee(address,uint8,uint8,bytes32,bytes,bytes)": {
        "notice": "Calculates fee for deposit."
      },
      "collectFee(address,uint8,uint8,bytes32,bytes,bytes)": {
        "notice": "Collects fee for deposit."
      },
      "setFeeOracle(address)": {
        "notice": "Sets the fee oracle address for signature verification."
      },
      "setFeeProperties(uint32,uint16)": {
        "notice": "Sets the fee properties."
      },
      "transferFee(bytes32,address[],uint256[])": {
        "notice": "Transfers tokens from the contract to the specified addresses. The parameters addrs and amounts are mapped 1-1. This means that the address at index 0 for addrs will receive the amount of tokens from amounts at index 0."
      }
    },
    "notice": "This contract is intended to be used with the Bridge contract.",
    "version": 1
  }
}