{
  "contractName": "Forwarder",
  "abi": [
    {
      "inputs": [],
      "stateMutability": "nonpayable",
      "type": "constructor"
    },
    {
      "inputs": [
        {
          "internalType": "address",
          "name": "from",
          "type": "address"
        }
      ],
      "name": "getNonce",
      "outputs": [
        {
          "internalType": "uint256",
          "name": "",
          "type": "uint256"
        }
      ],
      "stateMutability": "view",
      "type": "function"
    },
    {
      "inputs": [
        {
          "components": [
            {
              "internalType": "address",
              "name": "from",
              "type": "address"
            },
            {
              "internalType": "address",
              "name": "to",
              "type": "address"
            },
            {
              "internalType": "uint256",
              "name": "value",
              "type": "uint256"
            },
            {
              "internalType": "uint256",
              "name": "gas",
              "type": "uint256"
            },
            {
              "internalType": "uint256",
              "name": "nonce",
              "type": "uint256"
            },
            {
              "internalType": "bytes",
              "name": "data",
              "type": "bytes"
            }
          ],
          "internalType": "struct Forwarder.ForwardRequest",
          "name": "req",
          "type": "tuple"
        },
        {
          "internalType": "bytes",
          "name": "signature",
          "type": "bytes"
        }
      ],
      "name": "verify",
      "outputs": [
        {
          "internalType": "bool",
          "name": "",
          "type": "bool"
        }
      ],
      "stateMutability": "view",
      "type": "function"
    },
    {
      "inputs": [
        {
          "components": [
            {
              "internalType": "address",
              "name": "from",
              "type": "address"
            },
            {
              "internalType": "address",
              "name": "to",
              "type": "address"
            },
            {
              "internalType": "uint256",
              "name": "value",
              "type": "uint256"
            },
            {
              "internalType": "uint256",
              "name": "gas",
              "type": "uint256"
            },
            {
              "internalType": "uint256",
              "name": "nonce",
              "type": "uint256"
            },
            {
              "internalType": "bytes",
              "name": "data",
              "type": "bytes"
            }
          ],
          "internalType": "struct Forwarder.ForwardRequest",
          "name": "req",
          "type": "tuple"
        },
        {
          "internalType": "bytes",
          "name": "signature",
          "type": "bytes"
        }
      ],
      "name": "execute",
      "outputs": [
        {
          "internalType": "bool",
          "name": "",
          "type": "bool"
        },
        {
          "internalType": "bytes",
          "name": "",
          "type": "bytes"
        }
      ],
      "stateMutability": "payable",
      "type": "function"
    }
  ],
  "bytecode": "0x6101406040523480156200001257600080fd5b506040518060400160405280600981526020017f466f7277617264657200000000000000000000000000000000000000000000008152506040518060400160405280600581526020017f302e302e3100000000000000000000000000000000000000000000000000000081525060008280519060200120905060008280519060200120905060007f8b73c3c69bb8fe3d512ecc4cf759cc79239f7b179b0ffacaa9a75d522b39400f90508260e081815250508161010081815250504660a08181525050620000e88184846200013760201b60201c565b608081815250503073ffffffffffffffffffffffffffffffffffffffff1660c08173ffffffffffffffffffffffffffffffffffffffff168152505080610120818152505050505050506200024b565b6000838383463060405160200162000154959493929190620001ee565b6040516020818303038152906040528051906020012090509392505050565b6000819050919050565b620001888162000173565b82525050565b6000819050919050565b620001a3816200018e565b82525050565b600073ffffffffffffffffffffffffffffffffffffffff82169050919050565b6000620001d682620001a9565b9050919050565b620001e881620001c9565b82525050565b600060a0820190506200020560008301886200017d565b6200021460208301876200017d565b6200022360408301866200017d565b62000232606083018562000198565b620002416080830184620001dd565b9695505050505050565b60805160a05160c05160e05161010051610120516114826200029b6000396000610582015260006105c4015260006105a3015260006104d80152600061052e0152600061055701526114826000f3fe6080604052600436106100345760003560e01c80632d0335ab1461003957806347153f8214610076578063bf5d3bdb146100a7575b600080fd5b34801561004557600080fd5b50610060600480360381019061005b9190610a87565b6100e4565b60405161006d9190610acd565b60405180910390f35b610090600480360381019061008b9190610b71565b61012c565b60405161009e929190610ca1565b60405180910390f35b3480156100b357600080fd5b506100ce60048036038101906100c99190610b71565b6102de565b6040516100db9190610cd1565b60405180910390f35b60008060008373ffffffffffffffffffffffffffffffffffffffff1673ffffffffffffffffffffffffffffffffffffffff168152602001908152602001600020549050919050565b6000606061013b8585856102de565b61017a576040517f08c379a000000000000000000000000000000000000000000000000000000000815260040161017190610d6f565b60405180910390fd5b6001856080013561018b9190610dbe565b6000808760000160208101906101a19190610a87565b73ffffffffffffffffffffffffffffffffffffffff1673ffffffffffffffffffffffffffffffffffffffff168152602001908152602001600020819055506000808660200160208101906101f59190610a87565b73ffffffffffffffffffffffffffffffffffffffff1687606001358860400135898060a001906102259190610e23565b8b60000160208101906102389190610a87565b60405160200161024a93929190610f0d565b6040516020818303038152906040526040516102669190610f68565b600060405180830381858888f193505050503d80600081146102a4576040519150601f19603f3d011682016040523d82523d6000602084013e6102a9565b606091505b5091509150603f87606001356102bf9190610fae565b5a116102ce576102cd610fdf565b5b8181935093505050935093915050565b6000806103e784848080601f016020809104026020016040519081016040528093929190818152602001838380828437600081840152601f19601f820116905080830192505050505050506103d97fdd8f4b70b0f4393e889bd39128a30628a78b61816a9eb8199759e7a349657e488860000160208101906103609190610a87565b8960200160208101906103739190610a87565b8a604001358b606001358c608001358d8060a001906103929190610e23565b6040516103a092919061100e565b60405180910390206040516020016103be979695949392919061104f565b60405160208183030381529060405280519060200120610493565b6104ad90919063ffffffff16565b905084608001356000808760000160208101906104049190610a87565b73ffffffffffffffffffffffffffffffffffffffff1673ffffffffffffffffffffffffffffffffffffffff16815260200190815260200160002054148015610489575084600001602081019061045a9190610a87565b73ffffffffffffffffffffffffffffffffffffffff168173ffffffffffffffffffffffffffffffffffffffff16145b9150509392505050565b60006104a66104a06104d4565b836105ee565b9050919050565b60008060006104bc8585610621565b915091506104c9816106a4565b819250505092915050565b60007f000000000000000000000000000000000000000000000000000000000000000073ffffffffffffffffffffffffffffffffffffffff163073ffffffffffffffffffffffffffffffffffffffff1614801561055057507f000000000000000000000000000000000000000000000000000000000000000046145b1561057d577f000000000000000000000000000000000000000000000000000000000000000090506105eb565b6105e87f00000000000000000000000000000000000000000000000000000000000000007f00000000000000000000000000000000000000000000000000000000000000007f0000000000000000000000000000000000000000000000000000000000000000610879565b90505b90565b60008282604051602001610603929190611136565b60405160208183030381529060405280519060200120905092915050565b6000806041835114156106635760008060006020860151925060408601519150606086015160001a9050610657878285856108b3565b9450945050505061069d565b6040835114156106945760008060208501519150604085015190506106898683836109c0565b93509350505061069d565b60006002915091505b9250929050565b600060048111156106b8576106b761116d565b5b8160048111156106cb576106ca61116d565b5b14156106d657610876565b600160048111156106ea576106e961116d565b5b8160048111156106fd576106fc61116d565b5b141561073e576040517f08c379a0000000000000000000000000000000000000000000000000000000008152600401610735906111e8565b60405180910390fd5b600260048111156107525761075161116d565b5b8160048111156107655761076461116d565b5b14156107a6576040517f08c379a000000000000000000000000000000000000000000000000000000000815260040161079d90611254565b60405180910390fd5b600360048111156107ba576107b961116d565b5b8160048111156107cd576107cc61116d565b5b141561080e576040517f08c379a0000000000000000000000000000000000000000000000000000000008152600401610805906112e6565b60405180910390fd5b6004808111156108215761082061116d565b5b8160048111156108345761083361116d565b5b1415610875576040517f08c379a000000000000000000000000000000000000000000000000000000000815260040161086c90611378565b60405180910390fd5b5b50565b60008383834630604051602001610894959493929190611398565b6040516020818303038152906040528051906020012090509392505050565b6000807f7fffffffffffffffffffffffffffffff5d576e7357a4501ddfe92f46681b20a08360001c11156108ee5760006003915091506109b7565b601b8560ff16141580156109065750601c8560ff1614155b156109185760006004915091506109b7565b60006001878787876040516000815260200160405260405161093d9493929190611407565b6020604051602081039080840390855afa15801561095f573d6000803e3d6000fd5b505050602060405103519050600073ffffffffffffffffffffffffffffffffffffffff168173ffffffffffffffffffffffffffffffffffffffff1614156109ae576000600192509250506109b7565b80600092509250505b94509492505050565b60008060007f7fffffffffffffffffffffffffffffffffffffffffffffffffffffffffffffff60001b841690506000601b60ff8660001c901c610a039190610dbe565b9050610a11878288856108b3565b935093505050935093915050565b600080fd5b600080fd5b600073ffffffffffffffffffffffffffffffffffffffff82169050919050565b6000610a5482610a29565b9050919050565b610a6481610a49565b8114610a6f57600080fd5b50565b600081359050610a8181610a5b565b92915050565b600060208284031215610a9d57610a9c610a1f565b5b6000610aab84828501610a72565b91505092915050565b6000819050919050565b610ac781610ab4565b82525050565b6000602082019050610ae26000830184610abe565b92915050565b600080fd5b600060c08284031215610b0357610b02610ae8565b5b81905092915050565b600080fd5b600080fd5b600080fd5b60008083601f840112610b3157610b30610b0c565b5b8235905067ffffffffffffffff811115610b4e57610b4d610b11565b5b602083019150836001820283011115610b6a57610b69610b16565b5b9250929050565b600080600060408486031215610b8a57610b89610a1f565b5b600084013567ffffffffffffffff811115610ba857610ba7610a24565b5b610bb486828701610aed565b935050602084013567ffffffffffffffff811115610bd557610bd4610a24565b5b610be186828701610b1b565b92509250509250925092565b60008115159050919050565b610c0281610bed565b82525050565b600081519050919050565b600082825260208201905092915050565b60005b83811015610c42578082015181840152602081019050610c27565b83811115610c51576000848401525b50505050565b6000601f19601f8301169050919050565b6000610c7382610c08565b610c7d8185610c13565b9350610c8d818560208601610c24565b610c9681610c57565b840191505092915050565b6000604082019050610cb66000830185610bf9565b8181036020830152610cc88184610c68565b90509392505050565b6000602082019050610ce66000830184610bf9565b92915050565b600082825260208201905092915050565b7f4d696e696d616c466f727761726465723a207369676e617475726520646f657360008201527f206e6f74206d6174636820726571756573740000000000000000000000000000602082015250565b6000610d59603283610cec565b9150610d6482610cfd565b604082019050919050565b60006020820190508181036000830152610d8881610d4c565b9050919050565b7f4e487b7100000000000000000000000000000000000000000000000000000000600052601160045260246000fd5b6000610dc982610ab4565b9150610dd483610ab4565b9250827fffffffffffffffffffffffffffffffffffffffffffffffffffffffffffffffff03821115610e0957610e08610d8f565b5b828201905092915050565b600080fd5b600080fd5b600080fd5b60008083356001602003843603038112610e4057610e3f610e14565b5b80840192508235915067ffffffffffffffff821115610e6257610e61610e19565b5b602083019250600182023603831315610e7e57610e7d610e1e565b5b509250929050565b600081905092915050565b82818337600083830152505050565b6000610eac8385610e86565b9350610eb9838584610e91565b82840190509392505050565b60008160601b9050919050565b6000610edd82610ec5565b9050919050565b6000610eef82610ed2565b9050919050565b610f07610f0282610a49565b610ee4565b82525050565b6000610f1a828587610ea0565b9150610f268284610ef6565b601482019150819050949350505050565b6000610f4282610c08565b610f4c8185610e86565b9350610f5c818560208601610c24565b80840191505092915050565b6000610f748284610f37565b915081905092915050565b7f4e487b7100000000000000000000000000000000000000000000000000000000600052601260045260246000fd5b6000610fb982610ab4565b9150610fc483610ab4565b925082610fd457610fd3610f7f565b5b828204905092915050565b7f4e487b7100000000000000000000000000000000000000000000000000000000600052600160045260246000fd5b600061101b828486610ea0565b91508190509392505050565b6000819050919050565b61103a81611027565b82525050565b61104981610a49565b82525050565b600060e082019050611064600083018a611031565b6110716020830189611040565b61107e6040830188611040565b61108b6060830187610abe565b6110986080830186610abe565b6110a560a0830185610abe565b6110b260c0830184611031565b98975050505050505050565b600081905092915050565b7f1901000000000000000000000000000000000000000000000000000000000000600082015250565b60006110ff6002836110be565b915061110a826110c9565b600282019050919050565b6000819050919050565b61113061112b82611027565b611115565b82525050565b6000611141826110f2565b915061114d828561111f565b60208201915061115d828461111f565b6020820191508190509392505050565b7f4e487b7100000000000000000000000000000000000000000000000000000000600052602160045260246000fd5b7f45434453413a20696e76616c6964207369676e61747572650000000000000000600082015250565b60006111d2601883610cec565b91506111dd8261119c565b602082019050919050565b60006020820190508181036000830152611201816111c5565b9050919050565b7f45434453413a20696e76616c6964207369676e6174757265206c656e67746800600082015250565b600061123e601f83610cec565b915061124982611208565b602082019050919050565b6000602082019050818103600083015261126d81611231565b9050919050565b7f45434453413a20696e76616c6964207369676e6174757265202773272076616c60008201527f7565000000000000000000000000000000000000000000000000000000000000602082015250565b60006112d0602283610cec565b91506112db82611274565b604082019050919050565b600060208201905081810360008301526112ff816112c3565b9050919050565b7f45434453413a20696e76616c6964207369676e6174757265202776272076616c60008201527f7565000000000000000000000000000000000000000000000000000000000000602082015250565b6000611362602283610cec565b915061136d82611306565b604082019050919050565b6000602082019050818103600083015261139181611355565b9050919050565b600060a0820190506113ad6000830188611031565b6113ba6020830187611031565b6113c76040830186611031565b6113d46060830185610abe565b6113e16080830184611040565b9695505050505050565b600060ff82169050919050565b611401816113eb565b82525050565b600060808201905061141c6000830187611031565b61142960208301866113f8565b6114366040830185611031565b6114436060830184611031565b9594505050505056fea2646970667358221220256f55018225a92f1d063b773854cd62ec5c451a48c64079e56e85b1c765ff1d64736f6c634300080b0033",
  "immutableReferences": {
    "5570": [
      {
        "length": 32,
        "start": 1367
      }
    ],
    "5572": [
      {
        "length": 32,
        "start": 1326
      }
    ],
    "5574": [
      {
        "length": 32,
        "start": 1240
      }
    ],
    "5576": [
      {
        "length": 32,
        "start": 1443
      }
    ],
    "5578": [
      {
        "length": 32,
        "start": 1476
      }
    ],
    "5580": [
      {
        "length": 32,
        "start": 1410
      }
    ]
  },
  "source": "// SPDX-License-Identifier: LGPL-3.0-only\npragma solidity 0.8.11;\n\nimport \"@openzeppelin/contracts/utils/cryptography/ECDSA.sol\";\nimport \"@openzeppelin/contracts/utils/cryptography/draft-EIP712.sol\";\n\n/**\n    @notice This contract refers to Openzeppelin's MinimalForwarder contract.\n */\ncontract Forwarder is EIP712 {\n    using ECDSA for bytes32;\n\n    struct ForwardRequest {\n        address from;\n        address to;\n        uint256 value;\n        uint256 gas;\n        uint256 nonce;\n        bytes data;\n    }\n\n    bytes32 private constant _TYPEHASH =\n        keccak256(\"ForwardRequest(address from,address to,uint256 value,uint256 gas,uint256 nonce,bytes data)\");\n\n    mapping(address => uint256) private _nonces;\n\n    constructor() EIP712(\"Forwarder\", \"0.0.1\") public {}\n\n    function getNonce(address from) public view returns (uint256) {\n        return _nonces[from];\n    }\n\n    function verify(ForwardRequest calldata req, bytes calldata signature) public view returns (bool) {\n        address signer = _hashTypedDataV4(\n            keccak256(abi.encode(_TYPEHASH, req.from, req.to, req.value, req.gas, req.nonce, keccak256(req.data)))\n        ).recover(signature);\n        return _nonces[req.from] == req.nonce && signer == req.from;\n    }\n\n    function execute(ForwardRequest calldata req, bytes calldata signature)\n        public\n        payable\n        returns (bool, bytes memory)\n    {\n        require(verify(req, signature), \"MinimalForwarder: signature does not match request\");\n        _nonces[req.from] = req.nonce + 1;\n\n        (bool success, bytes memory returndata) = req.to.call{gas: req.gas, value: req.value}(\n            abi.encodePacked(req.data, req.from)\n        );\n        \n        assert(gasleft() > req.gas / 63);\n\n        return (success, returndata);\n    }\n}",
  "sourcePath": "/root/bc_connector/crosscoin/contracts/chainbridge-solidity/contracts/Forwarder.sol",
  "compiler": {
    "name": "solc",
    "version": "0.8.11+commit.d7f03943.Emscripten.clang"
  },
  "schemaVersion": "3.4.7",
  "updatedAt": "2022-06-02T13:10:47.449Z",
  "devdoc": {
    "kind": "dev",
    "methods": {},
    "version": 1
  },
  "userdoc": {
    "kind": "user",
    "methods": {},
    "notice": "This contract refers to Openzeppelin's MinimalForwarder contract.",
    "version": 1
  }
}