{
  "contractName": "GenericHandler",
  "abi": [
    {
      "inputs": [
        {
          "internalType": "address",
          "name": "bridgeAddress",
          "type": "address"
        }
      ],
      "stateMutability": "nonpayable",
      "type": "constructor"
    },
    {
      "inputs": [],
      "name": "_bridgeAddress",
      "outputs": [
        {
          "internalType": "address",
          "name": "",
          "type": "address"
        }
      ],
      "stateMutability": "view",
      "type": "function"
    },
    {
      "inputs": [
        {
          "internalType": "address",
          "name": "",
          "type": "address"
        }
      ],
      "name": "_contractAddressToDepositFunctionDepositerOffset",
      "outputs": [
        {
          "internalType": "uint256",
          "name": "",
          "type": "uint256"
        }
      ],
      "stateMutability": "view",
      "type": "function"
    },
    {
      "inputs": [
        {
          "internalType": "address",
          "name": "",
          "type": "address"
        }
      ],
      "name": "_contractAddressToDepositFunctionSignature",
      "outputs": [
        {
          "internalType": "bytes4",
          "name": "",
          "type": "bytes4"
        }
      ],
      "stateMutability": "view",
      "type": "function"
    },
    {
      "inputs": [
        {
          "internalType": "address",
          "name": "",
          "type": "address"
        }
      ],
      "name": "_contractAddressToExecuteFunctionSignature",
      "outputs": [
        {
          "internalType": "bytes4",
          "name": "",
          "type": "bytes4"
        }
      ],
      "stateMutability": "view",
      "type": "function"
    },
    {
      "inputs": [
        {
          "internalType": "address",
          "name": "",
          "type": "address"
        }
      ],
      "name": "_contractAddressToResourceID",
      "outputs": [
        {
          "internalType": "bytes32",
          "name": "",
          "type": "bytes32"
        }
      ],
      "stateMutability": "view",
      "type": "function"
    },
    {
      "inputs": [
        {
          "internalType": "address",
          "name": "",
          "type": "address"
        }
      ],
      "name": "_contractWhitelist",
      "outputs": [
        {
          "internalType": "bool",
          "name": "",
          "type": "bool"
        }
      ],
      "stateMutability": "view",
      "type": "function"
    },
    {
      "inputs": [
        {
          "internalType": "bytes32",
          "name": "",
          "type": "bytes32"
        }
      ],
      "name": "_resourceIDToContractAddress",
      "outputs": [
        {
          "internalType": "address",
          "name": "",
          "type": "address"
        }
      ],
      "stateMutability": "view",
      "type": "function"
    },
    {
      "inputs": [
        {
          "internalType": "bytes32",
          "name": "resourceID",
          "type": "bytes32"
        },
        {
          "internalType": "address",
          "name": "contractAddress",
          "type": "address"
        },
        {
          "internalType": "bytes4",
          "name": "depositFunctionSig",
          "type": "bytes4"
        },
        {
          "internalType": "uint256",
          "name": "depositFunctionDepositerOffset",
          "type": "uint256"
        },
        {
          "internalType": "bytes4",
          "name": "executeFunctionSig",
          "type": "bytes4"
        }
      ],
      "name": "setResource",
      "outputs": [],
      "stateMutability": "nonpayable",
      "type": "function"
    },
    {
      "inputs": [
        {
          "internalType": "bytes32",
          "name": "resourceID",
          "type": "bytes32"
        },
        {
          "internalType": "address",
          "name": "depositer",
          "type": "address"
        },
        {
          "internalType": "bytes",
          "name": "data",
          "type": "bytes"
        }
      ],
      "name": "deposit",
      "outputs": [
        {
          "internalType": "bytes",
          "name": "",
          "type": "bytes"
        }
      ],
      "stateMutability": "nonpayable",
      "type": "function"
    },
    {
      "inputs": [
        {
          "internalType": "bytes32",
          "name": "resourceID",
          "type": "bytes32"
        },
        {
          "internalType": "bytes",
          "name": "data",
          "type": "bytes"
        }
      ],
      "name": "executeProposal",
      "outputs": [],
      "stateMutability": "nonpayable",
      "type": "function"
    }
  ],
  "bytecode": "0x60a06040523480156200001157600080fd5b506040516200166c3803806200166c8339818101604052810190620000379190620000dc565b8073ffffffffffffffffffffffffffffffffffffffff1660808173ffffffffffffffffffffffffffffffffffffffff1681525050506200010e565b600080fd5b600073ffffffffffffffffffffffffffffffffffffffff82169050919050565b6000620000a48262000077565b9050919050565b620000b68162000097565b8114620000c257600080fd5b50565b600081519050620000d681620000ab565b92915050565b600060208284031215620000f557620000f462000072565b5b60006200010584828501620000c5565b91505092915050565b60805161153b620001316000396000818161024b01526109aa015261153b6000f3fe608060405234801561001057600080fd5b506004361061009e5760003560e01c8063c54c2a1111610066578063c54c2a1114610181578063cb624463146101b1578063de319d99146101e1578063e248cff2146101fd578063ec97d3b4146102195761009e565b8063318c136e146100a35780637f79bea8146100c1578063a5c3a985146100f1578063aa50800b14610121578063b07e54bb14610151575b600080fd5b6100ab610249565b6040516100b89190610c67565b60405180910390f35b6100db60048036038101906100d69190610cb8565b61026d565b6040516100e89190610d00565b60405180910390f35b61010b60048036038101906101069190610cb8565b61028d565b6040516101189190610d56565b60405180910390f35b61013b60048036038101906101369190610cb8565b6102ad565b6040516101489190610d8a565b60405180910390f35b61016b60048036038101906101669190610e40565b6102c5565b6040516101789190610f4d565b60405180910390f35b61019b60048036038101906101969190610f6f565b610664565b6040516101a89190610c67565b60405180910390f35b6101cb60048036038101906101c69190610cb8565b610697565b6040516101d89190610d56565b60405180910390f35b6101fb60048036038101906101f69190610ff4565b6106b7565b005b6102176004803603810190610212919061106f565b6106d3565b005b610233600480360381019061022e9190610cb8565b610990565b60405161024091906110de565b60405180910390f35b7f000000000000000000000000000000000000000000000000000000000000000081565b60056020528060005260406000206000915054906101000a900460ff1681565b60046020528060005260406000206000915054906101000a900460e01b81565b60036020528060005260406000206000915090505481565b60606102cf6109a8565b6000606084848101906102e291906110f9565b915084846020908460206102f69190611155565b92610303939291906111b5565b8080601f016020809104026020016040519081016040528093929190818152602001838380828437600081840152601f19601f820116905080830192505050505050509050600080600089815260200190815260200160002060009054906101000a900473ffffffffffffffffffffffffffffffffffffffff1690506000600360008373ffffffffffffffffffffffffffffffffffffffff1673ffffffffffffffffffffffffffffffffffffffff168152602001908152602001600020549050600081111561044b576000816020850101519050606081901c73ffffffffffffffffffffffffffffffffffffffff168973ffffffffffffffffffffffffffffffffffffffff1614610449576040517f08c379a00000000000000000000000000000000000000000000000000000000081526004016104409061124d565b60405180910390fd5b505b600560008373ffffffffffffffffffffffffffffffffffffffff1673ffffffffffffffffffffffffffffffffffffffff16815260200190815260200160002060009054906101000a900460ff166104d7576040517f08c379a00000000000000000000000000000000000000000000000000000000081526004016104ce906112df565b60405180910390fd5b6000600260008473ffffffffffffffffffffffffffffffffffffffff1673ffffffffffffffffffffffffffffffffffffffff16815260200190815260200160002060009054906101000a900460e01b9050600060e01b7bffffffffffffffffffffffffffffffffffffffffffffffffffffffff1916817bffffffffffffffffffffffffffffffffffffffffffffffffffffffff191614610656576000818560405160200161058692919061135c565b60405160208183030381529060405290506000808573ffffffffffffffffffffffffffffffffffffffff16836040516105bf9190611384565b6000604051808303816000865af19150503d80600081146105fc576040519150601f19603f3d011682016040523d82523d6000602084013e610601565b606091505b509150915081610646576040517f08c379a000000000000000000000000000000000000000000000000000000000815260040161063d906113e7565b60405180910390fd5b809850505050505050505061065c565b50505050505b949350505050565b60006020528060005260406000206000915054906101000a900473ffffffffffffffffffffffffffffffffffffffff1681565b60026020528060005260406000206000915054906101000a900460e01b81565b6106bf6109a8565b6106cc8585858585610a38565b5050505050565b6106db6109a8565b6000606083838101906106ee91906110f9565b915083836020908460206107029190611155565b9261070f939291906111b5565b8080601f016020809104026020016040519081016040528093929190818152602001838380828437600081840152601f19601f820116905080830192505050505050509050600080600087815260200190815260200160002060009054906101000a900473ffffffffffffffffffffffffffffffffffffffff169050600560008273ffffffffffffffffffffffffffffffffffffffff1673ffffffffffffffffffffffffffffffffffffffff16815260200190815260200160002060009054906101000a900460ff16610817576040517f08c379a000000000000000000000000000000000000000000000000000000000815260040161080e906112df565b60405180910390fd5b6000600460008373ffffffffffffffffffffffffffffffffffffffff1673ffffffffffffffffffffffffffffffffffffffff16815260200190815260200160002060009054906101000a900460e01b9050600060e01b7bffffffffffffffffffffffffffffffffffffffffffffffffffffffff1916817bffffffffffffffffffffffffffffffffffffffffffffffffffffffff19161461098757600081846040516020016108c692919061135c565b604051602081830303815290604052905060008373ffffffffffffffffffffffffffffffffffffffff16826040516108fe9190611384565b6000604051808303816000865af19150503d806000811461093b576040519150601f19603f3d011682016040523d82523d6000602084013e610940565b606091505b5050905080610984576040517f08c379a000000000000000000000000000000000000000000000000000000000815260040161097b90611479565b60405180910390fd5b50505b50505050505050565b60016020528060005260406000206000915090505481565b7f000000000000000000000000000000000000000000000000000000000000000073ffffffffffffffffffffffffffffffffffffffff163373ffffffffffffffffffffffffffffffffffffffff1614610a36576040517f08c379a0000000000000000000000000000000000000000000000000000000008152600401610a2d906114e5565b60405180910390fd5b565b8360008087815260200190815260200160002060006101000a81548173ffffffffffffffffffffffffffffffffffffffff021916908373ffffffffffffffffffffffffffffffffffffffff16021790555084600160008673ffffffffffffffffffffffffffffffffffffffff1673ffffffffffffffffffffffffffffffffffffffff1681526020019081526020016000208190555082600260008673ffffffffffffffffffffffffffffffffffffffff1673ffffffffffffffffffffffffffffffffffffffff16815260200190815260200160002060006101000a81548163ffffffff021916908360e01c021790555081600360008673ffffffffffffffffffffffffffffffffffffffff1673ffffffffffffffffffffffffffffffffffffffff1681526020019081526020016000208190555080600460008673ffffffffffffffffffffffffffffffffffffffff1673ffffffffffffffffffffffffffffffffffffffff16815260200190815260200160002060006101000a81548163ffffffff021916908360e01c02179055506001600560008673ffffffffffffffffffffffffffffffffffffffff1673ffffffffffffffffffffffffffffffffffffffff16815260200190815260200160002060006101000a81548160ff0219169083151502179055505050505050565b600073ffffffffffffffffffffffffffffffffffffffff82169050919050565b6000610c5182610c26565b9050919050565b610c6181610c46565b82525050565b6000602082019050610c7c6000830184610c58565b92915050565b600080fd5b600080fd5b610c9581610c46565b8114610ca057600080fd5b50565b600081359050610cb281610c8c565b92915050565b600060208284031215610cce57610ccd610c82565b5b6000610cdc84828501610ca3565b91505092915050565b60008115159050919050565b610cfa81610ce5565b82525050565b6000602082019050610d156000830184610cf1565b92915050565b60007fffffffff0000000000000000000000000000000000000000000000000000000082169050919050565b610d5081610d1b565b82525050565b6000602082019050610d6b6000830184610d47565b92915050565b6000819050919050565b610d8481610d71565b82525050565b6000602082019050610d9f6000830184610d7b565b92915050565b6000819050919050565b610db881610da5565b8114610dc357600080fd5b50565b600081359050610dd581610daf565b92915050565b600080fd5b600080fd5b600080fd5b60008083601f840112610e0057610dff610ddb565b5b8235905067ffffffffffffffff811115610e1d57610e1c610de0565b5b602083019150836001820283011115610e3957610e38610de5565b5b9250929050565b60008060008060608587031215610e5a57610e59610c82565b5b6000610e6887828801610dc6565b9450506020610e7987828801610ca3565b935050604085013567ffffffffffffffff811115610e9a57610e99610c87565b5b610ea687828801610dea565b925092505092959194509250565b600081519050919050565b600082825260208201905092915050565b60005b83811015610eee578082015181840152602081019050610ed3565b83811115610efd576000848401525b50505050565b6000601f19601f8301169050919050565b6000610f1f82610eb4565b610f298185610ebf565b9350610f39818560208601610ed0565b610f4281610f03565b840191505092915050565b60006020820190508181036000830152610f678184610f14565b905092915050565b600060208284031215610f8557610f84610c82565b5b6000610f9384828501610dc6565b91505092915050565b610fa581610d1b565b8114610fb057600080fd5b50565b600081359050610fc281610f9c565b92915050565b610fd181610d71565b8114610fdc57600080fd5b50565b600081359050610fee81610fc8565b92915050565b600080600080600060a086880312156110105761100f610c82565b5b600061101e88828901610dc6565b955050602061102f88828901610ca3565b945050604061104088828901610fb3565b935050606061105188828901610fdf565b925050608061106288828901610fb3565b9150509295509295909350565b60008060006040848603121561108857611087610c82565b5b600061109686828701610dc6565b935050602084013567ffffffffffffffff8111156110b7576110b6610c87565b5b6110c386828701610dea565b92509250509250925092565b6110d881610da5565b82525050565b60006020820190506110f360008301846110cf565b92915050565b60006020828403121561110f5761110e610c82565b5b600061111d84828501610fdf565b91505092915050565b7f4e487b7100000000000000000000000000000000000000000000000000000000600052601160045260246000fd5b600061116082610d71565b915061116b83610d71565b9250827fffffffffffffffffffffffffffffffffffffffffffffffffffffffffffffffff038211156111a05761119f611126565b5b828201905092915050565b600080fd5b600080fd5b600080858511156111c9576111c86111ab565b5b838611156111da576111d96111b0565b5b6001850283019150848603905094509492505050565b600082825260208201905092915050565b7f696e636f7272656374206465706f736974657220696e20746865206461746100600082015250565b6000611237601f836111f0565b915061124282611201565b602082019050919050565b600060208201905081810360008301526112668161122a565b9050919050565b7f70726f766964656420636f6e747261637441646472657373206973206e6f742060008201527f77686974656c6973746564000000000000000000000000000000000000000000602082015250565b60006112c9602b836111f0565b91506112d48261126d565b604082019050919050565b600060208201905081810360008301526112f8816112bc565b9050919050565b6000819050919050565b61131a61131582610d1b565b6112ff565b82525050565b600081905092915050565b600061133682610eb4565b6113408185611320565b9350611350818560208601610ed0565b80840191505092915050565b60006113688285611309565b600482019150611378828461132b565b91508190509392505050565b6000611390828461132b565b915081905092915050565b7f63616c6c20746f20636f6e747261637441646472657373206661696c65640000600082015250565b60006113d1601e836111f0565b91506113dc8261139b565b602082019050919050565b60006020820190508181036000830152611400816113c4565b9050919050565b7f64656c656761746563616c6c20746f20636f6e7472616374416464726573732060008201527f6661696c65640000000000000000000000000000000000000000000000000000602082015250565b60006114636026836111f0565b915061146e82611407565b604082019050919050565b6000602082019050818103600083015261149281611456565b9050919050565b7f73656e646572206d7573742062652062726964676520636f6e74726163740000600082015250565b60006114cf601e836111f0565b91506114da82611499565b602082019050919050565b600060208201905081810360008301526114fe816114c2565b905091905056fea264697066735822122062d6057883f7bc9e0aa3d7616daf3d52cb00530f151a02bda27d063670811f4564736f6c634300080b0033",
  "immutableReferences": {
    "10165": [
      {
        "length": 32,
        "start": 587
      },
      {
        "length": 32,
        "start": 2474
      }
    ]
  },
  "source": "// SPDX-License-Identifier: LGPL-3.0-only\npragma solidity 0.8.11;\n\nimport \"../interfaces/IGenericHandler.sol\";\n\n/**\n    @title Handles generic deposits and deposit executions.\n    @author ChainSafe Systems.\n    @notice This contract is intended to be used with the Bridge contract.\n */\ncontract GenericHandler is IGenericHandler {\n    address public immutable _bridgeAddress;\n\n    // resourceID => contract address\n    mapping (bytes32 => address) public _resourceIDToContractAddress;\n\n    // contract address => resourceID\n    mapping (address => bytes32) public _contractAddressToResourceID;\n\n    // contract address => deposit function signature\n    mapping (address => bytes4) public _contractAddressToDepositFunctionSignature;\n\n    // contract address => depositer address position offset in the metadata\n    mapping (address => uint256) public _contractAddressToDepositFunctionDepositerOffset;\n\n    // contract address => execute proposal function signature\n    mapping (address => bytes4) public _contractAddressToExecuteFunctionSignature;\n\n    // token contract address => is whitelisted\n    mapping (address => bool) public _contractWhitelist;\n\n    modifier onlyBridge() {\n        _onlyBridge();\n        _;\n    }\n\n    function _onlyBridge() private view {\n        require(msg.sender == _bridgeAddress, \"sender must be bridge contract\");\n    }\n\n    /**\n        @param bridgeAddress Contract address of previously deployed Bridge.\n     */\n    constructor(\n        address          bridgeAddress\n    ) public {\n        _bridgeAddress = bridgeAddress;\n    }\n\n    /**\n        @notice First verifies {_resourceIDToContractAddress}[{resourceID}] and\n        {_contractAddressToResourceID}[{contractAddress}] are not already set,\n        then sets {_resourceIDToContractAddress} with {contractAddress},\n        {_contractAddressToResourceID} with {resourceID},\n        {_contractAddressToDepositFunctionSignature} with {depositFunctionSig},\n        {_contractAddressToDepositFunctionDepositerOffset} with {depositFunctionDepositerOffset},\n        {_contractAddressToExecuteFunctionSignature} with {executeFunctionSig},\n        and {_contractWhitelist} to true for {contractAddress}.\n        @param resourceID ResourceID to be used when making deposits.\n        @param contractAddress Address of contract to be called when a deposit is made and a deposited is executed.\n        @param depositFunctionSig Function signature of method to be called in {contractAddress} when a deposit is made.\n        @param depositFunctionDepositerOffset Depositer address position offset in the metadata, in bytes.\n        @param executeFunctionSig Function signature of method to be called in {contractAddress} when a deposit is executed.\n     */\n    function setResource(\n        bytes32 resourceID,\n        address contractAddress,\n        bytes4 depositFunctionSig,\n        uint256 depositFunctionDepositerOffset,\n        bytes4 executeFunctionSig\n    ) external onlyBridge override {\n\n        _setResource(resourceID, contractAddress, depositFunctionSig, depositFunctionDepositerOffset, executeFunctionSig);\n    }\n\n    /**\n        @notice A deposit is initiatied by making a deposit in the Bridge contract.\n        @param resourceID ResourceID used to find address of contract to be used for deposit.\n        @param depositer Address of the account making deposit in the Bridge contract.\n        @param data Consists of: {resourceID}, {lenMetaData}, and {metaData} all padded to 32 bytes.\n        @notice Data passed into the function should be constructed as follows:\n        len(data)                              uint256     bytes  0  - 32\n        data                                   bytes       bytes  64 - END\n        @notice {contractAddress} is required to be whitelisted\n        @notice If {_contractAddressToDepositFunctionSignature}[{contractAddress}] is set,\n        {metaData} is expected to consist of needed function arguments.\n        @return Returns the raw bytes returned from the call to {contractAddress}.\n     */\n    function deposit(bytes32 resourceID, address depositer, bytes calldata data) external onlyBridge returns (bytes memory) {\n        uint256      lenMetadata;\n        bytes memory metadata;\n\n        lenMetadata = abi.decode(data, (uint256));\n        metadata = bytes(data[32:32 + lenMetadata]);\n\n        address contractAddress = _resourceIDToContractAddress[resourceID];\n        uint256 depositerOffset = _contractAddressToDepositFunctionDepositerOffset[contractAddress];\n        if (depositerOffset > 0) {\n            uint256 metadataDepositer;\n            // Skipping 32 bytes of length prefix and depositerOffset bytes.\n            assembly {\n                metadataDepositer := mload(add(add(metadata, 32), depositerOffset))\n            }\n            // metadataDepositer contains 0xdepositerAddressdepositerAddressdeposite************************\n            // Shift it 12 bytes right:   0x000000000000000000000000depositerAddressdepositerAddressdeposite\n            require(depositer == address(uint160(metadataDepositer >> 96)), 'incorrect depositer in the data');\n        }\n\n        require(_contractWhitelist[contractAddress], \"provided contractAddress is not whitelisted\");\n\n        bytes4 sig = _contractAddressToDepositFunctionSignature[contractAddress];\n        if (sig != bytes4(0)) {\n            bytes memory callData = abi.encodePacked(sig, metadata);\n            (bool success, bytes memory handlerResponse) = contractAddress.call(callData);\n            require(success, \"call to contractAddress failed\");\n            return handlerResponse;\n        }\n    }\n\n    /**\n        @notice Proposal execution should be initiated when a proposal is finalized in the Bridge contract.\n        @param data Consists of {resourceID}, {lenMetaData}, and {metaData}.\n        @notice Data passed into the function should be constructed as follows:\n        len(data)                              uint256     bytes  0  - 32\n        data                                   bytes       bytes  32 - END\n        @notice {contractAddress} is required to be whitelisted\n        @notice If {_contractAddressToExecuteFunctionSignature}[{contractAddress}] is set,\n        {metaData} is expected to consist of needed function arguments.\n     */\n    function executeProposal(bytes32 resourceID, bytes calldata data) external onlyBridge {\n        uint256      lenMetadata;\n        bytes memory metaData;\n\n        lenMetadata = abi.decode(data, (uint256));\n        metaData = bytes(data[32:32 + lenMetadata]);\n\n        address contractAddress = _resourceIDToContractAddress[resourceID];\n        require(_contractWhitelist[contractAddress], \"provided contractAddress is not whitelisted\");\n\n        bytes4 sig = _contractAddressToExecuteFunctionSignature[contractAddress];\n        if (sig != bytes4(0)) {\n            bytes memory callData = abi.encodePacked(sig, metaData);\n            (bool success,) = contractAddress.call(callData);\n            require(success, \"delegatecall to contractAddress failed\");\n        }\n    }\n\n    function _setResource(\n        bytes32 resourceID,\n        address contractAddress,\n        bytes4 depositFunctionSig,\n        uint256 depositFunctionDepositerOffset,\n        bytes4 executeFunctionSig\n    ) internal {\n        _resourceIDToContractAddress[resourceID] = contractAddress;\n        _contractAddressToResourceID[contractAddress] = resourceID;\n        _contractAddressToDepositFunctionSignature[contractAddress] = depositFunctionSig;\n        _contractAddressToDepositFunctionDepositerOffset[contractAddress] = depositFunctionDepositerOffset;\n        _contractAddressToExecuteFunctionSignature[contractAddress] = executeFunctionSig;\n\n        _contractWhitelist[contractAddress] = true;\n    }\n}\n",
  "sourcePath": "/root/bc_connector/crosscoin/contracts/chainbridge-solidity/contracts/handlers/GenericHandler.sol",
  "compiler": {
    "name": "solc",
    "version": "0.8.11+commit.d7f03943.Emscripten.clang"
  },
  "schemaVersion": "3.4.7",
  "updatedAt": "2022-06-02T13:10:47.863Z",
  "devdoc": {
    "author": "ChainSafe Systems.",
    "kind": "dev",
    "methods": {
      "constructor": {
        "params": {
          "bridgeAddress": "Contract address of previously deployed Bridge."
        }
      },
      "deposit(bytes32,address,bytes)": {
        "params": {
          "data": "Consists of: {resourceID}, {lenMetaData}, and {metaData} all padded to 32 bytes.",
          "depositer": "Address of the account making deposit in the Bridge contract.",
          "resourceID": "ResourceID used to find address of contract to be used for deposit."
        },
        "returns": {
          "_0": "Returns the raw bytes returned from the call to {contractAddress}."
        }
      },
      "executeProposal(bytes32,bytes)": {
        "params": {
          "data": "Consists of {resourceID}, {lenMetaData}, and {metaData}."
        }
      },
      "setResource(bytes32,address,bytes4,uint256,bytes4)": {
        "params": {
          "contractAddress": "Address of contract to be called when a deposit is made and a deposited is executed.",
          "depositFunctionDepositerOffset": "Depositer address position offset in the metadata, in bytes.",
          "depositFunctionSig": "Function signature of method to be called in {contractAddress} when a deposit is made.",
          "executeFunctionSig": "Function signature of method to be called in {contractAddress} when a deposit is executed.",
          "resourceID": "ResourceID to be used when making deposits."
        }
      }
    },
    "title": "Handles generic deposits and deposit executions.",
    "version": 1
  },
  "userdoc": {
    "kind": "user",
    "methods": {
      "deposit(bytes32,address,bytes)": {
        "notice": "A deposit is initiatied by making a deposit in the Bridge contract.Data passed into the function should be constructed as follows: len(data)                              uint256     bytes  0  - 32 data                                   bytes       bytes  64 - END{contractAddress} is required to be whitelistedIf {_contractAddressToDepositFunctionSignature}[{contractAddress}] is set, {metaData} is expected to consist of needed function arguments."
      },
      "executeProposal(bytes32,bytes)": {
        "notice": "Proposal execution should be initiated when a proposal is finalized in the Bridge contract.Data passed into the function should be constructed as follows: len(data)                              uint256     bytes  0  - 32 data                                   bytes       bytes  32 - END{contractAddress} is required to be whitelistedIf {_contractAddressToExecuteFunctionSignature}[{contractAddress}] is set, {metaData} is expected to consist of needed function arguments."
      },
      "setResource(bytes32,address,bytes4,uint256,bytes4)": {
        "notice": "First verifies {_resourceIDToContractAddress}[{resourceID}] and {_contractAddressToResourceID}[{contractAddress}] are not already set, then sets {_resourceIDToContractAddress} with {contractAddress}, {_contractAddressToResourceID} with {resourceID}, {_contractAddressToDepositFunctionSignature} with {depositFunctionSig}, {_contractAddressToDepositFunctionDepositerOffset} with {depositFunctionDepositerOffset}, {_contractAddressToExecuteFunctionSignature} with {executeFunctionSig}, and {_contractWhitelist} to true for {contractAddress}."
      }
    },
    "notice": "This contract is intended to be used with the Bridge contract.",
    "version": 1
  }
}