{
  "contractName": "HandlerRevert",
  "abi": [
    {
      "inputs": [
        {
          "internalType": "address",
          "name": "bridgeAddress",
          "type": "address"
        }
      ],
      "stateMutability": "nonpayable",
      "type": "constructor"
    },
    {
      "inputs": [],
      "name": "_bridgeAddress",
      "outputs": [
        {
          "internalType": "address",
          "name": "",
          "type": "address"
        }
      ],
      "stateMutability": "view",
      "type": "function"
    },
    {
      "inputs": [
        {
          "internalType": "address",
          "name": "",
          "type": "address"
        }
      ],
      "name": "_burnList",
      "outputs": [
        {
          "internalType": "bool",
          "name": "",
          "type": "bool"
        }
      ],
      "stateMutability": "view",
      "type": "function"
    },
    {
      "inputs": [
        {
          "internalType": "address",
          "name": "",
          "type": "address"
        }
      ],
      "name": "_contractWhitelist",
      "outputs": [
        {
          "internalType": "bool",
          "name": "",
          "type": "bool"
        }
      ],
      "stateMutability": "view",
      "type": "function"
    },
    {
      "inputs": [
        {
          "internalType": "bytes32",
          "name": "",
          "type": "bytes32"
        }
      ],
      "name": "_resourceIDToTokenContractAddress",
      "outputs": [
        {
          "internalType": "address",
          "name": "",
          "type": "address"
        }
      ],
      "stateMutability": "view",
      "type": "function"
    },
    {
      "inputs": [
        {
          "internalType": "address",
          "name": "",
          "type": "address"
        }
      ],
      "name": "_tokenContractAddressToResourceID",
      "outputs": [
        {
          "internalType": "bytes32",
          "name": "",
          "type": "bytes32"
        }
      ],
      "stateMutability": "view",
      "type": "function"
    },
    {
      "inputs": [
        {
          "internalType": "address",
          "name": "contractAddress",
          "type": "address"
        }
      ],
      "name": "setBurnable",
      "outputs": [],
      "stateMutability": "nonpayable",
      "type": "function"
    },
    {
      "inputs": [
        {
          "internalType": "bytes32",
          "name": "resourceID",
          "type": "bytes32"
        },
        {
          "internalType": "address",
          "name": "contractAddress",
          "type": "address"
        }
      ],
      "name": "setResource",
      "outputs": [],
      "stateMutability": "nonpayable",
      "type": "function"
    },
    {
      "inputs": [
        {
          "internalType": "bytes",
          "name": "data",
          "type": "bytes"
        }
      ],
      "name": "withdraw",
      "outputs": [],
      "stateMutability": "nonpayable",
      "type": "function"
    },
    {
      "inputs": [
        {
          "internalType": "bytes32",
          "name": "",
          "type": "bytes32"
        },
        {
          "internalType": "bytes",
          "name": "",
          "type": "bytes"
        }
      ],
      "name": "executeProposal",
      "outputs": [],
      "stateMutability": "view",
      "type": "function"
    },
    {
      "inputs": [
        {
          "internalType": "uint256",
          "name": "amount",
          "type": "uint256"
        }
      ],
      "name": "virtualIncreaseBalance",
      "outputs": [],
      "stateMutability": "nonpayable",
      "type": "function"
    }
  ],
  "bytecode": "0x60a060405234801561001057600080fd5b50604051610cf5380380610cf5833981810160405281019061003291906100d1565b808073ffffffffffffffffffffffffffffffffffffffff1660808173ffffffffffffffffffffffffffffffffffffffff168152505050506100fe565b600080fd5b600073ffffffffffffffffffffffffffffffffffffffff82169050919050565b600061009e82610073565b9050919050565b6100ae81610093565b81146100b957600080fd5b50565b6000815190506100cb816100a5565b92915050565b6000602082840312156100e7576100e661006e565b5b60006100f5848285016100bc565b91505092915050565b608051610bd56101206000396000818161025901526103400152610bd56000f3fe608060405234801561001057600080fd5b506004361061009e5760003560e01c80637f79bea8116100665780637f79bea814610159578063b8fa373614610189578063c238eea1146101a5578063c8ba6c87146101c1578063e248cff2146101f15761009e565b806307b7ed99146100a35780630968f264146100bf5780630a6d55d8146100db578063318c136e1461010b5780636a70d08114610129575b600080fd5b6100bd60048036038101906100b89190610618565b61020d565b005b6100d960048036038101906100d4919061078b565b610221565b005b6100f560048036038101906100f0919061080a565b610224565b6040516101029190610846565b60405180910390f35b610113610257565b6040516101209190610846565b60405180910390f35b610143600480360381019061013e9190610618565b61027b565b604051610150919061087c565b60405180910390f35b610173600480360381019061016e9190610618565b61029b565b604051610180919061087c565b60405180910390f35b6101a3600480360381019061019e9190610897565b6102bb565b005b6101bf60048036038101906101ba919061090d565b6102d1565b005b6101db60048036038101906101d69190610618565b6102db565b6040516101e89190610949565b60405180910390f35b61020b600480360381019061020691906109c4565b6102f3565b005b61021561033e565b61021e816103ce565b50565b50565b60006020528060005260406000206000915054906101000a900473ffffffffffffffffffffffffffffffffffffffff1681565b7f000000000000000000000000000000000000000000000000000000000000000081565b60036020528060005260406000206000915054906101000a900460ff1681565b60026020528060005260406000206000915054906101000a900460ff1681565b6102c361033e565b6102cd82826104b5565b5050565b8060048190555050565b60016020528060005260406000206000915090505481565b60006004541415610339576040517f08c379a000000000000000000000000000000000000000000000000000000000815260040161033090610a81565b60405180910390fd5b505050565b7f000000000000000000000000000000000000000000000000000000000000000073ffffffffffffffffffffffffffffffffffffffff163373ffffffffffffffffffffffffffffffffffffffff16146103cc576040517f08c379a00000000000000000000000000000000000000000000000000000000081526004016103c390610aed565b60405180910390fd5b565b600260008273ffffffffffffffffffffffffffffffffffffffff1673ffffffffffffffffffffffffffffffffffffffff16815260200190815260200160002060009054906101000a900460ff1661045a576040517f08c379a000000000000000000000000000000000000000000000000000000000815260040161045190610b7f565b60405180910390fd5b6001600360008373ffffffffffffffffffffffffffffffffffffffff1673ffffffffffffffffffffffffffffffffffffffff16815260200190815260200160002060006101000a81548160ff02191690831515021790555050565b8060008084815260200190815260200160002060006101000a81548173ffffffffffffffffffffffffffffffffffffffff021916908373ffffffffffffffffffffffffffffffffffffffff16021790555081600160008373ffffffffffffffffffffffffffffffffffffffff1673ffffffffffffffffffffffffffffffffffffffff168152602001908152602001600020819055506001600260008373ffffffffffffffffffffffffffffffffffffffff1673ffffffffffffffffffffffffffffffffffffffff16815260200190815260200160002060006101000a81548160ff0219169083151502179055505050565b6000604051905090565b600080fd5b600080fd5b600073ffffffffffffffffffffffffffffffffffffffff82169050919050565b60006105e5826105ba565b9050919050565b6105f5816105da565b811461060057600080fd5b50565b600081359050610612816105ec565b92915050565b60006020828403121561062e5761062d6105b0565b5b600061063c84828501610603565b91505092915050565b600080fd5b600080fd5b6000601f19601f8301169050919050565b7f4e487b7100000000000000000000000000000000000000000000000000000000600052604160045260246000fd5b6106988261064f565b810181811067ffffffffffffffff821117156106b7576106b6610660565b5b80604052505050565b60006106ca6105a6565b90506106d6828261068f565b919050565b600067ffffffffffffffff8211156106f6576106f5610660565b5b6106ff8261064f565b9050602081019050919050565b82818337600083830152505050565b600061072e610729846106db565b6106c0565b90508281526020810184848401111561074a5761074961064a565b5b61075584828561070c565b509392505050565b600082601f83011261077257610771610645565b5b813561078284826020860161071b565b91505092915050565b6000602082840312156107a1576107a06105b0565b5b600082013567ffffffffffffffff8111156107bf576107be6105b5565b5b6107cb8482850161075d565b91505092915050565b6000819050919050565b6107e7816107d4565b81146107f257600080fd5b50565b600081359050610804816107de565b92915050565b6000602082840312156108205761081f6105b0565b5b600061082e848285016107f5565b91505092915050565b610840816105da565b82525050565b600060208201905061085b6000830184610837565b92915050565b60008115159050919050565b61087681610861565b82525050565b6000602082019050610891600083018461086d565b92915050565b600080604083850312156108ae576108ad6105b0565b5b60006108bc858286016107f5565b92505060206108cd85828601610603565b9150509250929050565b6000819050919050565b6108ea816108d7565b81146108f557600080fd5b50565b600081359050610907816108e1565b92915050565b600060208284031215610923576109226105b0565b5b6000610931848285016108f8565b91505092915050565b610943816107d4565b82525050565b600060208201905061095e600083018461093a565b92915050565b600080fd5b600080fd5b60008083601f84011261098457610983610645565b5b8235905067ffffffffffffffff8111156109a1576109a0610964565b5b6020830191508360018202830111156109bd576109bc610969565b5b9250929050565b6000806000604084860312156109dd576109dc6105b0565b5b60006109eb868287016107f5565b935050602084013567ffffffffffffffff811115610a0c57610a0b6105b5565b5b610a188682870161096e565b92509250509250925092565b600082825260208201905092915050565b7f536f6d657468696e67206261642068617070656e656400000000000000000000600082015250565b6000610a6b601683610a24565b9150610a7682610a35565b602082019050919050565b60006020820190508181036000830152610a9a81610a5e565b9050919050565b7f73656e646572206d7573742062652062726964676520636f6e74726163740000600082015250565b6000610ad7601e83610a24565b9150610ae282610aa1565b602082019050919050565b60006020820190508181036000830152610b0681610aca565b9050919050565b7f70726f766964656420636f6e7472616374206973206e6f742077686974656c6960008201527f7374656400000000000000000000000000000000000000000000000000000000602082015250565b6000610b69602483610a24565b9150610b7482610b0d565b604082019050919050565b60006020820190508181036000830152610b9881610b5c565b905091905056fea264697066735822122087c01bf7ab6442b7a6d46e13ac9298e69452536b50fd77a6902ebc095e10ca4264736f6c634300080b0033",
  "immutableReferences": {
    "10514": [
      {
        "length": 32,
        "start": 601
      },
      {
        "length": 32,
        "start": 832
      }
    ]
  },
  "source": "// SPDX-License-Identifier: LGPL-3.0-only\npragma solidity 0.8.11;\n\nimport \"./utils/SafeCast.sol\";\nimport \"./handlers/HandlerHelpers.sol\";\n\ncontract NoArgument {\n    event NoArgumentCalled();\n\n    function noArgument() external {\n        emit NoArgumentCalled();\n    }\n}\n\ncontract OneArgument {\n    event OneArgumentCalled(uint256 indexed argumentOne);\n\n    function oneArgument(uint256 argumentOne) external {\n        emit OneArgumentCalled(argumentOne);\n    }\n}\n\ncontract TwoArguments {\n    event TwoArgumentsCalled(address[] argumentOne, bytes4 argumentTwo);\n\n    function twoArguments(address[] calldata argumentOne, bytes4 argumentTwo) external {\n        emit TwoArgumentsCalled(argumentOne, argumentTwo);\n    }\n}\n\ncontract ThreeArguments {\n    event ThreeArgumentsCalled(string argumentOne, int8 argumentTwo, bool argumentThree);\n\n    function threeArguments(string calldata argumentOne, int8 argumentTwo, bool argumentThree) external {\n        emit ThreeArgumentsCalled(argumentOne, argumentTwo, argumentThree);\n    }\n}\n\ncontract WithDepositer {\n    event WithDepositerCalled(address argumentOne, uint256 argumentTwo);\n\n    function withDepositer(address argumentOne, uint256 argumentTwo) external {\n        emit WithDepositerCalled(argumentOne, argumentTwo);\n    }\n}\n\ncontract SafeCaster {\n    using SafeCast for *;\n\n    function toUint200(uint input) external pure returns(uint200) {\n        return input.toUint200();\n    }\n}\n\ncontract ReturnData {\n    function returnData(string memory argument) external pure returns(bytes32 response) {\n        assembly {\n            response := mload(add(argument, 32))\n        }\n    }\n}\n\ncontract HandlerRevert is HandlerHelpers {\n    uint private _totalAmount;\n\n    constructor(\n        address          bridgeAddress\n    ) public HandlerHelpers(bridgeAddress) {\n    }\n\n    function executeProposal(bytes32, bytes calldata) external view {\n        if (_totalAmount == 0) {\n            revert('Something bad happened');\n        }\n        return;\n    }\n\n    function virtualIncreaseBalance(uint amount) external {\n        _totalAmount = amount;\n    }\n}\n\ncontract TestForwarder {\n    function execute(bytes memory data, address to, address sender) external {\n        bytes memory callData = abi.encodePacked(data, sender);\n        (bool success, ) = to.call(callData);\n        require(success, \"Relay call failed\");\n    }\n}\n\ncontract TestTarget {\n    uint public calls = 0;\n    uint public gasLeft;\n    bytes public data;\n    bool public burnAllGas;\n    fallback() external payable {\n        gasLeft = gasleft();\n        calls++;\n        data = msg.data;\n        if (burnAllGas) {\n            assert(false);\n        }\n    }\n\n    function setBurnAllGas() public {\n        burnAllGas = true;\n    }\n}\n",
  "sourcePath": "/root/bc_connector/crosscoin/contracts/chainbridge-solidity/contracts/TestContracts.sol",
  "compiler": {
    "name": "solc",
    "version": "0.8.11+commit.d7f03943.Emscripten.clang"
  },
  "schemaVersion": "3.4.7",
  "updatedAt": "2022-06-02T13:10:47.464Z",
  "devdoc": {
    "kind": "dev",
    "methods": {
      "setBurnable(address)": {
        "params": {
          "contractAddress": "Address of contract to be used when making or executing deposits."
        }
      },
      "setResource(bytes32,address)": {
        "params": {
          "contractAddress": "Address of contract to be called when a deposit is made and a deposited is executed.",
          "resourceID": "ResourceID to be used when making deposits."
        }
      },
      "withdraw(bytes)": {
        "params": {
          "data": "ABI-encoded withdrawal params relevant to the handler."
        }
      }
    },
    "version": 1
  },
  "userdoc": {
    "kind": "user",
    "methods": {
      "_resourceIDToTokenContractAddress(bytes32)": {
        "notice": "Exposing getter for {_resourceIDToTokenContractAddress}."
      },
      "setBurnable(address)": {
        "notice": "First verifies {contractAddress} is whitelisted, then sets {_burnList}[{contractAddress}] to true."
      },
      "setResource(bytes32,address)": {
        "notice": "First verifies {_resourceIDToContractAddress}[{resourceID}] and {_contractAddressToResourceID}[{contractAddress}] are not already set, then sets {_resourceIDToContractAddress} with {contractAddress}, {_contractAddressToResourceID} with {resourceID}, and {_contractWhitelist} to true for {contractAddress}."
      },
      "withdraw(bytes)": {
        "notice": "Withdraw funds from ERC safes."
      }
    },
    "version": 1
  }
}