{
  "contractName": "Bridge",
  "abi": [
    {
      "inputs": [
        {
          "internalType": "uint8",
          "name": "domainID",
          "type": "uint8"
        },
        {
          "internalType": "address[]",
          "name": "initialRelayers",
          "type": "address[]"
        },
        {
          "internalType": "uint256",
          "name": "initialRelayerThreshold",
          "type": "uint256"
        },
        {
          "internalType": "uint256",
          "name": "fee",
          "type": "uint256"
        },
        {
          "internalType": "uint256",
          "name": "expiry",
          "type": "uint256"
        }
      ],
      "stateMutability": "nonpayable",
      "type": "constructor"
    },
    {
      "anonymous": false,
      "inputs": [
        {
          "indexed": false,
          "internalType": "uint8",
          "name": "destinationDomainID",
          "type": "uint8"
        },
        {
          "indexed": false,
          "internalType": "bytes32",
          "name": "resourceID",
          "type": "bytes32"
        },
        {
          "indexed": false,
          "internalType": "uint64",
          "name": "depositNonce",
          "type": "uint64"
        },
        {
          "indexed": true,
          "internalType": "address",
          "name": "user",
          "type": "address"
        },
        {
          "indexed": false,
          "internalType": "bytes",
          "name": "data",
          "type": "bytes"
        },
        {
          "indexed": false,
          "internalType": "bytes",
          "name": "handlerResponse",
          "type": "bytes"
        }
      ],
      "name": "Deposit",
      "type": "event"
    },
    {
      "anonymous": false,
      "inputs": [
        {
          "indexed": false,
          "internalType": "bytes",
          "name": "lowLevelData",
          "type": "bytes"
        }
      ],
      "name": "FailedHandlerExecution",
      "type": "event"
    },
    {
      "anonymous": false,
      "inputs": [
        {
          "indexed": false,
          "internalType": "address",
          "name": "account",
          "type": "address"
        }
      ],
      "name": "Paused",
      "type": "event"
    },
    {
      "anonymous": false,
      "inputs": [
        {
          "indexed": false,
          "internalType": "uint8",
          "name": "originDomainID",
          "type": "uint8"
        },
        {
          "indexed": false,
          "internalType": "uint64",
          "name": "depositNonce",
          "type": "uint64"
        },
        {
          "indexed": false,
          "internalType": "enum Bridge.ProposalStatus",
          "name": "status",
          "type": "uint8"
        },
        {
          "indexed": false,
          "internalType": "bytes32",
          "name": "dataHash",
          "type": "bytes32"
        }
      ],
      "name": "ProposalEvent",
      "type": "event"
    },
    {
      "anonymous": false,
      "inputs": [
        {
          "indexed": false,
          "internalType": "uint8",
          "name": "originDomainID",
          "type": "uint8"
        },
        {
          "indexed": false,
          "internalType": "uint64",
          "name": "depositNonce",
          "type": "uint64"
        },
        {
          "indexed": false,
          "internalType": "enum Bridge.ProposalStatus",
          "name": "status",
          "type": "uint8"
        },
        {
          "indexed": false,
          "internalType": "bytes32",
          "name": "dataHash",
          "type": "bytes32"
        }
      ],
      "name": "ProposalVote",
      "type": "event"
    },
    {
      "anonymous": false,
      "inputs": [
        {
          "indexed": false,
          "internalType": "address",
          "name": "relayer",
          "type": "address"
        }
      ],
      "name": "RelayerAdded",
      "type": "event"
    },
    {
      "anonymous": false,
      "inputs": [
        {
          "indexed": false,
          "internalType": "address",
          "name": "relayer",
          "type": "address"
        }
      ],
      "name": "RelayerRemoved",
      "type": "event"
    },
    {
      "anonymous": false,
      "inputs": [
        {
          "indexed": false,
          "internalType": "uint256",
          "name": "newThreshold",
          "type": "uint256"
        }
      ],
      "name": "RelayerThresholdChanged",
      "type": "event"
    },
    {
      "anonymous": false,
      "inputs": [
        {
          "indexed": true,
          "internalType": "bytes32",
          "name": "role",
          "type": "bytes32"
        },
        {
          "indexed": true,
          "internalType": "address",
          "name": "account",
          "type": "address"
        },
        {
          "indexed": true,
          "internalType": "address",
          "name": "sender",
          "type": "address"
        }
      ],
      "name": "RoleGranted",
      "type": "event"
    },
    {
      "anonymous": false,
      "inputs": [
        {
          "indexed": true,
          "internalType": "bytes32",
          "name": "role",
          "type": "bytes32"
        },
        {
          "indexed": true,
          "internalType": "address",
          "name": "account",
          "type": "address"
        },
        {
          "indexed": true,
          "internalType": "address",
          "name": "sender",
          "type": "address"
        }
      ],
      "name": "RoleRevoked",
      "type": "event"
    },
    {
      "anonymous": false,
      "inputs": [
        {
          "indexed": false,
          "internalType": "address",
          "name": "account",
          "type": "address"
        }
      ],
      "name": "Unpaused",
      "type": "event"
    },
    {
      "inputs": [],
      "name": "DEFAULT_ADMIN_ROLE",
      "outputs": [
        {
          "internalType": "bytes32",
          "name": "",
          "type": "bytes32"
        }
      ],
      "stateMutability": "view",
      "type": "function",
      "constant": true
    },
    {
      "inputs": [],
      "name": "MAX_RELAYERS",
      "outputs": [
        {
          "internalType": "uint256",
          "name": "",
          "type": "uint256"
        }
      ],
      "stateMutability": "view",
      "type": "function",
      "constant": true
    },
    {
      "inputs": [],
      "name": "RELAYER_ROLE",
      "outputs": [
        {
          "internalType": "bytes32",
          "name": "",
          "type": "bytes32"
        }
      ],
      "stateMutability": "view",
      "type": "function",
      "constant": true
    },
    {
      "inputs": [
        {
          "internalType": "uint8",
          "name": "",
          "type": "uint8"
        }
      ],
      "name": "_depositCounts",
      "outputs": [
        {
          "internalType": "uint64",
          "name": "",
          "type": "uint64"
        }
      ],
      "stateMutability": "view",
      "type": "function",
      "constant": true
    },
    {
      "inputs": [],
      "name": "_domainID",
      "outputs": [
        {
          "internalType": "uint8",
          "name": "",
          "type": "uint8"
        }
      ],
      "stateMutability": "view",
      "type": "function",
      "constant": true
    },
    {
      "inputs": [],
      "name": "_expiry",
      "outputs": [
        {
          "internalType": "uint40",
          "name": "",
          "type": "uint40"
        }
      ],
      "stateMutability": "view",
      "type": "function",
      "constant": true
    },
    {
      "inputs": [],
      "name": "_fee",
      "outputs": [
        {
          "internalType": "uint128",
          "name": "",
          "type": "uint128"
        }
      ],
      "stateMutability": "view",
      "type": "function",
      "constant": true
    },
    {
      "inputs": [],
      "name": "_relayerThreshold",
      "outputs": [
        {
          "internalType": "uint8",
          "name": "",
          "type": "uint8"
        }
      ],
      "stateMutability": "view",
      "type": "function",
      "constant": true
    },
    {
      "inputs": [
        {
          "internalType": "bytes32",
          "name": "",
          "type": "bytes32"
        }
      ],
      "name": "_resourceIDToHandlerAddress",
      "outputs": [
        {
          "internalType": "address",
          "name": "",
          "type": "address"
        }
      ],
      "stateMutability": "view",
      "type": "function",
      "constant": true
    },
    {
      "inputs": [
        {
          "internalType": "bytes32",
          "name": "role",
          "type": "bytes32"
        }
      ],
      "name": "getRoleAdmin",
      "outputs": [
        {
          "internalType": "bytes32",
          "name": "",
          "type": "bytes32"
        }
      ],
      "stateMutability": "view",
      "type": "function",
      "constant": true
    },
    {
      "inputs": [
        {
          "internalType": "bytes32",
          "name": "role",
          "type": "bytes32"
        },
        {
          "internalType": "uint256",
          "name": "index",
          "type": "uint256"
        }
      ],
      "name": "getRoleMember",
      "outputs": [
        {
          "internalType": "address",
          "name": "",
          "type": "address"
        }
      ],
      "stateMutability": "view",
      "type": "function",
      "constant": true
    },
    {
      "inputs": [
        {
          "internalType": "bytes32",
          "name": "role",
          "type": "bytes32"
        }
      ],
      "name": "getRoleMemberCount",
      "outputs": [
        {
          "internalType": "uint256",
          "name": "",
          "type": "uint256"
        }
      ],
      "stateMutability": "view",
      "type": "function",
      "constant": true
    },
    {
      "inputs": [
        {
          "internalType": "bytes32",
          "name": "role",
          "type": "bytes32"
        },
        {
          "internalType": "address",
          "name": "account",
          "type": "address"
        }
      ],
      "name": "getRoleMemberIndex",
      "outputs": [
        {
          "internalType": "uint256",
          "name": "",
          "type": "uint256"
        }
      ],
      "stateMutability": "view",
      "type": "function",
      "constant": true
    },
    {
      "inputs": [
        {
          "internalType": "bytes32",
          "name": "role",
          "type": "bytes32"
        },
        {
          "internalType": "address",
          "name": "account",
          "type": "address"
        }
      ],
      "name": "grantRole",
      "outputs": [],
      "stateMutability": "nonpayable",
      "type": "function"
    },
    {
      "inputs": [
        {
          "internalType": "bytes32",
          "name": "role",
          "type": "bytes32"
        },
        {
          "internalType": "address",
          "name": "account",
          "type": "address"
        }
      ],
      "name": "hasRole",
      "outputs": [
        {
          "internalType": "bool",
          "name": "",
          "type": "bool"
        }
      ],
      "stateMutability": "view",
      "type": "function",
      "constant": true
    },
    {
      "inputs": [
        {
          "internalType": "address",
          "name": "",
          "type": "address"
        }
      ],
      "name": "isValidForwarder",
      "outputs": [
        {
          "internalType": "bool",
          "name": "",
          "type": "bool"
        }
      ],
      "stateMutability": "view",
      "type": "function",
      "constant": true
    },
    {
      "inputs": [],
      "name": "paused",
      "outputs": [
        {
          "internalType": "bool",
          "name": "",
          "type": "bool"
        }
      ],
      "stateMutability": "view",
      "type": "function",
      "constant": true
    },
    {
      "inputs": [
        {
          "internalType": "bytes32",
          "name": "role",
          "type": "bytes32"
        },
        {
          "internalType": "address",
          "name": "account",
          "type": "address"
        }
      ],
      "name": "renounceRole",
      "outputs": [],
      "stateMutability": "nonpayable",
      "type": "function"
    },
    {
      "inputs": [
        {
          "internalType": "bytes32",
          "name": "role",
          "type": "bytes32"
        },
        {
          "internalType": "address",
          "name": "account",
          "type": "address"
        }
      ],
      "name": "revokeRole",
      "outputs": [],
      "stateMutability": "nonpayable",
      "type": "function"
    },
    {
      "inputs": [
        {
          "internalType": "uint72",
          "name": "destNonce",
          "type": "uint72"
        },
        {
          "internalType": "bytes32",
          "name": "dataHash",
          "type": "bytes32"
        },
        {
          "internalType": "address",
          "name": "relayer",
          "type": "address"
        }
      ],
      "name": "_hasVotedOnProposal",
      "outputs": [
        {
          "internalType": "bool",
          "name": "",
          "type": "bool"
        }
      ],
      "stateMutability": "view",
      "type": "function",
      "constant": true
    },
    {
      "inputs": [
        {
          "internalType": "address",
          "name": "relayer",
          "type": "address"
        }
      ],
      "name": "isRelayer",
      "outputs": [
        {
          "internalType": "bool",
          "name": "",
          "type": "bool"
        }
      ],
      "stateMutability": "view",
      "type": "function",
      "constant": true
    },
    {
      "inputs": [
        {
          "internalType": "address",
          "name": "newAdmin",
          "type": "address"
        }
      ],
      "name": "renounceAdmin",
      "outputs": [],
      "stateMutability": "nonpayable",
      "type": "function"
    },
    {
      "inputs": [],
      "name": "adminPauseTransfers",
      "outputs": [],
      "stateMutability": "nonpayable",
      "type": "function"
    },
    {
      "inputs": [],
      "name": "adminUnpauseTransfers",
      "outputs": [],
      "stateMutability": "nonpayable",
      "type": "function"
    },
    {
      "inputs": [
        {
          "internalType": "uint256",
          "name": "newThreshold",
          "type": "uint256"
        }
      ],
      "name": "adminChangeRelayerThreshold",
      "outputs": [],
      "stateMutability": "nonpayable",
      "type": "function"
    },
    {
      "inputs": [
        {
          "internalType": "address",
          "name": "relayerAddress",
          "type": "address"
        }
      ],
      "name": "adminAddRelayer",
      "outputs": [],
      "stateMutability": "nonpayable",
      "type": "function"
    },
    {
      "inputs": [
        {
          "internalType": "address",
          "name": "relayerAddress",
          "type": "address"
        }
      ],
      "name": "adminRemoveRelayer",
      "outputs": [],
      "stateMutability": "nonpayable",
      "type": "function"
    },
    {
      "inputs": [
        {
          "internalType": "address",
          "name": "handlerAddress",
          "type": "address"
        },
        {
          "internalType": "bytes32",
          "name": "resourceID",
          "type": "bytes32"
        },
        {
          "internalType": "address",
          "name": "tokenAddress",
          "type": "address"
        }
      ],
      "name": "adminSetResource",
      "outputs": [],
      "stateMutability": "nonpayable",
      "type": "function"
    },
    {
      "inputs": [
        {
          "internalType": "address",
          "name": "handlerAddress",
          "type": "address"
        },
        {
          "internalType": "bytes32",
          "name": "resourceID",
          "type": "bytes32"
        },
        {
          "internalType": "address",
          "name": "contractAddress",
          "type": "address"
        },
        {
          "internalType": "bytes4",
          "name": "depositFunctionSig",
          "type": "bytes4"
        },
        {
          "internalType": "uint256",
          "name": "depositFunctionDepositerOffset",
          "type": "uint256"
        },
        {
          "internalType": "bytes4",
          "name": "executeFunctionSig",
          "type": "bytes4"
        }
      ],
      "name": "adminSetGenericResource",
      "outputs": [],
      "stateMutability": "nonpayable",
      "type": "function"
    },
    {
      "inputs": [
        {
          "internalType": "address",
          "name": "handlerAddress",
          "type": "address"
        },
        {
          "internalType": "address",
          "name": "tokenAddress",
          "type": "address"
        }
      ],
      "name": "adminSetBurnable",
      "outputs": [],
      "stateMutability": "nonpayable",
      "type": "function"
    },
    {
      "inputs": [
        {
          "internalType": "uint8",
          "name": "domainID",
          "type": "uint8"
        },
        {
          "internalType": "uint64",
          "name": "nonce",
          "type": "uint64"
        }
      ],
      "name": "adminSetDepositNonce",
      "outputs": [],
      "stateMutability": "nonpayable",
      "type": "function"
    },
    {
      "inputs": [
        {
          "internalType": "address",
          "name": "forwarder",
          "type": "address"
        },
        {
          "internalType": "bool",
          "name": "valid",
          "type": "bool"
        }
      ],
      "name": "adminSetForwarder",
      "outputs": [],
      "stateMutability": "nonpayable",
      "type": "function"
    },
    {
      "inputs": [
        {
          "internalType": "uint8",
          "name": "originDomainID",
          "type": "uint8"
        },
        {
          "internalType": "uint64",
          "name": "depositNonce",
          "type": "uint64"
        },
        {
          "internalType": "bytes32",
          "name": "dataHash",
          "type": "bytes32"
        }
      ],
      "name": "getProposal",
      "outputs": [
        {
          "components": [
            {
              "internalType": "enum Bridge.ProposalStatus",
              "name": "_status",
              "type": "uint8"
            },
            {
              "internalType": "uint200",
              "name": "_yesVotes",
              "type": "uint200"
            },
            {
              "internalType": "uint8",
              "name": "_yesVotesTotal",
              "type": "uint8"
            },
            {
              "internalType": "uint40",
              "name": "_proposedBlock",
              "type": "uint40"
            }
          ],
          "internalType": "struct Bridge.Proposal",
          "name": "",
          "type": "tuple"
        }
      ],
      "stateMutability": "view",
      "type": "function",
      "constant": true
    },
    {
      "inputs": [],
      "name": "_totalRelayers",
      "outputs": [
        {
          "internalType": "uint256",
          "name": "",
          "type": "uint256"
        }
      ],
      "stateMutability": "view",
      "type": "function",
      "constant": true
    },
    {
      "inputs": [
        {
          "internalType": "uint256",
          "name": "newFee",
          "type": "uint256"
        }
      ],
      "name": "adminChangeFee",
      "outputs": [],
      "stateMutability": "nonpayable",
      "type": "function"
    },
    {
      "inputs": [
        {
          "internalType": "address",
          "name": "handlerAddress",
          "type": "address"
        },
        {
          "internalType": "bytes",
          "name": "data",
          "type": "bytes"
        }
      ],
      "name": "adminWithdraw",
      "outputs": [],
      "stateMutability": "nonpayable",
      "type": "function"
    },
    {
      "inputs": [
        {
          "internalType": "uint8",
          "name": "destinationDomainID",
          "type": "uint8"
        },
        {
          "internalType": "bytes32",
          "name": "resourceID",
          "type": "bytes32"
        },
        {
          "internalType": "bytes",
          "name": "data",
          "type": "bytes"
        }
      ],
      "name": "deposit",
      "outputs": [],
      "stateMutability": "payable",
      "type": "function",
      "payable": true
    },
    {
      "inputs": [
        {
          "internalType": "uint8",
          "name": "domainID",
          "type": "uint8"
        },
        {
          "internalType": "uint64",
          "name": "depositNonce",
          "type": "uint64"
        },
        {
          "internalType": "bytes32",
          "name": "resourceID",
          "type": "bytes32"
        },
        {
          "internalType": "bytes",
          "name": "data",
          "type": "bytes"
        }
      ],
      "name": "voteProposal",
      "outputs": [],
      "stateMutability": "nonpayable",
      "type": "function"
    },
    {
      "inputs": [
        {
          "internalType": "uint8",
          "name": "domainID",
          "type": "uint8"
        },
        {
          "internalType": "uint64",
          "name": "depositNonce",
          "type": "uint64"
        },
        {
          "internalType": "bytes32",
          "name": "dataHash",
          "type": "bytes32"
        }
      ],
      "name": "cancelProposal",
      "outputs": [],
      "stateMutability": "nonpayable",
      "type": "function"
    },
    {
      "inputs": [
        {
          "internalType": "uint8",
          "name": "domainID",
          "type": "uint8"
        },
        {
          "internalType": "uint64",
          "name": "depositNonce",
          "type": "uint64"
        },
        {
          "internalType": "bytes",
          "name": "data",
          "type": "bytes"
        },
        {
          "internalType": "bytes32",
          "name": "resourceID",
          "type": "bytes32"
        },
        {
          "internalType": "bool",
          "name": "revertOnFail",
          "type": "bool"
        }
      ],
      "name": "executeProposal",
      "outputs": [],
      "stateMutability": "nonpayable",
      "type": "function"
    },
    {
      "inputs": [
        {
          "internalType": "address payable[]",
          "name": "addrs",
          "type": "address[]"
        },
        {
          "internalType": "uint256[]",
          "name": "amounts",
          "type": "uint256[]"
        }
      ],
      "name": "transferFunds",
      "outputs": [],
      "stateMutability": "nonpayable",
      "type": "function"
    }
  ],
  "bytecode": "0x60806040523480156200001157600080fd5b5060405162005ec638038062005ec683398181016040528101906200003791906200083c565b60008060006101000a81548160ff02191690831515021790555084600260006101000a81548160ff021916908360ff1602179055506200008283620001c360201b62002a1c1760201c565b600260016101000a81548160ff021916908360ff160217905550620000b2826200021460201b62002a6a1760201c565b6002806101000a8154816fffffffffffffffffffffffffffffffff02191690836fffffffffffffffffffffffffffffffff160217905550620000ff816200027460201b62002ac71760201c565b600260126101000a81548164ffffffffff021916908364ffffffffff160217905550620001456000801b62000139620002c960201b60201c565b6200034660201b60201c565b60005b8451811015620001b757620001a17fe2b7fb3b832174769106daebcfd6d1970523240dda11281102db9363b83b0dc48683815181106200018d576200018c620008e3565b5b60200260200101516200035c60201b60201c565b8080620001ae9062000941565b91505062000148565b50505050505062000b8e565b600061010082106200020c576040517f08c379a00000000000000000000000000000000000000000000000000000000081526004016200020390620009f0565b60405180910390fd5b819050919050565b600070010000000000000000000000000000000082106200026c576040517f08c379a0000000000000000000000000000000000000000000000000000000008152600401620002639062000a62565b60405180910390fd5b819050919050565b6000650100000000008210620002c1576040517f08c379a0000000000000000000000000000000000000000000000000000000008152600401620002b89062000ad4565b60405180910390fd5b819050919050565b60008033905060146000369050101580156200032e5750600560008273ffffffffffffffffffffffffffffffffffffffff1673ffffffffffffffffffffffffffffffffffffffff16815260200190815260200160002060009054906101000a900460ff165b156200033f57601436033560601c90505b8091505090565b620003588282620003eb60201b60201c565b5050565b62000393600160008481526020019081526020016000206002015462000387620002c960201b60201c565b6200048f60201b60201c565b620003d5576040517f08c379a0000000000000000000000000000000000000000000000000000000008152600401620003cc9062000b6c565b60405180910390fd5b620003e78282620003eb60201b60201c565b5050565b6200041a8160016000858152602001908152602001600020600001620004c860201b62002b191790919060201c565b156200048b5762000430620002c960201b60201c565b73ffffffffffffffffffffffffffffffffffffffff168173ffffffffffffffffffffffffffffffffffffffff16837f2f8788117e7eff1d82e926ec794901d17c78024a50270940304540a733656f0d60405160405180910390a45b5050565b6000620004c082600160008681526020019081526020016000206000016200050060201b62002b491790919060201c565b905092915050565b6000620004f8836000018373ffffffffffffffffffffffffffffffffffffffff1660001b6200053860201b60201c565b905092915050565b600062000530836000018373ffffffffffffffffffffffffffffffffffffffff1660001b620005b260201b60201c565b905092915050565b60006200054c8383620005b260201b60201c565b620005a7578260000182908060018154018082558091505060019003906000526020600020016000909190919091505582600001805490508360010160008481526020019081526020016000208190555060019050620005ac565b600090505b92915050565b600080836001016000848152602001908152602001600020541415905092915050565b6000604051905090565b600080fd5b600080fd5b600060ff82169050919050565b6200060181620005e9565b81146200060d57600080fd5b50565b6000815190506200062181620005f6565b92915050565b600080fd5b6000601f19601f8301169050919050565b7f4e487b7100000000000000000000000000000000000000000000000000000000600052604160045260246000fd5b62000677826200062c565b810181811067ffffffffffffffff821117156200069957620006986200063d565b5b80604052505050565b6000620006ae620005d5565b9050620006bc82826200066c565b919050565b600067ffffffffffffffff821115620006df57620006de6200063d565b5b602082029050602081019050919050565b600080fd5b600073ffffffffffffffffffffffffffffffffffffffff82169050919050565b60006200072282620006f5565b9050919050565b620007348162000715565b81146200074057600080fd5b50565b600081519050620007548162000729565b92915050565b6000620007716200076b84620006c1565b620006a2565b90508083825260208201905060208402830185811115620007975762000796620006f0565b5b835b81811015620007c45780620007af888262000743565b84526020840193505060208101905062000799565b5050509392505050565b600082601f830112620007e657620007e562000627565b5b8151620007f88482602086016200075a565b91505092915050565b6000819050919050565b620008168162000801565b81146200082257600080fd5b50565b60008151905062000836816200080b565b92915050565b600080600080600060a086880312156200085b576200085a620005df565b5b60006200086b8882890162000610565b955050602086015167ffffffffffffffff8111156200088f576200088e620005e4565b5b6200089d88828901620007ce565b9450506040620008b08882890162000825565b9350506060620008c38882890162000825565b9250506080620008d68882890162000825565b9150509295509295909350565b7f4e487b7100000000000000000000000000000000000000000000000000000000600052603260045260246000fd5b7f4e487b7100000000000000000000000000000000000000000000000000000000600052601160045260246000fd5b60006200094e8262000801565b91507fffffffffffffffffffffffffffffffffffffffffffffffffffffffffffffffff82141562000984576200098362000912565b5b600182019050919050565b600082825260208201905092915050565b7f76616c756520646f6573206e6f742066697420696e2038206269747300000000600082015250565b6000620009d8601c836200098f565b9150620009e582620009a0565b602082019050919050565b6000602082019050818103600083015262000a0b81620009c9565b9050919050565b7f76616c756520646f6573206e6f742066697420696e2031323820626974730000600082015250565b600062000a4a601e836200098f565b915062000a578262000a12565b602082019050919050565b6000602082019050818103600083015262000a7d8162000a3b565b9050919050565b7f76616c756520646f6573206e6f742066697420696e2034302062697473000000600082015250565b600062000abc601d836200098f565b915062000ac98262000a84565b602082019050919050565b6000602082019050818103600083015262000aef8162000aad565b9050919050565b7f416363657373436f6e74726f6c3a2073656e646572206d75737420626520616e60008201527f2061646d696e20746f206772616e740000000000000000000000000000000000602082015250565b600062000b54602f836200098f565b915062000b618262000af6565b604082019050919050565b6000602082019050818103600083015262000b878162000b45565b9050919050565b6153288062000b9e6000396000f3fe6080604052600436106102465760003560e01c806391c404ac11610139578063c5b37c22116100b6578063d15ef64e1161007a578063d15ef64e1461089f578063d547741f146108c8578063d7a9cd79146108f1578063edc20c3c1461091c578063f8c39e4414610945578063ffaac0eb1461098257610246565b8063c5b37c22146107ba578063c5ec8970146107e5578063ca15c87314610810578063cb10f2151461084d578063cdb0f73a1461087657610246565b80639debb3bd116100fd5780639debb3bd146106d5578063a217fddf14610700578063a9cf69fa1461072b578063bd2a182014610768578063c0331b3e1461079157610246565b806391c404ac146105f057806391d1485414610619578063926d7d7f146106565780639d82dd63146106815780639dd694f4146106aa57610246565b8063541d5548116101c7578063802aabe81161018b578063802aabe81461050b57806380ae1c281461053657806384db809f1461054d5780638c0c26311461058a5780639010d07c146105b357610246565b8063541d5548146104145780635a1ad87c146104515780635c975abb1461047a5780635e1fab0f146104a55780637febe63f146104ce57610246565b806336568abe1161020e57806336568abe1461031f5780634603ae38146103485780634b0b919d146103715780634e056005146103ae5780634e0df3f6146103d757610246565b806305e2ca171461024b57806317f03ce514610267578063206a98fd14610290578063248a9ca3146102b95780632f2ff15d146102f6575b600080fd5b610265600480360381019061026091906134da565b610999565b005b34801561027357600080fd5b5061028e6004803603810190610289919061358e565b610c1a565b005b34801561029c57600080fd5b506102b760048036038101906102b29190613619565b61100a565b005b3480156102c557600080fd5b506102e060048036038101906102db91906136b3565b611360565b6040516102ed91906136ef565b60405180910390f35b34801561030257600080fd5b5061031d60048036038101906103189190613768565b611380565b005b34801561032b57600080fd5b5061034660048036038101906103419190613768565b6113f4565b005b34801561035457600080fd5b5061036f600480360381019061036a9190613854565b611477565b005b34801561037d57600080fd5b50610398600480360381019061039391906138d5565b61152e565b6040516103a59190613911565b60405180910390f35b3480156103ba57600080fd5b506103d560048036038101906103d09190613962565b611555565b005b3480156103e357600080fd5b506103fe60048036038101906103f99190613768565b6115ba565b60405161040b919061399e565b60405180910390f35b34801561042057600080fd5b5061043b600480360381019061043691906139b9565b61160b565b60405161044891906139f5565b60405180910390f35b34801561045d57600080fd5b5061047860048036038101906104739190613a68565b61163e565b005b34801561048657600080fd5b5061048f611719565b60405161049c91906139f5565b60405180910390f35b3480156104b157600080fd5b506104cc60048036038101906104c791906139b9565b61172f565b005b3480156104da57600080fd5b506104f560048036038101906104f09190613b36565b6117d0565b60405161050291906139f5565b60405180910390f35b34801561051757600080fd5b5061052061190f565b60405161052d919061399e565b60405180910390f35b34801561054257600080fd5b5061054b61193f565b005b34801561055957600080fd5b50610574600480360381019061056f91906136b3565b611959565b6040516105819190613b98565b60405180910390f35b34801561059657600080fd5b506105b160048036038101906105ac9190613bb3565b61198c565b005b3480156105bf57600080fd5b506105da60048036038101906105d59190613bf3565b611a09565b6040516105e79190613b98565b60405180910390f35b3480156105fc57600080fd5b5061061760048036038101906106129190613962565b611a3b565b005b34801561062557600080fd5b50610640600480360381019061063b9190613768565b611af7565b60405161064d91906139f5565b60405180910390f35b34801561066257600080fd5b5061066b611b29565b60405161067891906136ef565b60405180910390f35b34801561068d57600080fd5b506106a860048036038101906106a391906139b9565b611b4d565b005b3480156106b657600080fd5b506106bf611c1a565b6040516106cc9190613c42565b60405180910390f35b3480156106e157600080fd5b506106ea611c2d565b6040516106f7919061399e565b60405180910390f35b34801561070c57600080fd5b50610715611c32565b60405161072291906136ef565b60405180910390f35b34801561073757600080fd5b50610752600480360381019061074d919061358e565b611c39565b60405161075f9190613d8c565b60405180910390f35b34801561077457600080fd5b5061078f600480360381019061078a9190613ee8565b611d99565b005b34801561079d57600080fd5b506107b860048036038101906107b39190613f44565b611e16565b005b3480156107c657600080fd5b506107cf6125e1565b6040516107dc9190613ff7565b60405180910390f35b3480156107f157600080fd5b506107fa612601565b6040516108079190614021565b60405180910390f35b34801561081c57600080fd5b50610837600480360381019061083291906136b3565b612618565b604051610844919061399e565b60405180910390f35b34801561085957600080fd5b50610874600480360381019061086f919061403c565b61263f565b005b34801561088257600080fd5b5061089d600480360381019061089891906139b9565b612711565b005b3480156108ab57600080fd5b506108c660048036038101906108c1919061408f565b612829565b005b3480156108d457600080fd5b506108ef60048036038101906108ea9190613768565b61288c565b005b3480156108fd57600080fd5b50610906612900565b6040516109139190613c42565b60405180910390f35b34801561092857600080fd5b50610943600480360381019061093e91906140cf565b612913565b005b34801561095157600080fd5b5061096c600480360381019061096791906139b9565b6129e2565b60405161097991906139f5565b60405180910390f35b34801561098e57600080fd5b50610997612a02565b005b6109a1612b79565b60028054906101000a90046fffffffffffffffffffffffffffffffff166fffffffffffffffffffffffffffffffff163414610a11576040517f08c379a0000000000000000000000000000000000000000000000000000000008152600401610a089061416c565b60405180910390fd5b60006004600085815260200190815260200160002060009054906101000a900473ffffffffffffffffffffffffffffffffffffffff169050600073ffffffffffffffffffffffffffffffffffffffff168173ffffffffffffffffffffffffffffffffffffffff161415610ab9576040517f08c379a0000000000000000000000000000000000000000000000000000000008152600401610ab0906141d8565b60405180910390fd5b6000600360008760ff1660ff168152602001908152602001600020600081819054906101000a900467ffffffffffffffff16610af490614227565b91906101000a81548167ffffffffffffffff021916908367ffffffffffffffff160217905590506000610b25612bc9565b9050600083905060008173ffffffffffffffffffffffffffffffffffffffff1663b07e54bb89858a8a6040518563ffffffff1660e01b8152600401610b6d9493929190614296565b6000604051808303816000875af1158015610b8c573d6000803e3d6000fd5b505050506040513d6000823e3d601f19601f82011682018060405250810190610bb59190614379565b90508273ffffffffffffffffffffffffffffffffffffffff167f17bc3181e17a9620a479c24e6c606e474ba84fc036877b768926872e8cd0e11f8a8a878b8b87604051610c0796959493929190614406565b60405180910390a2505050505050505050565b610c22612c44565b60008360ff1660088467ffffffffffffffff1668ffffffffffffffffff16901b1790506000600660008368ffffffffffffffffff1668ffffffffffffffffff16815260200190815260200160002060008481526020019081526020016000206040518060800160405290816000820160009054906101000a900460ff166004811115610cb157610cb0613c5d565b5b6004811115610cc357610cc2613c5d565b5b81526020016000820160019054906101000a900478ffffffffffffffffffffffffffffffffffffffffffffffffff1678ffffffffffffffffffffffffffffffffffffffffffffffffff1678ffffffffffffffffffffffffffffffffffffffffffffffffff16815260200160008201601a9054906101000a900460ff1660ff1660ff16815260200160008201601b9054906101000a900464ffffffffff1664ffffffffff1664ffffffffff1681525050905060008160000151905060016004811115610d9157610d90613c5d565b5b816004811115610da457610da3613c5d565b5b1480610dd4575060026004811115610dbf57610dbe613c5d565b5b816004811115610dd257610dd1613c5d565b5b145b610e13576040517f08c379a0000000000000000000000000000000000000000000000000000000008152600401610e0a906144b5565b60405180910390fd5b600260129054906101000a900464ffffffffff1664ffffffffff16610e4343846060015164ffffffffff16612cd0565b64ffffffffff1611610e8a576040517f08c379a0000000000000000000000000000000000000000000000000000000008152600401610e8190614521565b60405180910390fd5b600482600001906004811115610ea357610ea2613c5d565b5b90816004811115610eb757610eb6613c5d565b5b8152505081600660008568ffffffffffffffffff1668ffffffffffffffffff168152602001908152602001600020600086815260200190815260200160002060008201518160000160006101000a81548160ff02191690836004811115610f2157610f20613c5d565b5b021790555060208201518160000160016101000a81548178ffffffffffffffffffffffffffffffffffffffffffffffffff021916908378ffffffffffffffffffffffffffffffffffffffffffffffffff160217905550604082015181600001601a6101000a81548160ff021916908360ff160217905550606082015181600001601b6101000a81548164ffffffffff021916908364ffffffffff1602179055509050507f968626a768e76ba1363efe44e322a6c4900c5f084e0b45f35e294dfddaa9e0d58686600487604051610ffa9493929190614550565b60405180910390a1505050505050565b611012612d1a565b61101a612b79565b60006004600084815260200190815260200160002060009054906101000a900473ffffffffffffffffffffffffffffffffffffffff16905060008760ff1660088867ffffffffffffffff1668ffffffffffffffffff16901b179050600082878760405160200161108c9392919061460d565b6040516020818303038152906040528051906020012090506000600660008468ffffffffffffffffff1668ffffffffffffffffff16815260200190815260200160002060008381526020019081526020016000209050600260048111156110f6576110f5613c5d565b5b8160000160009054906101000a900460ff16600481111561111a57611119613c5d565b5b1461115a576040517f08c379a000000000000000000000000000000000000000000000000000000000815260040161115190614683565b60405180910390fd5b60038160000160006101000a81548160ff0219169083600481111561118257611181613c5d565b5b021790555060008490508515611206578073ffffffffffffffffffffffffffffffffffffffff1663e248cff2888b8b6040518463ffffffff1660e01b81526004016111cf939291906146a3565b600060405180830381600087803b1580156111e957600080fd5b505af11580156111fd573d6000803e3d6000fd5b50505050611314565b8073ffffffffffffffffffffffffffffffffffffffff1663e248cff2888b8b6040518463ffffffff1660e01b8152600401611243939291906146a3565b600060405180830381600087803b15801561125d57600080fd5b505af192505050801561126e575060015b611313573d806000811461129e576040519150601f19603f3d011682016040523d82523d6000602084013e6112a3565b606091505b5060028360000160006101000a81548160ff021916908360048111156112cc576112cb613c5d565b5b02179055507fbd37c1f0d53bb2f33fe4c2104de272fcdeb4d2fef3acdbf1e4ddc3d6833ca3768160405161130091906146d5565b60405180910390a1505050505050611358565b5b7f968626a768e76ba1363efe44e322a6c4900c5f084e0b45f35e294dfddaa9e0d58b8b60038660405161134a9493929190614550565b60405180910390a150505050505b505050505050565b600060016000838152602001908152602001600020600201549050919050565b6113a760016000848152602001908152602001600020600201546113a2612bc9565b611af7565b6113e6576040517f08c379a00000000000000000000000000000000000000000000000000000000081526004016113dd90614769565b60405180910390fd5b6113f08282612d8c565b5050565b6113fc612bc9565b73ffffffffffffffffffffffffffffffffffffffff168173ffffffffffffffffffffffffffffffffffffffff1614611469576040517f08c379a0000000000000000000000000000000000000000000000000000000008152600401611460906147fb565b60405180910390fd5b6114738282612e20565b5050565b61147f612eb4565b60005b84849050811015611527578484828181106114a05761149f61481b565b5b90506020020160208101906114b59190614888565b73ffffffffffffffffffffffffffffffffffffffff166108fc8484848181106114e1576114e061481b565b5b905060200201359081150290604051600060405180830381858888f19350505050158015611513573d6000803e3d6000fd5b50808061151f906148b5565b915050611482565b5050505050565b60036020528060005260406000206000915054906101000a900467ffffffffffffffff1681565b61155d612eb4565b61156681612a1c565b600260016101000a81548160ff021916908360ff1602179055507fa20d6b84cd798a24038be305eff8a45ca82ef54a2aa2082005d8e14c0a4746c8816040516115af919061399e565b60405180910390a150565b60006001600084815260200190815260200160002060000160000160010160008373ffffffffffffffffffffffffffffffffffffffff1660001b815260200190815260200160002054905092915050565b60006116377fe2b7fb3b832174769106daebcfd6d1970523240dda11281102db9363b83b0dc483611af7565b9050919050565b611646612eb4565b856004600087815260200190815260200160002060006101000a81548173ffffffffffffffffffffffffffffffffffffffff021916908373ffffffffffffffffffffffffffffffffffffffff16021790555060008690508073ffffffffffffffffffffffffffffffffffffffff1663de319d9987878787876040518663ffffffff1660e01b81526004016116de95949392919061490d565b600060405180830381600087803b1580156116f857600080fd5b505af115801561170c573d6000803e3d6000fd5b5050505050505050505050565b60008060009054906101000a900460ff16905090565b611737612eb4565b6000611741612bc9565b90508173ffffffffffffffffffffffffffffffffffffffff168173ffffffffffffffffffffffffffffffffffffffff1614156117b2576040517f08c379a00000000000000000000000000000000000000000000000000000000081526004016117a9906149ac565b60405180910390fd5b6117bf6000801b83611380565b6117cc6000801b826113f4565b5050565b6000611906600660008668ffffffffffffffffff1668ffffffffffffffffff16815260200190815260200160002060008581526020019081526020016000206040518060800160405290816000820160009054906101000a900460ff16600481111561183f5761183e613c5d565b5b600481111561185157611850613c5d565b5b81526020016000820160019054906101000a900478ffffffffffffffffffffffffffffffffffffffffffffffffff1678ffffffffffffffffffffffffffffffffffffffffffffffffff1678ffffffffffffffffffffffffffffffffffffffffffffffffff16815260200160008201601a9054906101000a900460ff1660ff1660ff16815260200160008201601b9054906101000a900464ffffffffff1664ffffffffff1664ffffffffff168152505083612f09565b90509392505050565b600061193a7fe2b7fb3b832174769106daebcfd6d1970523240dda11281102db9363b83b0dc4612618565b905090565b611947612eb4565b611957611952612bc9565b612f3f565b565b60046020528060005260406000206000915054906101000a900473ffffffffffffffffffffffffffffffffffffffff1681565b611994612eb4565b60008290508073ffffffffffffffffffffffffffffffffffffffff166307b7ed99836040518263ffffffff1660e01b81526004016119d29190613b98565b600060405180830381600087803b1580156119ec57600080fd5b505af1158015611a00573d6000803e3d6000fd5b50505050505050565b6000611a338260016000868152602001908152602001600020600001612f9b90919063ffffffff16565b905092915050565b611a43612eb4565b8060028054906101000a90046fffffffffffffffffffffffffffffffff166fffffffffffffffffffffffffffffffff161415611ab4576040517f08c379a0000000000000000000000000000000000000000000000000000000008152600401611aab90614a18565b60405180910390fd5b611abd81612a6a565b6002806101000a8154816fffffffffffffffffffffffffffffffff02191690836fffffffffffffffffffffffffffffffff16021790555050565b6000611b218260016000868152602001908152602001600020600001612b4990919063ffffffff16565b905092915050565b7fe2b7fb3b832174769106daebcfd6d1970523240dda11281102db9363b83b0dc481565b611b777fe2b7fb3b832174769106daebcfd6d1970523240dda11281102db9363b83b0dc482611af7565b611bb6576040517f08c379a0000000000000000000000000000000000000000000000000000000008152600401611bad90614a84565b60405180910390fd5b611be07fe2b7fb3b832174769106daebcfd6d1970523240dda11281102db9363b83b0dc48261288c565b7f10e1f7ce9fd7d1b90a66d13a2ab3cb8dd7f29f3f8d520b143b063ccfbab6906b81604051611c0f9190613b98565b60405180910390a150565b600260009054906101000a900460ff1681565b60c881565b6000801b81565b611c41613393565b60008460ff1660088567ffffffffffffffff1668ffffffffffffffffff16901b179050600660008268ffffffffffffffffff1668ffffffffffffffffff16815260200190815260200160002060008481526020019081526020016000206040518060800160405290816000820160009054906101000a900460ff166004811115611cce57611ccd613c5d565b5b6004811115611ce057611cdf613c5d565b5b81526020016000820160019054906101000a900478ffffffffffffffffffffffffffffffffffffffffffffffffff1678ffffffffffffffffffffffffffffffffffffffffffffffffff1678ffffffffffffffffffffffffffffffffffffffffffffffffff16815260200160008201601a9054906101000a900460ff1660ff1660ff16815260200160008201601b9054906101000a900464ffffffffff1664ffffffffff1664ffffffffff16815250509150509392505050565b611da1612eb4565b60008290508073ffffffffffffffffffffffffffffffffffffffff16630968f264836040518263ffffffff1660e01b8152600401611ddf91906146d5565b600060405180830381600087803b158015611df957600080fd5b505af1158015611e0d573d6000803e3d6000fd5b50505050505050565b611e1e612d1a565b611e26612b79565b60006004600085815260200190815260200160002060009054906101000a900473ffffffffffffffffffffffffffffffffffffffff16905060008660ff1660088767ffffffffffffffff1668ffffffffffffffffff16901b1790506000828585604051602001611e989392919061460d565b6040516020818303038152906040528051906020012090506000600660008468ffffffffffffffffff1668ffffffffffffffffff16815260200190815260200160002060008381526020019081526020016000206040518060800160405290816000820160009054906101000a900460ff166004811115611f1c57611f1b613c5d565b5b6004811115611f2e57611f2d613c5d565b5b81526020016000820160019054906101000a900478ffffffffffffffffffffffffffffffffffffffffffffffffff1678ffffffffffffffffffffffffffffffffffffffffffffffffff1678ffffffffffffffffffffffffffffffffffffffffffffffffff16815260200160008201601a9054906101000a900460ff1660ff1660ff16815260200160008201601b9054906101000a900464ffffffffff1664ffffffffff1664ffffffffff16815250509050600073ffffffffffffffffffffffffffffffffffffffff166004600089815260200190815260200160002060009054906101000a900473ffffffffffffffffffffffffffffffffffffffff1673ffffffffffffffffffffffffffffffffffffffff161415612082576040517f08c379a000000000000000000000000000000000000000000000000000000000815260040161207990614af0565b60405180910390fd5b6002600481111561209657612095613c5d565b5b816000015160048111156120ad576120ac613c5d565b5b14156120cb576120c2898988888b600161100a565b505050506125da565b60006120d5612bc9565b90506001826000015160048111156120f0576120ef613c5d565b5b1115612131576040517f08c379a000000000000000000000000000000000000000000000000000000000815260040161212890614b82565b60405180910390fd5b61213b8282612f09565b1561217b576040517f08c379a000000000000000000000000000000000000000000000000000000000815260040161217290614bee565b60405180910390fd5b6000600481111561218f5761218e613c5d565b5b826000015160048111156121a6576121a5613c5d565b5b141561224c576040518060800160405280600160048111156121cb576121ca613c5d565b5b8152602001600078ffffffffffffffffffffffffffffffffffffffffffffffffff168152602001600060ff1681526020014364ffffffffff1681525091507f968626a768e76ba1363efe44e322a6c4900c5f084e0b45f35e294dfddaa9e0d58a8a60018660405161223f9493929190614550565b60405180910390a16122fa565b600260129054906101000a900464ffffffffff1664ffffffffff1661227c43846060015164ffffffffff16612cd0565b64ffffffffff1611156122f9576004826000019060048111156122a2576122a1613c5d565b5b908160048111156122b6576122b5613c5d565b5b815250507f968626a768e76ba1363efe44e322a6c4900c5f084e0b45f35e294dfddaa9e0d58a8a6004866040516122f09493929190614550565b60405180910390a15b5b60048081111561230d5761230c613c5d565b5b8260000151600481111561232457612323613c5d565b5b1461248a5761235b61233582612fb5565b836020015178ffffffffffffffffffffffffffffffffffffffffffffffffff1617612ff6565b826020019078ffffffffffffffffffffffffffffffffffffffffffffffffff16908178ffffffffffffffffffffffffffffffffffffffffffffffffff16815250508160400180518091906123ae90614c0e565b60ff1660ff16815250507f25f8daaa4635a7729927ba3f5b3d59cc3320aca7c32c9db4e7ca7b95743436408a8a8460000151866040516123f19493929190614550565b60405180910390a1600260019054906101000a900460ff1660ff16826040015160ff16106124895760028260000190600481111561243257612431613c5d565b5b9081600481111561244657612445613c5d565b5b815250507f968626a768e76ba1363efe44e322a6c4900c5f084e0b45f35e294dfddaa9e0d58a8a6002866040516124809493929190614550565b60405180910390a15b5b81600660008668ffffffffffffffffff1668ffffffffffffffffff168152602001908152602001600020600085815260200190815260200160002060008201518160000160006101000a81548160ff021916908360048111156124f0576124ef613c5d565b5b021790555060208201518160000160016101000a81548178ffffffffffffffffffffffffffffffffffffffffffffffffff021916908378ffffffffffffffffffffffffffffffffffffffffffffffffff160217905550604082015181600001601a6101000a81548160ff021916908360ff160217905550606082015181600001601b6101000a81548164ffffffffff021916908364ffffffffff160217905550905050600260048111156125a7576125a6613c5d565b5b826000015160048111156125be576125bd613c5d565b5b14156125d4576125d38a8a89898c600061100a565b5b50505050505b5050505050565b60028054906101000a90046fffffffffffffffffffffffffffffffff1681565b600260129054906101000a900464ffffffffff1681565b60006126386001600084815260200190815260200160002060000161305c565b9050919050565b612647612eb4565b826004600084815260200190815260200160002060006101000a81548173ffffffffffffffffffffffffffffffffffffffff021916908373ffffffffffffffffffffffffffffffffffffffff16021790555060008390508073ffffffffffffffffffffffffffffffffffffffff1663b8fa373684846040518363ffffffff1660e01b81526004016126d9929190614c38565b600060405180830381600087803b1580156126f357600080fd5b505af1158015612707573d6000803e3d6000fd5b5050505050505050565b61273b7fe2b7fb3b832174769106daebcfd6d1970523240dda11281102db9363b83b0dc482611af7565b1561277b576040517f08c379a000000000000000000000000000000000000000000000000000000000815260040161277290614cad565b60405180910390fd5b60c861278561190f565b106127c5576040517f08c379a00000000000000000000000000000000000000000000000000000000081526004016127bc90614d19565b60405180910390fd5b6127ef7fe2b7fb3b832174769106daebcfd6d1970523240dda11281102db9363b83b0dc482611380565b7f03580ee9f53a62b7cb409a2cb56f9be87747dd15017afc5cef6eef321e4fb2c58160405161281e9190613b98565b60405180910390a150565b612831612eb4565b80600560008473ffffffffffffffffffffffffffffffffffffffff1673ffffffffffffffffffffffffffffffffffffffff16815260200190815260200160002060006101000a81548160ff0219169083151502179055505050565b6128b360016000848152602001908152602001600020600201546128ae612bc9565b611af7565b6128f2576040517f08c379a00000000000000000000000000000000000000000000000000000000081526004016128e990614dab565b60405180910390fd5b6128fc8282612e20565b5050565b600260019054906101000a900460ff1681565b61291b612eb4565b600360008360ff1660ff16815260200190815260200160002060009054906101000a900467ffffffffffffffff1667ffffffffffffffff168167ffffffffffffffff161161299e576040517f08c379a000000000000000000000000000000000000000000000000000000000815260040161299590614e3d565b60405180910390fd5b80600360008460ff1660ff16815260200190815260200160002060006101000a81548167ffffffffffffffff021916908367ffffffffffffffff1602179055505050565b60056020528060005260406000206000915054906101000a900460ff1681565b612a0a612eb4565b612a1a612a15612bc9565b613071565b565b60006101008210612a62576040517f08c379a0000000000000000000000000000000000000000000000000000000008152600401612a5990614ea9565b60405180910390fd5b819050919050565b60007001000000000000000000000000000000008210612abf576040517f08c379a0000000000000000000000000000000000000000000000000000000008152600401612ab690614f15565b60405180910390fd5b819050919050565b6000650100000000008210612b11576040517f08c379a0000000000000000000000000000000000000000000000000000000008152600401612b0890614f81565b60405180910390fd5b819050919050565b6000612b41836000018373ffffffffffffffffffffffffffffffffffffffff1660001b6130cd565b905092915050565b6000612b71836000018373ffffffffffffffffffffffffffffffffffffffff1660001b61313d565b905092915050565b60008054906101000a900460ff1615612bc7576040517f08c379a0000000000000000000000000000000000000000000000000000000008152600401612bbe90614fed565b60405180910390fd5b565b6000803390506014600036905010158015612c2d5750600560008273ffffffffffffffffffffffffffffffffffffffff1673ffffffffffffffffffffffffffffffffffffffff16815260200190815260200160002060009054906101000a900460ff165b15612c3d57601436033560601c90505b8091505090565b6000612c4e612bc9565b9050612c5d6000801b82611af7565b80612c8e5750612c8d7fe2b7fb3b832174769106daebcfd6d1970523240dda11281102db9363b83b0dc482611af7565b5b612ccd576040517f08c379a0000000000000000000000000000000000000000000000000000000008152600401612cc490615059565b60405180910390fd5b50565b6000612d1283836040518060400160405280601e81526020017f536166654d6174683a207375627472616374696f6e206f766572666c6f770000815250613160565b905092915050565b612d4b7fe2b7fb3b832174769106daebcfd6d1970523240dda11281102db9363b83b0dc4612d46612bc9565b611af7565b612d8a576040517f08c379a0000000000000000000000000000000000000000000000000000000008152600401612d81906150c5565b60405180910390fd5b565b612db48160016000858152602001908152602001600020600001612b1990919063ffffffff16565b15612e1c57612dc1612bc9565b73ffffffffffffffffffffffffffffffffffffffff168173ffffffffffffffffffffffffffffffffffffffff16837f2f8788117e7eff1d82e926ec794901d17c78024a50270940304540a733656f0d60405160405180910390a45b5050565b612e4881600160008581526020019081526020016000206000016131c490919063ffffffff16565b15612eb057612e55612bc9565b73ffffffffffffffffffffffffffffffffffffffff168173ffffffffffffffffffffffffffffffffffffffff16837ff6391f5c32d9c69d2a47ea670b442974b53935d1edc7fd64eb21e047a839171b60405160405180910390a45b5050565b612ec86000801b612ec3612bc9565b611af7565b612f07576040517f08c379a0000000000000000000000000000000000000000000000000000000008152600401612efe90615131565b60405180910390fd5b565b600080836020015178ffffffffffffffffffffffffffffffffffffffffffffffffff16612f3584612fb5565b1611905092915050565b612f47612b79565b60016000806101000a81548160ff0219169083151502179055507f62e78cea01bee320cd4e420270b5ea74000d11b0c9f74754ebdbfc544b05a25881604051612f909190613b98565b60405180910390a150565b6000612faa83600001836131f4565b60001c905092915050565b6000612feb612fe47fe2b7fb3b832174769106daebcfd6d1970523240dda11281102db9363b83b0dc4846115ba565b6001612cd0565b6001901b9050919050565b60007901000000000000000000000000000000000000000000000000008210613054576040517f08c379a000000000000000000000000000000000000000000000000000000000815260040161304b9061519d565b60405180910390fd5b819050919050565b600061306a8260000161321f565b9050919050565b613079613230565b60008060006101000a81548160ff0219169083151502179055507f5db9ee0a495bf2e6ff9c91a7834c1ba4fdd244a5e8aa4e537bd38aeae4b073aa816040516130c29190613b98565b60405180910390a150565b60006130d9838361313d565b613132578260000182908060018154018082558091505060019003906000526020600020016000909190919091505582600001805490508360010160008481526020019081526020016000208190555060019050613137565b600090505b92915050565b600080836001016000848152602001908152602001600020541415905092915050565b60008383111582906131a8576040517f08c379a000000000000000000000000000000000000000000000000000000000815260040161319f9190615201565b60405180910390fd5b50600083856131b79190615223565b9050809150509392505050565b60006131ec836000018373ffffffffffffffffffffffffffffffffffffffff1660001b61327f565b905092915050565b600082600001828154811061320c5761320b61481b565b5b9060005260206000200154905092915050565b600081600001805490509050919050565b60008054906101000a900460ff1661327d576040517f08c379a0000000000000000000000000000000000000000000000000000000008152600401613274906152a3565b60405180910390fd5b565b600080836001016000848152602001908152602001600020549050600081146133875760006001826132b19190615223565b90506000600186600001805490506132c99190615223565b90508181146133385760008660000182815481106132ea576132e961481b565b5b906000526020600020015490508087600001848154811061330e5761330d61481b565b5b90600052602060002001819055508387600101600083815260200190815260200160002081905550505b8560000180548061334c5761334b6152c3565b5b60019003818190600052602060002001600090559055856001016000868152602001908152602001600020600090556001935050505061338d565b60009150505b92915050565b6040518060800160405280600060048111156133b2576133b1613c5d565b5b8152602001600078ffffffffffffffffffffffffffffffffffffffffffffffffff168152602001600060ff168152602001600064ffffffffff1681525090565b6000604051905090565b600080fd5b600080fd5b600060ff82169050919050565b61341c81613406565b811461342757600080fd5b50565b60008135905061343981613413565b92915050565b6000819050919050565b6134528161343f565b811461345d57600080fd5b50565b60008135905061346f81613449565b92915050565b600080fd5b600080fd5b600080fd5b60008083601f84011261349a57613499613475565b5b8235905067ffffffffffffffff8111156134b7576134b661347a565b5b6020830191508360018202830111156134d3576134d261347f565b5b9250929050565b600080600080606085870312156134f4576134f36133fc565b5b60006135028782880161342a565b945050602061351387828801613460565b935050604085013567ffffffffffffffff81111561353457613533613401565b5b61354087828801613484565b925092505092959194509250565b600067ffffffffffffffff82169050919050565b61356b8161354e565b811461357657600080fd5b50565b60008135905061358881613562565b92915050565b6000806000606084860312156135a7576135a66133fc565b5b60006135b58682870161342a565b93505060206135c686828701613579565b92505060406135d786828701613460565b9150509250925092565b60008115159050919050565b6135f6816135e1565b811461360157600080fd5b50565b600081359050613613816135ed565b92915050565b60008060008060008060a08789031215613636576136356133fc565b5b600061364489828a0161342a565b965050602061365589828a01613579565b955050604087013567ffffffffffffffff81111561367657613675613401565b5b61368289828a01613484565b9450945050606061369589828a01613460565b92505060806136a689828a01613604565b9150509295509295509295565b6000602082840312156136c9576136c86133fc565b5b60006136d784828501613460565b91505092915050565b6136e98161343f565b82525050565b600060208201905061370460008301846136e0565b92915050565b600073ffffffffffffffffffffffffffffffffffffffff82169050919050565b60006137358261370a565b9050919050565b6137458161372a565b811461375057600080fd5b50565b6000813590506137628161373c565b92915050565b6000806040838503121561377f5761377e6133fc565b5b600061378d85828601613460565b925050602061379e85828601613753565b9150509250929050565b60008083601f8401126137be576137bd613475565b5b8235905067ffffffffffffffff8111156137db576137da61347a565b5b6020830191508360208202830111156137f7576137f661347f565b5b9250929050565b60008083601f84011261381457613813613475565b5b8235905067ffffffffffffffff8111156138315761383061347a565b5b60208301915083602082028301111561384d5761384c61347f565b5b9250929050565b6000806000806040858703121561386e5761386d6133fc565b5b600085013567ffffffffffffffff81111561388c5761388b613401565b5b613898878288016137a8565b9450945050602085013567ffffffffffffffff8111156138bb576138ba613401565b5b6138c7878288016137fe565b925092505092959194509250565b6000602082840312156138eb576138ea6133fc565b5b60006138f98482850161342a565b91505092915050565b61390b8161354e565b82525050565b60006020820190506139266000830184613902565b92915050565b6000819050919050565b61393f8161392c565b811461394a57600080fd5b50565b60008135905061395c81613936565b92915050565b600060208284031215613978576139776133fc565b5b60006139868482850161394d565b91505092915050565b6139988161392c565b82525050565b60006020820190506139b3600083018461398f565b92915050565b6000602082840312156139cf576139ce6133fc565b5b60006139dd84828501613753565b91505092915050565b6139ef816135e1565b82525050565b6000602082019050613a0a60008301846139e6565b92915050565b60007fffffffff0000000000000000000000000000000000000000000000000000000082169050919050565b613a4581613a10565b8114613a5057600080fd5b50565b600081359050613a6281613a3c565b92915050565b60008060008060008060c08789031215613a8557613a846133fc565b5b6000613a9389828a01613753565b9650506020613aa489828a01613460565b9550506040613ab589828a01613753565b9450506060613ac689828a01613a53565b9350506080613ad789828a0161394d565b92505060a0613ae889828a01613a53565b9150509295509295509295565b600068ffffffffffffffffff82169050919050565b613b1381613af5565b8114613b1e57600080fd5b50565b600081359050613b3081613b0a565b92915050565b600080600060608486031215613b4f57613b4e6133fc565b5b6000613b5d86828701613b21565b9350506020613b6e86828701613460565b9250506040613b7f86828701613753565b9150509250925092565b613b928161372a565b82525050565b6000602082019050613bad6000830184613b89565b92915050565b60008060408385031215613bca57613bc96133fc565b5b6000613bd885828601613753565b9250506020613be985828601613753565b9150509250929050565b60008060408385031215613c0a57613c096133fc565b5b6000613c1885828601613460565b9250506020613c298582860161394d565b9150509250929050565b613c3c81613406565b82525050565b6000602082019050613c576000830184613c33565b92915050565b7f4e487b7100000000000000000000000000000000000000000000000000000000600052602160045260246000fd5b60058110613c9d57613c9c613c5d565b5b50565b6000819050613cae82613c8c565b919050565b6000613cbe82613ca0565b9050919050565b613cce81613cb3565b82525050565b600078ffffffffffffffffffffffffffffffffffffffffffffffffff82169050919050565b613d0281613cd4565b82525050565b613d1181613406565b82525050565b600064ffffffffff82169050919050565b613d3181613d17565b82525050565b608082016000820151613d4d6000850182613cc5565b506020820151613d606020850182613cf9565b506040820151613d736040850182613d08565b506060820151613d866060850182613d28565b50505050565b6000608082019050613da16000830184613d37565b92915050565b600080fd5b6000601f19601f8301169050919050565b7f4e487b7100000000000000000000000000000000000000000000000000000000600052604160045260246000fd5b613df582613dac565b810181811067ffffffffffffffff82111715613e1457613e13613dbd565b5b80604052505050565b6000613e276133f2565b9050613e338282613dec565b919050565b600067ffffffffffffffff821115613e5357613e52613dbd565b5b613e5c82613dac565b9050602081019050919050565b82818337600083830152505050565b6000613e8b613e8684613e38565b613e1d565b905082815260208101848484011115613ea757613ea6613da7565b5b613eb2848285613e69565b509392505050565b600082601f830112613ecf57613ece613475565b5b8135613edf848260208601613e78565b91505092915050565b60008060408385031215613eff57613efe6133fc565b5b6000613f0d85828601613753565b925050602083013567ffffffffffffffff811115613f2e57613f2d613401565b5b613f3a85828601613eba565b9150509250929050565b600080600080600060808688031215613f6057613f5f6133fc565b5b6000613f6e8882890161342a565b9550506020613f7f88828901613579565b9450506040613f9088828901613460565b935050606086013567ffffffffffffffff811115613fb157613fb0613401565b5b613fbd88828901613484565b92509250509295509295909350565b60006fffffffffffffffffffffffffffffffff82169050919050565b613ff181613fcc565b82525050565b600060208201905061400c6000830184613fe8565b92915050565b61401b81613d17565b82525050565b60006020820190506140366000830184614012565b92915050565b600080600060608486031215614055576140546133fc565b5b600061406386828701613753565b935050602061407486828701613460565b925050604061408586828701613753565b9150509250925092565b600080604083850312156140a6576140a56133fc565b5b60006140b485828601613753565b92505060206140c585828601613604565b9150509250929050565b600080604083850312156140e6576140e56133fc565b5b60006140f48582860161342a565b925050602061410585828601613579565b9150509250929050565b600082825260208201905092915050565b7f496e636f72726563742066656520737570706c69656400000000000000000000600082015250565b600061415660168361410f565b915061416182614120565b602082019050919050565b6000602082019050818103600083015261418581614149565b9050919050565b7f7265736f757263654944206e6f74206d617070656420746f2068616e646c6572600082015250565b60006141c260208361410f565b91506141cd8261418c565b602082019050919050565b600060208201905081810360008301526141f1816141b5565b9050919050565b7f4e487b7100000000000000000000000000000000000000000000000000000000600052601160045260246000fd5b60006142328261354e565b915067ffffffffffffffff82141561424d5761424c6141f8565b5b600182019050919050565b600082825260208201905092915050565b60006142758385614258565b9350614282838584613e69565b61428b83613dac565b840190509392505050565b60006060820190506142ab60008301876136e0565b6142b86020830186613b89565b81810360408301526142cb818486614269565b905095945050505050565b60005b838110156142f45780820151818401526020810190506142d9565b83811115614303576000848401525b50505050565b600061431c61431784613e38565b613e1d565b90508281526020810184848401111561433857614337613da7565b5b6143438482856142d6565b509392505050565b600082601f8301126143605761435f613475565b5b8151614370848260208601614309565b91505092915050565b60006020828403121561438f5761438e6133fc565b5b600082015167ffffffffffffffff8111156143ad576143ac613401565b5b6143b98482850161434b565b91505092915050565b600081519050919050565b60006143d8826143c2565b6143e28185614258565b93506143f28185602086016142d6565b6143fb81613dac565b840191505092915050565b600060a08201905061441b6000830189613c33565b61442860208301886136e0565b6144356040830187613902565b8181036060830152614448818587614269565b9050818103608083015261445c81846143cd565b9050979650505050505050565b7f50726f706f73616c2063616e6e6f742062652063616e63656c6c656400000000600082015250565b600061449f601c8361410f565b91506144aa82614469565b602082019050919050565b600060208201905081810360008301526144ce81614492565b9050919050565b7f50726f706f73616c206e6f7420617420657870697279207468726573686f6c64600082015250565b600061450b60208361410f565b9150614516826144d5565b602082019050919050565b6000602082019050818103600083015261453a816144fe565b9050919050565b61454a81613cb3565b82525050565b60006080820190506145656000830187613c33565b6145726020830186613902565b61457f6040830185614541565b61458c60608301846136e0565b95945050505050565b60008160601b9050919050565b60006145ad82614595565b9050919050565b60006145bf826145a2565b9050919050565b6145d76145d28261372a565b6145b4565b82525050565b600081905092915050565b60006145f483856145dd565b9350614601838584613e69565b82840190509392505050565b600061461982866145c6565b60148201915061462a8284866145e8565b9150819050949350505050565b7f50726f706f73616c206d75737420686176652050617373656420737461747573600082015250565b600061466d60208361410f565b915061467882614637565b602082019050919050565b6000602082019050818103600083015261469c81614660565b9050919050565b60006040820190506146b860008301866136e0565b81810360208301526146cb818486614269565b9050949350505050565b600060208201905081810360008301526146ef81846143cd565b905092915050565b7f416363657373436f6e74726f6c3a2073656e646572206d75737420626520616e60008201527f2061646d696e20746f206772616e740000000000000000000000000000000000602082015250565b6000614753602f8361410f565b915061475e826146f7565b604082019050919050565b6000602082019050818103600083015261478281614746565b9050919050565b7f416363657373436f6e74726f6c3a2063616e206f6e6c792072656e6f756e636560008201527f20726f6c657320666f722073656c660000000000000000000000000000000000602082015250565b60006147e5602f8361410f565b91506147f082614789565b604082019050919050565b60006020820190508181036000830152614814816147d8565b9050919050565b7f4e487b7100000000000000000000000000000000000000000000000000000000600052603260045260246000fd5b60006148558261370a565b9050919050565b6148658161484a565b811461487057600080fd5b50565b6000813590506148828161485c565b92915050565b60006020828403121561489e5761489d6133fc565b5b60006148ac84828501614873565b91505092915050565b60006148c08261392c565b91507fffffffffffffffffffffffffffffffffffffffffffffffffffffffffffffffff8214156148f3576148f26141f8565b5b600182019050919050565b61490781613a10565b82525050565b600060a08201905061492260008301886136e0565b61492f6020830187613b89565b61493c60408301866148fe565b614949606083018561398f565b61495660808301846148fe565b9695505050505050565b7f43616e6e6f742072656e6f756e6365206f6e6573656c66000000000000000000600082015250565b600061499660178361410f565b91506149a182614960565b602082019050919050565b600060208201905081810360008301526149c581614989565b9050919050565b7f43757272656e742066656520697320657175616c20746f206e65772066656500600082015250565b6000614a02601f8361410f565b9150614a0d826149cc565b602082019050919050565b60006020820190508181036000830152614a31816149f5565b9050919050565b7f6164647220646f65736e277420686176652072656c6179657220726f6c652100600082015250565b6000614a6e601f8361410f565b9150614a7982614a38565b602082019050919050565b60006020820190508181036000830152614a9d81614a61565b9050919050565b7f6e6f2068616e646c657220666f72207265736f75726365494400000000000000600082015250565b6000614ada60198361410f565b9150614ae582614aa4565b602082019050919050565b60006020820190508181036000830152614b0981614acd565b9050919050565b7f70726f706f73616c20616c72656164792065786563757465642f63616e63656c60008201527f6c65640000000000000000000000000000000000000000000000000000000000602082015250565b6000614b6c60238361410f565b9150614b7782614b10565b604082019050919050565b60006020820190508181036000830152614b9b81614b5f565b9050919050565b7f72656c6179657220616c726561647920766f7465640000000000000000000000600082015250565b6000614bd860158361410f565b9150614be382614ba2565b602082019050919050565b60006020820190508181036000830152614c0781614bcb565b9050919050565b6000614c1982613406565b915060ff821415614c2d57614c2c6141f8565b5b600182019050919050565b6000604082019050614c4d60008301856136e0565b614c5a6020830184613b89565b9392505050565b7f6164647220616c7265616479206861732072656c6179657220726f6c65210000600082015250565b6000614c97601e8361410f565b9150614ca282614c61565b602082019050919050565b60006020820190508181036000830152614cc681614c8a565b9050919050565b7f72656c6179657273206c696d6974207265616368656400000000000000000000600082015250565b6000614d0360168361410f565b9150614d0e82614ccd565b602082019050919050565b60006020820190508181036000830152614d3281614cf6565b9050919050565b7f416363657373436f6e74726f6c3a2073656e646572206d75737420626520616e60008201527f2061646d696e20746f207265766f6b6500000000000000000000000000000000602082015250565b6000614d9560308361410f565b9150614da082614d39565b604082019050919050565b60006020820190508181036000830152614dc481614d88565b9050919050565b7f446f6573206e6f7420616c6c6f772064656372656d656e7473206f662074686560008201527f206e6f6e63650000000000000000000000000000000000000000000000000000602082015250565b6000614e2760268361410f565b9150614e3282614dcb565b604082019050919050565b60006020820190508181036000830152614e5681614e1a565b9050919050565b7f76616c756520646f6573206e6f742066697420696e2038206269747300000000600082015250565b6000614e93601c8361410f565b9150614e9e82614e5d565b602082019050919050565b60006020820190508181036000830152614ec281614e86565b9050919050565b7f76616c756520646f6573206e6f742066697420696e2031323820626974730000600082015250565b6000614eff601e8361410f565b9150614f0a82614ec9565b602082019050919050565b60006020820190508181036000830152614f2e81614ef2565b9050919050565b7f76616c756520646f6573206e6f742066697420696e2034302062697473000000600082015250565b6000614f6b601d8361410f565b9150614f7682614f35565b602082019050919050565b60006020820190508181036000830152614f9a81614f5e565b9050919050565b7f5061757361626c653a2070617573656400000000000000000000000000000000600082015250565b6000614fd760108361410f565b9150614fe282614fa1565b602082019050919050565b6000602082019050818103600083015261500681614fca565b9050919050565b7f73656e646572206973206e6f742072656c61796572206f722061646d696e0000600082015250565b6000615043601e8361410f565b915061504e8261500d565b602082019050919050565b6000602082019050818103600083015261507281615036565b9050919050565b7f73656e64657220646f65736e277420686176652072656c6179657220726f6c65600082015250565b60006150af60208361410f565b91506150ba82615079565b602082019050919050565b600060208201905081810360008301526150de816150a2565b9050919050565b7f73656e64657220646f65736e277420686176652061646d696e20726f6c650000600082015250565b600061511b601e8361410f565b9150615126826150e5565b602082019050919050565b6000602082019050818103600083015261514a8161510e565b9050919050565b7f76616c756520646f6573206e6f742066697420696e2032303020626974730000600082015250565b6000615187601e8361410f565b915061519282615151565b602082019050919050565b600060208201905081810360008301526151b68161517a565b9050919050565b600081519050919050565b60006151d3826151bd565b6151dd818561410f565b93506151ed8185602086016142d6565b6151f681613dac565b840191505092915050565b6000602082019050818103600083015261521b81846151c8565b905092915050565b600061522e8261392c565b91506152398361392c565b92508282101561524c5761524b6141f8565b5b828203905092915050565b7f5061757361626c653a206e6f7420706175736564000000000000000000000000600082015250565b600061528d60148361410f565b915061529882615257565b602082019050919050565b600060208201905081810360008301526152bc81615280565b9050919050565b7f4e487b7100000000000000000000000000000000000000000000000000000000600052603160045260246000fdfea26469706673582212203e5032b9a18146cdf83623019206e9caa95958a3f3411719171dfe1b2128951c64736f6c634300080b0033",
  "immutableReferences": {},
  "source": "// SPDX-License-Identifier: LGPL-3.0-only\npragma solidity 0.8.11;\npragma experimental ABIEncoderV2;\n\nimport \"./utils/AccessControl.sol\";\nimport \"./utils/Pausable.sol\";\nimport \"./utils/SafeMath.sol\";\nimport \"./utils/SafeCast.sol\";\nimport \"./interfaces/IDepositExecute.sol\";\nimport \"./interfaces/IERCHandler.sol\";\nimport \"./interfaces/IGenericHandler.sol\";\n\n/**\n    @title Facilitates deposits, creation and voting of deposit proposals, and deposit executions.\n    @author ChainSafe Systems.\n */\ncontract Bridge is Pausable, AccessControl, SafeMath {\n    using SafeCast for *;\n\n    // Limit relayers number because proposal can fit only so much votes\n    uint256 constant public MAX_RELAYERS = 200;\n\n    uint8   public _domainID;\n    uint8   public _relayerThreshold;\n    uint128 public _fee;\n    uint40  public _expiry;\n\n    enum ProposalStatus {Inactive, Active, Passed, Executed, Cancelled}\n\n    struct Proposal {\n        ProposalStatus _status;\n        uint200 _yesVotes;      // bitmap, 200 maximum votes\n        uint8   _yesVotesTotal;\n        uint40  _proposedBlock; // 1099511627775 maximum block\n    }\n\n    // destinationDomainID => number of deposits\n    mapping(uint8 => uint64) public _depositCounts;\n    // resourceID => handler address\n    mapping(bytes32 => address) public _resourceIDToHandlerAddress;\n    // forwarder address => is Valid\n    mapping(address => bool) public isValidForwarder;\n    // destinationDomainID + depositNonce => dataHash => Proposal\n    mapping(uint72 => mapping(bytes32 => Proposal)) private _proposals;\n\n    event RelayerThresholdChanged(uint256 newThreshold);\n    event RelayerAdded(address relayer);\n    event RelayerRemoved(address relayer);\n    event Deposit(\n        uint8   destinationDomainID,\n        bytes32 resourceID,\n        uint64  depositNonce,\n        address indexed user,\n        bytes data,\n        bytes handlerResponse\n    );\n    event ProposalEvent(\n        uint8          originDomainID,\n        uint64         depositNonce,\n        ProposalStatus status,\n        bytes32 dataHash\n    );\n    event ProposalVote(\n        uint8   originDomainID,\n        uint64  depositNonce,\n        ProposalStatus status,\n        bytes32 dataHash\n    );\n    event FailedHandlerExecution(\n        bytes lowLevelData\n    );\n\n    bytes32 public constant RELAYER_ROLE = keccak256(\"RELAYER_ROLE\");\n\n    modifier onlyAdmin() {\n        _onlyAdmin();\n        _;\n    }\n\n    modifier onlyAdminOrRelayer() {\n        _onlyAdminOrRelayer();\n        _;\n    }\n\n    modifier onlyRelayers() {\n        _onlyRelayers();\n        _;\n    }\n\n    function _onlyAdminOrRelayer() private view {\n        address sender = _msgSender();\n        require(hasRole(DEFAULT_ADMIN_ROLE, sender) || hasRole(RELAYER_ROLE, sender),\n            \"sender is not relayer or admin\");\n    }\n\n    function _onlyAdmin() private view {\n        require(hasRole(DEFAULT_ADMIN_ROLE, _msgSender()), \"sender doesn't have admin role\");\n    }\n\n    function _onlyRelayers() private view {\n        require(hasRole(RELAYER_ROLE, _msgSender()), \"sender doesn't have relayer role\");\n    }\n\n    function _relayerBit(address relayer) private view returns(uint) {\n        return uint(1) << sub(AccessControl.getRoleMemberIndex(RELAYER_ROLE, relayer), 1);\n    }\n\n    function _hasVoted(Proposal memory proposal, address relayer) private view returns(bool) {\n        return (_relayerBit(relayer) & uint(proposal._yesVotes)) > 0;\n    }\n\n    function _msgSender() internal override view returns (address) {\n        address signer = msg.sender;\n        if (msg.data.length >= 20 && isValidForwarder[signer]) {\n            assembly {\n                signer := shr(96, calldataload(sub(calldatasize(), 20)))\n            }\n        }\n        return signer;\n    }\n\n    /**\n        @notice Initializes Bridge, creates and grants {_msgSender()} the admin role,\n        creates and grants {initialRelayers} the relayer role.\n        @param domainID ID of chain the Bridge contract exists on.\n        @param initialRelayers Addresses that should be initially granted the relayer role.\n        @param initialRelayerThreshold Number of votes needed for a deposit proposal to be considered passed.\n     */\n    constructor (uint8 domainID, address[] memory initialRelayers, uint256 initialRelayerThreshold, uint256 fee, uint256 expiry) public {\n        _domainID = domainID;\n        _relayerThreshold = initialRelayerThreshold.toUint8();\n        _fee = fee.toUint128();\n        _expiry = expiry.toUint40();\n\n        _setupRole(DEFAULT_ADMIN_ROLE, _msgSender());\n\n        for (uint256 i; i < initialRelayers.length; i++) {\n            grantRole(RELAYER_ROLE, initialRelayers[i]);\n        }\n    }\n\n    /**\n        @notice Returns true if {relayer} has voted on {destNonce} {dataHash} proposal.\n        @notice Naming left unchanged for backward compatibility.\n        @param destNonce destinationDomainID + depositNonce of the proposal.\n        @param dataHash Hash of data to be provided when deposit proposal is executed.\n        @param relayer Address to check.\n     */\n    function _hasVotedOnProposal(uint72 destNonce, bytes32 dataHash, address relayer) public view returns(bool) {\n        return _hasVoted(_proposals[destNonce][dataHash], relayer);\n    }\n\n    /**\n        @notice Returns true if {relayer} has the relayer role.\n        @param relayer Address to check.\n     */\n    function isRelayer(address relayer) external view returns (bool) {\n        return hasRole(RELAYER_ROLE, relayer);\n    }\n\n    /**\n        @notice Removes admin role from {_msgSender()} and grants it to {newAdmin}.\n        @notice Only callable by an address that currently has the admin role.\n        @param newAdmin Address that admin role will be granted to.\n     */\n    function renounceAdmin(address newAdmin) external onlyAdmin {\n        address sender = _msgSender();\n        require(sender != newAdmin, 'Cannot renounce oneself');\n        grantRole(DEFAULT_ADMIN_ROLE, newAdmin);\n        renounceRole(DEFAULT_ADMIN_ROLE, sender);\n    }\n\n    /**\n        @notice Pauses deposits, proposal creation and voting, and deposit executions.\n        @notice Only callable by an address that currently has the admin role.\n     */\n    function adminPauseTransfers() external onlyAdmin {\n        _pause(_msgSender());\n    }\n\n    /**\n        @notice Unpauses deposits, proposal creation and voting, and deposit executions.\n        @notice Only callable by an address that currently has the admin role.\n     */\n    function adminUnpauseTransfers() external onlyAdmin {\n        _unpause(_msgSender());\n    }\n\n    /**\n        @notice Modifies the number of votes required for a proposal to be considered passed.\n        @notice Only callable by an address that currently has the admin role.\n        @param newThreshold Value {_relayerThreshold} will be changed to.\n        @notice Emits {RelayerThresholdChanged} event.\n     */\n    function adminChangeRelayerThreshold(uint256 newThreshold) external onlyAdmin {\n        _relayerThreshold = newThreshold.toUint8();\n        emit RelayerThresholdChanged(newThreshold);\n    }\n\n    /**\n        @notice Grants {relayerAddress} the relayer role.\n        @notice Only callable by an address that currently has the admin role, which is\n                checked in grantRole().\n        @param relayerAddress Address of relayer to be added.\n        @notice Emits {RelayerAdded} event.\n     */\n    function adminAddRelayer(address relayerAddress) external {\n        require(!hasRole(RELAYER_ROLE, relayerAddress), \"addr already has relayer role!\");\n        require(_totalRelayers() < MAX_RELAYERS, \"relayers limit reached\");\n        grantRole(RELAYER_ROLE, relayerAddress);\n        emit RelayerAdded(relayerAddress);\n    }\n\n    /**\n        @notice Removes relayer role for {relayerAddress}.\n        @notice Only callable by an address that currently has the admin role, which is\n                checked in revokeRole().\n        @param relayerAddress Address of relayer to be removed.\n        @notice Emits {RelayerRemoved} event.\n     */\n    function adminRemoveRelayer(address relayerAddress) external {\n        require(hasRole(RELAYER_ROLE, relayerAddress), \"addr doesn't have relayer role!\");\n        revokeRole(RELAYER_ROLE, relayerAddress);\n        emit RelayerRemoved(relayerAddress);\n    }\n\n    /**\n        @notice Sets a new resource for handler contracts that use the IERCHandler interface,\n        and maps the {handlerAddress} to {resourceID} in {_resourceIDToHandlerAddress}.\n        @notice Only callable by an address that currently has the admin role.\n        @param handlerAddress Address of handler resource will be set for.\n        @param resourceID ResourceID to be used when making deposits.\n        @param tokenAddress Address of contract to be called when a deposit is made and a deposited is executed.\n     */\n    function adminSetResource(address handlerAddress, bytes32 resourceID, address tokenAddress) external onlyAdmin {\n        _resourceIDToHandlerAddress[resourceID] = handlerAddress;\n        IERCHandler handler = IERCHandler(handlerAddress);\n        handler.setResource(resourceID, tokenAddress);\n    }\n\n    /**\n        @notice Sets a new resource for handler contracts that use the IGenericHandler interface,\n        and maps the {handlerAddress} to {resourceID} in {_resourceIDToHandlerAddress}.\n        @notice Only callable by an address that currently has the admin role.\n        @param handlerAddress Address of handler resource will be set for.\n        @param resourceID ResourceID to be used when making deposits.\n        @param contractAddress Address of contract to be called when a deposit is made and a deposited is executed.\n     */\n    function adminSetGenericResource(\n        address handlerAddress,\n        bytes32 resourceID,\n        address contractAddress,\n        bytes4 depositFunctionSig,\n        uint256 depositFunctionDepositerOffset,\n        bytes4 executeFunctionSig\n    ) external onlyAdmin {\n        _resourceIDToHandlerAddress[resourceID] = handlerAddress;\n        IGenericHandler handler = IGenericHandler(handlerAddress);\n        handler.setResource(resourceID, contractAddress, depositFunctionSig, depositFunctionDepositerOffset, executeFunctionSig);\n    }\n\n    /**\n        @notice Sets a resource as burnable for handler contracts that use the IERCHandler interface.\n        @notice Only callable by an address that currently has the admin role.\n        @param handlerAddress Address of handler resource will be set for.\n        @param tokenAddress Address of contract to be called when a deposit is made and a deposited is executed.\n     */\n    function adminSetBurnable(address handlerAddress, address tokenAddress) external onlyAdmin {\n        IERCHandler handler = IERCHandler(handlerAddress);\n        handler.setBurnable(tokenAddress);\n    }\n\n    /**\n        @notice Sets the nonce for the specific domainID.\n        @notice Only callable by an address that currently has the admin role.\n        @param domainID Domain ID for increasing nonce.\n        @param nonce The nonce value to be set.\n     */\n    function adminSetDepositNonce(uint8 domainID, uint64 nonce) external onlyAdmin {\n        require(nonce > _depositCounts[domainID], \"Does not allow decrements of the nonce\");\n        _depositCounts[domainID] = nonce;\n    }\n\n    /**\n        @notice Set a forwarder to be used.\n        @notice Only callable by an address that currently has the admin role.\n        @param forwarder Forwarder address to be added.\n        @param valid Decision for the specific forwarder.\n     */\n    function adminSetForwarder(address forwarder, bool valid) external onlyAdmin {\n        isValidForwarder[forwarder] = valid;\n    }\n\n    /**\n        @notice Returns a proposal.\n        @param originDomainID Chain ID deposit originated from.\n        @param depositNonce ID of proposal generated by proposal's origin Bridge contract.\n        @param dataHash Hash of data to be provided when deposit proposal is executed.\n        @return Proposal which consists of:\n        - _dataHash Hash of data to be provided when deposit proposal is executed.\n        - _yesVotes Number of votes in favor of proposal.\n        - _noVotes Number of votes against proposal.\n        - _status Current status of proposal.\n     */\n    function getProposal(uint8 originDomainID, uint64 depositNonce, bytes32 dataHash) external view returns (Proposal memory) {\n        uint72 nonceAndID = (uint72(depositNonce) << 8) | uint72(originDomainID);\n        return _proposals[nonceAndID][dataHash];\n    }\n\n    /**\n        @notice Returns total relayers number.\n        @notice Added for backwards compatibility.\n     */\n    function _totalRelayers() public view returns (uint) {\n        return AccessControl.getRoleMemberCount(RELAYER_ROLE);\n    }\n\n    /**\n        @notice Changes deposit fee.\n        @notice Only callable by admin.\n        @param newFee Value {_fee} will be updated to.\n     */\n    function adminChangeFee(uint256 newFee) external onlyAdmin {\n        require(_fee != newFee, \"Current fee is equal to new fee\");\n        _fee = newFee.toUint128();\n    }\n\n    /**\n        @notice Used to manually withdraw funds from ERC safes.\n        @param handlerAddress Address of handler to withdraw from.\n        @param data ABI-encoded withdrawal params relevant to the specified handler.\n     */\n    function adminWithdraw(\n        address handlerAddress,\n        bytes memory data\n    ) external onlyAdmin {\n        IERCHandler handler = IERCHandler(handlerAddress);\n        handler.withdraw(data);\n    }\n\n    /**\n        @notice Initiates a transfer using a specified handler contract.\n        @notice Only callable when Bridge is not paused.\n        @param destinationDomainID ID of chain deposit will be bridged to.\n        @param resourceID ResourceID used to find address of handler to be used for deposit.\n        @param data Additional data to be passed to specified handler.\n        @notice Emits {Deposit} event with all necessary parameters and a handler response.\n        - ERC20Handler: responds with an empty data.\n        - ERC721Handler: responds with the deposited token metadata acquired by calling a tokenURI method in the token contract.\n        - GenericHandler: responds with the raw bytes returned from the call to the target contract.\n     */\n    function deposit(uint8 destinationDomainID, bytes32 resourceID, bytes calldata data) external payable whenNotPaused {\n        require(msg.value == _fee, \"Incorrect fee supplied\");\n\n        address handler = _resourceIDToHandlerAddress[resourceID];\n        require(handler != address(0), \"resourceID not mapped to handler\");\n\n        uint64 depositNonce = ++_depositCounts[destinationDomainID];\n        address sender = _msgSender();\n\n        IDepositExecute depositHandler = IDepositExecute(handler);\n        bytes memory handlerResponse = depositHandler.deposit(resourceID, sender, data);\n\n        emit Deposit(destinationDomainID, resourceID, depositNonce, sender, data, handlerResponse);\n    }\n\n    /**\n        @notice When called, {_msgSender()} will be marked as voting in favor of proposal.\n        @notice Only callable by relayers when Bridge is not paused.\n        @param domainID ID of chain deposit originated from.\n        @param depositNonce ID of deposited generated by origin Bridge contract.\n        @param data Data originally provided when deposit was made.\n        @notice Proposal must not have already been passed or executed.\n        @notice {_msgSender()} must not have already voted on proposal.\n        @notice Emits {ProposalEvent} event with status indicating the proposal status.\n        @notice Emits {ProposalVote} event.\n     */\n    function voteProposal(uint8 domainID, uint64 depositNonce, bytes32 resourceID, bytes calldata data) external onlyRelayers whenNotPaused {\n        address handler = _resourceIDToHandlerAddress[resourceID];\n        uint72 nonceAndID = (uint72(depositNonce) << 8) | uint72(domainID);\n        bytes32 dataHash = keccak256(abi.encodePacked(handler, data));\n        Proposal memory proposal = _proposals[nonceAndID][dataHash];\n\n        require(_resourceIDToHandlerAddress[resourceID] != address(0), \"no handler for resourceID\");\n\n        if (proposal._status == ProposalStatus.Passed) {\n            executeProposal(domainID, depositNonce, data, resourceID, true);\n            return;\n        }\n\n        address sender = _msgSender();\n        \n        require(uint(proposal._status) <= 1, \"proposal already executed/cancelled\");\n        require(!_hasVoted(proposal, sender), \"relayer already voted\");\n\n        if (proposal._status == ProposalStatus.Inactive) {\n            proposal = Proposal({\n                _status : ProposalStatus.Active,\n                _yesVotes : 0,\n                _yesVotesTotal : 0,\n                _proposedBlock : uint40(block.number) // Overflow is desired.\n            });\n\n            emit ProposalEvent(domainID, depositNonce, ProposalStatus.Active, dataHash);\n        } else if (uint40(sub(block.number, proposal._proposedBlock)) > _expiry) {\n            // if the number of blocks that has passed since this proposal was\n            // submitted exceeds the expiry threshold set, cancel the proposal\n            proposal._status = ProposalStatus.Cancelled;\n\n            emit ProposalEvent(domainID, depositNonce, ProposalStatus.Cancelled, dataHash);\n        }\n\n        if (proposal._status != ProposalStatus.Cancelled) {\n            proposal._yesVotes = (proposal._yesVotes | _relayerBit(sender)).toUint200();\n            proposal._yesVotesTotal++; // TODO: check if bit counting is cheaper.\n\n            emit ProposalVote(domainID, depositNonce, proposal._status, dataHash);\n\n            // Finalize if _relayerThreshold has been reached\n            if (proposal._yesVotesTotal >= _relayerThreshold) {\n                proposal._status = ProposalStatus.Passed;\n                emit ProposalEvent(domainID, depositNonce, ProposalStatus.Passed, dataHash);\n            }\n        }\n        _proposals[nonceAndID][dataHash] = proposal;\n\n        if (proposal._status == ProposalStatus.Passed) {\n            executeProposal(domainID, depositNonce, data, resourceID, false);\n        }\n    }\n\n    /**\n        @notice Cancels a deposit proposal that has not been executed yet.\n        @notice Only callable by relayers when Bridge is not paused.\n        @param domainID ID of chain deposit originated from.\n        @param depositNonce ID of deposited generated by origin Bridge contract.\n        @param dataHash Hash of data originally provided when deposit was made.\n        @notice Proposal must be past expiry threshold.\n        @notice Emits {ProposalEvent} event with status {Cancelled}.\n     */\n    function cancelProposal(uint8 domainID, uint64 depositNonce, bytes32 dataHash) public onlyAdminOrRelayer {\n        uint72 nonceAndID = (uint72(depositNonce) << 8) | uint72(domainID);\n        Proposal memory proposal = _proposals[nonceAndID][dataHash];\n        ProposalStatus currentStatus = proposal._status;\n\n        require(currentStatus == ProposalStatus.Active || currentStatus == ProposalStatus.Passed,\n            \"Proposal cannot be cancelled\");\n        require(uint40(sub(block.number, proposal._proposedBlock)) > _expiry, \"Proposal not at expiry threshold\");\n\n        proposal._status = ProposalStatus.Cancelled;\n        _proposals[nonceAndID][dataHash] = proposal;\n\n        emit ProposalEvent(domainID, depositNonce, ProposalStatus.Cancelled, dataHash);\n    }\n\n    /**\n        @notice Executes a deposit proposal that is considered passed using a specified handler contract.\n        @notice Only callable by relayers when Bridge is not paused.\n        @param domainID ID of chain deposit originated from.\n        @param resourceID ResourceID to be used when making deposits.\n        @param depositNonce ID of deposited generated by origin Bridge contract.\n        @param data Data originally provided when deposit was made.\n        @param revertOnFail Decision if the transaction should be reverted in case of handler's executeProposal is reverted or not.\n        @notice Proposal must have Passed status.\n        @notice Hash of {data} must equal proposal's {dataHash}.\n        @notice Emits {ProposalEvent} event with status {Executed}.\n        @notice Emits {FailedExecution} event with the failed reason.\n     */\n    function executeProposal(uint8 domainID, uint64 depositNonce, bytes calldata data, bytes32 resourceID, bool revertOnFail) public onlyRelayers whenNotPaused {\n        address handler = _resourceIDToHandlerAddress[resourceID];\n        uint72 nonceAndID = (uint72(depositNonce) << 8) | uint72(domainID);\n        bytes32 dataHash = keccak256(abi.encodePacked(handler, data));\n        Proposal storage proposal = _proposals[nonceAndID][dataHash];\n\n        require(proposal._status == ProposalStatus.Passed, \"Proposal must have Passed status\");\n\n        proposal._status = ProposalStatus.Executed;\n        IDepositExecute depositHandler = IDepositExecute(handler);\n\n        if (revertOnFail) {\n            depositHandler.executeProposal(resourceID, data);\n        } else {\n            try depositHandler.executeProposal(resourceID, data) {\n            } catch (bytes memory lowLevelData) {\n                proposal._status = ProposalStatus.Passed;\n                emit FailedHandlerExecution(lowLevelData);\n                return;\n            }\n        }\n        \n        emit ProposalEvent(domainID, depositNonce, ProposalStatus.Executed, dataHash);\n    }\n\n    /**\n        @notice Transfers eth in the contract to the specified addresses. The parameters addrs and amounts are mapped 1-1.\n        This means that the address at index 0 for addrs will receive the amount (in WEI) from amounts at index 0.\n        @param addrs Array of addresses to transfer {amounts} to.\n        @param amounts Array of amonuts to transfer to {addrs}.\n     */\n    function transferFunds(address payable[] calldata addrs, uint[] calldata amounts) external onlyAdmin {\n        for (uint256 i = 0; i < addrs.length; i++) {\n            addrs[i].transfer(amounts[i]);\n        }\n    }\n}\n",
  "sourcePath": "/home/norwegiangoat/git/bc_connector/crosscoin/node_modules/chainbridge-solidity/contracts/Bridge.sol",
  "compiler": {
    "name": "solc",
    "version": "0.8.11+commit.d7f03943.Emscripten.clang"
  },
  "schemaVersion": "3.4.5",
  "updatedAt": "2022-03-21T09:06:34.915Z",
  "networkType": "ethereum",
  "devdoc": {
    "author": "ChainSafe Systems.",
    "kind": "dev",
    "methods": {
      "_hasVotedOnProposal(uint72,bytes32,address)": {
        "params": {
          "dataHash": "Hash of data to be provided when deposit proposal is executed.",
          "destNonce": "destinationDomainID + depositNonce of the proposal.",
          "relayer": "Address to check."
        }
      },
      "adminAddRelayer(address)": {
        "params": {
          "relayerAddress": "Address of relayer to be added."
        }
      },
      "adminChangeFee(uint256)": {
        "params": {
          "newFee": "Value {_fee} will be updated to."
        }
      },
      "adminChangeRelayerThreshold(uint256)": {
        "params": {
          "newThreshold": "Value {_relayerThreshold} will be changed to."
        }
      },
      "adminRemoveRelayer(address)": {
        "params": {
          "relayerAddress": "Address of relayer to be removed."
        }
      },
      "adminSetBurnable(address,address)": {
        "params": {
          "handlerAddress": "Address of handler resource will be set for.",
          "tokenAddress": "Address of contract to be called when a deposit is made and a deposited is executed."
        }
      },
      "adminSetDepositNonce(uint8,uint64)": {
        "params": {
          "domainID": "Domain ID for increasing nonce.",
          "nonce": "The nonce value to be set."
        }
      },
      "adminSetForwarder(address,bool)": {
        "params": {
          "forwarder": "Forwarder address to be added.",
          "valid": "Decision for the specific forwarder."
        }
      },
      "adminSetGenericResource(address,bytes32,address,bytes4,uint256,bytes4)": {
        "params": {
          "contractAddress": "Address of contract to be called when a deposit is made and a deposited is executed.",
          "handlerAddress": "Address of handler resource will be set for.",
          "resourceID": "ResourceID to be used when making deposits."
        }
      },
      "adminSetResource(address,bytes32,address)": {
        "params": {
          "handlerAddress": "Address of handler resource will be set for.",
          "resourceID": "ResourceID to be used when making deposits.",
          "tokenAddress": "Address of contract to be called when a deposit is made and a deposited is executed."
        }
      },
      "adminWithdraw(address,bytes)": {
        "params": {
          "data": "ABI-encoded withdrawal params relevant to the specified handler.",
          "handlerAddress": "Address of handler to withdraw from."
        }
      },
      "cancelProposal(uint8,uint64,bytes32)": {
        "params": {
          "dataHash": "Hash of data originally provided when deposit was made.",
          "depositNonce": "ID of deposited generated by origin Bridge contract.",
          "domainID": "ID of chain deposit originated from."
        }
      },
      "constructor": {
        "params": {
          "domainID": "ID of chain the Bridge contract exists on.",
          "initialRelayerThreshold": "Number of votes needed for a deposit proposal to be considered passed.",
          "initialRelayers": "Addresses that should be initially granted the relayer role."
        }
      },
      "deposit(uint8,bytes32,bytes)": {
        "params": {
          "data": "Additional data to be passed to specified handler.",
          "destinationDomainID": "ID of chain deposit will be bridged to.",
          "resourceID": "ResourceID used to find address of handler to be used for deposit."
        }
      },
      "executeProposal(uint8,uint64,bytes,bytes32,bool)": {
        "params": {
          "data": "Data originally provided when deposit was made.",
          "depositNonce": "ID of deposited generated by origin Bridge contract.",
          "domainID": "ID of chain deposit originated from.",
          "resourceID": "ResourceID to be used when making deposits.",
          "revertOnFail": "Decision if the transaction should be reverted in case of handler's executeProposal is reverted or not."
        }
      },
      "getProposal(uint8,uint64,bytes32)": {
        "params": {
          "dataHash": "Hash of data to be provided when deposit proposal is executed.",
          "depositNonce": "ID of proposal generated by proposal's origin Bridge contract.",
          "originDomainID": "Chain ID deposit originated from."
        },
        "returns": {
          "_0": "Proposal which consists of: - _dataHash Hash of data to be provided when deposit proposal is executed. - _yesVotes Number of votes in favor of proposal. - _noVotes Number of votes against proposal. - _status Current status of proposal."
        }
      },
      "getRoleAdmin(bytes32)": {
        "details": "Returns the admin role that controls `role`. See {grantRole} and {revokeRole}. To change a role's admin, use {_setRoleAdmin}."
      },
      "getRoleMember(bytes32,uint256)": {
        "details": "Returns one of the accounts that have `role`. `index` must be a value between 0 and {getRoleMemberCount}, non-inclusive. Role bearers are not sorted in any particular way, and their ordering may change at any point. WARNING: When using {getRoleMember} and {getRoleMemberCount}, make sure you perform all queries on the same block. See the following https://forum.openzeppelin.com/t/iterating-over-elements-on-enumerableset-in-openzeppelin-contracts/2296[forum post] for more information."
      },
      "getRoleMemberCount(bytes32)": {
        "details": "Returns the number of accounts that have `role`. Can be used together with {getRoleMember} to enumerate all bearers of a role."
      },
      "getRoleMemberIndex(bytes32,address)": {
        "details": "Returns the index of the account that have `role`."
      },
      "grantRole(bytes32,address)": {
        "details": "Grants `role` to `account`. If `account` had not been already granted `role`, emits a {RoleGranted} event. Requirements: - the caller must have ``role``'s admin role."
      },
      "hasRole(bytes32,address)": {
        "details": "Returns `true` if `account` has been granted `role`."
      },
      "isRelayer(address)": {
        "params": {
          "relayer": "Address to check."
        }
      },
      "paused()": {
        "details": "Returns true if the contract is paused, and false otherwise."
      },
      "renounceAdmin(address)": {
        "params": {
          "newAdmin": "Address that admin role will be granted to."
        }
      },
      "renounceRole(bytes32,address)": {
        "details": "Revokes `role` from the calling account. Roles are often managed via {grantRole} and {revokeRole}: this function's purpose is to provide a mechanism for accounts to lose their privileges if they are compromised (such as when a trusted device is misplaced). If the calling account had been granted `role`, emits a {RoleRevoked} event. Requirements: - the caller must be `account`."
      },
      "revokeRole(bytes32,address)": {
        "details": "Revokes `role` from `account`. If `account` had been granted `role`, emits a {RoleRevoked} event. Requirements: - the caller must have ``role``'s admin role."
      },
      "transferFunds(address[],uint256[])": {
        "params": {
          "addrs": "Array of addresses to transfer {amounts} to.",
          "amounts": "Array of amonuts to transfer to {addrs}."
        }
      },
      "voteProposal(uint8,uint64,bytes32,bytes)": {
        "params": {
          "data": "Data originally provided when deposit was made.",
          "depositNonce": "ID of deposited generated by origin Bridge contract.",
          "domainID": "ID of chain deposit originated from."
        }
      }
    },
    "title": "Facilitates deposits, creation and voting of deposit proposals, and deposit executions.",
    "version": 1
  },
  "userdoc": {
    "kind": "user",
    "methods": {
      "_hasVotedOnProposal(uint72,bytes32,address)": {
        "notice": "Returns true if {relayer} has voted on {destNonce} {dataHash} proposal.Naming left unchanged for backward compatibility."
      },
      "_totalRelayers()": {
        "notice": "Returns total relayers number.Added for backwards compatibility."
      },
      "adminAddRelayer(address)": {
        "notice": "Grants {relayerAddress} the relayer role.Only callable by an address that currently has the admin role, which is checked in grantRole().Emits {RelayerAdded} event."
      },
      "adminChangeFee(uint256)": {
        "notice": "Changes deposit fee.Only callable by admin."
      },
      "adminChangeRelayerThreshold(uint256)": {
        "notice": "Modifies the number of votes required for a proposal to be considered passed.Only callable by an address that currently has the admin role.Emits {RelayerThresholdChanged} event."
      },
      "adminPauseTransfers()": {
        "notice": "Pauses deposits, proposal creation and voting, and deposit executions.Only callable by an address that currently has the admin role."
      },
      "adminRemoveRelayer(address)": {
        "notice": "Removes relayer role for {relayerAddress}.Only callable by an address that currently has the admin role, which is checked in revokeRole().Emits {RelayerRemoved} event."
      },
      "adminSetBurnable(address,address)": {
        "notice": "Sets a resource as burnable for handler contracts that use the IERCHandler interface.Only callable by an address that currently has the admin role."
      },
      "adminSetDepositNonce(uint8,uint64)": {
        "notice": "Sets the nonce for the specific domainID.Only callable by an address that currently has the admin role."
      },
      "adminSetForwarder(address,bool)": {
        "notice": "Set a forwarder to be used.Only callable by an address that currently has the admin role."
      },
      "adminSetGenericResource(address,bytes32,address,bytes4,uint256,bytes4)": {
        "notice": "Sets a new resource for handler contracts that use the IGenericHandler interface, and maps the {handlerAddress} to {resourceID} in {_resourceIDToHandlerAddress}.Only callable by an address that currently has the admin role."
      },
      "adminSetResource(address,bytes32,address)": {
        "notice": "Sets a new resource for handler contracts that use the IERCHandler interface, and maps the {handlerAddress} to {resourceID} in {_resourceIDToHandlerAddress}.Only callable by an address that currently has the admin role."
      },
      "adminUnpauseTransfers()": {
        "notice": "Unpauses deposits, proposal creation and voting, and deposit executions.Only callable by an address that currently has the admin role."
      },
      "adminWithdraw(address,bytes)": {
        "notice": "Used to manually withdraw funds from ERC safes."
      },
      "cancelProposal(uint8,uint64,bytes32)": {
        "notice": "Cancels a deposit proposal that has not been executed yet.Only callable by relayers when Bridge is not paused.Proposal must be past expiry threshold.Emits {ProposalEvent} event with status {Cancelled}."
      },
      "constructor": {
        "notice": "Initializes Bridge, creates and grants {_msgSender()} the admin role, creates and grants {initialRelayers} the relayer role."
      },
      "deposit(uint8,bytes32,bytes)": {
        "notice": "Initiates a transfer using a specified handler contract.Only callable when Bridge is not paused.Emits {Deposit} event with all necessary parameters and a handler response. - ERC20Handler: responds with an empty data. - ERC721Handler: responds with the deposited token metadata acquired by calling a tokenURI method in the token contract. - GenericHandler: responds with the raw bytes returned from the call to the target contract."
      },
      "executeProposal(uint8,uint64,bytes,bytes32,bool)": {
        "notice": "Executes a deposit proposal that is considered passed using a specified handler contract.Only callable by relayers when Bridge is not paused.Proposal must have Passed status.Hash of {data} must equal proposal's {dataHash}.Emits {ProposalEvent} event with status {Executed}.Emits {FailedExecution} event with the failed reason."
      },
      "getProposal(uint8,uint64,bytes32)": {
        "notice": "Returns a proposal."
      },
      "isRelayer(address)": {
        "notice": "Returns true if {relayer} has the relayer role."
      },
      "renounceAdmin(address)": {
        "notice": "Removes admin role from {_msgSender()} and grants it to {newAdmin}.Only callable by an address that currently has the admin role."
      },
      "transferFunds(address[],uint256[])": {
        "notice": "Transfers eth in the contract to the specified addresses. The parameters addrs and amounts are mapped 1-1. This means that the address at index 0 for addrs will receive the amount (in WEI) from amounts at index 0."
      },
      "voteProposal(uint8,uint64,bytes32,bytes)": {
        "notice": "When called, {_msgSender()} will be marked as voting in favor of proposal.Only callable by relayers when Bridge is not paused.Proposal must not have already been passed or executed.{_msgSender()} must not have already voted on proposal.Emits {ProposalEvent} event with status indicating the proposal status.Emits {ProposalVote} event."
      }
    },
    "version": 1
  }
}