{
  "contractName": "RootBoard",
  "abi": [
    {
      "inputs": [],
      "stateMutability": "nonpayable",
      "type": "constructor"
    },
    {
      "anonymous": false,
      "inputs": [
        {
          "indexed": true,
          "internalType": "address",
          "name": "previousOwner",
          "type": "address"
        },
        {
          "indexed": true,
          "internalType": "address",
          "name": "newOwner",
          "type": "address"
        }
      ],
      "name": "OwnershipTransferred",
      "type": "event"
    },
    {
      "inputs": [],
      "name": "owner",
      "outputs": [
        {
          "internalType": "address",
          "name": "",
          "type": "address"
        }
      ],
      "stateMutability": "view",
      "type": "function",
      "constant": true
    },
    {
      "inputs": [],
      "name": "renounceOwnership",
      "outputs": [],
      "stateMutability": "nonpayable",
      "type": "function"
    },
    {
      "inputs": [
        {
          "internalType": "address",
          "name": "newOwner",
          "type": "address"
        }
      ],
      "name": "transferOwnership",
      "outputs": [],
      "stateMutability": "nonpayable",
      "type": "function"
    },
    {
      "inputs": [
        {
          "internalType": "uint256",
          "name": "_chainId",
          "type": "uint256"
        }
      ],
      "name": "getLatestRoot",
      "outputs": [
        {
          "components": [
            {
              "internalType": "uint256",
              "name": "latestDepositNonce",
              "type": "uint256"
            },
            {
              "internalType": "string",
              "name": "trieRoot",
              "type": "string"
            }
          ],
          "internalType": "struct RootBoard.MerkleRoot",
          "name": "",
          "type": "tuple"
        }
      ],
      "stateMutability": "view",
      "type": "function",
      "constant": true
    },
    {
      "inputs": [
        {
          "internalType": "uint256",
          "name": "_chainId",
          "type": "uint256"
        },
        {
          "internalType": "uint256",
          "name": "_nonce",
          "type": "uint256"
        },
        {
          "internalType": "string",
          "name": "_root",
          "type": "string"
        }
      ],
      "name": "setLatestRoot",
      "outputs": [],
      "stateMutability": "nonpayable",
      "type": "function"
    }
  ],
  "bytecode": "0x608060405234801561001057600080fd5b5061002d61002261003260201b60201c565b61003a60201b60201c565b6100fe565b600033905090565b60008060009054906101000a900473ffffffffffffffffffffffffffffffffffffffff169050816000806101000a81548173ffffffffffffffffffffffffffffffffffffffff021916908373ffffffffffffffffffffffffffffffffffffffff1602179055508173ffffffffffffffffffffffffffffffffffffffff168173ffffffffffffffffffffffffffffffffffffffff167f8be0079c531659141344cd1fd0a4f28419497f9722a3daafe3b4186f6b6457e060405160405180910390a35050565b610c3e8061010d6000396000f3fe608060405234801561001057600080fd5b50600436106100575760003560e01c8063715018a61461005c578063892843eb146100665780638a82b4b5146100825780638da5cb5b146100b2578063f2fde38b146100d0575b600080fd5b6100646100ec565b005b610080600480360381019061007b91906107a9565b610174565b005b61009c6004803603810190610097919061081d565b610391565b6040516100a9919061092f565b60405180910390f35b6100ba61045a565b6040516100c79190610992565b60405180910390f35b6100ea60048036038101906100e591906109d9565b610483565b005b6100f461057b565b73ffffffffffffffffffffffffffffffffffffffff1661011261045a565b73ffffffffffffffffffffffffffffffffffffffff1614610168576040517f08c379a000000000000000000000000000000000000000000000000000000000815260040161015f90610a63565b60405180910390fd5b6101726000610583565b565b61017c61057b565b73ffffffffffffffffffffffffffffffffffffffff1661019a61045a565b73ffffffffffffffffffffffffffffffffffffffff16146101f0576040517f08c379a00000000000000000000000000000000000000000000000000000000081526004016101e790610a63565b60405180910390fd5b6000600160008681526020019081526020016000206040518060400160405290816000820154815260200160018201805461022a90610ab2565b80601f016020809104026020016040519081016040528092919081815260200182805461025690610ab2565b80156102a35780601f10610278576101008083540402835291602001916102a3565b820191906000526020600020905b81548152906001019060200180831161028657829003601f168201915b5050505050815250509050838160000151106102f4576040517f08c379a00000000000000000000000000000000000000000000000000000000081526004016102eb90610b56565b60405180910390fd5b604051806040016040528085815260200184848080601f016020809104026020016040519081016040528093929190818152602001838380828437600081840152601f19601f8201169050808301925050505050505081525060016000878152602001908152602001600020600082015181600001556020820151816001019080519060200190610386929190610647565b509050505050505050565b6103996106cd565b60016000838152602001908152602001600020604051806040016040529081600082015481526020016001820180546103d190610ab2565b80601f01602080910402602001604051908101604052809291908181526020018280546103fd90610ab2565b801561044a5780601f1061041f5761010080835404028352916020019161044a565b820191906000526020600020905b81548152906001019060200180831161042d57829003601f168201915b5050505050815250509050919050565b60008060009054906101000a900473ffffffffffffffffffffffffffffffffffffffff16905090565b61048b61057b565b73ffffffffffffffffffffffffffffffffffffffff166104a961045a565b73ffffffffffffffffffffffffffffffffffffffff16146104ff576040517f08c379a00000000000000000000000000000000000000000000000000000000081526004016104f690610a63565b60405180910390fd5b600073ffffffffffffffffffffffffffffffffffffffff168173ffffffffffffffffffffffffffffffffffffffff16141561056f576040517f08c379a000000000000000000000000000000000000000000000000000000000815260040161056690610be8565b60405180910390fd5b61057881610583565b50565b600033905090565b60008060009054906101000a900473ffffffffffffffffffffffffffffffffffffffff169050816000806101000a81548173ffffffffffffffffffffffffffffffffffffffff021916908373ffffffffffffffffffffffffffffffffffffffff1602179055508173ffffffffffffffffffffffffffffffffffffffff168173ffffffffffffffffffffffffffffffffffffffff167f8be0079c531659141344cd1fd0a4f28419497f9722a3daafe3b4186f6b6457e060405160405180910390a35050565b82805461065390610ab2565b90600052602060002090601f01602090048101928261067557600085556106bc565b82601f1061068e57805160ff19168380011785556106bc565b828001600101855582156106bc579182015b828111156106bb5782518255916020019190600101906106a0565b5b5090506106c991906106e7565b5090565b604051806040016040528060008152602001606081525090565b5b808211156107005760008160009055506001016106e8565b5090565b600080fd5b600080fd5b6000819050919050565b6107218161070e565b811461072c57600080fd5b50565b60008135905061073e81610718565b92915050565b600080fd5b600080fd5b600080fd5b60008083601f84011261076957610768610744565b5b8235905067ffffffffffffffff81111561078657610785610749565b5b6020830191508360018202830111156107a2576107a161074e565b5b9250929050565b600080600080606085870312156107c3576107c2610704565b5b60006107d18782880161072f565b94505060206107e28782880161072f565b935050604085013567ffffffffffffffff81111561080357610802610709565b5b61080f87828801610753565b925092505092959194509250565b60006020828403121561083357610832610704565b5b60006108418482850161072f565b91505092915050565b6108538161070e565b82525050565b600081519050919050565b600082825260208201905092915050565b60005b83811015610893578082015181840152602081019050610878565b838111156108a2576000848401525b50505050565b6000601f19601f8301169050919050565b60006108c482610859565b6108ce8185610864565b93506108de818560208601610875565b6108e7816108a8565b840191505092915050565b600060408301600083015161090a600086018261084a565b506020830151848203602086015261092282826108b9565b9150508091505092915050565b6000602082019050818103600083015261094981846108f2565b905092915050565b600073ffffffffffffffffffffffffffffffffffffffff82169050919050565b600061097c82610951565b9050919050565b61098c81610971565b82525050565b60006020820190506109a76000830184610983565b92915050565b6109b681610971565b81146109c157600080fd5b50565b6000813590506109d3816109ad565b92915050565b6000602082840312156109ef576109ee610704565b5b60006109fd848285016109c4565b91505092915050565b600082825260208201905092915050565b7f4f776e61626c653a2063616c6c6572206973206e6f7420746865206f776e6572600082015250565b6000610a4d602083610a06565b9150610a5882610a17565b602082019050919050565b60006020820190508181036000830152610a7c81610a40565b9050919050565b7f4e487b7100000000000000000000000000000000000000000000000000000000600052602260045260246000fd5b60006002820490506001821680610aca57607f821691505b60208210811415610ade57610add610a83565b5b50919050565b7f4e6f6e636520646f776e6772616465206973206e6f74207065726d697474656460008201527f2100000000000000000000000000000000000000000000000000000000000000602082015250565b6000610b40602183610a06565b9150610b4b82610ae4565b604082019050919050565b60006020820190508181036000830152610b6f81610b33565b9050919050565b7f4f776e61626c653a206e6577206f776e657220697320746865207a65726f206160008201527f6464726573730000000000000000000000000000000000000000000000000000602082015250565b6000610bd2602683610a06565b9150610bdd82610b76565b604082019050919050565b60006020820190508181036000830152610c0181610bc5565b905091905056fea2646970667358221220b65bb4c192e30ada00201dabf2d82df239db4a8e20f520bedb92a49c3f81adc764736f6c634300080b0033",
  "immutableReferences": {},
  "source": "pragma solidity >=0.8;\n\nimport \"../node_modules/@openzeppelin/contracts/access/Ownable.sol\";\n\ncontract RootBoard is Ownable {\n    struct MerkleRoot {\n        uint256 latestDepositNonce;\n        string trieRoot;\n    }\n\n    //chainId -> latest merkleRoot\n    mapping(uint256 => MerkleRoot) private chainRoots;\n\n    constructor() Ownable() {}\n\n    function getLatestRoot(uint256 _chainId)\n        public\n        view\n        returns (MerkleRoot memory)\n    {\n        return chainRoots[_chainId];\n    }\n\n    function setLatestRoot(\n        uint256 _chainId,\n        uint256 _nonce,\n        string calldata _root\n    ) external onlyOwner {\n        //checks the nonce is not downgraded\n        MerkleRoot memory lastDeposit = chainRoots[_chainId];\n        require(\n            lastDeposit.latestDepositNonce < _nonce,\n            \"Nonce downgrade is not permitted!\"\n        );\n        chainRoots[_chainId] = MerkleRoot(_nonce, _root);\n    }\n}\n",
  "sourcePath": "/root/bc_connector/crosscoin/contracts/RootBoard.sol",
  "compiler": {
    "name": "solc",
    "version": "0.8.11+commit.d7f03943.Emscripten.clang"
  },
  "schemaVersion": "3.4.7",
  "updatedAt": "2022-06-08T10:37:16.595Z",
  "networkType": "ethereum",
  "devdoc": {
    "kind": "dev",
    "methods": {
      "owner()": {
        "details": "Returns the address of the current owner."
      },
      "renounceOwnership()": {
        "details": "Leaves the contract without owner. It will not be possible to call `onlyOwner` functions anymore. Can only be called by the current owner. NOTE: Renouncing ownership will leave the contract without an owner, thereby removing any functionality that is only available to the owner."
      },
      "transferOwnership(address)": {
        "details": "Transfers ownership of the contract to a new account (`newOwner`). Can only be called by the current owner."
      }
    },
    "version": 1
  },
  "userdoc": {
    "kind": "user",
    "methods": {},
    "version": 1
  }
}