{
  "contractName": "SafeCaster",
  "abi": [
    {
      "inputs": [
        {
          "internalType": "uint256",
          "name": "input",
          "type": "uint256"
        }
      ],
      "name": "toUint200",
      "outputs": [
        {
          "internalType": "uint200",
          "name": "",
          "type": "uint200"
        }
      ],
      "stateMutability": "pure",
      "type": "function"
    }
  ],
  "bytecode": "0x608060405234801561001057600080fd5b50610242806100206000396000f3fe608060405234801561001057600080fd5b506004361061002b5760003560e01c8063720ad67414610030575b600080fd5b61004a60048036038101906100459190610113565b610060565b6040516100579190610174565b60405180910390f35b600061006b82610072565b9050919050565b600079010000000000000000000000000000000000000000000000000082106100d0576040517f08c379a00000000000000000000000000000000000000000000000000000000081526004016100c7906101ec565b60405180910390fd5b819050919050565b600080fd5b6000819050919050565b6100f0816100dd565b81146100fb57600080fd5b50565b60008135905061010d816100e7565b92915050565b600060208284031215610129576101286100d8565b5b6000610137848285016100fe565b91505092915050565b600078ffffffffffffffffffffffffffffffffffffffffffffffffff82169050919050565b61016e81610140565b82525050565b60006020820190506101896000830184610165565b92915050565b600082825260208201905092915050565b7f76616c756520646f6573206e6f742066697420696e2032303020626974730000600082015250565b60006101d6601e8361018f565b91506101e1826101a0565b602082019050919050565b60006020820190508181036000830152610205816101c9565b905091905056fea26469706673582212207c4bc2ce8f37d3006eb42f261d42fa3eaadc15daf65a9bc8bf33ab4acd918f7e64736f6c634300080b0033",
  "immutableReferences": {},
  "source": "// SPDX-License-Identifier: LGPL-3.0-only\npragma solidity 0.8.11;\n\nimport \"./utils/SafeCast.sol\";\nimport \"./handlers/HandlerHelpers.sol\";\n\ncontract NoArgument {\n    event NoArgumentCalled();\n\n    function noArgument() external {\n        emit NoArgumentCalled();\n    }\n}\n\ncontract OneArgument {\n    event OneArgumentCalled(uint256 indexed argumentOne);\n\n    function oneArgument(uint256 argumentOne) external {\n        emit OneArgumentCalled(argumentOne);\n    }\n}\n\ncontract TwoArguments {\n    event TwoArgumentsCalled(address[] argumentOne, bytes4 argumentTwo);\n\n    function twoArguments(address[] calldata argumentOne, bytes4 argumentTwo) external {\n        emit TwoArgumentsCalled(argumentOne, argumentTwo);\n    }\n}\n\ncontract ThreeArguments {\n    event ThreeArgumentsCalled(string argumentOne, int8 argumentTwo, bool argumentThree);\n\n    function threeArguments(string calldata argumentOne, int8 argumentTwo, bool argumentThree) external {\n        emit ThreeArgumentsCalled(argumentOne, argumentTwo, argumentThree);\n    }\n}\n\ncontract WithDepositer {\n    event WithDepositerCalled(address argumentOne, uint256 argumentTwo);\n\n    function withDepositer(address argumentOne, uint256 argumentTwo) external {\n        emit WithDepositerCalled(argumentOne, argumentTwo);\n    }\n}\n\ncontract SafeCaster {\n    using SafeCast for *;\n\n    function toUint200(uint input) external pure returns(uint200) {\n        return input.toUint200();\n    }\n}\n\ncontract ReturnData {\n    function returnData(string memory argument) external pure returns(bytes32 response) {\n        assembly {\n            response := mload(add(argument, 32))\n        }\n    }\n}\n\ncontract HandlerRevert is HandlerHelpers {\n    uint private _totalAmount;\n\n    constructor(\n        address          bridgeAddress\n    ) public HandlerHelpers(bridgeAddress) {\n    }\n\n    function executeProposal(bytes32, bytes calldata) external view {\n        if (_totalAmount == 0) {\n            revert('Something bad happened');\n        }\n        return;\n    }\n\n    function virtualIncreaseBalance(uint amount) external {\n        _totalAmount = amount;\n    }\n}\n\ncontract TestForwarder {\n    function execute(bytes memory data, address to, address sender) external {\n        bytes memory callData = abi.encodePacked(data, sender);\n        (bool success, ) = to.call(callData);\n        require(success, \"Relay call failed\");\n    }\n}\n\ncontract TestTarget {\n    uint public calls = 0;\n    uint public gasLeft;\n    bytes public data;\n    bool public burnAllGas;\n    fallback() external payable {\n        gasLeft = gasleft();\n        calls++;\n        data = msg.data;\n        if (burnAllGas) {\n            assert(false);\n        }\n    }\n\n    function setBurnAllGas() public {\n        burnAllGas = true;\n    }\n}\n",
  "sourcePath": "/root/bc_connector/crosscoin/contracts/chainbridge-solidity/contracts/TestContracts.sol",
  "compiler": {
    "name": "solc",
    "version": "0.8.11+commit.d7f03943.Emscripten.clang"
  },
  "schemaVersion": "3.4.7",
  "updatedAt": "2022-06-02T13:10:47.485Z",
  "devdoc": {
    "kind": "dev",
    "methods": {},
    "version": 1
  },
  "userdoc": {
    "kind": "user",
    "methods": {},
    "version": 1
  }
}