{
  "contractName": "TestForwarder",
  "abi": [
    {
      "inputs": [
        {
          "internalType": "bytes",
          "name": "data",
          "type": "bytes"
        },
        {
          "internalType": "address",
          "name": "to",
          "type": "address"
        },
        {
          "internalType": "address",
          "name": "sender",
          "type": "address"
        }
      ],
      "name": "execute",
      "outputs": [],
      "stateMutability": "nonpayable",
      "type": "function"
    }
  ],
  "bytecode": "0x608060405234801561001057600080fd5b50610501806100206000396000f3fe608060405234801561001057600080fd5b506004361061002b5760003560e01c806398c0fc3414610030575b600080fd5b61004a600480360381019061004591906102de565b61004c565b005b6000838260405160200161006192919061040f565b604051602081830303815290604052905060008373ffffffffffffffffffffffffffffffffffffffff16826040516100999190610437565b6000604051808303816000865af19150503d80600081146100d6576040519150601f19603f3d011682016040523d82523d6000602084013e6100db565b606091505b505090508061011f576040517f08c379a0000000000000000000000000000000000000000000000000000000008152600401610116906104ab565b60405180910390fd5b5050505050565b6000604051905090565b600080fd5b600080fd5b600080fd5b600080fd5b6000601f19601f8301169050919050565b7f4e487b7100000000000000000000000000000000000000000000000000000000600052604160045260246000fd5b61018d82610144565b810181811067ffffffffffffffff821117156101ac576101ab610155565b5b80604052505050565b60006101bf610126565b90506101cb8282610184565b919050565b600067ffffffffffffffff8211156101eb576101ea610155565b5b6101f482610144565b9050602081019050919050565b82818337600083830152505050565b600061022361021e846101d0565b6101b5565b90508281526020810184848401111561023f5761023e61013f565b5b61024a848285610201565b509392505050565b600082601f8301126102675761026661013a565b5b8135610277848260208601610210565b91505092915050565b600073ffffffffffffffffffffffffffffffffffffffff82169050919050565b60006102ab82610280565b9050919050565b6102bb816102a0565b81146102c657600080fd5b50565b6000813590506102d8816102b2565b92915050565b6000806000606084860312156102f7576102f6610130565b5b600084013567ffffffffffffffff81111561031557610314610135565b5b61032186828701610252565b9350506020610332868287016102c9565b9250506040610343868287016102c9565b9150509250925092565b600081519050919050565b600081905092915050565b60005b83811015610381578082015181840152602081019050610366565b83811115610390576000848401525b50505050565b60006103a18261034d565b6103ab8185610358565b93506103bb818560208601610363565b80840191505092915050565b60008160601b9050919050565b60006103df826103c7565b9050919050565b60006103f1826103d4565b9050919050565b610409610404826102a0565b6103e6565b82525050565b600061041b8285610396565b915061042782846103f8565b6014820191508190509392505050565b60006104438284610396565b915081905092915050565b600082825260208201905092915050565b7f52656c61792063616c6c206661696c6564000000000000000000000000000000600082015250565b600061049560118361044e565b91506104a08261045f565b602082019050919050565b600060208201905081810360008301526104c481610488565b905091905056fea26469706673582212206b5b3b7542d0cc237d5aa335277c2c5736e4cc8cb1d6254ef5ab823bbd539eec64736f6c634300080b0033",
  "immutableReferences": {},
  "source": "// SPDX-License-Identifier: LGPL-3.0-only\npragma solidity 0.8.11;\n\nimport \"./utils/SafeCast.sol\";\nimport \"./handlers/HandlerHelpers.sol\";\n\ncontract NoArgument {\n    event NoArgumentCalled();\n\n    function noArgument() external {\n        emit NoArgumentCalled();\n    }\n}\n\ncontract OneArgument {\n    event OneArgumentCalled(uint256 indexed argumentOne);\n\n    function oneArgument(uint256 argumentOne) external {\n        emit OneArgumentCalled(argumentOne);\n    }\n}\n\ncontract TwoArguments {\n    event TwoArgumentsCalled(address[] argumentOne, bytes4 argumentTwo);\n\n    function twoArguments(address[] calldata argumentOne, bytes4 argumentTwo) external {\n        emit TwoArgumentsCalled(argumentOne, argumentTwo);\n    }\n}\n\ncontract ThreeArguments {\n    event ThreeArgumentsCalled(string argumentOne, int8 argumentTwo, bool argumentThree);\n\n    function threeArguments(string calldata argumentOne, int8 argumentTwo, bool argumentThree) external {\n        emit ThreeArgumentsCalled(argumentOne, argumentTwo, argumentThree);\n    }\n}\n\ncontract WithDepositer {\n    event WithDepositerCalled(address argumentOne, uint256 argumentTwo);\n\n    function withDepositer(address argumentOne, uint256 argumentTwo) external {\n        emit WithDepositerCalled(argumentOne, argumentTwo);\n    }\n}\n\ncontract SafeCaster {\n    using SafeCast for *;\n\n    function toUint200(uint input) external pure returns(uint200) {\n        return input.toUint200();\n    }\n}\n\ncontract ReturnData {\n    function returnData(string memory argument) external pure returns(bytes32 response) {\n        assembly {\n            response := mload(add(argument, 32))\n        }\n    }\n}\n\ncontract HandlerRevert is HandlerHelpers {\n    uint private _totalAmount;\n\n    constructor(\n        address          bridgeAddress\n    ) public HandlerHelpers(bridgeAddress) {\n    }\n\n    function executeProposal(bytes32, bytes calldata) external view {\n        if (_totalAmount == 0) {\n            revert('Something bad happened');\n        }\n        return;\n    }\n\n    function virtualIncreaseBalance(uint amount) external {\n        _totalAmount = amount;\n    }\n}\n\ncontract TestForwarder {\n    function execute(bytes memory data, address to, address sender) external {\n        bytes memory callData = abi.encodePacked(data, sender);\n        (bool success, ) = to.call(callData);\n        require(success, \"Relay call failed\");\n    }\n}\n\ncontract TestTarget {\n    uint public calls = 0;\n    uint public gasLeft;\n    bytes public data;\n    bool public burnAllGas;\n    fallback() external payable {\n        gasLeft = gasleft();\n        calls++;\n        data = msg.data;\n        if (burnAllGas) {\n            assert(false);\n        }\n    }\n\n    function setBurnAllGas() public {\n        burnAllGas = true;\n    }\n}\n",
  "sourcePath": "/root/bc_connector/crosscoin/contracts/chainbridge-solidity/contracts/TestContracts.sol",
  "compiler": {
    "name": "solc",
    "version": "0.8.11+commit.d7f03943.Emscripten.clang"
  },
  "schemaVersion": "3.4.7",
  "updatedAt": "2022-06-02T13:10:47.490Z",
  "devdoc": {
    "kind": "dev",
    "methods": {},
    "version": 1
  },
  "userdoc": {
    "kind": "user",
    "methods": {},
    "version": 1
  }
}